:10000000001C0020E10200000000000000000000D1
:1000100000000000000000000000000000000000E0
:1000200000000000000000000000000000000000D0
:10003000000000000000000000000000B50100000A
:10004000E1010000FD010000B9010000CD01000048
:1000500000000000002934D00123002210B488429F
:100060002CD301242407A14204D2814202D20901E7
:100070001B01F8E7E400A14204D2814202D2490008
:100080005B00F8E7884201D3401A1A434C08A042AB
:1000900002D3001B5C0822438C08A04202D3001B41
:1000A0009C082243CC08A04202D3001BDC08224358
:1000B000002803D01B0901D00909E3E7101C10BC7C
:1000C0007047002801D00020C04307B4024802A1B5
:1000D0004018029003BDC046D90000000029F0D0AE
:1000E00003B5FFF7B9FF0EBC4243891A1847C04653
:1000F000002941D010B4041C4C40A4460123002226
:10010000002900D54942002800D5404288422CD31E
:1001100001242407A14204D2814202D209011B0119
:10012000F8E7E400A14204D2814202D249005B0018
:10013000F8E7884201D3401A1A434C08A04202D380
:10014000001B5C0822438C08A04202D3001B9C08C1
:100150002243CC08A04202D3001BDC082243002823
:1001600003D01B0901D00909E3E7101C6446002CE9
:1001700000D5404210BC7047002806D003DB0020A9
:10018000C043400801E08020000607B4024802A1F5
:100190004018029003BDC046190000000029EBD0B2
:1001A00003B5FFF7A7FF0EBC4243891A1847C046A4
:1001B0007047C046FEE70000034B01225A70A0239F
:1001C0000022DB051A707047540C0020034B0122FB
:1001D0009A70A0230022DB059A707047540C00200F
:1001E00008B5044B01221A70034B0022DA7700F0A5
:1001F000E7FE08BD540C00200800005038B58025EB
:10020000ED052B79DBB2002B0BD12D490B604B6038
:100210002A89081C92B28A600C30103106F078FDF1
:1002200042E0012B0CD1264BD96800293CD05A68FA
:100230001869824238DA501C58602B7A8B5433E0AC
:10024000022B2CD11E4CE368002B26D0226821699A
:100250008A420ADA9B5C1BBAEB60A3689A1890B2D8
:1002600006F094FD2368013315E0A368201C211CCF
:10027000D2180C30103106F04BFDE368002B0CD087
:10028000A16822688818A0601B7880B21BBAEB6056
:1002900006F07CFD0123236006E0EB6004E0032B05
:1002A00002D1074B00225A60C0468023DB050122A1
:1002B0001A70C04602221A7000221A7038BDC04659
:1002C0000803002080230222DB05FF321A6004218C
:1002D000024AFF31118000221A7070470600004068
:1002E000F8B5A023DB059B684C4A1F21DBB21160E7
:1002F000D12B0BD0D02B01D80133DBB2A022D205F9
:100300009168FF20814319439160F1E70023444A3B
:1003100044499A188A4204D24349C95804331160A7
:10032000F5E7424B424A191D043B934203D2002297
:100330001A600B1CF6E7EFF308823E4B191D043BD5
:100340009A4203D93C4818600B1CF7E7FFF7BAFF45
:100350003A493B48053904F089F93A4C3A4D0123B2
:100360005B4223716371A371E3712B1C3C331A78D8
:100370002B1C3D331B7880B21B021343984245D19E
:1003800006F0AEFC314B32491888324A88420BD015
:100390006E7D18882B7D36023343984204D1138832
:1003A0009BB223711B0A637113888B421BD0EE7DB5
:1003B000A87D138836023043834214D100200423E1
:1003C000013BDBB2FF2B07D0234EEF18F65C3F79E1
:1003D000B742F5D10120F3E7002804D013889BB27F
:1003E000A3711B0AE371E278A37812021A43184B37
:1003F0008A420BD06279217912020A439A4205D0CF
:10040000E279A17912020A439A4204D1134B0222E3
:100410001A6062B6FEE701F01FF9F7E72800005006
:100420000000002008030020089800000C030020B2
:10043000500C00209C0C0020CDCDCDCD00C0000084
:1004400000000000580C0020C0BF0000FEB30000F8
:10045000FFFF0000BEBF000000B4000000E100E0AC
:10046000014B18607047C046600C0020014B1868B3
:100470007047C046600C0020014B18607047C046B2
:10048000640C0020014B18687047C046640C0020C3
:10049000014B18687047C0460000002038B5134C67
:1004A000256804F011FD6862256804F011FDA8625A
:1004B000256804F011FD6861256804F011FDE8610C
:1004C000256804F059FDA861256804F069FD084B12
:1004D00008491B68096828621878097C226841432A
:1004E00002331161E832136038BDC04600000020BD
:1004F000640C0020600C002082B0F0B589B0109C24
:10050000151C0F930693029407900E1C119C04F087
:100510002BF847793A4B04978279964206D11B68AB
:100520000021DA69AB00D05A03910BE01A68354B11
:1005300052691968731C896803964B43EB180133A1
:100540009B00D05A0499714349194A00A418238882
:10055000069E0193019F7318874203D8C61B029F12
:10056000BE521CE0029EB61805960027F65F0136C3
:1005700010D01F787EB2B446013601DA013703E0AD
:100580006646002E06DD013F1F7002235B4223807A
:1005900001202FE0069F79180F78002F01D12080CD
:1005A0000CE07FB27C1C05D1019E059F301A38807B
:1005B000002002E0012F01D1FF2008701978039C70
:1005C000049E079F48B274437D19002805DC029EF3
:1005D000B25E013208D0002906D12A5700203E2AF7
:1005E00008DC0131197005E02A57002A01DD0139C4
:1005F0001970002009B0F0BC08BC02B01847C04612
:1006000000000020F4020020F0B58BB000AF03F032
:10061000ABFF06F007FC584C6E4623689D68DB680C
:100620007D625A00111C0E319B00C9080E33C900AF
:10063000DB08DB00761AB546F61A6D4600216846DF
:10064000B546BD61FE6008F06BFE002004F07AFD47
:100650007E6A4A4A20681568B20052420368BA604E
:10066000321C5A439100F961B107711A7960910700
:10067000891A3A62013B32D344683E6A3219261C19
:100680005E437618B400FE68920034197C61FC6900
:10069000A2420BD07C690426A418A4466C69764259
:1006A000A458B44466463460043AF0E7BE683A6A37
:1006B000A419FC617C6A7E68121B3A628919D9E729
:1006C0002F49F8697E23D2B25B4208704A708A7063
:1006D000CB7001205223BA690B7106F0A7FA06F01D
:1006E00083F90B2845D1002004F02CFD224B19681A
:1006F000224B08681C687B6AF86143439A003A629F
:100700009A07D21A3A617B61844666464A68013E7E
:10071000B446D5D3654655437E691A48B3181218B6
:100720005219BE6938695200B2182D18FE68AD0022
:1007300075199B003D603E6AB3420ED03D68E818D3
:10074000656904380668E858301A0025565F864205
:1007500000DA1080043B023AEDE7BD6876193E628C
:100760007D6A7E69761B7E617D683E6976193E6191
:10077000CBE7BD460BB0F0BDF40200200000002026
:10078000B4030020FFFFFF7F08B502F0A3FA021EAA
:1007900005D10749A9230B7106F048FAFEE7054B7E
:1007A0001B6803CB03F0F2FFFFF778FE08BDC046DD
:1007B000BB030020F4020020104B00221B6810B580
:1007C000191C88310A601C1C01219C344942181CE8
:1007D0002160A2600830083CE18222606283C26727
:1007E00090300160826008380183191CAC310260CE
:1007F00020390A8404330A60DA6710BD0000002043
:10080000F0B585B000AFB960386004F027FE830012
:100810000A33DB08DB00041C6846C01A854604F076
:1008200023FE63000833DB08DB006E46F11A8D46B9
:100830006D46281C7D6004F031FE4D4B1B68191C71
:1008400088310868632807DD0120002240420A60E1
:100850004861CA61191DCA67191C883108681A1CC9
:10086000013008320860D16F63290CDD012040425D
:100870008446181C002198306546D1678160056068
:10088000191D0120C867D16F0131D1671A1C94323C
:10089000106801280BDD012040428446181C00210D
:1008A000AA30654611601E38C58341840160116815
:1008B00001311160191C90310868012809DD0022FE
:1008C00001200A608A8340421A1C08838C3201216D
:1008D00011601A1C90321168013111600022101C45
:1008E000013C08D3A10071587D6840186100695A25
:1008F000521892B2F4E7191CAA310024A4251E193B
:10090000AC46B444FE6066463668864201D265460F
:100910002860FD689C352E68864200D928608D8845
:10092000954200D28A800D88954200D90A80043C05
:10093000251C02390835E1D11A1DD26F3E6892009C
:100940009A18111CA031983209681268BD688A1A79
:1009500032801A1C8C321268BD4652009B181A1C39
:10096000AC32A83312881B88D31A2B8005B0F0BD97
:1009700000000020F0B5234F1D1C3B68161CDA68F0
:1009800085B0019192000021041C301C08F0C8FCC5
:100990003B68281C1A690021920008F0C1FC019FE5
:1009A000002F0CD0201C04F0CDFB174B301C1B6813
:1009B000291C5A69DB6906F03FFB013FF0E7002C78
:1009C0000FD1114B1B685F699B69029304F06AFAAF
:1009D000039004F071FA0299031C039A381C06F084
:1009E0003FFA301C291C019A06F09CFB002C06D112
:1009F000054B201C1D6804F0CBFCEC35286005B0CD
:100A0000F0BDC046F402002000000020F0B5274DE4
:100A100087B02B680591DA6900219200039008F0F5
:100A20007FFC06F00BFA04904478002C25D00420BB
:100A300004F088FB286842690292029B013B019303
:100A400019D383690199039E5943C9188900711804
:100A50000439013B0DD38668029F7E439E19059F92
:100A60000136B600F2590E689446B44467460F60EA
:100A7000EEE7019AE0E7013CD7E72F687D69013D89
:100A800011D3BC69039A261C6E433619B600961919
:100A9000043E013CF3D3049B30685978FFF7DAFA3F
:100AA00000043060F4E707B0F0BDC046F402002057
:100AB00030B5214D85B02B681A1CCC321178583ACC
:100AC000002904D1191CB0310978002901D0002176
:100AD00011701478002C1DD0996F002001915A6B71
:100AE00016490292DB6A01AA039303234B707C230D
:100AF0005B42CB7010230B7106F098F82B68002432
:100B00009A6FD96F8A4202DC01329A6710E09C67C3
:100B100001240DE05A6BDB6A094901920293092016
:100B2000642301AA0B71039406F080F82B689C677C
:100B3000201C05B030BDC04600000020040100208C
:100B40000B010020F0B58FB004AF7960BA617B6112
:100B5000B86006F073F9924B69461B6838611C68EF
:100B6000F96104346400221C0832D208D200881AC9
:100B70005A68854604325200131C0833DB08DB0038
:100B8000C01A04AE854604AD281C002108F0C8FB3D
:100B9000221C301C002108F0C3FB824CB86823687B
:100BA0005A69191C9B690090301D0190281D029004
:100BB0002C31B86902F0C2FF3A69F8602368127BF1
:100BC0005869191C01960295009268312C33BA6954
:100BD00003F024F9FB6978689D462368DA69191CDB
:100BE0001B6A00902C31786902F01EFFFE680643F4
:100BF000F6B23E6106F02EF9051C06F033FC2D79A5
:100C0000012D0AD19C300368002B06D105F00AFFA4
:100C1000012802D0281C03F0D3FE2568281C291CBB
:100C200068312C3003F0D4F85F4A23681268E86614
:100C30000C20115E986D88420EDC0E20115ED86D7E
:100C4000884209DB1020115E186E884204DC1221F4
:100C5000525E5B6E934221DA00233B842022012303
:100C6000D35505F0EDFE002818D105F0C5FE00288B
:100C700014D04C4B1A68FF239168FE2901DC93685D
:100C8000DBB22120C355381C0221203005F06CFF57
:100C9000464804F0A3FC03F095FDE2E7404E4449CA
:100CA000336802241A6858680A709A68CB784870CA
:100CB0007F20834380256D4223432B43CB705323F6
:100CC0008A700B710132BB6952009A18012005F03D
:100CD000ADFF336837491B697F204B70CB787A6949
:100CE000834323432B43CB7001206D230B7105F00D
:100CF0009DFF336820211A682120CA555968C155C3
:100D00009A682220C255591DC97F2320C1551B69ED
:100D100025202421CB55C35D7F218B4323431D43D5
:100D20000132C319B869520082181D70391C009233
:100D3000002201202031131C05F03EFF01F0A8FF26
:100D4000FFF7B6FE002827D1164C2368586904F037
:100D50009FFA2368D86E04F0FBF903F0FFFF3969AE
:100D600000290DD12368B9691A1C2C321B68B86898
:100D700006F0DEF8236878681A68796906F02CF9BD
:100D8000022003F04BFE786906F004FC2068703006
:100D900007F0F8FA002000E0201CBD460BB0F0BDC3
:100DA000F402002000000020640C00201027000046
:100DB000B403002004010020F0B59400231C0A3382
:100DC00085B0DB08DB006946C91A02AF8D4602AA6E
:100DD000061C7A60101C0021221C08F0A1FA231CBA
:100DE0000833DB08DB006946C91A8D4602AD281CB2
:100DF000221C002108F094FA0C4C301C2368996ADC
:100E00005A6A683300910193291C7B6807F0DCFA69
:100E1000301C01F091FF2368301C5A6A9B6A291C20
:100E200000937B6806F04AFDBD46F7BD0000002038
:100E300070B50C1C151C1E1C06F064FF144B201C06
:100E40001B68596A9A6A07F063F8201C07F06EFC69
:100E5000201C07F059F9321C201C291C07F010FA3D
:100E6000201C291C02F048FD05F0F4FF041C06F0CC
:100E7000F9FA8E300378002B09D12379002B06D0A4
:100E800005F0D0FD012802D0012003F099FD70BDCE
:100E90000000002038B508F029F9051C012008F0F1
:100EA00039F9041C281C03F065FB201C03F06EFBC1
:100EB00038BD38B508F0CEF908F020F9051C00203F
:100EC00008F028F9041C281C03F054FB002004F04F
:100ED00089F9201C03F05AFB03F054FD38BD10B50E
:100EE000A4B08C22041C002101A808F019FA01A862
:100EF000211C07F001FA07F029FA01A8211C01F0D2
:100F000081FF24B010BD000038B506F0ABFA294CC3
:100F10008E30236801781A79002902D151B2481C19
:100F200004D10025DD60AA420DD116E0D8681A6907
:100F3000904202DAD8680130D86001290DD0DB6810
:100F400093420ADB01251C4900202B1C0E33021C96
:100F50000B7105F06BFE23681D7123681A79002A56
:100F600003D1164A1268127804E0012A03D1134A09
:100F7000126852781A60186804F00CFB2368051C8C
:100F8000EC33186804F02AFB2D1A002D0BDD2368C2
:100F9000186804F0FFFA2368051CEC33186804F0A5
:100FA0001DFB281A00E0012003F00AFD03F02AFDD2
:100FB00038BDC04600000020BB030020640C0020A8
:100FC00008B505F02FFD002802D1022004F092F8A8
:100FD00008BD0000F0B589B0061C05F03BFF059088
:100FE00006F040FA031C98331A68A14B002A08D176
:100FF000A0300268511E8A41D2B20492002A06D063
:1010000001E0012004901A680021B83205E01A6856
:10101000B8321168FE2901DC013111601B68002122
:101020001A1CB43211700499002904D0914909683E
:10103000097D00295AD0181CB3300178C9B20029A3
:1010400008D003785BB2022B00D001231370002379
:10105000037070E11D1CB0352C78002C09D00124E0
:1010600014701A1CB132BC330170297011701960F0
:1010700062E10498002839D1191CBC310C68002C9D
:1010800009DD013C012C01D00C602FE0049B0B60BA
:101090000323137050E11A1CE83212681188764A53
:1010A000914223D01A1CC8321188744A126852889F
:1010B0008A421BD86F4C2068427C181CB8300068EC
:1010C000904213DB07AA1180CA331B886C495380F6
:1010D00002234B70CB70049815230B7105F0A6FD0D
:1010E000634B22681B68927CBC331A60614C276892
:1010F000F87C002800D01EE104995D4D002900D045
:1011000082E02C68231CE7331B78002B56D03B1C55
:101110002C331B78002B51D0231C0791DC331B6828
:101120000393231CC83303981A8843009A533B1C2B
:101130002D33197804984B00F618031C994206D0F9
:101140005A00B21A023A128801338018F6E7FEF705
:10115000CFFF0790FA8B231CE033904202DA1A6823
:10116000013200E000221A603A1C2E3212781B680D
:10117000934215DD42497C235B42CB7007AA1623BC
:10118000012400200B714C7005F050FD2B680020ED
:101190001A1CDC32E0331060186005F089FDCBE0EA
:1011A0003B1C2D331A780399231C013ADC339142FE
:1011B00002DA0A1C013200E000221A60C43401374E
:1011C000FB7F22689A4217DB2E4900201223021C63
:1011D0000B7105F02BFD2A682648131CC0331968D3
:1011E0000068013119600230C07F814204DB0021B8
:1011F0001960B432022313702A680023111CB23123
:10120000C4320B70136047E02B681A1CBC321060AC
:101210002A321278002A3FD0191CC831098807AA3F
:101220001180CA331B881649538002234B70CB7040
:1012300019230B7105F0FAFC2B682268191CC831C0
:101240000C88D08B163984421ED2181CCA300488F0
:10125000508D844218D2097800291DD1C43301323F
:101260001968D27F914217DA0131196014E0C04643
:1012700000000020600C0020FFFF0000640C002034
:1012800004010020BB03002001220A70191C002267
:10129000C431C0330A601A60294D2B681A1CE6322B
:1012A0001278002A47D105980279002A41D01A1CE9
:1012B000B0321478002C3ED1224ED86A3768798B30
:1012C000BA8BFB8A3F8B009705F07CFD36682B6854
:1012D000718CB28C071CD86AF38C368D009605F0A1
:1012E00071FD2B681A1CC8321188CA33B94202DA60
:1012F0001A88824210DB07AA11801B88124953808A
:1013000002234B70CB70002017230B7105F08EFC6D
:101310002B680122B1331A702B681A1CB132127873
:10132000002A08D00499002905D0B03301221A7090
:1013300002E0B1331A700124201C09B0F0BDC04690
:1013400000000020600C002004010020F0B591B0E6
:1013500002AF03F009F9061C03F01EF9386103F02F
:101360000FF9B04BB8601C686846E36800211A1C8E
:101370000E32D208D200801A226985460E32D20877
:10138000D200801A02AD8546FD6102AD7D627279A0
:101390009A18131C0E33DB08DB00C01A53000E33FF
:1013A000DB08DB008546C01A02AD8546C01ABD6168
:1013B00002AD854602A87861B86907F0B1FFE1681F
:1013C0007279281C521801215200494207F0A8FFE7
:1013D000E36872799449D2185200786907F0A0FF47
:1013E000E2683969F8693D6307F058FF3969226995
:1013F000BA31FF31786A4024002507F04FFFFC60C6
:101400003D62796AF86904F087FF032003F09AFED1
:10141000844D86492B68864C5A6818684A709A68C9
:101420000423CB7051230B7123688A705B690132EE
:10143000920008709A18022005F0F8FB2B687D498D
:101440001B6904254B705A230B7123680220DA694B
:10145000CD7005F0EBFBB479013C631C2CD07579A1
:10146000013D6A1CF8D0737978696343EB185B001F
:101470001A5A714B9A42F3D0B96930227960F962F5
:101480007863D219694609CA09C1211C7B68F869C9
:101490002A1CFFF731F8002803D03B6A01339BB2C6
:1014A0003B627379BA6963433869EB18D15CC25CFB
:1014B0008A18F969CA54D3E7F479013C601C2FD02B
:1014C000B17973797D694B43E3185B005A5B5A4BE2
:1014D0009A42F2D0BD6930207D60FD62C0197D69FD
:1014E00084467D636846624628CA28C0221C7B6801
:1014F000786AFFF701F8002803D03B6A01339BB2FA
:101500003B627379B279BD695A432B193D699A5C84
:101510002919BA31FF310B787D6AD3182B55CCE7E6
:10152000404B3C6A1B68DA681B69D3189C4206DA98
:10153000FB68013BDBB2FB60002B00D061E73B4C5A
:10154000B3797F252370737980206370A370E3786B
:101550004042AB4301252B430343E3700820D223D1
:10156000211CFA69237105F061FB3249F3797F226E
:101570004B70CB78082093431D4380235B421D436F
:101580007A6AD323CD700B7105F050FBB379251C1B
:10159000013B0FD37279013AFAD37179FC6959434F
:1015A00089186118BC68E01864300C78007820183D
:1015B0000870F0E7F379013B08D3BC68E2187C6A55
:1015C0007C321178E25C8A18E254F4E7F869796AAF
:1015D00004F0A2FEB3797F202B70737901216B7028
:1015E000AB70EB78802483430B4364422343EB705E
:1015F000291C1D23FA6908202B7105F017FB0D49E2
:10160000F3797F224B70CB78012593431D432C4304
:101610001E2308207A6ACC700B7105F007FBBD46CB
:101620000FB0F0BDF4020020FFFF0000B403002063
:101630000000002004010020FEFF000008B502F0B9
:101640009FFF58300378002B02D1FFF77FFE01E0A7
:1016500003F06EFF08BD0000F0B591B002AF05F0D9
:10166000C3F9041C07F08CFD07F0BAFD01F00CFB78
:10167000FFF78AF805F0B8F9061E052E00D1BDE087
:10168000052813D8022800D17EE005D8002823D0F1
:1016900001286CD0341CEDE7032800D1A0E0042819
:1016A000F8D105F0F5F901F011F9A2E0092800D10F
:1016B000C1E007D8072800D1A9E00828EAD105F041
:1016C000E7F9AEE00B2800D18BE100D2C5E00C2891
:1016D000E0D105F0DDF98DE105F0A4F9002812D084
:1016E0000128D7D1C64D02222B681969186AB96141
:1016F000C449F8611A621E61301C3F23321C0B7111
:1017000005F094FA22E00125012D02D0022D0AD025
:101710000FE0002000F07AF903F040FBC0B205F0C2
:10172000D3FAFFF78BFF0020211C021C00F01EFEE5
:10173000051C05F077F90028ACD105F055F9002813
:10174000E2D0A7E705F050F900280AD1FFF776FFAD
:10175000211C0122002000F0DBFE05F063F90128C6
:10176000F0D02B68FC691C62BC691C6192E705F033
:101770008FF905F039F90128FBD007F0DFFCFFF7FE
:1017800003F805F021F885E7FFF784FB05F0F2F890
:10179000002003F027FD03F0EFFCFEF77FFEFFF7CC
:1017A0004DFF05F075F905F07DF904280CD004D83B
:1017B00000280ED001F08CF80BE0052807D0062891
:1017C00007D103F0DFF804E004F03CFE01E003F091
:1017D000C7F805F009F90228E5D0FFF76AFB59E7D9
:1017E00005F056F9FFF72AFF05F0FEF80328FBD0B5
:1017F00050E705F0F9F80428FBD04BE705F048F96D
:1018000003F0DAFD05F0F0F80528FBD042E705F01B
:101810003FF9012000F0FAF805F0E6F80728FBD0C0
:1018200038E7002003F08EFC03F0EAFC05F0DCF85A
:101830000828F6D02EE705F02BF9002002F098FFDB
:10184000002003F07FFC03F0DBFC05F0CDF8092855
:10185000F6D0012002F08CFF1CE76C4600203C61B2
:1018600007F0F2FC07F0BCFC002003F0BBFC644C6A
:10187000694623685D6818681B694543EB180733A0
:10188000DB08DB00C91A8D4602AAFA6102F06CFE81
:1018900002F082FE02F074FEFB695D19181C291C1F
:1018A0007D6103F013FE23686C465A681B69D318E8
:1018B0009B000A33DB08DB00E41AA54602ACBC61DE
:1018C00005F0E6F84E4C2020236819681A79C155B6
:1018D00021202221C255CA555A1DD27F1B692320BF
:1018E0002421C255CB5525220123D355FB69002263
:1018F000391C00930420131C203105F05DF979692F
:10190000F86904F009FD002003F01CFC23683E4840
:101910005C6805687C60002139603A687C68A24296
:1019200008DA3A68A96992008958BC69A1503968F7
:101930000131F1E7A200BC691969A4180568396092
:10194000A44600223868824206DA296A90000958C3
:10195000644621500132F5E71A682821CA55786893
:101960009A6829242A21E055CA550533DB7F2B24A8
:10197000E35504242D233968DC55234B01321B68C1
:1019800092005B692C209A18C1550092391C0022E4
:10199000131C0220283105F00FF901233020C35514
:1019A000174B31211B6832201A79CA55C2555A1D6E
:1019B000D27F1B693321CA553422D3553523DC55D8
:1019C000BC690022391C10203031131C009405F032
:1019D000F3F805F009F80A2800D173E73C69A54639
:1019E00058E605F055F8FEF70FFE04F0FDFF0B2852
:1019F000F9D04FE604F0F8FF0C28FBD04AE6C046C9
:101A0000F4020020BB03002000000020F0B5D24CFF
:101A10009BB0236800AF9B6878617B625B000133F9
:101A20003B6503F0AFF92368FF229B68F865D31A82
:101A3000984200DDFB65F86D7C6A041B3C626C46D5
:101A400003F0A6F9FC643C6D684665002B1C083366
:101A5000DB08C24CDB00C01A012363707C235B42AD
:101A60003A1C8546E370211CB12300205C322371AF
:101A70006E4605F0DBF80023211C3C6DA34205DA1D
:101A80003C6A5A001819B0520133F6E7E4B24C70C0
:101A9000FC610024321C0223201CCB700C7105F069
:101AA000C5F82B1CF86C08338546DB08DB0069465B
:101AB000C91A8D46C91A68468D46B963386403F061
:101AC000CDFC3861012003F00BF8211C2A1CB86BF7
:101AD00007F026FC211C2A1C386C07F021FC3B6D0A
:101AE00068469B00BB610A33DB08DB00C01A39691A
:101AF00085466A46C01A89007A6385463863B960AC
:101B0000FC640021BA69786B07F00AFC386BFF218E
:101B1000BA6907F005FC00248F4B7C651B687C6D5F
:101B20005B689C424ADA3C6A0026E4B2201CFC63F3
:101B300003F039F903F006F902F0C8FF3C6B7D6B46
:101B4000386D0136F217C30F86425341DBB2FB6298
:101B5000002B06D1F96B8819C0B203F024F903F009
:101B6000F1F86B46FB60BB686A460A33DB08DB00B2
:101B7000D01A85466A46BA6403F076FC00231A1C24
:101B800039698A4205DAB86C9100415801325B1814
:101B9000F6E72A68934200D92B602068834200D27E
:101BA0002360F968FA6A8D4604340435002A02D1AC
:101BB00002F08CFFC4E77C6D0134ADE70024684D72
:101BC0007C653B6D9C4217DA796B3A6BA300C85871
:101BD000D358C01A854204DD3B6A051CE318BB627A
:101BE0007C64796D814200DA786502F063FF3A6CBB
:101BF0006300D0520134E4E7786D02F05BFF564B8E
:101C00001B685B88984206DA7C69012C03D0FC6D66
:101C1000BC627C6A7C64534D00262C683222231DF2
:101C2000DE670433DA67803364221A60796C01223C
:101C30000220DA603A6B81408A5898605E60101C1E
:101C40007A60F96302F036FF9834FB6B796B2060A1
:101C500058582C6802F02EFF2B68A03420601A1C04
:101C600001217C69AA324942AE3311801E80012CC9
:101C700022D1BA6B331C3C6DA34209DA3C6C59008B
:101C8000615A1088884200D2118001330232F2E793
:101C90007C6C6300BC6B1A5BFC6C131CA24200D210
:101CA000231C2E499BB2FC69FB64002002234C706C
:101CB000CB700871BA6B0CE0786D02F0FBFE27491F
:101CC00080B2FC69F8643A6C0220C8704C700E71E6
:101CD000301C04F0ABFF7C6C6021CC53BC6A6220EA
:101CE000C453786C396C44000C192388F86C642256
:101CF0001A49D3536623D85304234B703A1C02234A
:101D0000CB706032B22300200B7104F08FFF238868
:101D1000144C2268111CE83109680988994225D2BF
:101D200007F098FA051C07F0FDF90378061C002B54
:101D300007D0012004F0BCFF23680236E8331E60A0
:101D400025E0002D23D1084B1B68DB7C002B1ED126
:101D5000012004F0A1FF1AE0640C0020040100201F
:101D6000FFFFFF7F00000020600C0020E7321278A8
:101D7000002A0CD00E4D29684A889A4207D90020C3
:101D800004F096FF23682A68E83302321A607C69FF
:101D9000002C06D1BC6AE0B203F005F8BD461BB0CA
:101DA000F0BD04F021FE072800D1AAE6F2E7C04604
:101DB000640C0020F0B585B000920391029007F00A
:101DC00049FA061C04F04CFE071C04F051FE734D4A
:101DD00001902B681A1CE4321278BA4220D0002FEE
:101DE00008D06F4900203B23021C0B71022604F02F
:101DF0001DFF10E001993C1C00290DD168493C23CE
:101E0000381C3A1C0B7104F011FF2B68E6331E7866
:101E1000731E9E41F6B201242B68E4331F701DE04F
:101E20001A1CE532127801998A4216D0002906D18F
:101E3000E6331E78731E9E41F6B23A2301E0392341
:101E4000022657490020021C0B7104F0EFFE2B689C
:101E5000019AE5331A70012400E0002404F0D4FD57
:101E6000071C04F0F5FD009B032B02D0002F03D1CB
:101E700007E00124002F36D0002004F0CDFD01241E
:101E800031E02B68E4331F88002F2CD10099012901
:101E900002D0022904D00EE0009804F0FDFE0AE012
:101EA000381C04F0F9FE2B68E7331B78002B02D0B6
:101EB000381C04F0FDFE04F0E9FE2B68071CE63335
:101EC0001B7883420FD0002802D01123012601E0A5
:101ED0001223061C32490020021C0B7104F0A6FEDE
:101EE0002B68E6331F7007F0B5F9B04239D007F020
:101EF000B1F907F003F9071C301C07F0FFF8009058
:101F000007F0A8F9301C07F09FF907F069F9254B95
:101F10001B681B7D002B10D0012C0ED0009B3A1C9F
:101F20005B325B330399029805F0C0F8002003F0A0
:101F300009F90024FEF740FC06E02B680020CC33B2
:101F4000187003F04FF90124002004F0B1FE2B6853
:101F500000211A1CE7321170134AE833126802326A
:101F60001A6007F077F907F0DDF80378002B08D046
:101F700004F098FE2B68E7331A78824201D018707B
:101F8000012404F07DFD051C05F06CFA0379AB42D9
:101F900000D00571201C05B0F0BDC0460000002037
:101FA000BB030020600C0020640C0020F7B5434CFC
:101FB000151C236801911A1CB1321278061C002AE4
:101FC00023D01A1CE6321278002A1ED11A1CCC32F9
:101FD0001178002919D1B0331B78002B15D10123BA
:101FE000137002F0CDFA071C02F0BEFA3A1C031C73
:101FF0005B324533301C019905F058F803F06EF858
:10200000022003F077F8FEF7D7FB23681A1CCC32C6
:102010001278002A4FD01A1C294F0020B0321070BD
:102020003A680190126A011C013A0ED30E265643FB
:10203000B446AC446646B688002EF5D036B20131BF
:10204000B042F1DA301C0192EEE71A1CE632127847
:10205000002A13D1012911DD05F004FA012398307B
:1020600003603B681B6A013B0AD3019EB342FAD06E
:102070000E225A430021AA189180F4E7002904D0C7
:1020800023680022D4331A6008E01A1CD432D033FB
:1020900011681B68994201DC013111602368191C29
:1020A0001A1CD431D03209681268914205DDB03370
:1020B00001221A7001E0D4331A60F7BD000000203D
:1020C000F4020020F0B5A14C91B002AFFA61226891
:1020D000FB60136892689D1C520055437960694605
:1020E00039605208291C013353430831C908984EFE
:1020F000B860C9006846401A85460133306802A9B5
:102100005B00CB18B9613C2200212C307B6107F0C9
:1021100007F92A1C0021B86907F002F98D4900204F
:10212000A623021C0B7104F081FDFEF7EDFE316861
:10213000081CC830CA31FEF763FB2368864D5B6814
:1021400004226B705B232B713368EA70291C9A6937
:10215000022004F06BFD2368291C1B6902206B70B0
:102160000423EB706C232B71336800251A6A04F08A
:102170005DFD336879491A1CC8321288CA33FA6285
:102180001B883A1C3B630C2001232C320B717D63AE
:1021900004F04CFD2368242019682522C155586895
:1021A0002621D0559A682720CA55591DC97F1B6919
:1021B000C1552821CB5504202923D8553368013235
:1021C0005B6992009A18391C0092022024312A1C63
:1021D0002B1C04F0F1FCB8687968BA697B69FEF7DA
:1021E000B1FCB861A84200D08DE026686A46F36A67
:1021F0003A611A01131C08336946C81A854602ADB4
:10220000B969281C07F08CF8F26A281CF969FEF7F6
:10221000D3FD236869469A6A0E235A43131C083378
:10222000DB08DB00C91A8D4602ACB969201C07F037
:1022300077F8FB68281C211CFA69FEF7F9FD386D58
:10224000FEF7C8FE464B1B681B7D002B04D1B86807
:102250007968221CFFF7AAFE201CF96900F060FFD4
:10226000201CF96900F0CEFD06F0AEFB83000733B9
:10227000DB08DB006A46D21A954602ABFB60334BA3
:10228000061C1D680E22A86A7E61031C013B534395
:10229000E418F8610434F8690138F8610FD30021BB
:1022A000635E002B09DD7A69FB68013A90007A6170
:1022B0001818211D042206F0F1FF0E3CEBE72A68F6
:1022C0002C21CA5568682D23D855AB682E21CB55D3
:1022D0000535EA7F2F20C25530210022CA551C49FE
:1022E000013309687E22896A5B00CB185242312093
:1022F000C255391C00932C31F2B20320FB6804F064
:102300005BFC39698D463A68954602F0C5FD02F0DE
:10231000E5FE02F0ADFB012002F014FF02F0E8FC44
:102320000B4BB4221B68B8689A567968FFF742FDD8
:10233000002800D1B8690B4B1A680B4B9A4202D0A7
:1023400003F03AF8FEE7BD460FB0F0BDF4020020FE
:1023500000000020BB030020040100200B0100202E
:10236000600C0020980C0020CDCDCDCDF0B5494CAF
:102370008BB0236802AF1D68B96059687A604D431D
:102380000A229A621022DA621B696A46EB189B00E5
:102390000A33DB08DB00D21A954602ABF860BB615A
:1023A00005F066F8236869469C6AAD00E200131CDC
:1023B0000833C91A8D4602ABA400FB61231C083305
:1023C000DB08DB00C91A8D4602A93961F8690021D2
:1023D00006F0A6FF221C0021386906F0A1FF2E4E50
:1023E000002433686946F0331C702C4B1B682D3376
:1023F0001A785200131C0833DB08DB00C91A8D461B
:1024000002AB181C211C7B6106F08AFF04F016FD4C
:10241000B969BA694D192B1C4178201CFEF7AAFA3C
:10242000BA68FB689A4201D004F032FB33689C60C2
:1024300004F044FC041C02F0B1FCA04204D0201CB7
:1024400002F0B1FC02241DE079690091FA69291CAF
:102450003B69B869FFF736FE0F4B114A1B68041C35
:102460009968914202D09A6801329A60002809D195
:1024700004F0D8FA7A68904204D104F0B5FAFB6807
:102480009842D5D0F869FEF72AFD201CBD4609B058
:10249000F0BDC046F402002000000020600C0020C7
:1024A000FFFFFF7F184BF0B51B6885B01E689B6867
:1024B000B41C5B005C4300AF221C5B08FB6008326D
:1024C000124BD208B86079601868D2006946891A40
:1024D0008D463C2200212C3006F022FF221C68464B
:1024E000002106F01DFFFA68731C534301336D464B
:1024F0005B006A46EB18B8687968FEF723FBBD46B7
:10250000C0B205B0F0BDC046F402002000000020BB
:10251000F0B5B54EE9B0336802AF1D68F96159688E
:1025200005244D437A6002229A62DC621B69B8601E
:10253000EB1893400A33DB08DB006A46D21A954653
:1025400002ABBB6102F02EF804F092FF381C0021B0
:102550001022483006F0E4FE0023BB63FB633368BF
:1025600069469A695B69AD0053439B000A33DB08F7
:10257000DB00C91A8D463B1C02AA58337A613B64C2
:1025800004F05CFC061C03F0E9F9BB69201C5D1932
:102590003D611A1C71782B1CFEF7ECF903F03EFD2F
:1025A000924C786923685969FEF730FAF969BA687C
:1025B000914201D004F06CFA8D490020A223021C44
:1025C0000B7104F033FB236800249C60FC617C6287
:1025D00004F074FB386202F0E1FB3B6A984204D0DD
:1025E000181C02F0E0FB02265FE1002C72D17E4B4A
:1025F0006A461B68FA609A6951005A6901324A4377
:10260000131C0833DB08DB006946C91A8D4602AE8D
:10261000301C211C06F084FE7A6A744D082A08D109
:1026200003F0FCFC2B6878695969FEF7EFF97C62CE
:102630004CE0042002F086FD2B68301C59697A6951
:1026400004F0CCFD051E012D0FD103F087F9052004
:1026500002F078FD6649A323201C221C0B7104F0B4
:10266000E5FA00232C1C7B6230E0624D311C2B68A4
:10267000786933331A7804F075FE2B68F9693333BF
:102680001B785B0099420ADD03F068F905200121FF
:10269000BA693B69FEF76EF903F0C0FCFC61FA69A8
:1026A0002B680132FA613233187802F07CFB02F0B9
:1026B00091FB2B683333187802F08EF9002002F07A
:1026C000ADF9386A02F06FFB02F0A8FBFB68002648
:1026D0009D46D4E0474B01241B6834331878434BA4
:1026E0001B68186002F078F9052002F003FDB86954
:1026F0003969FFF7D7FE061E00D0C0E03A4D6A46A2
:102700002C68FA60E36A69461A01131C0833C91A77
:102710008D4602AB181C311C3B6206F001FE391CD1
:10272000E26A386A4831FEF747FB2B6869469A6AC5
:102730000E235A43131C0833DB08DB00C91A8D46ED
:1027400002AD311C281C06F0EBFD3A1C3B1C483244
:102750003833386A291CFEF76BFBA91C281C06F0CD
:102760008BF8281C291C0E30103106F085F8391C16
:10277000281C40317A6A06F04FF97862032803D0AA
:10278000072839D1182405E0381C403006F0FEFB3C
:10279000041E23D004F04EF9164B1B689B6B1840A7
:1027A0000123A340034227D02C2302212D22D81934
:1027B000D955D45504F0D8F902F090FC012002F06C
:1027C000FFF80B490020A223021C0B7104F02EFA23
:1027D00003F024FC082300247B624EE002F07EFC20
:1027E000012402F059FB48E0F40200200000002020
:1027F000BB030020600C0020796A0829EED1022575
:10280000381C2A1C2D492C3006F048FD381C291C88
:102810002C3004F0A9F9052004F0C8F94422D35D56
:102820003021CB5500243321CC55312235213223A0
:10283000D555DD553422CB5DD4557F2293431D43BE
:1028400080235B421D433B1CCA195833391C30316D
:1028500015700520221C0093231C04F0ADF902F032
:102860003DFC012002F0ACF81549A223201C221CDB
:102870000B7104F0DBF903F0D1FBF9688D46114BC5
:10288000114A1B689968914202D09A6801329A6095
:10289000002E0AD104F0C6F87A68904205D104F0FF
:1028A000A3F8BB68984200D192E602F017FC03F04F
:1028B00055F8301CBD4667B0F0BDC046BC93000063
:1028C000BB03002000000020FFFFFF7F70470000D7
:1028D000F0B5D74D9BB02B6800AF5C68061C3C641C
:1028E000640018687C653C6C604302195100083133
:1028F000C908C900F8636846401A8546F8623C6C0E
:1029000090000A30A400C0087C63C0006C46073207
:10291000241AD208601AD200A5468546801A3C6562
:10292000DA686C4600218546BC63386206F0F8FC24
:102930002B68F86B1A690021684406F0F1FC2B68DB
:102940000021DA68386D920006F0EAFC2B68F86B1B
:102950001A69396D840092000819002106F0E0FC24
:102960002B68B449DA68B86B520006F0D9FCFA6BF0
:10297000B96B50004308FB612B6808181A69AD4910
:10298000520006F0CDFCFDF771FD022E05D0032E9E
:1029900005D02F30012E05D102E0303000E031307B
:1029A000007878647D6BAD08BD617D6D6D08BD629A
:1029B0007D6C013D7D633D6D2C197C62FC69FD6A77
:1029C0006300EB187B617D6B994C013500D1C1E050
:1029D000002002F0B7FB984B25681B686C683B63CE
:1029E000013C64D3A0002B68B864591E7965F7D305
:1029F000A9683A6B4B43E318013352699B0098581E
:102A0000022E0CD0032E24D0012E4ED13B6BB96C7C
:102A10009B69FB605B58C01AC343DB1718407A6D93
:102A2000BB69396D5343E3189B0059583A6D401800
:102A300098507B6B002B38D1796DBB6A4B43E31800
:102A40005B00796CFB64FDF705FBFA6CFB6AD05206
:102A50002BE0796DBA694A43A31899003B6DC958B8
:102A6000031E8B4200D20B1C396DA21892005350EA
:102A7000796DBA6A4A43A1189446BA6B4900895ADB
:102A8000884200DD081C61466218B96B5200505242
:102A900080B21B1A7F22FD2B01D85B08DAB23B6A99
:102AA000786D19193B6C4343CA547B6D9DE72D69C2
:102AB000614B7D651D687B6DFA69013B9C00B86BBD
:102AC0009B185B00C3183B637A6D013A7A653DD36E
:102AD000E9690859022E09D0032E17D0012E30D1F2
:102AE0002A6A1359C01AC343DB1718407B6A796AF4
:102AF0001B597A6BC0180851002A22D1796CFDF756
:102B0000A9FA796D7A694B00D0521AE07B6A1A599A
:102B1000031E934200D2131C796A0B51396B0A8849
:102B2000904200DD101C3A6B108080B21B1A7F228D
:102B3000FD2B01D85B08DAB2386AF96B4318786D5F
:102B40001A54396B043C02393963BDE77C6B013C94
:102B50007C6338E7FD6A7D64022E06D0032E61D0C7
:102B6000012E6DD100F0B2F86AE001F0FDFC381CD6
:102B700032491022583006F091FB02F005FD216821
:102B80002D4B0E683864BD6A1868331C013B5D43E9
:102B90003E6584467D653E6D013E3E6522D34B68B1
:102BA0007E6DFD6AF01840005E002818FE6300226A
:102BB000023A013B11D33D6CFE6B6D00FD6465462E
:102BC000AD69B618BE6476007659FD6C5835ED5B7C
:102BD000AE1B855A75198552EAE77E6DBD6A761B74
:102BE0007E65D8E70B69FE69134AF118FE6A490051
:102BF00058001568711878650022023A013B0ED31F
:102C00007E6DB0182E6A400080598E5A361AB4462E
:102C10003E6C70005830C05B60448852EDE700F0B5
:102C200056F80DE03D6A7D6400F052F8012308E09B
:102C3000F4020020FFFF000000000020BE9300000F
:102C400002232268582610685924F05511795A2514
:102C5000E155E955511DC97F5B26F15512695C208C
:102C60005D21C255CA5D7F218A43134380225242AF
:102C7000381C134358305D22796CD35503F01AFF8A
:102C8000BD461BB0F0BDC04608B503F009FE08BD47
:102C90000C4B10B51B68DA6A002A03DD596B521819
:102CA000D10F0BE000218A4208D10749096814249A
:102CB000085F5C6B0121844200DB111C74331970C6
:102CC00010BDC04600000020640C00207047704713
:102CD0007047000008B502F04FFA01F083FD01F0E3
:102CE0001DFD01F0D1FC0F4B1B681A7A0E4B1B68BF
:102CF0009433002A01D0022200E003220B491A601B
:102D000000230B700A49A0220B700A49D2050B70F0
:102D10009363D36B3F218B43D36362B603F0AAF86E
:102D200008BDC046700C0020FC00002029000050A7
:102D3000280000502A00005038B5041CFDF7A8FBFD
:102D4000051C04F079FB291CF0310B78002B24D0F2
:102D5000124B00221B68DB6A013B07D318012018C5
:102D60000825405F0028F7D10122F5E70C4B1B68CE
:102D7000D86A002811D15D6B002D0ED1F433002AE2
:102D80000AD01A68FE2A01DC01321A601B68052B82
:102D900003DD00230B7000E01A6038BDF402002050
:102DA0000000002070B5051C0C1C161C03F0A4FECE
:102DB000002802D001280AD023E00E204643AD1996
:102DC000EA88FF23FE2A00D8D3B2637119E00E20EF
:102DD00070432818C288FF23FE2A00D8D3B263713B
:102DE0000B220A238256C3560921D31A08224156C0
:102DF00082568A1A934202DDA371E27101E0A27148
:102E0000E37170BDF0B5C14B8DB01B6804909E6836
:102E10009F690696DE68079103961E6905965E69AE
:102E2000029603F06FFEBA4B01261B68E4331B7851
:102E30000196002B58D00026079D049C0196B54BA7
:102E40001B681B6A9E424FDA2B8809A803806B8897
:102E5000438005F03FFD0420235E002B40DD2388E6
:102E600069460B84638808A84B8405F033FD6846E7
:102E70002023C35E069999420BDA039A9A4208DD31
:102E800068462222825E0599914202DA02989042B7
:102E900021DC04216A5E002A1ADD9F4A1268921919
:102EA0002832127852B2012A12DD0698C21B9A42C9
:102EB0000EDA0399CA199A420ADD6A462223D35EC2
:102EC0000598C21B9A4203DA0299CA199A4205DC94
:102ED0000023A38004E00122019201E00123019379
:102EE000013608350E34AAE70126049C079D029698
:102EF000884B029F1B68013F186A874200DBB6E0DF
:102F00002B8809AE33806B88301C738005F0E2FC9F
:102F10000420235E002B00DC80E0238869460B84BC
:102F2000638808A84B8405F0D5FC6B46598C1A8C35
:102F3000794B03911B683088DB1960331979774B23
:102F4000844676881B68002901D14C3300E04D335C
:102F50000420295E1B78002911DD039836B201B2E6
:102F6000891BCE1789197140994208DA664630B23A
:102F700011B2091AC8170918414099426FDB019E26
:102F8000002E6CD00AAE3378802149421943DF20ED
:102F90000140207B0123184040231943102399430B
:102FA0008C4602990F2319400591000161460843A0
:102FB00005999843014310B200121840317071789E
:102FC0000590039899438C4601B2091209010598AE
:102FD000B270039A069161460843F2700699A2887E
:102FE00003401943131C12B27170FF2A00DDFF2346
:102FF0003A1C0498311C3371FFF7D4FE301C03F0E7
:103000008BFD0423EA5E444B1B68DF196037002AFE
:1030100001DD012300E000233B711AE004202B5E58
:10302000002B1CDD0AA80023029A43600F231A40DC
:1030300040210A4302700127F75772883188F678D9
:103040003B4076B236011E4346708170C27003F079
:1030500063FD23882B8063886B80E388EB80029E6E
:10306000A3880136AB8002960E34083540E71B6911
:103070000F255C1E1D40284E621C2FD03168670052
:10308000CB191A1C78320020125E6E33002A0FDC36
:103090001B881AB2002A16DD00210AA80A91416095
:1030A000802129430170FF2A00DDFF23037108E01E
:1030B00000215B5E002B06DC0AA800230A93436014
:1030C000057003F029FD3368013CDF193B1C6E37A6
:1030D0003A8878331A80013D0F23CBE7336801200B
:1030E0001A1C983211680832002902D11068441E57
:1030F000A0411C1C8E3420701268181C9C30A43314
:1031000001601A6003F01CFD0DB0F0BD8C0C0020B6
:1031100000000020F4020020FC020020880C0020A7
:1031200070B5124B051C1B680C1CEA331B78002B76
:103130001BD00F4A1368161C191C9C310968002902
:1031400005DDA4331B68002B01D105F0FFF83368BF
:103150001A1CA4321268002A07DD9C331B68002B5E
:1031600003D1281C211C05F0C7F870BD8C0C002071
:10317000FC020020F0B591B00E91089003F06AFEB9
:10318000BE4B01211B680E201A1C5A321278089C73
:1031900091401A1C5B3212785C33891A1A78002528
:1031A0008B1ADBB20F93B64B09951B680A950C93EB
:1031B000A8330D93B34B1B681A6A5043111C231894
:1031C0000E3B01390BD3DC88099EA64200DA099434
:1031D0000427DC5F0A9DA542F2DA0A94F0E7089E14
:1031E000013A3018083807920590079F013700D13F
:1031F000B7E0059F023F00203B5E0697002B00D101
:10320000A8E09E4E059C336820881A1C4E3219692E
:10321000157824333A3A03F0E6FD041CFDF738F93B
:10322000F0300378002B05D0336835331B789C428F
:1032300000DA1C1C33681A1C4F321278002A01D1A4
:10324000642245E02A1C0C9D5D35FF352878002856
:103250001CD1069F64210026BE5F171C7143674383
:103260008C460C995531FF31BC450DDDA6420BDC77
:10327000854F0E683F6801360E60DA373F78BE42F0
:1032800004D101262E7000E0002008600C985D300B
:10329000FF300178002915D0069E0C990025755F36
:1032A0005531FF31A5420BDD0D681E1C01350D6047
:1032B0003E363678B54205D1002505700D6001E037
:1032C000002008600C995D31FF3109780029B7D0E2
:1032D0006B49079F0968069DC819283006780020A9
:1032E000285E002E05D01D1C3E352D7876B2AE42EC
:1032F0001ADC642545435443A5420FDB1A1C4432B3
:103300001278099F059E7A4334889211944205DB16
:103310009B6C0A9C63439B1198421BDA059D069E99
:1033200000232B8033800CE034331B78574D5C43F3
:103330006843624390420DDA059F069C00233B8060
:103340002380079A0E3292008A18983153600B68D6
:10335000013B0B60079D059E013D0E3E07950596BE
:1033600043E7474B00221B680E9D98331A60454B7C
:103370001B681B6A5C1E0594059EE2000E247443C4
:10338000AF18089D0C2272432C193F330C9D0D9EE3
:103390005B00EB18B218AA3307920993059E384DCB
:1033A000013600D102E20426A35F344A002B00D18B
:1033B000BDE1059E2D681268A9190B1C28331878E9
:1033C0003E320130C0B21870127840B2961DB04241
:1033D00001DD04321A702823CB56012B07D1238834
:1033E0003B8063887B80A388BB80E388FB80059E4D
:1033F000AB1928269E57012E00DC80E1B01C03216A
:10340000FCF7CCFE0A91022E42D11E4B00203A5E00
:103410001E6802217B5E69692D6930686D10551B3D
:1034200076688C46E917013E6D1836024D40761BD2
:103430007F2E0ADD65466910591ACE1701388919A1
:1034400000027140401A7F280DDC0021605E801A66
:103450000222A15EC91A04F023FC0B2803D93B8881
:1034600023807B8863800323013B19D32188079D38
:103470005A00A9526188AA18D180F5E7880C00206B
:10348000FC020020F40200208C0C00201027000019
:103490000A9E079D3A887300EB181A807A88DA80B2
:1034A000D34B059E1B680221655E9B1928331B7850
:1034B0000020265E5BB20893032B00DC15E10A9A1C
:1034C00007985300C3181988101C0D91043003216C
:1034D0000693FCF763FE079A4B00D3181888DB8825
:1034E000069A0E93089B8446D188042B08D10022AB
:1034F000B85E301AC317C01858400226BB5F09E0F7
:10350000099B0020185E301AC61780197040099E6A
:103510001423F35EED1AEA17AD18554023884019BD
:10352000099D059E2B806388B24AAB820C9DAB1926
:103530002133FF331D78002D06D0156862352D88A4
:10354000A84208DC002505E0156864352D88A842EE
:1035500001DB01251D701B78002B2BD11268802107
:10356000131C603212885E331B8800924A0003F0FD
:1035700029FC069D061C0020215E0020285E0B1AF7
:10358000DD175A19069B6A4094460222A55E062260
:103590009A5EAD1AEA17AD1855406544321C2B1CD3
:1035A00005F01AFA069B20800222A15E0620185E12
:1035B000321C78E00D9E6046B5B22B1A1BB2DA0FB2
:1035C000D3180E9A89B25B100D938B1A1BB2DE0FC3
:1035D000F3180020265E5B1008960220265E0E93EC
:1035E0000B960D9EAB19089D1BB2EB1ADE170E9DB4
:1035F0009B19734049190B9E09B2711AC817091813
:1036000041405B180025802B01DD1D1C803D0A9880
:1036100003210530FCF7C2FD079E764B49001B686D
:103620007118039106991A1C0020085E5B320F99ED
:10363000167801321278414303980A920022825E82
:103640000898724389180A9A424388181A1C5A32F9
:1036500012780699104104900620095E0F985D3398
:103660004843844603981B780621415E0B984E43DD
:103670000A996644414376180E99164159431141FF
:1036800076180D994B4313411A1C049B08999818FE
:103690008022D2002B1C05F09FF980222080D200CE
:1036A0000220215E301C2B1C05F096F9514D6080E4
:1036B0002B680421785E0422A15E04333E269A5FC3
:1036C000431ADE179B19734005F086F92B68A0801A
:1036D000F888E18804333E255A5F431ADE179B19A8
:1036E000734005F079F9E08009E000203B5EF618B0
:1036F0007610268002217B5EED186D1065803C4BB4
:103700003C491A68059D0968531928203E3118560E
:103710000978884203DC01225242A28003E09832F9
:10372000116801311160303300229A7032E02E6846
:103730000599126870180692021C283200269657C6
:10374000B446069E3E363678B4451CDD0426B95F85
:1037500000291FD0303086780136F6B2867006997F
:1037600076B23F3109788E4213DC3B8823807B8818
:103770006380BB88A380FB88E3802B6898331A683A
:1037800001321A6006E00C9D059E1370AA192132C1
:10379000FF321370059D079E013D0595099D0C3E66
:1037A000023D083F0E3C07960995F7E52B6800227D
:1037B000A0331A60104B1B681C69013C611C00D1CE
:1037C00097E0286862008218161C6E3637880597C5
:1037D0000599084F002918D07823995E8C460599E1
:1037E0000BB26146002909DC39683C3108E0C0466B
:1037F000FC020020880C0020F402002039683D31D2
:1038000009788B4201DA002333803188031907934A
:1038100000293FD080330593987884467F2804D0D0
:1038200001239C44059863468370079B80339B78F3
:103830005BB2022B13DD78320023D05E3A6809B206
:1038400094460422944463463E229B5E0593431AA9
:10385000DA179B185340059A05F0BEF830802B68A4
:1038600002201A19111C8031085639684031097834
:10387000884207DC211C343149005B180121494290
:10388000D98003E0A0331968013119608032002328
:10389000D37192E73F68079B069780330227DF5773
:1038A00005974027BC46069FBC4467463F78BC4608
:1038B000059F674518DD78321288002A00D17CE721
:1038C000DF79BC460127BC446746FFB2DF717FB297
:1038D000BC46069F41373F78BC4508DC3280A030AB
:1038E00003680133036068E728680319803399701F
:1038F00063E711B0F0BDC04638B5051C0C1C03F0E1
:1039000091F8012803D0281C211CFFF733FC38BD97
:10391000F0B58FB0059007910A920B930024404BAD
:103920001B68DB6A9C4278DA059F2301FB1808209C
:103930001B5E002B6FD0079FA300FB180327DF57E8
:1039400008979B78013F5BB206930497089F049801
:1039500001370997B8425EDC069E013E069B0133A3
:103960009E4255DC2E4B04991B6801319A680A9FD0
:103970005143481C80193D5C013D47D3DB6A9D42A1
:1039800044DAAC4242D0079FA300DB5F254F4000E2
:103990003F683F89BC46149FC05B834236DC069F6C
:1039A0006046C91943430131149F4900C95B9B110B
:1039B0008B422BDA099F7A43B2180132149F5200CE
:1039C000D25B934222DAA54202DB2B1C251C1C1C75
:1039D000059821010DAF41180A31381C042205F069
:1039E0005DFC059A29015118381C0A3103F0F2FDDB
:1039F00000970A9F231C01970B9F05980297149F1D
:103A0000079903972A1C03F003FE2C1C0236A5E736
:103A1000049F023799E7013481E70FB0F0BDC0463B
:103A2000F4020020880C0020F0B585B00C1C151C99
:103A300001930390FCF71AFDFCF724FD00F094FDC0
:103A4000384E3949336802201B692A1C4B70042305
:103A5000CB705A230B7103F0E9F8231C2A330022A0
:103A60001A7080231B066363304BA36333681A69A3
:103A70002F4B19682F4B1B6802932F4B18688446F5
:103A8000013A43D3019F9600BF59A859C31B676BE6
:103A90009F4200DA6363A76B9F4200DDA3630B784C
:103AA000002B06D0029FBB18BA33FF331B78584354
:103AB00080110A9FBB591B0C1B1A11D4487B8342EF
:103AC00002DB0120664630710F200856834212DB6C
:103AD0002768181A381820606069013060610AE0B0
:103AE00011200856834206DCA668181A3018A06018
:103AF000A0690130A061039F50003B52201C2A3076
:103B00000678B34200DA331C0370B9E7084B2A3455
:103B10001B6822781B7A00209A424041C0B205B04F
:103B2000F0BDC046F402002004010020FFFFFF7F2B
:103B30007C0C0020800C0020F8020020F0B595B02D
:103B400013930C1C0C921290FCF790FCFCF79AFC5F
:103B5000964B1B68F0331B78002B06D1944B1B68E7
:103B60001D7A0A950A27DE5F05E0924B1B689D7857
:103B70000A950427DE5F904D90492B680C9F5A6888
:103B800018684A709A6804238A700132920008709B
:103B9000CB70BA18512302200B71099603F046F836
:103BA0000023A21D8248D3770232D3777F2629686B
:103BB000621D05688248D677E21DD67700684A689C
:103BC0000F908048013AD2B200680E920A681090B5
:103BD0007D4E8020013A000652B2AC46089607900E
:103BE00006930493002A00DAA3E00E9F50007BB2F4
:103BF0000B90002B00DA9AE08E68551C7543013556
:103C0000ED18A8000C9F0195139D9E00C059AE5958
:103C1000079F861BB74200DA0796089DB54200DD74
:103C20000896664637784E68002F09D0351C5543F4
:103C30000F9FFF187F5D109D7843AD6868430013A8
:103C400056431A9F9E19B600F659129F360C301A29
:103C5000019E7500E8536646002854DB0F25755712
:103C6000A84212DB2768451B7D192560656910276E
:103C700001356561F757F67B656876B2B84201DCBD
:103C8000861B00E0BE1BAE196660E568A84204DD35
:103C9000DEB2D7B211960D97E0606646357BA8423A
:103CA0001BDB251C08351F26AE579E4200DAEB773A
:103CB000E51D1F26AE579E4200DDEB77A51D1F2692
:103CC000AE57964200DAEA77651D1F26AE57964238
:103CD00000DDEA77069F0137069785B21C9F5E00DC
:103CE0000295BD5B029F7D192F1C1C9DAF531B9D30
:103CF0000B9EAF5B029EF5191B9F0B9EBD53049F4D
:103D00003F18049711E011257557A84206DCA768F3
:103D1000451B7D19A560A5690135A5612569A842E6
:103D200000DA2061049E361A0496013B61E7013AED
:103D300058E7214B04981B680125D968FCF7D8F98E
:103D400022497C235B42221CCB70E06176231C322B
:103D5000281C0B714D7002F069FF069FA21D27629F
:103D60001F21631D51561F229A56164B1B68914204
:103D700001DB1D7101E000221A71079D089EE562BA
:103D8000119F231C0D9D283326631F705D70E6680C
:103D90000A9F0120BE4205DA2369099DD80FEA1760
:103DA0009D425041C0B215B0F0BDC0460000002099
:103DB0007C0C0020840C0020F4020020B4030020BE
:103DC000800C0020F8020020FFFFFF7F040100208C
:103DD00007B5104B2A301B680278987C096842436B
:103DE00092098A4200DA0A1C997B4A439211019295
:103DF0001B7B9A4200DA0193074901234B707C2315
:103E00005B42CB7006201F2301AA0B7102F00EFF4C
:103E100001980EBD7C0C002004010020F0B591B08B
:103E2000099316AB1B78BE4C0F9300234B72CB72D9
:103E30000C907F2320680B728B7206910A920323E9
:103E4000C3562027FF1A0223C35609997F00FF1A81
:103E500049687F10FFB2059107970422815E06230F
:103E6000C25E0823C356407A40B20090059802F023
:103E7000A9FFAC4B80021D682968FCF739F924685A
:103E80006A682378002B00D16EE0189D911CEB88A6
:103E900049006B802B892E1C2B800B1FEB181D8873
:103EA0007552991E0988D9806178002903D0079D31
:103EB0006FB27F0039E0023B013A39D35E88DD887A
:103EC000032161567519079E4D431F8871B21E89E3
:103ED000BE194E430221AD1961569E88714369187F
:103EE0008911414309141981E5E70325655759886C
:103EF000DE886D00AC460D1CB14200D2351CADB25F
:103F000066466E431D89B4461E88311CAE4200D2FF
:103F1000291C0225655789B29E88794375436144FF
:103F20004D19AD1145432D141D81023B013ADCD2E0
:103F3000099F0B207F68049720560422A15E062368
:103F4000E25E0A23E3560090381C02F03BFF754BFB
:103F500080021C686168FCF7CBF8714B21681B6814
:103F60001A78002A0CD164E0531C189F5B00FB18E0
:103F7000013ADDD31988023B41430914D980F7E7A0
:103F8000179CE288251C62802289261C22808C1CBA
:103F90006400221FAA1815883553941E2488D480E3
:103FA0005C78002C03D0079C67B27F0039E0023AAE
:103FB000013939D35688D58803241C577519079EB3
:103FC0006543178874B21689BE1966430224AD1979
:103FD0001C57968874432C19A4114443241414814B
:103FE000E5E703255D575488D6886D00AC46251C4F
:103FF000B44200D2351CADB264466C4316881589B4
:10400000A446341CAE4200D22C1C02255D57A4B23B
:1040100096887C43754364446519AD1145432D145E
:104020001581023A0139DCD21A7B002A0DD10792A0
:1040300022E04A1C179D5200AA180139F4D31488B3
:10404000023A44432414D480F7E7099E0E27D95F2F
:1040500070680024079488420EDD10255A5F9B7C0F
:1040600001265BB20093231C02F0ACFE10231B1A46
:104070009B000B900D9307962A4B0021186809911D
:104080000768BC4666464368711E00D28AE0179CEA
:104090004A00A2180E92013B00D281E0079D84687D
:1040A000002D41D0664666430896F6180A9F0136F1
:1040B0007600BD5B5F1C2AB2D243D2172A408D1C0A
:1040C000654302967D190A9E6D00AE5F12B203969B
:1040D000964200DA0392089E341B3C190A9F640042
:1040E000E45F944200DA141C039E0A9F3519029C77
:1040F0003E190224375F141EBC4200DA3C1C023E0B
:104100002D190027F45F161EA64200DA261CAD19F1
:104110000B9C0D9E65437243AA1892110BE0C0469A
:10412000900C0020F402002067467C431C190134E7
:104130000A9D6400625F189E5C00341924890E9FFA
:10414000121B3C89121B0F9CA24218DD069D0B24FA
:104150002C579C4200DAEB72069E0A2434579C428C
:1041600000DDB372069F09243C578C4200DA797255
:10417000069D08242C578C4203DD297201E0002A99
:1041800004DD099E964202DA099200E0002284686A
:1041900067467C431C1901340C9DA40062517AE7E8
:1041A0008C466FE70B498268099F069C056827606B
:1041B0000C9E4B708A707C2301325B429200CB7064
:1041C000B218832305200D700B7102F02FFD11B082
:1041D000F0BDC046B403002030B500230C7D1A1C8E
:1041E000CD5CA54201D00132D2B20133132BF7D1FD
:1041F000022A14D8012303700B7D0622191C914357
:1042000001290CD1032B0CD003D81420012B09D089
:1042100005E01620052B05D01720072B02D0002023
:1042200000E0152030BD00230122037043700371AC
:10423000427182710A7873B50272CA7C009342722D
:104240000A7D01938272CA5C6D46013AAC5C01330F
:104250000134AC54142BF6D100236E46F25CC479C1
:10426000944200D2C2710133082BF6D14D1D0A1CB5
:10427000002456781378F31A032B01DD083B02E083
:104280001E1D00DA08339E1C022E01D9002646713D
:10429000DE179B1973400132E418AA42E9D1002CC1
:1042A00000D144710A1C0C1C0E321234557813785C
:1042B000EB1A032B01DD083B02E01D1D00DA083379
:1042C000022B01D9002383710132A242EED10A1CD4
:1042D00055781378EB1A032B01DD083B02E01E1D15
:1042E00000DA08339D1E012D01D91D1D01D10125C4
:1042F00045700233022B01D9012303700132A2421F
:10430000E6D10B785A1E012A01D9082B01D10123CD
:10431000037173BDF7B5827A031C00920020042A52
:1043200007D15A79012A04D1987901384242504183
:1043300000011A78012A0AD11A79012A20D10A78B3
:104340000F2A1DD94A78082A1AD1202217E04A7864
:10435000DD79D61F012E01D9052A0BD11A79012A40
:1043600001D180221043062D0AD81A7A032A07D0D9
:10437000012204E0062D03D8022A01D8402210436E
:10438000009A013A012A31D85A7A022A06DDD70F5B
:104390000025042696427D41EDB209E00326B61AB7
:1043A0000196019F0125F60F0024BD427441E5B23C
:1043B000002D04D00D781B2D01D908252843009C21
:1043C000012C13D1062A11D94A78022A01D0052AD4
:1043D0000CD15A78012A01D1022306E01A7A082A60
:1043E00004D0DB79062B01D904231843FEBD00005D
:1043F0003C4BF0B51C5C80001B18DA686300EDB024
:10440000D3180593231C6343059E5B00F3180693A2
:104410000023A34211DA0E78DF00BE19324F5D008F
:10442000F619069F555B7600F65B98006D42AD1B52
:1044300020306E4685510133EBE70DAF0131029715
:104440006CAE67000491019607970025A54228DA13
:10445000059E6F00F719029E0020143E039000286D
:1044600003D138883168081A04E039883268511A53
:1044700004F016FE039B07990133039304367F185B
:10448000A342ECDB049EE9003278174F8A18D21958
:10449000069E5200925B029FAB00801AF8500135D5
:1044A000D4E7049F029E01370497019F14360296B9
:1044B000BE42CAD10020051CA54211DAAB0000287B
:1044C00005D108A8C3187D33FF33186806E008A992
:1044D000CB187D33FF33196804F0E2FD0135EBE7BB
:1044E0006DB0F0BDD0930000FFFFFF7FF0B587B047
:1044F0000C1C0B22061C002103A804F011FF03A8CA
:10450000311CFFF790FE211C03A8FFF703FF114D9C
:104510000123019000245F420123019AA34013402C
:104520002341012B01D02B1C07E0201C311CFFF77D
:104530005FFF031C8542F6DA271C01340A2C01D0E8
:104540001D1CE9E7044A0020934201DB781CC0B23D
:1045500007B0F0BD806967FF6135FFFF014B186050
:104560007047C046700C0020014B18687047C04669
:10457000700C0020014B18607047C0466C0C002086
:10458000014B18687047C0466C0C0020014B186046
:104590007047C046680C0020014B18687047C04641
:1045A000680C0020014B18687047C046FC000020D2
:1045B0008D23013B002B01D0C046FAE7044B1022AB
:1045C0001B78DBB21807C00F134018437047C04672
:1045D0002B0000500F4BF7B518261E700E4BA0276E
:1045E0001E70FFF7E5FFFF050B4B01AC00252C37D4
:1045F00060701D703E70FFF7DBFF064B20703D7052
:104600001D7023786278181C50404000134003430B
:10461000D8B2FEBD2A0000502D00005010B50D4B41
:1046200000201B78AA2B12D10B4B1C780B4B64B2C9
:1046300018780B4B40B219780A4B20181A780A4B9D
:1046400049B21B7840188018C01A43425841C0B282
:1046500010BDC0465000020051000200520002008E
:104660005300020054000200550002008023DB02C8
:104670000022188059809A80C046024B188880B268
:104680007047C04606000400154BC022920098589F
:104690001449014099509958FF208143402001431B
:1046A00099509858104901408020000401439950C6
:1046B000985880210002000A0906014399500222FD
:1046C0001A6001221A60082104221A601960FC3362
:1046D00000215960054B19690A431A617047C046A9
:1046E00000E100E0FF00FFFFFFFF00FF00ED00E042
:1046F00013B5094A042413780021DBB21C4301914D
:104700000198F421FF31884205DC1370C046147013
:1047100001990131F3E713BD0D00005013B50022DC
:104720000192A022D205D06BC021C9000143D16300
:1047300001AB187803218843012108430C24A043CE
:10474000042420433024A043102420433F2420404D
:1047500040242043187098780F24A0430724204356
:104760009870D8780143D970019B936113BD000004
:104770000122A023DB051040020603499869084086
:10478000104398617047C046FFFFFFFE82B00022D1
:10479000019201301F2201AB1040C9B21870481CB1
:1047A000023110400A4092005870DA70019AA0233A
:1047B000DB05DA61196A024A0A401A6202B07047E0
:1047C000FFCFFFFF0002064B000A013800225860AD
:1047D0009A6005221A60C0461A68D103FCD570475A
:1047E00010E000E0F0B5534F85B03B681A1C54321E
:1047F00015780232596D127857331E780F2314073B
:10480000994312092D0701922D0F0B1C80222B4377
:1048100052001343484A0395484D1340484A2B40E1
:1048200048491340240F0B400199220413430A0501
:1048300045493607360F0B40009613433206434E68
:10484000029433401343424AA024E4051340E3603A
:10485000FFF74EFF3B68E26855331B781540DB06D7
:104860009B0FDB021D43E560E26880239B0013433E
:10487000E360E26880239B011343E360029C039D95
:10488000FFF7CCFE002813D0324F882039781E3431
:10489000C9B2FBF72DFC39784443C9B28820FBF735
:1048A00027FC0F3545431E3C00230F3D9C4203DB94
:1048B000231E0F2B00DD0F230F22954200DD151C58
:1048C000A024E4051F491A40E36812040B40134377
:1048D000E360EB43E268DB171D400F239A431D4062
:1048E0001543E560E368F022934380221343E360BD
:1048F000E368154A18481340E360E3683340E36017
:10490000FFF760FFE26880235B051343E3600099D3
:10491000E2680B0616401E43E6601048FFF752FFA0
:10492000019B09491A05E3680B401343E36005B096
:10493000F0BDC0466C0C0020FFF9FFFFFFE7FFFF52
:10494000FFDFFFFFFFFFF0FFFFFF0FFFFFFFFFF0A5
:10495000FFFFFFEF54000200FF0F0000FF6F000099
:10496000064A074B12680120943212681978904069
:10497000021C0A43D2B21A707047C046FC000020E5
:10498000290000500549064B09681A7894310968D6
:104990000120884082431A707047C046FC00002006
:1049A00029000050044B1878044B1B6894331B6893
:1049B000184101231840704729000050FC000020D6
:1049C000044B82B0019001AA188092789A7002B0CC
:1049D0007047C0462400005007B500F0DBFD064BD1
:1049E000019001AA188092789A70044B00221A70E4
:1049F000034B0122DA7707BD24000050540C00203D
:104A000008000050034B00221A70034B0122DA7792
:104A10007047C046540C00200800005072B6084B86
:104A20001B5C002B03D1C04662B630BFF6E762B60E
:104A3000A023DB059968034A0A409A607047C04684
:104A4000540C0020FFFFF9FF72B6074B1B5C002BD4
:104A500002D1C04662B6F7E762B6A023DB059968CB
:104A6000024A0A409A607047540C0020FFFFF9FF89
:104A7000A023DB055A680121120E58689143034AAE
:104A8000090602400A435A607047C046FFFFFFFE16
:104A900008B5074B1B681A1C5C3212785D331B7813
:104AA0005200013250439940FBF722FB08BDC0463B
:104AB0006C0C002008B5044B1B685F331978490063
:104AC0000131FFF7E5FF08BD6C0C002008B5A023FD
:104AD0000120DB055870FFF7A1FFFFF7C9FF08BDF4
:104AE000F7B5A026041CF605042804D1524B1B6818
:104AF000DF6E1B6F21E0514B1B689F6CDB6C736199
:104B0000FBF7C6FCE7300378002B17D004F0A2FBBC
:104B100004F008FB01797F22114089040191716939
:104B20000B1C47490B400199194371614179444B72
:104B30000A40716992040B4013437361A023DB05A3
:104B40001F611E691F231E40FFF768FD00280AD061
:104B50003C4B882019780436C9B2FBF7C9FA4643A2
:104B60000023043E03D4331E1F2B00DD1F23A0228D
:104B7000D20510691F210B40884303431361022CA7
:104B800016D007DC002C13D0012C2DD12B4B1D6827
:104B90005E3529E0042C07D023DB052C24D1264BDD
:104BA00000241D6877351FE0234B1D6874351BE01A
:104BB000FBF76EFC031CCC331B78002B03D01E4B81
:104BC0001D68453510E0E7300378002B05D004F070
:104BD00041FB04F0A7FA851D06E0184B1D685B3504
:104BE00002E0164B1D686135A023DB055969287862
:104BF0003F22104091430143596168781F215D694C
:104C000008401149C0022940014359610F4964001D
:104C100009680C19211C53310878596810409143D8
:104C2000014359605434217858680A401102084AF7
:104C300002400A435A60F7BD700C00206C0C002043
:104C4000FFFF03FE54000200FF07FFFFFC000020EF
:104C5000FFC0FFFF214BF7B51A68214B1B685E337D
:104C60001B785B069B0E0193517E00238D00551926
:104C7000581E5B18002B25D053181B189B7E8024D0
:104C8000D3185E78A023DB055F68E4033C435C60D7
:104C9000019CB606240400945F68B60EBC46114F12
:104CA00064462740009C27435F60C0462436760058
:104CB000F65A84002C1966675E680B4C34405C60C1
:104CC000031CD5E7537E094974324B700423CB7023
:104CD0000F20B0230B7101F0A9FFF7BDFC000020ED
:104CE0006C0C0020FFFFC0FFFFFFBFFF040100208E
:104CF000F7B5FFF7AFFF114B00241D686E7E731CE4
:104D00009B005B420093B300EB180193009B043CB3
:104D10009C4207D0019B01211F19786FFFF7B8FE55
:104D20007867F3E706492A1C0423CB707432B0235A
:104D30000F204E700B7101F079FFF7BDFC000020D1
:104D400004010020044B00225A70A023DB055A7096
:104D500001221A707047C046540C0020A023DB05C6
:104D60009968064A0A40802189020A439A60044AE7
:104D70000021917001229A707047C046FFFFF9FF31
:104D8000540C0020014B1B68D86E7047FC000020BB
:104D9000014B1B68D8667047FC000020A023DB0590
:104DA0009868C0B2704730B5A023DB059B68DBB2C2
:104DB00083420ED001DA013300E0013BA022D2058C
:104DC0009568FF211C1C8D430C40291C21439160D8
:104DD000EEE730BDA023DB059968802252020A432A
:104DE0009A609968094A0A409A609A681201120901
:104DF0009A60D968064A0A40DA60D968054A0A40CA
:104E0000DA60D968044A0A40DA607047FFFFFFF0B1
:104E1000FFFEFFFFFFDFFFFFFFFFFFEF1B4B10B5A4
:104E20001A680121131C52331878A023DB059C68F3
:104E3000084017490004214001439960533210781B
:104E40009C681449000700092140014399601178CA
:104E50009A6809091201090712090A439A60D96878
:104E6000802252000A43DA60D968802292010A4304
:104E7000DA60D968802252050A43FA20DA6080009D
:104E800000F0ACFBFFF79EFC10BDC0466C0C002090
:104E9000FFFFFEFFFFFFFFF008B50020FFF7BEFD9C
:104EA00008BD0000034B1B685C33187840000130DC
:104EB0007047C0466C0C0020024B1B685D331878AD
:104EC0007047C0466C0C002000487047001000502E
:104ED00000487047002000500048704700400050D4
:104EE000064B1B685879064B02301B6842331B780F
:104EF0005843044B8000C0187047C046700C002017
:104F0000FC00002004400050F7B5194B051C1C683C
:104F1000A3795E1E10D36279013A0BD36179501CDC
:104F20000231594341181348890009180868E840BC
:104F30000860F1E7331CECE7FFF7D2FFA37A002209
:104F400001339C466346013B9C460FD3617A960031
:104F50000191861900230199994205D09F00F159CA
:104F60000133E940F151F6E75218EBE7F7BDC046CF
:104F7000700C002000400050064B1B685879064B0F
:104F800002301B684E331B785843044B8000C01816
:104F90007047C046700C0020FC0000200440005008
:104FA000074B1B68DA795879064B02301B680132CF
:104FB00046331B785843044B10188000C0187047C4
:104FC000700C0020FC0000200040005070B53F4BEA
:104FD0001D682A7853B2042B18D13D4B19680B1C5D
:104FE00076331E7802235D1E6FD34A79013A0BD3C4
:104FF0004879541C023058432018364C8000001960
:105000000468F4400460F1E72B1CECE7002A45D06B
:10501000022B21D1FBF73CFACC3003782C4C002B2F
:1050200002D02368473302E02B4B1B685D331878AE
:10503000FFF76AFF2568EC79002C2FD0FFF7B0FF4F
:10504000061C013C2AD3697A201CFBF7A7F88900CB
:105050008A59A300F250F4E7032B03D11E4B1B68BF
:10506000633318E0012B11D1FFF786FF184B061CA4
:105070001B685C79013C11D32B1922331B789B00F0
:105080009859FFF717FDA300F050F3E7052B05D162
:105090000F4B1B6879331878FFF736FF0E4B1B68F0
:1050A0005A331B78002B10D0094B1A685379013BF7
:1050B0000BD35079947902306043591C0918054884
:1050C0008900091800200860F1E770BDFC0000208D
:1050D000700C0020004000506C0C002008B5A0238C
:1050E0000120DB055870FFF799FCFFF7C1FCFFF7C3
:1050F0006DFF08BD70B5041C104E114D11D101207B
:10510000FFF7EEFC336801221A70A023DB056C70F8
:105110005C701A70FFF7E2FFFFF7AAFCFFF7E8FDEB
:105120000224201CFFF7DCFC336800221C70A02343
:10513000DB056A705A7001221A7070BDFC000020F5
:10514000540C002008B5FFF7D5FFFFF7C7FF08BDD7
:1051500010B5A023DB051C6A0005064A000D0104FA
:1051600022400A431A621A6A120B12031043186291
:1051700010BDC046FFFF00F073B5164BA0221B68A0
:10518000D2059168196D503391601C78FFF746FA8B
:10519000114D002810D0114B114A1B7812782E683F
:1051A00052B25BB20092201C1021D12201F00AFE03
:1051B0002B6830671B6FE418002C01DA002402E032
:1051C000FF2C00DDFF242B68E0B2DC66FFF7EBFD6F
:1051D00073BDC0466C0C0020FC0000205300020090
:1051E0005200020008B5002801D0012801D100F0CA
:1051F00041FEFFF7C1FFFFF7F5FAFFF78FFA08BD91
:1052000070B51F4B0D211B68A0B0DA7A00230C3A51
:10521000D2B291425B410321C91AA023DB05586930
:105220003F2210405C688022D20322435A60421E13
:10523000A023D2B2DB05FF2A11D05E683F25114CB6
:1052400015402D0434402C435C60C0460C1C2434B3
:1052500064001C5B6D465300EC52013AE8E7596864
:10526000094A0A4009495A6002234870CB7003205A
:10527000B3236A460B7101F0D9FC20B070BDC04663
:10528000700C0020FFFFC0FFFFFFBFFF04010020E4
:10529000F7B5041C02F0D0F8124B1A6800235068CE
:1052A000411C0191019D16689D420CDB97680136F7
:1052B0007E4399008C469E1900216546B6006151D7
:1052C00001333151EEE701239E420ADB956800214C
:1052D0005D43AF002D180135AD003951013329511F
:1052E000F2E7F7BDF4020020044B054900221A60E2
:1052F00059609A6005221A607047C04610E000E0CD
:10530000FFFFFF0010B5A023DB059C6899680B4BDD
:10531000C9B21B68E4031B6FE40F591AFF31E6237F
:1053200059430134064BA040C918041C0548FAF73C
:10533000DFFEC1B2201CFAF7DBFE10BDFC0000202E
:105340005C5D000040420F00014B00221A60704774
:1053500010E000E013B50B4C0B48A368C01A019392
:10536000FFF7D0FF094901234B7004230190CB7054
:1053700000206F2301AA0B7101F058FC0023019853
:10538000236016BD10E000E0FFFFFF0004010020D5
:1053900010B5041CFFF7A8FF201CFFF7ABFEA023ED
:1053A000DB0501205870FFF74FFBFFF761FBFFF7AC
:1053B0000DFEFFF7CFFF10BDF7B5234800F00EF943
:1053C000FFF700FA214F0025214E224CB7421FD291
:1053D0008036F31B2026832B00DC9E100123667091
:1053E00000203A1C211CB610E370207101F01EFC55
:1053F0003B1C321C013A08D3002D04D11649186811
:10540000884200D01D1C0433F4E7B600BF19DBE767
:105410000E4904226B1A01270193E270A723211C75
:1054200001AA002067702371843601F0FFFB04237A
:10543000751BE3700020A823211C01AA0195677049
:10544000237101F0F3FBF7BD801A0600980C0020D1
:10545000801B002004010020CDCDCDCD014B1B6869
:10546000587E7047FC00002070B5051CFFF784FDD6
:10547000094B1C68637E9A00AD180022511ED21899
:10548000002A08D0E2185218927E920016588A001C
:10549000AE500A1CF2E770BDFC00002030B50A4B8C
:1054A0001B685A7E94001C195300C0180023013356
:1054B000D11A013106D09D00651B59006D6F49421C
:1054C0004552F4E730BDC046FC000020F8B50C1C86
:1054D000051CFFF761F8144908688379013B11D373
:1054E0000E687279013AF9D30E6870790F4E5843FD
:1054F00036688018F6182818603607783679BE198D
:105500000670EFE70B68DB79013B08D3074AE15CE3
:105510001268D218783212798A18E254F4E7281CFB
:10552000211C00F0F9FEF8BD700C00206C0C00206E
:10553000134BF7B51C686946E26800AF131C0E33C5
:10554000DB08DB00C91A23698D460E33DB08DB005C
:10555000C91A0C4B6D461E688D467960281C311C9B
:1055600003F09CFEBA23FF33F1182269786803F038
:1055700095FE281C7968FFF7A9FFBD46F7BDC04618
:10558000F4020020680C0020A023DB051869000647
:10559000400F704738B5A023DB0599689D680C4B18
:1055A000041C1B680B481B6FED03C91AC943E62393
:1055B000C9B25943084BED0FC918FAF799FD054BCD
:1055C00001355843211C2841FAF792FD38BDC046E9
:1055D000FC00002040420F005C5D000038B5A023B5
:1055E000DB0599689C680A4B051C1B6809481B6F02
:1055F000E403C91AC943E623C9B25943064BE40F71
:10560000C918FAF775FD68430134204138BDC0461A
:10561000FC00002040420F005C5D000008B500283F
:1056200007D0481006380123132900DC0023C018D6
:1056300006E00B2900DD0E39081C0321FAF758FD9E
:1056400008BD0000F0B5C04BA9B01B68002502934F
:10565000DB7A071C0C3B281CDBB20D229A42684106
:10566000BA4B03261B68361A03963E6801934733EC
:105670001E70019BC4B278684A3304940DAC291C97
:1056800018706C22201C03F04BFEB14B0B951A686E
:105690000C95231C62CA62C323CA23C343CA43C3F3
:1056A000012124234B43221CE31861CA61C361CA50
:1056B00061C361CA61C3039D0131A942F1DB0026C8
:1056C0000396341C029D6B799C424CDA029D04982F
:1056D0002B19DD7A0BAE291CFFF7A0FF365C2422C4
:1056E000311C5143B446661C06960B180DAEF618D5
:1056F0000596059B069E1E711F2D08DC0DAE7118C8
:105700000123CA68AB401D1C1543CD6011E00BAEF0
:10571000335C0DA95A43203D01238A18AB401D1C60
:10572000137E9906890E0D433F210D408B431D4387
:105730001576019D3F23061C2A191E4005966546D5
:105740005678A901059D9E4335431D406346294374
:105750000133039E5170DBB20BAA13549E4200DA50
:1057600003930134AEE7019B039E493300241E706E
:105770000294754B029C1B6898798446844200DB36
:10578000D8E0029D5B191A1DD67F714A12680492F7
:105790005A321278059205980022904205D061464F
:1057A00001398D4201DA0533DA7F0123301C191CDF
:1057B00020381C1CB1408440201C06913F21084029
:1057C000111C20391D1C8B40DBB20993039B242143
:1057D000013B4B430790039C28A89540C3180895AC
:1057E0005C3B0194019D002D41D0019D2421013D90
:1057F00069430DA8411801957C68CD781F200440AD
:10580000854325430020CD70186018314C783F2027
:1058100084434C701F2E04DC1968069C21431960D8
:1058200004E04C78079D84432C434C700598002875
:105830001BD06146029C01398C4216DA1F2A04DC17
:105840001968089D294319600FE0019C24216143D8
:1058500028AD691854394878099C8506AD0E254352
:105860003F242540A04328434870243BBAE7049EC8
:10587000029C331934788033A4065D78A40EFEF7B9
:10588000CDFE002813D0334E882031780135C9B2BF
:10589000FAF72EFC31784543C9B28820FAF728FC84
:1058A00002344443013D023C019A6E1C03D02A1E7F
:1058B0001F2A00DD1F223F203F2C02DCE043C017DF
:1058C00020400590019C039DAC422CDA019C2425CC
:1058D0006C430DA91F26101C0B19304004905878FA
:1058E000B043061C0498064305985E703F2630407E
:1058F0000490605CB043061C049806436654396803
:1059000037291EDC4D4314496D18291C51CB51C158
:1059100070CB70C131CB31C13B68019E0133013680
:105920003B600196CEE7029E7B680136013302960A
:105930007B601EE7054B3A681B68012048331A70EC
:1059400000E0002029B0F0BD700C0020FC00002019
:105950006C0C0020540002000080005030B585B06F
:10596000FEF71AFE064B01A81B68021C603332CBFF
:1059700032C2FFF767FEFFF7DBFD05B030BDC04662
:10598000FC000020F0B5604B95B01B680027049325
:10599000DB7A051C0C3BDBB20D22381C9A427841A5
:1059A000C3B20793594B29681B680BAC01934B3367
:1059B0001970019B6A684E331A70019B391C4D3374
:1059C0001F702422201C03F0ABFC514B09971B686D
:1059D0000A970293029A231C43CA43C343CA43C390
:1059E00043CA43C3019E237E77769B06E6689B0EDF
:1059F00005960693049E73799F4234DA049E0798B5
:105A0000F319DB7A191C0393FFF708FE09AB1B5C43
:105A1000002B0AD1019E717E4A1C72767118FAB26F
:105A20000BAE8A76013231180A71019EF2190BAE63
:105A300031180979039E22320139117001221F2E7B
:105A400004DCB240059E1643059607E00399069EC6
:105A500020398A4032433F210A400692013309AA85
:105A600013540137C6E70BAB059E1A7E0E963F21F5
:105A7000069E02988A43324306781A76B606B60E18
:105A8000FEF7CCFD00280AD0224B88201978023678
:105A9000C9B2FAF72DFB46430023023E03D4331E5E
:105AA0003F2B00DD3F2362781F2120788A436270FC
:105AB0003F2290431340034323706868E378084013
:105AC0008B43617E034391436176296824224A43D4
:105AD000E37000231293139323610F4BD218131C0E
