:1000000000980000000E0000A59400000000000011
:1000100000000000000000000000000000000000E0
:1000200078FFE4B8200118F6D8F99000007F007E30
:1000300007E4F0A3DFFCDEFA758107023459900370
:10004000D8EFF0E0FF2410121263E0601BEF1212F1
:100050006B120E80120F6C400F9003D8E02410F545
:1000600082E434001210C3227F0022021D3275B2D6
:100070008E75B6F9E4F5B743B20143AA01023DB566
:100080000000000236D9904006E493B41802002222
:1000900053A87F0080FDD2AF003200020876020B29
:1000A000C6E86480F8E933E83360110460F0ED33AA
:1000B000EC337009E8FCE9FDEAFEEBFF220460DEA8
:1000C000D3EB9FEA9EE99DE8C2E78CF0C2F795F07A
:1000D000400CE8CCF8E9CDF9EACEFAEBCFFB120BF5
:1000E0009185D0F05804700320D5B3E80470075010
:1000F00002B2D5020BD092D5EC0460F7E4CCC0E09C
:10010000C398F8603B94186008400DD0E0FB020BE8
:10011000A8E4FBFAC9FC8028E830E406E4C9FBE463
:10012000CAFCE830E305E4C9CACBFCE85407601018
:10013000F8C3E913F9EA13FAEB13FBEC13FCD8F15B
:1001400030F52FC3E49CFCEF9BFFEE9AFEED99FD8A
:10015000D0E0FBEF4E4D4C701222DB03020BCDECD6
:100160002CFCEF33FFEE33FEED33FDED30E7EB0219
:100170000BA8EF2BFFEE3AFEED39FDD0E0FB50135C
:100180000BBB0003020BD0ED13FDEE13FEEF13FFCC
:10019000EC13FC020BA8EC4D6011E8497017ED332D
:1001A000EC3304600DE4FCFFFEFD22E933E8330488
:1001B00070F8020BC6120B9158046009E4CC24813C
:1001C0005006285009020BD0284003020BCDC0E096
:1001D000EB4A7044B98006D0E0FB020BBCEF4E70D6
:1001E0001CBD8008EBFFEAFEE9FD80EBE98DF0A481
:1001F000FEE5F0020A5FE9CDF9EAFEEBFFEF89F0D8
:10020000A4FCE5F0CE89F0A42EFFE435F0CD89F012
:10021000A42DFEE435F08067EF4E7005BD80D780D9
:10022000C3EF8BF0A4ACF0EE8BF0A42CFCE435F023
:10023000F8EF8AF0A42CE5F038FCE433CB8DF0A481
:100240002CFCE5F03BF8EE8AF0A42CFCE5F038F845
:10025000E433CF89F0A42CFCE5F038CF3400CE890C
:10026000F0A42FFFE5F03EFEE433C98DF0A42EFE8E
:10027000E5F039CD8AF0A42FFFE5F03EFEE43DFD28
:1002800033D0E0FB50070BBB000F020BD0EC2CFC73
:10029000EF33FFEE33FEED33FD020BA8020BD0EC83
:1002A0005D046005E859047003020BC6120B9158F7
:1002B0000460F6EC4860F2EC7004FDFEFF22C860BA
:1002C000DB2481C85009C39860025006020BCD9808
:1002D00050CAF582E9294B4A7005AB82020BBC7506
:1002E000F0007C1A7880C3EF9BEE9AED99400DC325
:1002F000EF9BFFEE9AFEED99FDE842F0DC23ACF0B7
:10030000D0E0FFD0E0FED0E0FDAB8220E7101BEB99
:1003100060BAEC2CFCEF33FFEE33FEED33FD020B45
:10032000A8E803F830E705C0F075F000EF2FFFEE06
:1003300033FEED33FD40B830E7C280AA75F020806F
:100340000E75F010800575F0087D007E007F00338B
:1003500092D530D503120DD6EC334010EF33FFEEBB
:1003600033FEED33FDEC33FCD5F0ED22E5F0247ED9
:10037000A2D513CC92E7CDCEFF22EDD2E7CD33EC60
:100380003392D524814006E4FFFEFDFC22FCE4CF3D
:10039000CECDCC24E0501174FF80EDC3CC13CCCD76
:1003A00013CDCE13CECF13CF0470F030D5DE020DB7
:1003B000D6E9D2E7C933E833F892D5EDD2E7CD33A9
:1003C000EC33FC5002B2D522EC30E7100FBF000C2A
:1003D0000EBE00080DBD00040BEB6014A2D5EB139C
:1003E000FCED92E7FD2274FFFCFDFEFF22E480F8A5
:1003F000A2D574FF13FC7D80E480EFBB01068982E7
:100400008A83E0225002E722BBFE02E32289828A2D
:1004100083E49322BB010CE58229F582E5833AF55A
:1004200083E0225006E92582F8E622BBFE06E92594
:1004300082F8E222E58229F582E5833AF583E493A6
:1004400022BB010689828A83F0225002F722BBFE7A
:1004500001F322F8BB010DE58229F582E5833AF527
:1004600083E8F0225006E92582C8F622BBFE05E9A2
:100470002582C8F222EF8DF0A4A8F0CF8CF0A4283A
:10048000CE8DF0A42EFE22BC000BBE0029EF8DF015
:1004900084FFADF022E4CCF875F008EF2FFFEE33C7
:1004A000FEEC33FCEE9DEC984005FCEE9DFE0FD576
:1004B000F0E9E4CEFD22EDF8F5F0EE8420D21CFE4A
:1004C000ADF075F008EF2FFFED33FD4007985006B3
:1004D000D5F0F222C398FD0FD5F0EA22C2D5EC3058
:1004E000E709B2D5E4C39DFDE49CFCEE30E715B20C
:1004F000D5E4C39FFFE49EFE120C67C3E49DFDE4B8
:100500009CFC8003120C6730D507C3E49FFFE49E78
:10051000FE22C5F0F8A3E028F0C5F0F8E5821582C8
:1005200070021583E038F02275F008758200EF2F15
:10053000FFEE33FECD33CDCC33CCC58233C5829BA9
:10054000ED9AEC99E58298400CF582EE9BFEED9ACF
:10055000FDEC99FC0FD5F0D6E4CEFBE4CDFAE4CC6B
:10056000F9A88222B800C1B90059BA002DEC8BF06D
:1005700084CFCECDFCE5F0CBF97818EF2FFFEE332A
:10058000FEED33FDEC33FCEB33FB10D70399400455
:10059000EB99FB0FD8E5E4F9FA227818EF2FFFEE7C
:1005A00033FEED33FDEC33FCC933C910D7059BE9AD
:1005B0009A4007EC9BFCE99AF90FD8E0E4C9FAE409
:1005C000CCFB2275F010EF2FFFEE33FEED33FDCCA8
:1005D00033CCC833C810D7079BEC9AE899400AED92
:1005E0009BFDEC9AFCE899F80FD5F0DAE4CDFBE43A
:1005F000CCFAE4C8F922C3E49FFFE49EFEE49DFD2B
:10060000E49CFC22EB9FF5F0EA9E42F0E99D42F06B
:10061000EC6480C864809845F022EB9FF5F0EA9E78
:1006200042F0E99D42F0E89C45F022ECF0A3EDF0A9
:10063000A3EEF0A3EFF022A8828583F0D083D082CE
:10064000120E2E120E2E120E2E120E2EE473E493A4
:10065000A3C583C5F0C583C8C582C8F0A3C583C53B
:10066000F0C583C8C582C822A42582F582E5F0358D
:1006700083F58322EF4E6012EF60010EEDBB010B9C
:1006800089828A83F0A3DFFCDEFA2289F05007F723
:1006900009DFFCA9F022BBFEFCF309DFFCA9F02274
:1006A000F583E0F8A3E0F9A3E0FAA3E0FB9002CA27
:1006B000E0FCA3E0FDA3E0FEA3E0C39BFBEE9AFAFF
:1006C000ED99F9EC98F82275F002120E4875F07861
:1006D000E0FCA3E0FDEFA4246EF582E5F03400F524
:1006E000832275F002120E48E0FCA3E0FD75F0785D
:1006F000EFA4247EF582E5F03400F583EE75F00278
:10070000020E48F5837401F09002CAE0FCA3E0FDFC
:10071000A3E0FEA3E0FF2275F002EBA42440F582E3
:10072000E5F03400F583E0FCA3E0FDEB75F002A4F6
:10073000243AF582E5F03400F5832275F078EEA4D2
:1007400024C6F582E5F03400F583E5822FF582E4D6
:100750003583F583E4F075F078EEA424CEF582E5D8
:10076000F03400F583E5822FF582E43583F58322AA
:100770009003ECE0FEA3E0FF9003E9E0FD75F07864
:10078000A4249EF582E5F03400F58322903072E4D3
:1007900093FE740193FFE4FCFDC3020DFA9003D5B0
:1007A000E0FE75F078A4245EF582E5F03400F58370
:1007B000EF75F002020E489003E9E0FD75F078A4B1
:1007C00024AEF582E5F03400F583229003D6E0757F
:1007D000F078A4248EF582E5F0340022E49000380D
:1007E000F09002A9F09002EDE09002ADF054F0FF1D
:1007F000F022EF75F002A4247EF582E5F03400F5D6
:100800008322F583E0FCA3E0FDEF75F002A4244C05
:10081000F582E5F03400F583229003E975F078E085
:10082000FFA4245EF582E5F03400F58322E0440164
:10083000F0E4900038F09002A9229003D6E025E081
:1008400024D8F582E43403F58322C3E0FDEF9D74E0
:1008500080F86E9822ECF0EDA3F09003EAE004F04B
:10086000E0229003D7E0FF24D8F582E43401F58339
:1008700022E0FEA3E0C39DFFEE9C22E0FEA3E0FF8A
:10088000D3940AEE64809480229003E9E0FF75F02F
:100890007822CBEFCBEBD3940322F0A3F0A3F0A309
:1008A000F0A3229003E9E0FF24DBF582E43401F5B4
:1008B000832275F002EDA42440F582E5F03400F5C2
:1008C00083E0FEA3E0FF75F002ED22F583E493FCE4
:1008D000740193FD75F002EFA422E0FCA3E0FD7526
:1008E000F07822F583E4F07F01229003E9E024E42C
:1008F000F582E43401F58322902EC3F07406A3F050
:10090000E4F5E2902EC074C2F0E42275F002EDA48A
:100910002446F582E5F03400F583E0FAA3E0FBEA33
:100920002274DE2EF582E43401F58322EE8FF0028C
:100930000CF2E04406F09000387401F022C3EF940A
:10094000F6EE6480947F22EF25E024DEF582E43425
:1009500003F58322C28A9002EDE09002ADF022906E
:100960002EC5F0902ECEF0902EC92274ED2EF58279
:10097000E43401F5832275F078A424C6F582E5F00D
:100980003400229003E9E0FD75F00222F583ECF0DB
:10099000A3EDF0229001ECE0640122E4F0A3F075F5
:1009A000F07822E0FCA3E0FD75F002EF22E4900174
:1009B000E2F090028FF022CFEBCFEAF0A3EFF0222B
:1009C000E0FCA3E0FD75F002229003ECE0FEA3E062
:1009D000FF227F0C123DF5E4900039F07599072253
:1009E000F074DF2EF582E43401F583E4F022900206
:1009F000ADE09002EDF022FFE0FCA3E0FD22A42494
:100A000080F582E5F03400F583E022F582E43402DB
:100A1000F5832225E025E02426F582E4340222F540
:100A200082E43402F5832225E025E02475F582E492
:100A3000340222F582E43400F5832225E025E02407
:100A400027F582E4340022F582E43402F58322257E
:100A5000E025E024D3F582E4340222F582E4340276
:100A6000F5832225E025E0249DF582E4340222F579
:100A700082E43401F5832225E025E024FDF582E4BB
:100A8000340122F582E43400F5832225E025E024B8
:100A900017F582E4340022F582E43402F58322253E
:100AA000E025E0245EF582E4340222F582E434029B
:100AB000F5832225E025E024BEF582E4340222CB32
:100AC000EFCBCAEECAE02275F002EC020E48F0EC61
:100AD000A3F0EDA3F022E0FEA3E0FF7C00020CBC3B
:100AE000EEA4247EF582E5F0340022E0FCA3E0FDD4
:100AF000EC22ECF0A3EDF09003E9E0229003EAE0B1
:100B0000FF9003E9E022E0FEA3E0FFC3229003D7B9
:100B1000E0FF75F002A422F09001E3F0900290F063
:100B2000229003E9EFF0E49003F0F09003EBF090F3
:100B300003EAF09003EE7404F02407A3F0121069A6
:100B4000120FD6C083C0829003EAE0FED082D08329
:100B5000120EA7120EDC1210519003ECF0A3EFF06E
:100B6000121083E0601A75F078EF120F60C083C036
:100B7000829003EAE0D082D083120EDDE4F0A3F08D
:100B80001211A9123EAC9003EE12102A5044120F1B
:100B900050C083C0829003EAE0FCD082D083120E62
:100BA000DD12110C75F078ED120F60EC120EDDE025
:100BB000FEA3E0FFD3940FEE648094804003021400
:100BC00052C3EF94F1EE6480947F40030214A002BC
:100BD000147A1211A9D39400EE648094804022907C
:100BE00003E9E025E02408F582E43431F583E49359
:100BF000FC740193FDC3EF9DEE9C501C9003F080AC
:100C000014C39003EDE094FC9003ECE06480947FC7
:100C100050069003EBE004F012117460030214A07C
:100C20001211A9123EAC9003EF12102A501E12109E
:100C300069120EB6C083C0829003EAE0FED082D073
:100C400083120EC2ECF0A3EDF00214A0120F50C0FC
:100C500083C0829003EAE0FCD082D083120EDD12C2
:100C6000110C75F078ED120F60EC120F9112105B01
:100C70004023120F58C083C0829003EAE0FCD08268
:100C8000D083120EDD12117BED120FD61212A7E4E3
:100C900075F001802812111D50269003E9E0FF1223
:100CA0000F5DC083C0829003EAE0FED082D0831241
:100CB0000EDDE4F0A3F0120ECD74FFF5F0120CF28D
:100CC000121069120FD6C083C0829003EAE0FED0F2
:100CD00082D083120EA7120EDC121051FE9003E98F
:100CE000120FAEF583C083C0829003EAE0D082D0B9
:100CF00083120EDDEEF0EF121038C3940850030299
:100D0000131312117470379003E9E0FF24ED1211F0
:100D10004EE0702A74ED2F12114E7401F0E490032E
:100D2000EAF0121069120EB6C083C0829003EAE0A6
:100D3000FED082D083120EC2121035B408E49001A6
:100D4000F4E070061210CA7401F09003E9E0FF129B
:100D500010CEE06401705B123E139003EBE0C3948D
:100D60000340449003E9E0FF123BEE9003E9E0FF0B
:100D7000123A22EF70030215E69001F4E070209021
:100D800003EAF0121069120EB6C083C0829003EA23
:100D9000E0FED082D083120EC2121035B408E412E5
:100DA00010CAE4F00215E69003E9E0FF123E2202C9
:100DB00015E69003E9E0FF123E229003EBE0C394B6
:100DC00003403B9003E9E0FF123BCB9003E9E0FFD7
:100DD0001239F2EF60309001F4E0702A9003EAF0EB
:100DE000121069120EB6C083C0829003EAE0FED0F2
:100DF00082D083120EC2121035B408E4800890032A
:100E0000E9E0FF123E139003F0E0C39403403B126D
:100E10001083E07035123BA89003E9E0FF1239C25D
:100E2000EF602F9001F4E070299003EAF01210694E
:100E3000120EB6C083C0829003EAE0FED082D08357
:100E4000120EC2121035B408E4229003E9E0FF123A
:100E50003E0422E49003DAF0FF1233177F011233CD
:100E6000179003D8E4F0A37404F090036CE01460CE
:100E70007C1470030216E214700302173714700317
:100E80000217CF1470030217E4240560030218B19F
:100E90009003CF120E1700000000E49003BBF0A3F4
:100EA000F0A3120E17000000009003B1E0FFA3E0D2
:100EB0009003C1CFF0A3EFF09003B1E0FFA3E09067
:100EC00003C3CFF0A3EFF01226B7A3F0A3F0900373
:100ED000AFE0FFA3E09003CDCFF0A3EFF0123E8888
:100EE0007F327E00123D7F90036C7401F01226BFAA
:100EF000123CC0EF70030218B11218B77402F0026E
:100F000018B11225D7940AEE6480948040131226FB
:100F1000B79003B8E004F070139003B7E004F080DA
:100F20000B12275D50061226B71226E112262C70EE
:100F3000069003BBE004F0123CC0EF70030218B14E
:100F4000122690120D449003C1EEF0A3EFF090032F
:100F50006C7403F00218B19003B1E0FEA3E024B476
:100F6000FFEE34FBFE9003D6F0A3EFF0123EACC3CD
:100F7000EF9403EE648094805025E49003BBF0A3CB
:100F8000F0A3120E17000000001226BF123E887F49
:100F90000A7E00123D7F90036C7404F00218B19039
:100FA00003D6E0FEA3E0FF1225F39405EE648094DF
:100FB0008040141226B790036EE024FFF090036D7A
:100FC000E034FFF0A38022C3EF94FBEE6480947FB3
:100FD00040030218B11226B790036EE004F07006C9
:100FE00090036DE004F090036E1226FE0218B11219
:100FF00026BF123CC0EF70030218B11218B7740577
:10100000F00218B11225D7940AEE64809480401340
:101010001226B79003B8E004F070139003B7E00411
:10102000F0800B12275D50061226B71226E1122619
:101030002C70069003BBE004F0123CC0EF7003027A
:1010400018B1122690120D449003C3EEF0A3EFF0F6
:1010500012266FE4FBFAF978401209767BA07A70C9
:10106000797678C2120885120B5A9003C9EEF0A364
:10107000EFF09003C3122672ECC0E0EDC0E0EEC0CA
:10108000E0EFC0E09003C9122672D0E0FBD0E0FA96
:10109000D0E0F9D0E0F8120976ECC0E0EDC0E0EE67
:1010A000C0E0EFC0E012266F12270CD0E0FFD0E0C6
:1010B000FED0E0FDD0E0FC120A7F120B5A9003CD67
:1010C000EEF0A3EFF090036C7406F09003DA740175
:1010D000F09003DAE0FF22123E887F057E00123D89
:1010E0007F90036C22121F00E49003D6F09000372B
:1010F000E0FF9003D6E0C39F4003021B36E0FF12DF
:10110000101EE4F0A3F0121127E4F0A3F09003E422
:10111000F0A3F0A3F0A3F0A37408F0EF7003021B98
:101120002D1220CC9003D6E0FF121301E49003D7D8
:10113000F09003D7E0FFC394084003021A61121134
:10114000746006900293E06016900038E070109092
:1011500002A9E0700A120FAB120F8EE4F0A3F09018
:1011600003D6E0FF120FAFF583C083C0829003D790
:10117000E0FED082D083120EDDE0FCA3E0FDC3943C
:1011800006EC64809480501075F078EF120FB21264
:101190000EDAE4F0A3F08031C3ED940AEC6480949D
:1011A000805026120FABF583C083C0829003D7E036
:1011B000D082D083120EDDC083C0827D021212B6AF
:1011C000D082D083EEF0A3EFF09003D6E0FF75F06D
:1011D000781211DEFCA3E0FD121127EC8DF0120C49
:1011E000F29003D6E0FF120FAFF583C083C0829068
:1011F00003D7E0D082D083120EDD1210BAEF1211A5
:10120000DEFEA3E02DFFEE3CFE9003D6E0FD1210C3
:101210001E12110C75F078ED120FB2F583C083C069
:10122000829003D7E0D082D083120EDD1212E690B6
:1012300003E5E09FEE6480F89003E4E0648098505A
:10124000129003D7E0FD9003E4EEF0A3EFF09003DB
:10125000E8EDF0120FABF583C083C0829003D7E0B6
:10126000D082D083120EDDE0FEA3E0FF9003E7E022
:101270002FF09003E6E03EF09003D7E004F002196F
:10128000119003E4E0FAA3E0FBC39003E7E09BF0D6
:101290009003E6E09AF07D071212B69003E6EEF0B6
:1012A000A3EFF0C3EB9FFFEA9EFED3EF9402EE6440
:1012B0008094804036A3E06408603012101AC08326
:1012C000C082E0FEA3E0FF9003E4E0FCA3E0FDC3E6
:1012D000EF9DFFEE9CD082D083F0A3EFF09003E669
:1012E000E0FEA3E0FF12101A12110C9003D6E0FFEB
:1012F00012101EE0FCA3E0FDEF120F0CECF0A3EDCA
:10130000F09003D6E0FF121128E0FCA3E01210B326
:101310002440F582E5F0340012116C9003FAE0608D
:101320002C9003D6E0B4010F120F0CE0FFA3E09065
:10133000026CCFF0A3EFF09003D6E0B4020F120FCF
:101340000CE0FFA3E09001F0CFF0A3EFF09003D604
:10135000E004F00218CDE49001E7F0229003D67487
:101360007EF0E4A3F0900037E0FE9003D7E0FFC3E7
:101370009E4003021D2312081EEF600312118D9080
:1013800003D7E0FA121047E06003021C001212EDCE
:1013900024C6F582E5F03401120FE2E0FEA3E0C3BB
:1013A0009DEE9C40549003D7E09003D6F012104776
:1013B0007401F09001E2E004F090028FF09003D706
:1013C000E0FF24DE1211047401F0123E409003D7B6
:1013D000E0FF123E4F9003D7E0FF123C579003D737
:1013E000E0FF123E6D9003D7E0FF123C9D9003D7C3
:1013F000E01210887401F08012CFEACF123A82EF27
:1014000060099003D7E0121088E4F09003D7E0FF62
:10141000123AE2EF7003021D1AE49001E3021D1577
:101420001212ED24D2F582E5F03401120FE2E0FE53
:10143000A3E0C39DEE9C5003021CEC9003D7E09008
:1014400003D6F0123AB2EF7003021D1A9001F4E0D5
:101450007022FF9003D7E0FE75F078120EB6120FDF
:10146000901210BA1212C0120F8EECF0A3EDF00F12
:10147000EFB408DF121042E4F074DB2F12108AE49C
:10148000F074E42F1210D07401F0900038E0FF7077
:10149000099002A9E07003021D31EF601F9002A9BC
:1014A000E06019120FBCBF2003D38001C34005E4E4
:1014B0009002ADF09002ADE044058048900038E025
:1014C000601F9002A9E07019120FBDBF2003D380E6
:1014D00001C34005E49002ADF09002ADE04401800C
:1014E00023900038E0706A9002A9E06064120FBC9B
:1014F000BF2003D38001C34005E49002ADF0900209
:10150000ADE04404F09002EDF0C28A22121042E4F1
:10151000F0123C349003D7E0FF123E5E9003D7E018
:10152000FF123C7A9003D7E024DE1211047401F01C
:101530009001E3E004F0900290F09003D7E004F013
:10154000021B459003D6E0FF9001EAE06F6002EFD6
:10155000F022C0E0C0F0C083C082C0D0E8C0E0E9A3
:10156000C0E0EAC0E0EBC0E0ECC0E0EDC0E0EEC0FF
:10157000E0EFC0E0D2AFE5DB30E41D9003F81238B5
:101580001FE4F0E5DB30E10280389002E5E5DFF0B2
:10159000900366E4F0021EDAE5DB30E5169002E225
:1015A00012381FE06005E4F0021EDA9003F8E4F060
:1015B000021EDA900368E4F0E5DB30E12EE5DB3073
:1015C000E00FA31237E71237F0120BF4F5DF021E1B
:1015D000DA900367E064086003021EDA308A0302CF
:1015E0001EDAD28A9002EDF0021EDA900366E070F5
:1015F0000EA3E5DFF090036612381FF0021EDA90AA
:101600000367E090349E93FFB4FF0F9002E5E5DF9F
:10161000F0900367E004F0021ED4EF640F7029120B
:1016200037E4900367E0FF123826540F120C2112A2
:1016300037E4900367E0FF04F0123826FFE5DF543B
:10164000F04F120C21021ED41237E41237F0E5DFFE
:10165000120C33900367E0FDB43419900318E09046
:1016600002CE1237FD900319E0FBEBFF9002CEEEA5
:10167000F0A3EFF0EDB4361490031AE09001F612E7
:1016800037FD90031BE09001F6123805900367E0E8
:10169000B4281890030CE07F00FE900294F0A3EFB2
:1016A000F090030DE0900294123805900367E06417
:1016B0001870411237E4900017120BF4B410239005
:1016C00003FB7410F0900283E064017027F053AACA
:1016D000F79001F404F0123E947FF47E01123B84F3
:1016E00080121237E4900017120BF4B42006900316
:1016F000FB7420F09002E4E004F075DBFFD0E0FF23
:10170000D0E0FED0E0FDD0E0FCD0E0FBD0E0FAD0AD
:10171000E0F9D0E0F8D0D0D082D083D0F0D0E03261
:10172000E49003EAF0A3F09003EE7403F02405A321
:10173000F0123128E49003E9F09003E9E0FFC3944C
:10174000084003022039120FD21211A0120EB51256
:101750001051FE9003ECF0A3EFF0123EAC9003EEBC
:1017600012102A502C9003EBE004F0120EF012112C
:1017700063120F6012110C75F002ED120F6012105F
:101780005B4003021FD512111D400302200D021FF2
:10179000F49003EAE004F0121174600302200D904B
:1017A00003ECE0FEA3E0FF123EAC9003EFD3121077
:1017B0002B401B9003E9E0FF75F002120EB6E0FC2F
:1017C000A3E0FD120FD2ECF0A3EDF002200D900388
:1017D000ECE0FEA3E0FF121163120F6012110C7512
:1017E000F002ED120F60E0FEA3E0FFD39464EE641C
:1017F0008094804014121163120F60E4F0A3F0EDA6
:10180000120FD3E475F0018021C3EF949CEE648045
:10181000947F50199003E9E0FF75F002120F60E425
:10182000F0A3F0120FD274FFF5F0120CF29003E95E
:10183000E0FF120FD31211A0120EB5121051FE903C
:1018400003E9E075F002120FB2F583EEF0A3EFF0BA
:101850009003E9E004F0021F199003EAE0C3940347
:1018600040089001F4E0703E8037C3900109E09495
:1018700004900108E064809480402B900181E09402
:1018800004900180E064809480401B900091E0947B
:1018900003900090E064809480400B9001F4E0702D
:1018A000059001EC04F09003EBE0C3940540379001
:1018B00001ECE06031E4FF123C11E4FF123A52EF18
:1018C0006029E49001ECF09003F0F0900037E0FF25
:1018D0009003F0E0FEC39F501212114BE4F090030E
:1018E000F0E004F080E5E4FF123E31229003E9EFDE
:1018F000F09003ED7408F0E49003EAF012117470B4
:1019000032120FF9C083C0829003EAE0FED082D089
:1019100083120EA7120EDC1212D2120F9CC083C0CB
:10192000829003EAE0D082D083120EDDE4F0A3F0CF
:101930000222729003E9E0FF75F078120EB6C083C0
:10194000C0829003EAE0FED082D083120EDD121036
:10195000BAEFA4245EF582E5F03400120EDA12101C
:1019600051FE9003EBF0A3EFF0123EAC9003ED12AA
:10197000102A40030221FC1212DC121156120F43EE
:10198000E0B401189003E9120F801210BAEE120EA3
:10199000B6120F90ECF0A3EDF002224B9003EBE0B7
:1019A000FEA3E0FF120F97C083C0829003EAE0FC21
:1019B000D082D083120EDD12110C75F078ED120F6B
:1019C0009F1212A712105B4023120F97C083C08290
:1019D0009003EAE0FCD082D083120EDD12117BED81
:1019E000120EB61212A7E475F001802A12111D50D2
:1019F0007A9003E9E0FF120F9CC083C0829003EA53
:101A0000E0FED082D083120EDD12117B120EB512D1
:101A10000EDC74FFF5F0120CF202224B120FF9C02B
:101A200083C0829003EAE0FED082D083120EA71218
:101A30000EDC1212D2FF120FAFF583C083C082906A
:101A400003EAE0FED082D083120EDDE0FCA3E0C307
:101A50009406EC64809480401275F078EF1211596E
:101A6000F583E5822E120F487401F01212DCFE128B
:101A70001156120F43E064017018120F36E0041281
:101A80000F35E0D39405400A9003EAE0FF120F1BE4
:101A9000E4F09003EAE004F0E0C39408500302206D
:101AA000DC22E4FE900037E0FFEEC39F40030224F7
:101AB00030121101E06401600302242C74D82E124C
:101AC0001049E0FC6003022356EE6401704E120FD1
:101AD000C5BF2003D38001C34005E49002ADF09060
:101AE0000290E0FD6401701B90028FE09002ADB4A3
:101AF0000109E0440912101004801512100D121291
:101B0000F78016ED9002ADB4020BE0440512101000
:101B10001211C0800412100DF01211CEEE6402609A
:101B200003022425120FC5BF2003D38001C3400543
:101B3000E49002ADF0900290E0FD6401701C900210
:101B40008FE09002ADB40106121112E48021E0444E
:101B5000041210101212F7022422ED9002ADB4020A
:101B600005E044058003E04404F0E4900038F09080
:101B700002A9F0022422EC64016003022425EE6431
:101B8000017060120FC5BF2003D38001C34005E47C
:101B90009002ADF090028FE0FFB4020B9002ADE036
:101BA000440A1211158013EF640170269001E3E0DE
:101BB0009002ADB4010C121112E49002A91211C0EE
:101BC000801EE04402121115E49002A9F012118E59
:101BD000800E9002ADE04402121115E49002A9F0CB
:101BE0001211CEEE6402705D120FC5BF2003D380C8
:101BF00001C34005E49002ADF090028FE0B40213FF
:101C00009002ADE0440AF09002A97401F09000380F
:101C1000F0802F9001E2E06401701C900290E0904F
:101C200002ADB40105E044098013E044081210102D
:101C300004F012118D800B9002ADE04408121010D8
:101C400004F01211CE121101E4F0C28A0E022284B5
:101C50007F05229001FCE060030224CF04F0E4FF42
:101C6000900037E0FEEFC39E504CEF25E024C8F50E
:101C700082E434301210AB24CCF582E5F03401124A
:101C8000116CEF25E024A8F582E434301210AB2467
:101C9000C6F582E5F0340112116CEF25E024E8F579
:101CA00082E434301210AB24D2F582E5F034011214
:101CB000116C0F0224409001C8A3E09002E8F0905C
:101CC00001CAA3E09002E9F090028C1212CB9003BB
:101CD00018F0EDA3F090000D1212CB90031AF0ED66
:101CE000A3F090026E1212CB90030CF0EDA3F090D3
:101CF00002E8E0FF7E009001C8E07003A3E06F609F
:101D0000089001C8EEF0A3EFF09002E9E0FF7E003A
:101D10009001CAE07003A3E06F60089001CAEEF082
:101D2000A3EFF090028CE0FEA3E09002CE1211D758
:101D30006F7002EC6E600890028CECF0A3EDF090F6
:101D4000000DE0FEA3E09001F61211D76F7002ECD7
:101D50006E600890000DECF0A3EDF090026EE0FED6
:101D6000A3E0FF900294E0FCA3E0FD6F7002EC6E34
:101D7000600890026EECF0A3EDF09002E7E0B4AAE8
:101D80000312373A900300E0B41007E4F0900281A8
:101D900004F0900301E07011A3E0B4100CE4900390
:101DA00001F0A37410F012379790030BE0FFB4100A
:101DB0000BE4900282F090030BF08011EFB4200D41
:101DC000E490030BF090028204F01229F890030AC9
:101DD000E0FFB4100FE49001F2F090030AF09002DB
:101DE0009104F022EFB4200EE490030AF09001F287
:101DF00004F09002BDF0229003B7E0FEA3E0FF9054
:101E000003B1E0FCA3E0C39FFFEC9EFE9003D6F07D
:101E1000A3EFF09003B4E02FF09003B3E03EF0E0C6
:101E2000FEA3E0FFD3222FFFEC3EFEE0FCA3E02F59
:101E3000FFEC3EFE22E4900376F0A3F0900372E004
:101E4000FFA3E0CF900378F0A3EFF0229003BDE072
:101E5000F8A3E0F9A3E0FAA3E0FB9003B1E0FEA34E
:101E6000E0FFE4FCFDEB2FFFEA3EFEED39FDEC3830
:101E7000FC9003BD120E0B9003BCE004F022900313
:101E800072E0FEA3E0FFE4FCFDF9F8C3020DE4906C
:101E900003C1E0FCA3E0FDE4020B21900378E0FE27
:101EA000A3E0FFC3900373E09FFF900372E09E22C4
:101EB0009003BBE0FEA3E0FBCAEECAE4F9F8A3E09E
:101EC000FCA3E0FDA3E0FEA3E0FF22E49003AAF060
:101ED000A3F0900379E022E49003B3F0A3F0229002
:101EE00003B1E0FFA3E09003B7CFF0A3EFF022909F
:101EF00003D8E0FEA3E0FF9003ABE02FF09003AA2D
:101F0000229003B8E024FFF09003B7E034FFF02202
:101F1000F0902EC47408F0902EC37440F022E0902C
:101F200003D4F090036DE09003D3F022C8ECC8C94D
:101F3000EDC9CAEECACBEFCB22759907902ECB74B0
:101F4000F4F0229FFFEC9EFE9003D8F0A3EFF02266
:101F5000900372E0FEA3E0FFE4FCFD22F0902EC6A9
:101F60007416F02224FFF0900378E034FFF0229002
:101F70000378E004F022E0FCA3E0FDEC22C3EF9440
:101F8000F6EE6480947F2212267BFE9003D6F0A3A7
:101F9000EFF0D390028DE09F90028CE09E40239062
:101FA00003D6E0FEA3E0FF123EACCCEECCCDEFCDED
:101FB00090028CE0C313FEA3E013FFD3ED9FEC9ED1
:101FC0005006900371E06013122D20122D26122D61
:101FD0002012267B9003D6F0A3EFF09003D61225B3
:101FE000FF9400EE64809480400280047E007F00B5
:101FF000900376EEF0A3EFF0900282E0701390036E
:1020000076F0A3F0A3E0FFA3E0900372CFF0A3EF7C
:10201000F0900281E07006900299E060101226159F
:10202000E4900281F0900299F09001F8F090028C17
:10203000E0FEA3E0FF900376E0FAA3E0FBD39FEA83
:102040009E404F9003827401F0A3120E170000000F
:1020500000E4900387F090037104F09003AEE07009
:1020600018900379E02432FE900378E03400900366
:10207000ACF0A3CEF0A37401F0900292E0705D90FA
:1020800001F2E060069002747401F0900292740113
:10209000804590000DE0FEA3E0FFC3EB9FEA9E5059
:1020A0003BE4900382F0900378E0FFA3E09003AC60
:1020B000CFF0A3EFF0E4A3F0900371E06002E4F04E
:1020C000900292E0B401159001F2E0600690027473
:1020D0007401F0E4900292F0900270F0022C2090D3
:1020E00001F5E024FE6021146027147003022989A1
:1020F000147003022996240460030229F79001F565
:102100007402F0E490028EF09001F57403F0022B5B
:1021100012122E019001E7E0606D90028EE004F053
:10212000E49003D5F0900037E0FF9003D5E0C39F23
:102130005055E4FF120F7D1210BA1212C0120F8E0A
:10214000ECF0A3EDF0120F7D1210BAEE120EB612E3
:102150000F90ECF0A3EDF00FEFB408D89003D5E0AA
:10216000FF120FEAE4F0A3F0EFB40107E49002F0ED
:10217000F0A3F0EFB40207E49002F2F0A3F09003B2
:10218000D5E004F002290590028EE0C394035003C9
:102190000229F7900026747EF0E49001E8F09002A6
:1021A0008EF09001F57404F022121633EF606890FF
:1021B00001F57405F022123597123D9A900039E02E
:1021C000700312351E900283E07003122E01123547
:1021D000979001E7E0603D1218C5123597E490032F
:1021E000D5F0900037E0FE9003D5E0FFC39E501974
:1021F00012382F1238799003D5E0FF123290123541
:10220000979003D5E004F080D9121B3C12228290F3
:1022100001F5EFF01231E22212271C902F58E05402
:102220000F44F0902EC812273C902EC97428F0A3BA
:10223000743F1226F0902ECC7448F090036E748098
:10224000F090036D7409F0A31226FE90036D7409DB
:10225000F0A37480F0902EC5E4F0902ECDF0A3F0A2
:10226000902E4C7404F0902E4BF0E490036FF0A38A
:10227000F09003D6F0122D269003D6E004F0E0C3D0
:10228000940840F112261C7B507AC312265E500C33
:1022900090036F744EF0A37420F080437BC87AAF34
:1022A00012265E500C90036F743AF0A37498F0807D
:1022B0002E1227307B407A9C122669500C90036FB7
:1022C0007427F0A37410F080161227307BB87A8838
:1022D000122669500A90036F7413F0A37488F0906B
:1022E000036F12267EFEF0A3EFF0EE122624E49098
:1022F00003AEF0900374E0FFA3E090037ACFF0A365
:10230000EFF0900372122672ECC0E0EDC0E0EEC078
:10231000E0EFC0E090037412267212270CD0E0FFA9
:10232000D0E0FED0E0FDD0E0FC120A7F90037C02FA
:102330000E0B7E017FB67D007B017A00793A120E8A
:1023400054123907E49001FCF09002CEF0A374829D
:10235000F090028CE4F0A37482F07C007D5AFF7E42
:1023600000120C557D64120C679001F6EEF0A3EF9D
:10237000F090000DEEF0A3EFF07C007D3C120C55C8
:102380007D64120C6790026EEEF0A3EFF090029461
:10239000EEF0A3EFF0122433E4FE900037E0FFEEFE
:1023A000C39F4003022C0BE4FF75F078EE120F6020
:1023B000120F9012117BEEA424BEF582E5F03400DA
:1023C000120F43E4F075F078EEA424AEF582E5F048
:1023D0003400120F8EE4F0A3F0120F1BE4F00FEFA5
:1023E000640870C5CFEECF123E22123E3112114B5F
:1023F000E4F0123E40123E5E123E4F123E6D74D823
:102400002E121049E4F0121101E4F09001E1747E03
:10241000F0E4A3F0A3F090028FF0A3F074E42E1286
:1024200010D0E4F0123E130E022B7AE49001ECF08F
:102430009001EA747EF0900026F0E49001E9F02229
:102440009003DA7414F0A37432F0900378E0FEA3E2
:10245000E0FF900372E0FCA3E0C3122723123EAC1E
:102460009003DAE0FDC3EF9D7480F86E98502F1250
:1024700026CF1225FC9464EE64809480400C1226D2
:10248000AB04F0700312274F8011C3EF949CEE64ED
:1024900080947F50061226AB122744023E7CC390E4
:1024A00003D8E06480948050147F647E00123D6401
:1024B000123D05EF7003022D1F12261C22123E7CD6
:1024C000900371E0605990028DE0249EFF90028C91
:1024D000E03402FED39003D9E09F9003D8E09E4001
:1024E0005E900378E0FEA3E0FF9003ACE0FCA3E085
:1024F0001227231226D71225FC9432EE6480948092
:10250000400B1226AB04F0700312274F22C3EF9446
:10251000CEEE6480947F50271226AB1227442212FD
:1025200026CFE03EF0D3A3E0940A9003AAE06480B3
:102530009480400BE41226AF04F0700312274F2260
:10254000122D26122D2612271912273D902ECA74FD
:102550003FF0902EC974281226F0902E4C7402F091
:10256000902E4BF0902ECE7410F0902EC57418F073
:10257000902EC074C2F0902EC0E020E7F9902EC0DB
:10258000E4F0902ECBF0902E18E0FEA3E0FF900335
:10259000A8E0FD25E025E02488F582E43403F583F6
:1025A000EEF0A3EFF0902E16E0FEA3E0FFED25E0A5
:1025B00025E0248AF582E43403F583EEF0A3EFF0FE
:1025C0009003A8E004F0E05407F0E4FFFE900388D5
:1025D000E0FCA3E02FFFEE3CFE90038CE0FCA3E0C8
:1025E00090039012260690039412260B90039812E3
:1025F000260B90039C12260B9003A0E0FCA3E09016
:1026000003A412260690036FE0FCA3E0FDC3EF9D38
:10261000FFEE9C900372F0A3EFF0308803759917DA
:1026200022902ECB74F4F0E4FF742012113F743822
:10263000F0902EC37480F074191210DEFDFCE5E2F8
:1026400020E20B0DBD00010CBC07F3BDD0F0902EB5
:10265000CEE4F0902E1A121183121001ECF0A3EDCB
:10266000F0744012113F7428F0902E4E7408F074EC
:10267000701210D8FCFDE5E220E20B0DBD00010C4C
:10268000BC07F3BDD0F0902ECEE4F0902E1C1211BA
:1026900083A424D6F582E5F03400F583ECF0A3EDB5
:1026A000F0902EC574801211427428F0902E4F7451
:1026B00008F074101210D8FCFDE5E220E20B0DBD0D
:1026C00000010CBC07F3BDD0F0902ECEE4F0902EAC
:1026D000C5F0902E1E121183A4244EF582E5F0342D
:1026E00001F583ECF0A3EDF00FEF64086003022E18
:1026F000099001E77401F022758A50538AEF900324
:10270000F77411F09003F67422F09003F97433F02B
:1027100075996F759A90E4FFFEC2960000002097AD
:102720000ED2960000003097069003F77487F00FE2
:10273000BF00010EEF640A4E70DFE4FEFFC2960098
:10274000000020940ED2960000003094069003F70B
:102750007487F00FBF00010EEF640A4E70DF7590B2
:10276000FF75992F759AD00000000000000000004E
:10277000E4FEFF3094063096032097069003F6742B
:1027800087F00FBF00010EEF640A4E70E6758B03F1
:10279000E4F58D758EFF758DE0F5AD75AEF075AF16
:1027A0001DF5AC7589FF75913C75990FF59675937C
:1027B0001CF59BF595F592F59A75800CC289D28A25
:1027C0009003FA04F022E49003D7F0FF9003D6F0D0
:1027D000EF14602114603B1460551460672404609A
:1027E000030230449003D87401F0A3742FF0A37453
:1027F00058F002303E9003D81237E7900001120BD8
:10280000F4FED3941F400312380E120BDB6E70548B
:10281000804C9003D81237E7900002120BF4FED3DD
:102820009406400312380E120BDB6E7037802F9027
:1028300003D81237E7900003120BF4FE120BDB6E85
:102840007022801A9003D81237E7900004120BF41C
:10285000FE648B600312380E120BDB6E7006900361
:10286000D6E004F00FEF64056003022FB09003D6AA
:10287000E0B40504A37401F09003D7E0FD60079075
:1028800002FAE0547FF0CFEDCF2200320032000890
:1028900002580004003205DC00C80032000F00645A
:1028A000000A0258000C000C0000000000000000AC
:1028B00000000000000101010B0C0D0E0F050607C2
:1028C00008090A04030001020050005000500050A3
:1028D0000050005000500050005000500050005078
:1028E0000050005000500050005500550055005554
:1028F0000055005500550055005500550055005530
:10290000005500550055005500460046004600465B
:102910000046004600460046004600460046004687
:102920000046004600460046000600060006000677
:102930000006000600060006000600060006000667
:1029400000060006000600069003F47405F0E4900B
:1029500003F1F09003F1E0FFC3940840030231E17A
:1029600075F002120EB51211A0EF121001121051E3
:10297000FE9003F2F0A3EFF0123EAC9003F41210BD
:102980002A50619003F2E0FEA3E0FF9003F1E0FD26
:1029900075F002120F9F12110C75F002ED120F9FCD
:1029A00012105B401C9003F1E0FD75F002120F9FC6
:1029B000E4F0A3F075F002ED120EB6E475F00180BC
:1029C0001E12111D50329003F1E0FF75F002120F3C
:1029D0009FE4F0A3F075F002120EB574FFF5F0124B
:1029E0000CF280149003F175F002120FFF75F002E3
:1029F000120EB0ECF0A3EDF09003F1E004F0023120
:102A000033229001F2E0606A900274E06064900208
:102A100092E0602A121136540FFFF0BF0803D380F2
:102A200001C340129002ADE0B40203D38001C34061
:102A300005E49002ADF09002ADE044208028121130
:102A400036540FFFF0BF0403D38001C3401290023D
:102A5000ADE0B40103D38001C34005E49002ADF0C2
:102A60009002ADE04410F09002EDF0E4900274F0BA
:102A7000C28A9002BDE0B40118900270E0B4010C6B
:102A8000121134E4F07420F09002EDF0E49002BDF5
:102A9000F0900291E06018900270E0B4010C121105
:102AA00034E4F07410F09002EDF0E4900291F02222
:102AB000CDEFCD121092120F0FE0FAA3E0C39FEA00
:102AC0009E403375F002ED120F0F1210A1A42446A0
:102AD000F582E5F03400F583EEF0A3EFF0121092EA
:102AE000120F0FE0FAA3E0C39FFFEA9EFEED120F64
:102AF000EAEEF0A3EFF0ED6401701B75F002ED1249
:102B00000FED1210FA9002F0F0EBA3F01210EB9020
:102B100002F4F0EBA3F0ED6402701B75F002ED120D
:102B20000FED1210FA9002F2F0EBA3F01210EB90FE
:102B300002F6F0EBA3F022122719E4F5E2902EC979
:102B40007420F09003D4E0902EC3F09003D3E09073
:102B50002EC4F0902E4C740212273C902EC5741097
:102B6000F0EF902ECEB401057410F08002E4F090E6
:102B70002EC074C2F0E4FDFCE5E220E20B0DBD00C6
:102B8000010CBC07F3BDD0F053E2FB902EC5E4F07E
:102B9000902ECEF0EF902E18B40109E0FFA3E09044
:102BA00003AF8007E0FFA3E09003B1CFF0A3EFF005
:102BB000902ECBE4F0308803759917224103F8007A
:102BC0004103FB1041028E004101F30041028300EA
:102BD0004101F200410282014101F4004102BD00C5
:102BE0004102910041027000410281004102AD00AA
:102BF0004101FC0041029200410274004100380092
:102C00004102A9004102DF004101F80041029300A6
:102C10004102990041003900410366004103670009
:102C20004202E000004102E2004102E4004102E30E
:102C300000410368004102E51041036C00000239C5
:102C400089E493A3F8E493A34003F68001F208DF3C
:102C5000F48029E493A3F85407240CC8C333C45464
:102C60000F4420C8834004F456800146F6DFE48018
:102C70000B010204081020408090339CE47E0193F5
:102C800060BCA3FF543F30E509541FFEE493A360EA
:102C9000010ECF54C025E060A840B8E493A3FAE445
:102CA00093A3F8E493A3C8C582C8CAC583CAF0A396
:102CB000C8C582C8CAC583CADFE9DEE780BE000096
:102CC0000000FFFFFFFF0000FFFFFFFFFFFFFFFF10
:102CD000FF00FFFF0000FFFF000000FFFFFFFFFFFE
:102CE000FFFF00000000FFFFFFFFFFFFFFFFFFFFF0
:102CF00000000000000000000000000000000000D4
:102D000000000000000000000000000000000000C3
:102D100000000000000000000000000000000000B3
:102D200000000000000000000000000000000000A3
:102D30000000000000000000000000000000900201
:102D4000FCE0FF6410606FEF6420706A9002FC7416
:102D500030F07F011233179003CDE0FEA3E0FF9027
:102D600003AFE0FCA3E0C39FFFEC9EFECDEFCDFCE4
:102D7000120B217B667A6679487842120A7F7BE1E2
:102D80007A7A79147840120885E4FBFA79C8784297
:102D90001209769003CF120E0B9003CF12269F12CA
:102DA0000B5ACDEFCDCCEECCEC9002FEF0EFA3F0C1
:102DB0009002FC7410F0229001F8E0146025146079
:102DC0002C14604D240370623088619001F8740205
:102DD000F07F0C123DF5123B0F9000397401F07535
:102DE0009917222088469002997401F0227F0C12D4
:102DF00038C3EF60031211B22088311211B2900172
:102E0000F87403F09002937401F00F123DF5023B49
:102E10000F7F0D1238C3EF60137F0D123DF5900147
:102E2000F87401F0E4900293F02280FE22902EC00C
:102E3000E4F0902ECB74F4F0902F58E0540F24500F
:102E4000902EC8F0902ECC7448F0902EC97428F0C3
:102E5000A3743FF0902E40748112107A12107A04FD
:102E600012107A7404F0A37482F0A37402F0A3F039
:102E7000902EC67414F0902EC17490F0A37401F0DB
:102E8000A37420F0A37409F043E310123B369000C2
:102E900037EFF0229001F4E0B4010B123D26EF6011
:102EA00005E49001F4F09003FBE064207047900289
:102EB00082E0640170259002FD7420F0900283741A
:102EC00001F0902ECBE4F043AA08123CE375860192
:102ED000758A50538AEFE4F58D800B902ECBE4F089
:102EE000123DE6758601758B03758EFF758DE0903A
:102EF0002ECB74F4F0758DE022C0E0C0F0C083C02A
:102F000082C0D0E8C0E0ECC0E0EDC0E0EEC0E0EF91
:102F1000C0E0D2AF9001F3E004F0C3940A4021E492
:102F2000F09002CAE0FCA3E0FDA3E0FEA3E02401D0
:102F3000FFE43EFEE43DFDE43CFC9002CA120E0BB1
:102F4000D0E0FFD0E0FED0E0FDD0E0FCD0E0F8D053
:102F5000D0D082D083D0F0D0E0329003D67408F085
:102F6000A3E4F0A3743FF0A374DFF0E4FDFCF97573
:102F70008A10538AEF0000009003D6E0FEA3E0120F
:102F80003815FF69F90DBD00010CBC37EBBDDFE85A
:102F90009003D8E0FEA3E0F5828E83E49369700885
:102FA0009002E7740EF08005E49002E7F0758A5015
:102FB000538AEF000000227F007E08E4FDFC9003AE
:102FC000D6F0A3F0758A10538AEF000000EF123894
:102FD00015FB9003D7E02BF09003D6E03400F00D02
:102FE000BD00010CBC37E6BDE0E39003D6E0FCA3D6
:102FF000E0FDEC900301F0EDA3F0758A50538AEFE9
:1030000000000022900369E0FBA3E0FAA3E0F922AC
:10301000900367E0FF04F08F82758300227F00FE3B
:10302000F0A3EFF022FDEDFFEEF0A3EFF02290030E
:10303000D77401F0222DF582EE3CF583E4932274DF
:1030400001F090036822E92FF9E43AFA020BDBCB96
:10305000EFCBEB7013120EF7E090033EF0120F0B64
:10306000A3E090033F1212AEEB64017013120EF74F
:10307000E0900336F0120F0BA3E09003371212AE6C
:10308000EB64027013120EF7E090033AF0120F0B8C
:10309000A3E090033B1212AE229003FAE06043904B
:1030A000026C1212E6949EEE9416500EEF94CEEE41
:1030B000940E40069003F97487F09001F01212E626
:1030C0009412EE941F500EEF9442EE941740069027
:1030D00003F97487F0E49003FAF09003F9E09002AA
:1030E000ECF0229003D6EFF0C3940E5037E0FF24AB
:1030F000151211EBE0602DEF1211F3120E80900308
:10310000D6E025E0246AF582E43430F583120F6FAF
:10311000400F9003D6E02415F582E434021210C368
:10312000227F00227F00227E007F807D007B017A4B
:103130000279E6120E54E49002EDF09002E7740E6C
:10314000F09002F874ABF09002FA7498F09003F7E4
:10315000E09002EAF09003F6E09002EBF09003F9C1
:10316000E09002ECF0022FA690026EE0FEA3E0FFDA
:10317000C3900377E09F900376E09E5004E4F0A3B1
:10318000F090037812275690030EF0EDA3F0900311
:1031900076122756900310F0EDA3F09003721227D9
:1031A00056900314F0EDA3F02212086653A87F1284
:1031B0002ED8123B5D43A880123EA0123DCE1208CD
:1031C0004E123D47EF24E0600A2410700AC283C209
:1031D000828004D283D2821224331236741228BF22
:1031E00080DF9003F1EFF0E0FF24711211FFE06047
:1031F0001EEF121207120E8090306E120F6F400FEA
:103200009003F1E02471F582E434021210C3227FAE
:1032100000229003F1EFF0E0FF2423121213E0608C
:103220001EEF12121B120E80903076120F6F400F9D
:103230009003F1E02423F582E434001210C3227FCE
:1032400000229003F1EFF0E0FF24D0121227E0609B
:103250001EEF12122F120E80903074120F6F400F5B
:103260009003F1E024D0F582E434021210C3227FEF
:1032700000229003F1EFF0E0FF249A12123BE0608D
:103280001EEF121243120E8090307A120F6F400F11
:103290009003F1E0249AF582E434021210C3227FF5
:1032A00000229003D8EFF0E0FF24F912124FE06003
:1032B0001EEF121257120E8090306C120F6F400FDB
:1032C0009003D8E024F9F582E434011210C3227F80
:1032D00000229003D8EFF0E0FF24BA12128BE060D6
:1032E0001EEF121293120E80903070120F6F400F6B
:1032F0009003D8E024BAF582E434021210C3227F8E
:1033000000229003D8EFF0E0FF2423121277E06050
:103310001BEF12127F120E80120F6C400F9003D819
:10332000E02423F582E434021210C3227F0022CB72
:10333000EFCBEBD3940E501D74152B1211EBE070F4
:103340001474152BF582E43402120EE3EB1211F320
:10335000F583120E0B22902EC5E4F0902ECDF0A333
:10336000F0FFFEEE90308893600D74962FF582E4A6
:103370003402F583EEF00F0EEEB410E722900369ED
:103380007401F0A37402F0A374E6F0E4F5DA75DAE0
:103390004043DA2075D74075DA5843A90875B80854
:1033A00075F80822CBEFCBCAEECA90020EE0701778
:1033B00090020E120EE590020F120E0BCFEBCF9083
:1033C0000002EAF0A3EFF022121072501D74712B6C
:1033D0001211FFE0701474712BF582E43402120EA6
:1033E000E3EB121207F583120E0B22121072501D1E
:1033F00074232B121213E0701474232BF582E4341F
:1034000000120EE3EB12121BF583120E0B221210A8
:1034100072501D74D02B121227E0701474D02BF54B
:1034200082E43402120EE3EB12122FF583120E0B1C
:1034300022121072501D749A2B12123BE0701474F9
:103440009A2BF582E43402120EE3EB121243F58359
:10345000120E0B22121072501D74F92B12124FE033
:10346000701474F92BF582E43401120EE3EB12129E
:1034700057F583120E0B22121072501D74102B126E
:103480001263E0701474102BF582E43400120EE322
:10349000EB12126BF583120E0B22121072501D7478
:1034A000232B121277E0701474232BF582E434027C
:1034B000120EE3EB12127FF583120E0B2212107222
:1034C000501D74BA2B12128BE0701474BA2BF58253
:1034D000E43402120EE3EB121293F583120E0B2268
:1034E00090000FE0601A900013120E8290028AE0A2
:1034F000FEA3E0120F754008E490000FF07F012258
:103500007F00229003F8E0701BE4F58D758B027547
:103510008EC1758DA0F586438A84E5DB20E20575B2
:103520008703000022900008E06018A3120E82902A
:10353000026AE0FEA3E0120F754008E4900008F074
:103540007F01227F002290020EE06018A3120E82FB
:10355000900002E0FEA3E0120F754008E490020E16
:10356000F07F01227F0022E4FD9002E2E0601190F2
:1035700002E6E0FE54F0FDEE540FF0E49002E2F0BB
:10358000CFEDCF2290000812129F70129000081207
:103590000EE5900009120E0B90026A12119722900C
:1035A000000F12129F701290000F120EE590001380
:1035B000120E0B90028A12119722900282E0B4013F
:1035C0000E900039E060051226158003122D261298
:1035D00027670239489002CA120E17000000007EC9
:1035E000007F0E7D007B017A027915020E547E0069
:1035F0007F617D007B017A037972120E541229F8E3
:10360000E490036CF022758B02E4F586F58D7587E6
:103610000300000022EFD3940E500874152F1211EE
:10362000EBE4F022EFD39403500874712F1211FFD2
:10363000E4F022EFD39403500874232F121213E402
:10364000F022EFD39403500874D02F121227E4F025
:1036500022EFD394035008749A2F12123BE4F02205
:10366000EFD39403500874F92F12124FE4F022EFB5
:10367000D39403500874102F121263E4F022EFD396
:103680009403500874232F121277E4F022EFD3949E
:1036900003500874BA2F12128BE4F022E490000851
:1036A000F090026AF0A3F022E490000FF090028AFA
:1036B000F0A3F022E490020EF0900002F0A3F022BA
:1036C00012360D9001F57401F0022B12EE30E7076F
:1036D000C3E49FFFE49EFE22000000000000000003
:1036E00000000000000000000000000000000000DA
:1036F00000000000000000000000000000000000CA
:1037000000000000000000000000000000000000B9
:1037100000000000000000000000000000000000A9
:103720000000000000000000000000000000000099
:103730000000000000000000000000000000000089
:103740000000000000000000000000000000000079
:103750000000000000000000000000000000000069
:103760000000000000000000000000000000000059
:103770000000000000000000000000000000000049
:103780000000000000000000000000000000000039
:103790000000000000000000000000000000000029
:1037A0000000000000000000000000000000000019
:1037B0000000000000000000000000000000000009
:1037C00000000000000000000000000000000000F9
:1037D00000000000000000000000000000000000E9
:1037E00000000000000000000000000000000000D9
:1037F000000000000000000000000000000000E6E3
:1038000000000000000000000000000000000000B8
:1038100000000000000000000000000000000000A8
:00000001FF
