:1000000000990000000F000066880000000000005A
:1000100000000000000000000000000000000000E0
:1000200078FFE4B8200118F6D8F99000007F007E30
:1000300007E4F0A3DFFCDEFA75810702350ECBEF93
:10004000CBEBD3940D501E12114CE0701812114CD2
:100050007401F0120E6D1210BC2434F582E43402E7
:10006000F583120DEB22D2AF00320002269C9003E2
:10007000F4E0700EE4F586E5DB20E2067587030008
:1000800000002202377D75B28E75B6F9E4F5B743EC
:10009000B20143AA01023DBA000000020846020B69
:1000A000C6E86480F8E933E83360110460F0ED33AA
:1000B000EC337009E8FCE9FDEAFEEBFF220460DEA8
:1000C000D3EB9FEA9EE99DE8C2E78CF0C2F795F07A
:1000D000400CE8CCF8E9CDF9EACEFAEBCFFB120BF5
:1000E0009185D0F05804700320D5B3E80470075010
:1000F00002B2D5020BD092D5EC0460F7E4CCC0E09C
:10010000C398F8603B94186008400DD0E0FB020BE8
:10011000A8E4FBFAC9FC8028E830E406E4C9FBE463
:10012000CAFCE830E305E4C9CACBFCE85407601018
:10013000F8C3E913F9EA13FAEB13FBEC13FCD8F15B
:1001400030F52FC3E49CFCEF9BFFEE9AFEED99FD8A
:10015000D0E0FBEF4E4D4C701222DB03020BCDECD6
:100160002CFCEF33FFEE33FEED33FDED30E7EB0219
:100170000BA8EF2BFFEE3AFEED39FDD0E0FB50135C
:100180000BBB0003020BD0ED13FDEE13FEEF13FFCC
:10019000EC13FC020BA8EC4D6011E8497017ED332D
:1001A000EC3304600DE4FCFFFEFD22E933E8330488
:1001B00070F8020BC6120B9158046009E4CC24813C
:1001C0005006285009020BD0284003020BCDC0E096
:1001D000EB4A7044B98006D0E0FB020BBCEF4E70D6
:1001E0001CBD8008EBFFEAFEE9FD80EBE98DF0A481
:1001F000FEE5F0020A5FE9CDF9EAFEEBFFEF89F0D8
:10020000A4FCE5F0CE89F0A42EFFE435F0CD89F012
:10021000A42DFEE435F08067EF4E7005BD80D780D9
:10022000C3EF8BF0A4ACF0EE8BF0A42CFCE435F023
:10023000F8EF8AF0A42CE5F038FCE433CB8DF0A481
:100240002CFCE5F03BF8EE8AF0A42CFCE5F038F845
:10025000E433CF89F0A42CFCE5F038CF3400CE890C
:10026000F0A42FFFE5F03EFEE433C98DF0A42EFE8E
:10027000E5F039CD8AF0A42FFFE5F03EFEE43DFD28
:1002800033D0E0FB50070BBB000F020BD0EC2CFC73
:10029000EF33FFEE33FEED33FD020BA8020BD0EC83
:1002A0005D046005E859047003020BC6120B9158F7
:1002B0000460F6EC4860F2EC7004FDFEFF22C860BA
:1002C000DB2481C85009C39860025006020BCD9808
:1002D00050CAF582E9294B4A7005AB82020BBC7506
:1002E000F0007C1A7880C3EF9BEE9AED99400DC325
:1002F000EF9BFFEE9AFEED99FDE842F0DC23ACF0B7
:10030000D0E0FFD0E0FED0E0FDAB8220E7101BEB99
:1003100060BAEC2CFCEF33FFEE33FEED33FD020B45
:10032000A8E803F830E705C0F075F000EF2FFFEE06
:1003300033FEED33FD40B830E7C280AA75F020806F
:100340000E75F010800575F0087D007E007F00338B
:1003500092D530D503120DB6EC334010EF33FFEEDB
:1003600033FEED33FDEC33FCD5F0ED22E5F0247ED9
:10037000A2D513CC92E7CDCEFF22EDD2E7CD33EC60
:100380003392D524814006E4FFFEFDFC22FCE4CF3D
:10039000CECDCC24E0501174FF80EDC3CC13CCCD76
:1003A00013CDCE13CECF13CF0470F030D5DE020DB7
:1003B000B6E9D2E7C933E833F892D5EDD2E7CD33C9
:1003C000EC33FC5002B2D522EC30E7100FBF000C2A
:1003D0000EBE00080DBD00040BEB6014A2D5EB139C
:1003E000FCED92E7FD2274FFFCFDFEFF22E480F8A5
:1003F000A2D574FF13FC7D80E480EFBB01068982E7
:100400008A83E0225002E722BBFE02E32289828A2D
:1004100083E49322BB010CE58229F582E5833AF55A
:1004200083E0225006E92582F8E622BBFE06E92594
:1004300082F8E222E58229F582E5833AF583E493A6
:1004400022BB010689828A83F0225002F722BBFE7A
:1004500001F322F8BB010DE58229F582E5833AF527
:1004600083E8F0225006E92582C8F622BBFE05E9A2
:100470002582C8F222EF8DF0A4A8F0CF8CF0A4283A
:10048000CE8DF0A42EFE22BC000BBE0029EF8DF015
:1004900084FFADF022E4CCF875F008EF2FFFEE33C7
:1004A000FEEC33FCEE9DEC984005FCEE9DFE0FD576
:1004B000F0E9E4CEFD22EDF8F5F0EE8420D21CFE4A
:1004C000ADF075F008EF2FFFED33FD4007985006B3
:1004D000D5F0F222C398FD0FD5F0EA22C5F0F8A3BB
:1004E000E028F0C5F0F8E582158270021583E03847
:1004F000F022A3F8E0C5F025F0F0E5821582700245
:100500001583E0C838F0E82275F008758200EF2FF7
:10051000FFEE33FECD33CDCC33CCC58233C5829BC9
:10052000ED9AEC99E58298400CF582EE9BFEED9AEF
:10053000FDEC99FC0FD5F0D6E4CEFBE4CDFAE4CC8B
:10054000F9A88222B800C1B90059BA002DEC8BF08D
:1005500084CFCECDFCE5F0CBF97818EF2FFFEE334A
:10056000FEED33FDEC33FCEB33FB10D70399400475
:10057000EB99FB0FD8E5E4F9FA227818EF2FFFEE9C
:1005800033FEED33FDEC33FCC933C910D7059BE9CD
:100590009A4007EC9BFCE99AF90FD8E0E4C9FAE429
:1005A000CCFB2275F010EF2FFFEE33FEED33FDCCC8
:1005B00033CCC833C810D7079BEC9AE899400AEDB2
:1005C0009BFDEC9AFCE899F80FD5F0DAE4CDFBE45A
:1005D000CCFAE4C8F922C3E49FFFE49EFEE49DFD4B
:1005E000E49CFC22EB9FF5F0EA9E42F0E99D42F08C
:1005F000EC6480C864809845F022EB9FF5F0EA9E99
:1006000042F0E99D42F0E89C45F022ECF0A3EDF0C9
:10061000A3EEF0A3EFF022A8828583F0D083D082EE
:10062000120E0E120E0E120E0E120E0EE473E49344
:10063000A3C583C5F0C583C8C582C8F0A3C583C55B
:10064000F0C583C8C582C822A42582F582E5F035AD
:1006500083F58322EF4E6012EF60010EEDBB010BBC
:1006600089828A83F0A3DFFCDEFA2289F05007F743
:1006700009DFFCA9F022BBFEFCF309DFFCA9F02294
:10068000F583E0F8A3E0F9A3E0FAA3E0FB9002C64B
:10069000E0FCA3E0FDA3E0FEA3E02275F002120E51
:1006A0002875F087E0FCA3E0FDEFA4245EF582E569
:1006B000F03400F58322902E0DC39BFBEE9AFAEDE9
:1006C00099F9EC98F8E493FE740193FFE4FCFDC300
:1006D000020DDA75F002120E2875F087E0FCA3E037
:1006E000FDEFA42470F582E5F03400F58322EF24B9
:1006F00066FFEE34FEFE7C007D0A120C557D321240
:100700000C67EF249AFFEE3401FEEB75F002A4248F
:100710003AF582E5F03400F5832275F087EEA424E3
:10072000C1F582E5F03400F583E5822FF582E435EA
:1007300083F583E4F075F087EEA424CAF582E5F032
:100740003400F583E5822FF582E43583F58322E0DA
:10075000FEA3E0FF9003E5E0FD75F002A42494F50C
:1007600082E5F03400F583EE8FF0120CBC75F002D8
:10077000EDA42494F582E5F03400F5832275F0872A
:10078000A42482F582E5F03400F583EF75F00202CF
:100790000E28902EC97420F07484902E4FF0740BA4
:1007A000902EC4F0902EC32275F002EE120E28ECAB
:1007B000F0A3EDF09003E5E0FF75F087A42482F547
:1007C00082E5F03400F583229003ECE0FD75F00241
:1007D000A424A6F582E5F03400F583229003E5E039
:1007E000FF75F087A4244CF582E5F0340022E490F4
:1007F0000027F09002B4F09002EAE09002B5F054C5
:10080000F0FFF02275F002EBA4242EF582E5F0341F
:1008100000F583E0FEA3E0FFEB75F002A42428F5C9
:1008200082E5F03400F58322C39BFBEE9AFAED9942
:10083000F9EC98F822EE75F002020E28F583E0FC40
:10084000A3E0FD75F00222E04401F0E4900027F0FF
:100850009002B4227420902EC9F0902E4E2275F092
:1008600002EBA42434F582E5F03400F583E0FCA328
:10087000E0FDEC22E0FEA3E0C39DFFEE9C2290038E
:10088000D8E024F3F582E43401F58322F0A3F0A349
:10089000F0A3F0A32275F002EC120E28E0FEA3E014
:1008A000FFD3229003E6E0FF9003E5E0FE75F087BA
:1008B000A424C1F582E5F0340022CBEFCBEBD39436
:1008C0000322F583E493FC740193FD75F002EFA419
:1008D0002274F92EF582E43401F58322FFEB25E042
:1008E00025E022F583E4F07F0122E0FDC3EF9D7453
:1008F00080F86E98229003ECE0FF24C1F582E43486
:1009000000F583229003E8E0FEA3E0FF9003E5E01A
:10091000FD75F087229003E5E0FF75F08722E4F093
:10092000A3F075F08722E0FCA3E0FD75F08722E0DC
:100930004406F09000277401F022E0FF25E024D95E
:10094000F582E43403F583229003E5E0FF24F6F515
:1009500082E43401F58322C28A9002EAE09002B573
:10096000F0227420902EC9F0902E4F2274242BF583
:1009700082E43402F58322747B2BF582E43402F5A1
:10098000832274CD2BF582E43402F5832274A52BE7
:10099000F582E43402F58322740D2BF582E43402EF
:1009A000F58322740E2BF582E43400F58322743132
:1009B0002BF582E43402F5832274B62BF582E434FD
:1009C00002F58322ECF0EDA3F09003E6E004F022C0
:1009D000EF25E024DFF582E4340322F583ECF0A375
:1009E000EDF022EE8FF0020CBCE4F0A3F075F00203
:1009F00022F074CA2FF582E43400F58322E0FEA3CE
:100A0000E0FFC322E49001FDF090029AF0229003EF
:100A1000E5E0FF75F002227428902EC9F0902E4E6A
:100A200022F074FA2EF582E43401F583E4F022908A
:100A300002B5E09002EAF022E0FEA3E0C3941EEECD
:100A40006480948022E0FCA3E0C3941EEC64809454
:100A50008022900204E0640122902EC3F0A3740966
:100A6000F022E0FF9003D9E0FEEFC8EEC80822FFB5
:100A7000E0FCA3E0FD6F22902EC5E4F0902ECDF0B7
:100A8000A3F022F582E43402F5832275F002EC1221
:100A90000E28E475F00122902EC6F0902EC5740148
:100AA000F0227F0B123DFBE49002CCF022C3EF94C6
:100AB000FEEE6480947F22C3EF94ECEE6480947F1A
:100AC000229003D8E0FF75F002A422F09001FEF01E
:100AD00090029BF0229003F57487F022E49003D8F3
:100AE000F09003D8E0FFC394094003021559EF903A
:100AF0002EC87014E0545FF0A3746AF0902EC37493
:100B00004AF0A37401F08009E044F0F0742012125E
:100B1000399003D8E0902DFC93902ECAF0E4900316
:100B2000D7F0900026E0FF9003D7E0FEC39F40037C
:100B300002155074A12E121263E0FF9003D9F0E465
:100B4000F5E2EFC39408503B7415121277C083C0CE
:100B5000821212428002C333D8FCD082D083F0903C
:100B60002ECD7401F0C083C082E0FFC8EEC80880BB
:100B700002C333D8FCD082D083F0902EC074C1F071
:100B80000214CD9003D9E024F8F07416121277C045
:100B900083C0821212428002C333D8FCD082D08339
:100BA000F0902ECE7401F0C083C082E0FFC8EEC882
:100BB000088002C333D8FCD082D083F0902ECB744F
:100BC000F4F0EEB4030B902EC97420F0748012126E
:100BD00039EE6406600302144D9003D8E0FFB401BF
:100BE0000E1210347404120F7D7480F002144DEF55
:100BF000B4020E1210347482120F7D7490F002143D
:100C00004DEFB4030F74311210367406F0902EC4F9
:100C1000740B800FEFB404141210347484F0902E0F
:100C2000C4740AF0902EC374A0F08041EFB4051094
:100C30001210347404F0740A120F8074C0F0802D06
:100C4000EFB4060D1211F77409120F7D7470F08065
:100C50001CEFB407071211F77482800BEFB4080D74
:100C6000742A1211F97404120F7D7430F0EE6407C7
:100C700070759003D8E0FFB40107121142748280AE
:100C80003CEFB402028019EFB40311902EC974280E
:100C9000F07409120F7A7450F00214C7EFB404080C
:100CA000120F727430F0803FEFB40508120F7274A7
:100CB000C0F08033EFB4060D1211427404120F7DA0
:100CC0007440F08022EFB4070F742812114474822C
:100CD000120F7D7460F0800FEFB4080B1211427494
:100CE00004120F7D74E0F0902EC074C2F0E4FFFE99
:100CF000900000742EF0A3E4F09003D7E024A1123A
:100D00001263E09003D9F0E5E220E20B0FBF00018F
:100D10000EEF64C84E70D953E2FB1212579003D9FC
:100D2000E0FD75F002A4FFAEF0900001E02FF0901E
:100D30000000E03EF0ED902E2D93FF900000E47552
:100D4000F002120CD285F082F583121106EF120F19
:100D5000C4F583C083C0829003D8E0D082D08312D0
:100D60000F6CECF0A3EDF09003D7E004F002130257
:100D70009003D8E004F00212C19001FF7401F02248
:100D8000E49003DBF0FF1234507F011234509003E3
:100D9000D9E4F0A37404F090036AE014607C14704A
:100DA0000302160F1470030216641470030216FC7B
:100DB000147003021711240560030217E79003CE95
:100DC000120DF700000000E49003BAF0A3F0A312A4
:100DD0000DF7000000009003B0E0FFA3E09003C017
:100DE000CFF0A3EFF09003B0E0FFA3E09003C2CFF9
:100DF000F0A3EFF012260DA3F0A3F09003AEE0FFF6
:100E0000A3E09003CCCFF0A3EFF0123E7F7F327EC1
:100E100000123BB090036A7401F0122615123BFFDA
:100E2000EF70030217E71217ED7402F00217E712D2
:100E300024F8940AEE64809480401312260D9003E7
:100E4000B7E004F070139003B6E004F0800B1226B4
:100E500092500612260D12264312258E700690031C
:100E6000BAE004F0123BFFEF70030217E71225E629
:100E7000120D249003C0EEF0A3EFF090036A740308
:100E8000F00217E79003B0E0FEA3E024B4FFEE34D5
:100E9000FBFE9003D7F0A3EFF0123E97C3EF94034D
:100EA000EE648094805025E49003BAF0A3F0A3127E
:100EB0000DF700000000122615123E7F7F0A7E000B
:100EC000123BB090036A7404F00217E79003D7E076
:100ED000FEA3E0FF1225149405EE64809480401474
:100EE00012260D90036DE024FFF090036CE034FFB8
:100EF000F0A38022C3EF94FBEE6480947F40030252
:100F000017E712260D90036DE004F0700690036C55
:100F1000E004F090036D1226520217E71226151214
:100F20003BFFEF70030217E71217ED7405F002178D
:100F3000E71224F8940AEE64809480401312260D80
:100F40009003B7E004F070139003B6E004F0800B58
:100F5000122692500612260D12264312258E700676
:100F60009003BAE004F0123BFFEF70030217E712A0
:100F700025E6120D249003C2EEF0A3EFF012262511
:100F8000E4FBFAF978401209767BA07A70797678DA
:100F9000C2120885120B5A9003C8EEF0A3EFF0902E
:100FA00003C2122628ECC0E0EDC0E0EEC0E0EFC0C6
:100FB000E09003C8122628D0E0FBD0E0FAD0E0F998
:100FC000D0E0F8120976ECC0E0EDC0E0EEC0E0EF52
:100FD000C0E0122625C8ECC8C9EDC9CAEECACBEFDD
:100FE000CBD0E0FFD0E0FED0E0FDD0E0FC120A7FE5
:100FF000120B5A9003CCEEF0A3EFF090036A740644
:10100000F09003DB7401F09003DBE0FF22123E7FDF
:101010007F057E00123BB090036A229003E5EFF05B
:10102000E49003EBF09003E7F09003E6F09003E622
:10103000E0FFC394094003021999EF9003EA700599
:101040007404F080037408F01210F5120EC2C0830D
:10105000C0829003E6E0FED082D083120E7BEE12B7
:101060000F6C1210549003E8F0A3EFF0121128E077
:10107000601A75F087EF120F51C083C0829003E6AB
:10108000E0D082D083120F6CE4F0A3F09003E8E08C
:10109000FEA3E0FF123E979003EA1210CA503D12E1
:1010A00010E4120F51C083C0829003E6E0FCD082AE
:1010B000D083120F6C1211C375F087120F50EC120F
:1010C000101612107C9414EE648094804003021970
:1010D00010121297400302195D0219379003EBE0DA
:1010E00004F09003E81211DDEE648094805011C387
:1010F000EF94FBEE6480947F50069003E7E004F0E9
:1011000012123270781210E4120F51C083C0829014
:1011100003E6E0FCD082D083120F6C1211C375F08D
:1011200087120F501210759414EE64809480402240
:101130001210EC120F51C083C0829003E6E0FCD085
:1011400082D083120F6C1210FEED120EC212126BBF
:10115000802812129750261210F5120F51C083C02A
:10116000829003E6E0FED082D083120F6C1210FE54
:10117000120EC112101574FFF5F0120CBC1210F50E
:10118000120EC2C083C0829003E6E0FED082D083FC
:10119000120E7B121015121054FE9003E5E0120F90
:1011A00099C083C0829003E6E0D082D083120F6C96
:1011B000EEF0EF1211A702180D9003E7E0C39406BA
:1011C000403A9003E5E0FF123C499003E5E0FF124E
:1011D0003993EF602FE49003E6F01210F5120E8AB7
:1011E000C083C0829003E6E0FED082D083120EB3AB
:1011F0001210151211A4E0B409E080089003E5E094
:10120000FF123E199003EBE0C39406403A121128F6
:10121000E07034123C259003E5E0FF123AB8EF602D
:101220002EE49003E6F01210F5120E8AC083C082FD
:101230009003E6E0FED082D083120EB31210151296
:1012400011A4E0B409E0229003E5E0FF123E0A2277
:101250009003D7747EF0E4A3F0900026E0FE9003A4
:10126000D8E0FFC39E4003021C00123AF0EF600377
:101270001211E412105EE06003021AE11212A124BE
:10128000E1F582E5F0340112101CEF120EEEE0FEE3
:10129000A3E0C39DEE9C40409003D8E09003D7F0BC
:1012A0001210627401F09001FDE004F090029AF0D7
:1012B0009003D8E0FF24F91210B47401F0123E3705
:1012C0009003D8E0FF123E469003D8E0FF123CB5F1
:1012D0009003D8E0FF123CFD9003D8E0FF123A09DA
:1012E000EF60099003D8E012112DE4F09003D8E0EC
:1012F000FF123B25EF7003021BF7E49001FE021B77
:10130000F21212A124EDF582E5F0340112101CEF67
:10131000120EEEE0FEA3E0C39DEE9C5003021BBC48
:101320009003D8E09003D7F0123A44EF7003021B09
:10133000F7E4FF9003D8E0FE75F087120E8A120FD3
:101340006B121106EE120EC2120F6BECF0A3EDF051
:101350000FEFB409DE12105EE4F0900027E0FF709A
:10136000099002B4E07003021C0EEF601F9002B4FB
:10137000E06019120FCEBF2003D38001C34005E403
:101380009002B5F09002B5E044058048900027E057
:10139000601F9002B4E07019120FCFBF2003D380FA
:1013A00001C34005E49002B5F09002B5E04401802D
:1013B00023900027E070779002B4E06071120FCEA6
:1013C000BF2003D38001C34005E49002B5F0900232
:1013D000B5E04404F09002EAF0C28A229003D8E01B
:1013E000FF121062E4F0123E649003D8E0FF123C5A
:1013F000919003D8E0FF123E559003D8E0FF123CD5
:10140000D99003D8E024F91210B47401F09001FED1
:10141000E004F090029BF09003D8E004F0021A3947
:101420009003D7E0FF900202E06F6002EFF022909D
:1014300003F0E0603C9003F7E0FF7C00B420047D03
:101440000480027D1C9003D9ECF0A3EDF090036BB7
:10145000E004F0EFB42009E0D39405402B008009AC
:1014600090036BE0D3941D401FE4F09003F0F080F4
:10147000179003F7E07E00B420047F0280027F0C07
:101480009003D9EEF0A3EFF01225D1FE9003D7F030
:10149000A3EFF0D3900297E09F900296E09E402346
:1014A0009003D7E0FEA3E0FF123E97CCEECCCDEF49
:1014B000CD900296E0C313FEA3E013FFD3ED9FECA3
:1014C0009E5006900370E06013122EDD122EE31280
:1014D0002EDD1225D19003D7F0A3EFF09003D712A1
:1014E00025209400EE64809480400280047E007F7A
:1014F00000900375EEF0A3EFF090028CE070139073
:101500000375F0A3F0A3E0FFA3E0900371CFF0A375
:10151000EFF090028BE070069002A4E060101225BC
:1015200077E490028BF09002A4F090020CF090020D
:1015300096E0FEA3E0FF900375E0FAA3E0FBD39FE3
:10154000EA9E40549003817401F0A3120DF700004D
:101550000000E4900386F090037004F09003ADE087
:101560007018900378E02432FE900377E034009006
:1015700003ABF0A3CEF0A37401F090029DE07016CF
:10158000900207E0600690027E7401F090029D7464
:1015900001F090027AF0806990000BE0FEA3E0FF7A
:1015A000C3EB9FEA9E505A900369E004FFF0C3909A
:1015B00003DAE09F7480F89003D9E0648098504685
:1015C000E4900369F0900381F0900377E0FFA3E0DB
:1015D0009003ABCFF0A3EFF0E4A3F0900370E060D2
:1015E00002E4F090029DE0B4011C900207E0600666
:1015F00090027E7401F0E490029DF090027AF080F7
:1016000005E4900369F0022C0A9003E5EFF09003E3
:10161000E97404F0E49003E6F09003E6E0FFC3947D
:10162000094003021FBFEF603E1212327039120FE1
:10163000BCF583C083C0829003E6E0FED082D083F5
:10164000120E7B120F88C083C0829003E6E0FED0AA
:1016500082D083120F6C1210FEEF120FB012101511
:10166000E4F0A3F0021FB69003E5E0FF75F08712E7
:101670000E8AC083C0829003E6E0FED082D083123F
:101680000F6C121106EF120FC4F583121015121011
:1016900054FE9003E7F0A3EFF0123E979003E91297
:1016A00010CA4003021F54121083120F22E064017B
:1016B000702F75F087EE120F601212184003021F90
:1016C00093120FBCF583C083C0829003E6E0FED086
:1016D00082D083120E7B121015ECF0A3EDF0021FE6
:1016E000939003E7E0FEA3E0FF9003E5E0FD75F0D3
:1016F00087120FB0C083C0829003E6E0FCD082D096
:1017000083120F6C1211C375F087ED120FB0121017
:10171000759402EE6480948040279003E5E0FD75A7
:10172000F087120FB0C083C0829003E6E0FCD08245
:10173000D083120F6C1210FEED120E8A12126B8003
:101740002D12128D506D9003E5E0FF75F087120F9A
:10175000B0C083C0829003E6E0FED082D083120F37
:101760006C1210FE120E8912101574FFF5F0120C97
:10177000BC021F93120FBCF583C083C0829003E6A6
:10178000E0FED082D083120E7B120F88C083C0820D
:101790009003E6E0FED082D083120F6C1212254037
:1017A0001275F087EF121090F583E5822E120F2745
:1017B0007401F0121083120F22E064017018120FEE
:1017C00015E004120F14E0D39405400A9003E6E0FC
:1017D000FF120EFAE4F09003E6E004F0021DF92295
:1017E000E49003E6F0A3F0A3F09003EB7404F0128E
:1017F0002AEBE49003E5F09003E5E0FFC394094091
:10180000030220D975F002120EC112101E120E89A9
:10181000121054FE9003E9F0A3EFF0123E979003EC
:10182000EB1210CA502A9003E8E004F0A3120F2F25
:1018300012107C940AEE64809480400302207BC3E3
:10184000EF94F6EE6480947F40030220B102209E64
:101850009003E91211DD94FFEE6480947F400BD376
:10186000EF940AEE6480948040069003E6E004F072
:10187000123E97D3EF940CEE648094804006900360
:10188000E7E004F012123270489003E9120F2F12B1
:10189000107C9464EE6480948040189003E5E0FD31
:1018A00075F002120F511211C9ED120EC2E475F05B
:1018B00001801BC3EF949CEE6480947F501312113F
:1018C000EE120F511211C9120EC174FFF5F0120C75
:1018D000BC1211EE120EC212101E120E89121054FA
:1018E000FE9003E5E075F002120F9CEEF0A3EFF01E
:1018F0009003E5E004F0021FD79003E7E0C39406ED
:101900004002802690010B12217540249001921212
:101910002175401C900084E0FEA3E0FF123E97C3B7
:10192000EF9404EE6480948040069002047401F009
:101930009003E8E0C39406401A900204E06014E4C7
:10194000FF123C6DE4FF1239CEEF600CE49002040C
:10195000F08005E4FF123E289003E6E0C3940640C1
:101960002EE4FF123C49E4FF123993EF6026E49025
:1019700003E5F01211EE120E8A75F002120EBCECA5
:10198000F0A3EDF09003E5E004F0E0B409E522E413
:10199000FF123E1922E0FEA3E0FF123E97C3EF9430
:1019A00004EE6480948022900210E06003022223FF
:1019B00004F0E4FF900026E0FEEFC39E504CEF25BC
:1019C000E0245DF582E4342E1210A224E7F582E5CE
:1019D000F034011211BBEF25E0243DF582E4342EF2
:1019E0001210A224E1F582E5F034011211BBEF25BB
:1019F000E0247DF582E4342E1210A224EDF582E578
:101A0000F034011211BB0F0221949001E3A3E09086
:101A100002E5F09001E5A3E09002E6F09002961254
:101A2000104D900315F0EDA3F090000B12104D90A7
:101A30000317F0EDA3F090027812104D900309F017
:101A4000EDA3F09002E5E0FF7E009001E3E070037B
:101A5000A3E06F60089001E3EEF0A3EFF09002E6E0
:101A6000E0FF7E009001E5E07003A3E06F60089066
:101A700001E5EEF0A3EFF0900296E0FEA3E0900205
:101A8000CA12124F7002EC6E6008900296ECF0A33E
:101A9000EDF090000BE0FEA3E090020A12124F70EE
:101AA00002EC6E600890000BECF0A3EDF090027871
:101AB000E0FEA3E0FF90029F1212507002EC6E60F5
:101AC00008900278ECF0A3EDF09002E4E0B4AA03F1
:101AD0001237209002FAE0FFB410089003F7741058
:101AE000F0800AEFB420069003F77420F09002FD16
:101AF000E0B41007E4F090028B04F09002FEE07076
:101B000011A3E0B4100CE49002FEF0A37410F012E4
:101B10003879900308E0FFB4100EE490028CF09046
:101B20000308F07599378015EFB42011E49003088D
:101B3000F0759917123DD390028C7401F090030751
:101B4000E0FFB4100FE4900207F0900307F090025A
:101B50009C04F022EFB4200EE4900307F0900207FB
:101B600004F09002B9F022E4FE900026E0FFEEC3FC
:101B70009F40030224F51210B1E0640160030224C7
:101B8000F174F32E121064E0FC600302241BEE6477
:101B900001704E120FD7BF2003D38001C34005E46C
:101BA0009002B5F090029BE0FD6401701B90029AD8
:101BB000E09002B5B40109E0440912102A0480152E
:101BC0001210271212AB8016ED9002B5B4020BE092
:101BD000440512102A1212018004121027F012126A
:101BE0000FEE640260030224EA120FD7BF2003D372
:101BF0008001C34005E49002B5F090029BE0FD64D3
:101C000001701C90029AE09002B5B4010612110F07
:101C1000E48021E0440412102A1212AB0224E7ED02
:101C20009002B5B40205E044058003E04404F0E40A
:101C3000900027F09002B4F00224E7EC6401600306
:101C40000224EAEE64017060120FD7BF2003D38034
:101C500001C34005E49002B5F090029AE0FFB4029F
:101C60000B9002B5E0440A1211128013EF64017068
:101C7000269001FEE09002B5B4010C12110FE49021
:101C800002B4121201801EE04402121112E490020A
:101C9000B4F01211E5800E9002B5E0440212111268
:101CA000E49002B4F012120FEE6402705D120FD7CE
:101CB000BF2003D38001C34005E49002B5F0900239
:101CC0009AE0B402139002B5E0440AF09002B474B2
:101CD00001F0900027F0802F9001FDE06401701C5E
:101CE00090029BE09002B5B40105E044098013E046
:101CF000440812102A04F01211E4800B9002B5E09F
:101D0000440812102A04F012120F1210B1E4F0C2AB
:101D10008A0E0223497F05229003B6E0FEA3E0FF6E
:101D20009003B0E0FCA3E0C39FFFEC9EFE9003D7BE
:101D3000F0A3EFF09003B3E02FF09003B2E03EF099
:101D4000E0FEA3E0FFD322902ECB74F4F0902EC6D9
:101D50007416F0902ECA743FF0902EC97428F0903B
:101D60002EC47409F0902EC374E6F0902E4D7404C6
:101D7000F0902E4BF0902ECE7420F0902EC574284B
:101D8000F0902EC074C2F0222FFFEC3EFEE0FCA3C8
:101D9000E02FFFEC3EFE22E4900375F0A3F09003E9
:101DA00071E0FFA3E0CF900377F0A3EFF022900360
:101DB000BCE0F8A3E0F9A3E0FAA3E0FB9003B0E0F5
:101DC000FEA3E0FFE4FCFDEB2FFFEA3EFEED39FD54
:101DD000EC38FC9003BC120DEB9003BBE004F02246
:101DE000900371E0FEA3E0FFE4FCFDF9F8C3020DEF
:101DF000C4900377E0FEA3E0FFC3900372E09FFF6F
:101E0000900371E09E229003BAE0FEA3E0FBCAEECD
:101E1000CAE4F9F8A3E0FCA3E0FDA3E0FEA3E0FF21
:101E200022E49003A9F0A3F0900378E022E4900369
:101E3000B2F0A3F0229003B0E0FFA3E09003B6CF8E
:101E4000F0A3EFF0229003C0E0FCA3E0FDE4020B5E
:101E5000219003DBE0FEA3E0FF9003AAE02FF090C7
:101E600003A9229003B7E024FFF09003B6E034FF0B
:101E7000F022E09003D3F090036CE09003D2F022C4
:101E80009FFFEC9EFE9003DBF0A3EFF02290037126
:101E9000E0FEA3E0FFE4FCFD2224FFF0900377E0E6
:101EA00034FFF022900377E004F022E0FCA3E0FD91
:101EB000EC22C3EF94F6EE6480947F22C0E0C083EE
:101EC000C082C0D0E8C0E0E9C0E0EAC0E0EBC0E01A
:101ED000EDC0E0EEC0E0EFC0E0D2AFE5DB30E41DE6
:101EE0009003F4123901E4F0E5DB30E10280389030
:101EF00002E2E5DFF0900363E4F00227FFE5DB3068
:101F0000E5169002DF123901E06005E4F00227FFD8
:101F10009003F4E4F00227FF900365E4F0E5DB3082
:101F2000E12EE5DB30E00FA31238C91238D2120BD4
:101F3000F4F5DF0227FF900364E0640860030227E2
:101F4000FF308A030227FFD28A9002EAF00227FFBD
:101F5000900363E0700EA3E5DFF090036312390194
:101F6000F00227FF900364E090355393FFB4FF0F16
:101F70009002E2E5DFF0900364E004F00227F9EF5D
:101F8000640F702F9003661238C9900364E0FF124B
:101F90003908540F120C219003661238C99003645B
:101FA000E0FF04F0123908FFE5DF54F04F120C2176
:101FB0000227F99003661238C91238D2E5DF120CF5
:101FC00033900364E0FDB43419900315E09002CA25
:101FD0001238DF900316E0FBEBFF9002CAEEF0A38D
:101FE000EFF0EDB43614900317E090020A1238DFD8
:101FF000900318E090020A1238E7900364E0B428D6
:1020000018900309E07F00FE90029FF0A3EFF0908C
:10201000030AE090029F1238E79002E1E004F075B5
:10202000DBFFD0E0FFD0E0FED0E0FDD0E0FBD0E071
:10203000FAD0E0F9D0E0F8D0D0D082D083D0E0322E
:10204000121FC0E49003D7F0900026E0FF9003D762
:10205000E0C39F400302299112111AE4F0A3F01289
:1020600011B0F583E4F0A3F0EF7003022988121D8C
:10207000E99003D7E0FF1217FBE49003D8F0900338
:10208000D8E0FFC39409400302292A1212326006E5
:1020900090029EE06017900027E070119002B4E07B
:1020A000700B9003D7E0120F5DE4F0A3F09003D81B
:1020B000E0FF70030229219003D7E0FE120F5DE0DC
:1020C000FCA3E0C39408EC64809480501A75F087F8
:1020D000EE120F9CC083C0829003D8E0D082D083E0
:1020E000120F6CE4F0A3F09003D7E0FF75F08712B5
:1020F0000EC2C083C0829003D8E0FED082D083128B
:102100000F6CE0FCA3E0FD1211B0F583EC8DF01232
:102110000CBC9003D7120F9775F002EE120EB6C0EA
:1021200083C0829003D8E0D082D083120F6CE0FE8F
:10213000A3E02DFFEE3CFE9003D7E012111C12111C
:10214000C39003D8E004F002285E9003D712111A5E
:10215000E0FCA3E0FDEF120FF9ECF0A3EDF090032B
:10216000D7E0FF1211B112101CEFA4242EF582E566
:10217000F034001211BB9003F6E0602C9003D7E01E
:10218000B4010F120FF9E0FFA3E0900276CFF0A3A5
:10219000EFF09003D7E0B4020F120FF9E0FFA3E0D5
:1021A000900205CFF0A3EFF09003D7E004F00228EF
:1021B00028E49001FFF022900209E024FE6021143F
:1021C0006027147003022A79147003022A862404FB
:1021D0006003022AEA9002097402F0E4900298F087
:1021E0009002097403F0022D0A1212BC9001FFE064
:1021F0007003022A53900298E004F0E49003D6F0B2
:10220000900026E0FF9003D6E0C39F5066E4FF9065
:1022100003D6E0FE120FC1120F69121106EE120E64
:10222000C2120F6BECF0A3EDF09003D6E0FE120F9C
:10223000C1120F69121106EE120E8A120F6BECF02A
:10224000A3EDF00FEFB409C79003D6E0FF120EEB39
:10225000E4F0A3F0EFB40107E49002EDF0A3F0EF97
:10226000B40207E49002EFF0A3F09003D6E004F08C
:102270000229E0900298E0C394035003022AEA90F6
:102280000021747EF0E4900200F0900298F0A3E048
:10229000900209700D7404F022121560EF606B90CB
:1022A00002097405F0229002997401F012364B1263
:1022B0003D841235D390028DE070031212BC1236A9
:1022C0004B9001FFE0604012282012364BE490034F
:1022D000D6F0900026E0FE9003D6E0FFC39E501992
:1022E000123EA31237D49003D6E0FF123297123673
:1022F0004B9003D6E004F080D9123B5A121A3012E8
:102300002347900209EFF01231E9229003EF7402A3
:10231000F0E49003ECF09003ECE0FFC39409400379
:10232000022C0975F002120E8912101EEF120FC452
:10233000F583121054FE9003EDF0A3EFF0123E97D8
:102340009003EF1210CA4003022BA81210D5E0B47C
:10235000012975F002EF120F9C1212184003022B94
:10236000D79003ECE075F002120FC4F58375F0020C
:10237000120E84ECF0A3EDF0022BD79003EDE0FEFB
:10238000A3E0FF120FA81211C375F002ED120FB0F7
:1023900012107C9402EE648094804010120FA812F8
:1023A00011C9ED120E8AE475F001801712128D50DA
:1023B000469003ECE0FF120FAD1211C9120E8974A2
:1023C000FFF5F0120CBC802F9003ECE0FF75F002DB
:1023D000120FC412101C120E89ECF0A3EDF0900342
:1023E000ECE0FF75F002120F9C121225400974C137
:1023F0002F1210DC7401F09003ECE01210DAE0B45C
:10240000011E9003ECE0FF24CA1211D5E004121162
:10241000D1E0D3940540091210D5E41211D1E4F0B3
:102420009003ECE004F0022AF6229003DD7414F02D
:10243000A37432F0900377E0FEA3E0FF900371E015
:10244000FCA3E0C3122660123E979003DDE0FDC3BB
:10245000EF9D7480F86E98502F12263112251D942E
:1024600064EE64809480400C12260104F070031224
:1024700026848011C3EF949CEE6480947F500612F2
:102480002601122679023E73C39003DBE064809438
:102490008050147F647E00123B88123D21EF700350
:1024A000022D0912257E22123E73900370E06059BE
:1024B000900297E0244EFF900296E03402FED39003
:1024C00003DCE09F9003DBE09E405E900377E0FE3C
:1024D000A3E0FF9003ABE0FCA3E0122660122639D4
:1024E00012251D9432EE64809480400B1226010464
:1024F000F0700312268422C3EF94CEEE6480947FA2
:10250000502712260112267922122631E03EF0D3FE
:10251000A3E0940A9003A9E064809480400BE41245
:10252000260504F07003122684227E017FDD7D00E3
:102530007B017A007928120E34123952E49002108D
:10254000F09002CAF0A3746EF0900296E4F0A374C7
:102550006EF024ECFFE434FFFE90020AF0A3EFF0EB
:1025600090000BEEF0A3EFF07C007D3C120C557D4B
:1025700064120C67900278EEF0A3EFF090029FEEE9
:10258000F0A3EFF0122187E4FE900026E0FFEEC3F7
:102590009F5074E4FF75F087EE120F51120F6B120B
:1025A00010FEEEA424B8F582E5F03400120F22E408
:1025B000F075F087EEA424A6F582E5F03400120F42
:1025C00069E4F0A3F0120EFAE4F00FEF640970C5AD
:1025D000CFEECF123E19123E28123E37123E551250
:1025E0003E46123E6474F32E121064E4F01210B1F1
:1025F000E4F09001FC747EF0E4A3F0A3F090029A62
:10260000F0A3F00E022D69E4900204F0900202742F
:102610007EF0900021F0E4900201F0223F3F3F3F26
:102620003F3F3F3F3F003200321770025800040026
:102630001E00140032000F0064000A000A000000AF
:10264000000000000000000001000001010B0C0D63
:102650000E0F05060708090A0003040102008C009A
:102660008C008C008C008C008C008C008C008C000A
:102670008C008C008C008C008C008C008C009100F5
:1026800091009100910091009100910091009100C2
:1026900091009100910091009100910091008200C1
:1026A000820082008200820082008200820082001A
:1026B00082008200820082008200820082002D005F
:1026C0002D002D002D002D002D002D002D002D00A2
:1026D0002D002D002D002D002D002D002D00FA00C5
:1026E000FA00FA00FA00FA00FA00FA00FA00FA001A
:1026F000FA00FA00FA00FA00FA00FA00FA122EE3E1
:10270000122EE39003F7E06420700C122527902E20
:10271000C0E020E7F9800A122527902EC0E020E7CC
:10272000F9902EC0E4F0902ECBF0902E1AE0FEA38C
:10273000E0FF9003A7E0FD25E025E02487F582E493
:102740003403F583EEF0A3EFF0902E16E0FEA3E045
:10275000FFED25E025E02489F582E43403F583EEDE
:10276000F0A3EFF09003A7E004F0E05407F0E4FFDB
:10277000FE900387E0FCA3E02FFFEE3CFE90038B6E
:10278000E0FCA3E090038F12256890039312256D5F
:1027900090039712256D90039B12256D90039FE087
:1027A000FCA3E09003A312256890036EE0FCA3E075
:1027B000FDC3EF9DFFEE9C900371F0A3EFF090033B
:1027C000F7E0B4200E900372E02450F0900371E023
:1027D0003400F022758A50538AEF9003F37411F09D
:1027E0009003F27422F09003F57433F075994F75ED
:1027F0009AA0E4FFFEC29600000020970ED2960039
:1028000000003097069003F37487F00FBF00010EAD
:10281000EF640A4E70DFE4FEFFC2960000002095D0
:102820000ED2960000003095069003F37487F00FE7
:10283000BF00010EEF640A4E70DF7590FF75991F9F
:10284000759AE0000000000000000000E4FEFF3088
:1028500095063096032097069003F27487F00FBF19
:1028600000010EEF640A4E70E6758B03E4F5AD755A
:10287000AEE875AF1DF5AC7589FF75913E7599177A
:10288000F59675931CF59BF595F592F59A75800C68
:10289000C289D28A9003F604F022902ECB74F4F011
:1028A000A37448F0902F58E0540F44F0902EC8F0D5
:1028B00090036D7480F090036C7409F0A31226529B
:1028C00090036C7409F0A37480F0E490036EF0A39D
:1028D000F09003D7F0122EE39003D7E004F0E0C3AA
:1028E000940840F112257E7B507AC31225C0500C0B
:1028F00090036E744EF0A37420F080437BC87AAFCF
:102900001225C0500C90036E743AF0A37498F080B6
:102910002E12266D7B407A9C1225CB500C90036EB4
:102920007427F0A37410F0801612266D7BB87A8895
:102930001225CB500A90036E7413F0A37488F090A4
:10294000036E1225D4FEF0A3EFF0EE122586E4907C
:1029500003ADF022E49003D8F0FF9003D7F0EF141A
:10296000601E14603514604C14605B240470749015
:1029700003D97401F0A3742FF0A37458F00231BD91
:102980001238C6900001120BF4FED3941F400312BC
:1029900038F0120BDB6E704B80431238C690000289
:1029A000120BF4FED3940640031238F0120BDB6EC8
:1029B000703180291238C6900003120BF4FE120BFE
:1029C000DB6E701F80171238C6900004120BF4FEE5
:1029D000648B60031238F0120BDB6E70069003D725
:1029E000E004F00FEF6405600302313E9003D7E08E
:1029F000B40504A37401F09003D8E0FD60079002D1
:102A0000F7E0547FF0CFEDCF22900207E0606A90AC
:102A1000027EE0606490029DE0602A121139540F3A
:102A2000FFF0BF0803D38001C340129002B5E0B4A9
:102A30000203D38001C34005E49002B5F09002B5D3
:102A4000E044208028121139540FFFF0BF0403D353
:102A50008001C340129002B5E0B40103D38001C3EA
:102A60004005E49002B5F09002B5E04410F0900209
:102A7000EAF0E490027EF0C28A9002B9E0B4011854
:102A800090027AE0B4010C121137E4F07420F09057
:102A900002EAF0E49002B9F090029CE06018900223
:102AA0007AE0B4010C121137E4F07410F09002EAED
:102AB000F0E490029CF022CBEFCB120FE4E0FCA3F9
:102AC000E0C39FEC9E4030120FF8E0FEA3E0FF75DC
:102AD000F002EBA42434F582E5F03400F583EEF047
:102AE000A3EFF0120FE4E0FCA3E0C39FFFEC9E1203
:102AF0000EE9EEF0A3EFF0EB6401702C120EEA1277
:102B0000107C949AEE94014008120ECEEEF0A3EFE2
:102B1000F0120EEA12104D9002EDF0EDA3F012103B
:102B20003E9002F1F0EDA3F0EB6402702C120EEA7D
:102B300012107C949AEE94014008120ECEEEF0A38F
:102B4000EFF0120EEA12104D9002EFF0EDA3F0122A
:102B5000103E9002F3F0EDA3F0224103F400410394
:102B6000F7104103F0004103690041036B0041038A
:102B70006A004203D400004102980041020800416B
:102B8000028D004102070041028C0141029900417F
:102B900002B90041029C0041027A0041028B0041CF
:102BA00002B5004102100041029D0041027E004139
:102BB0000027004102B4004102DC0041020C004148
:102BC000029E004102A4004102CC00410363004187
:102BD0000364004202DD00004102DF004102E10027
:102BE0004102E000410365004102E210009003F75A
:102BF000E0FFB4101D9002FA7410F090028DE0B462
:102C00000110E4F09003F004F053AAF79002097465
:102C100003F0EF6420705590028CE06401703090F6
:102C2000028DE070059003F004F09002FA7420F039
:102C300090028D7401F0902ECBE4F043AA08123D6F
:102C400045758601758A50538AEFE4F58D800E90A4
:102C50002ECBE4F012084E758601758601758B0344
:102C6000758EFF758DE0902ECB74F4F0758DE0229B
:102C7000902ECB74F4F0E4F5E2902EC97420F0901D
:102C800003D3E0902EC3F09003D2E0902EC4F090D6
:102C90002E4D7402F0902EC67416F0902EC574203E
:102CA000F0EF902ECEB401057420F08002E4F01213
:102CB0002561E4FDFCE5E220E20B0DBD00010CBC4A
:102CC00007F3BDD0F053E2FB902EC5E4F0902ECE7A
:102CD000F0EF902E1AB40109E0FFA3E09003AE805C
:102CE00007E0FFA3E09003B0CFF0A3EFF0902ECB6E
:102CF000E4F022023A7FE493A3F8E493A34003F6BE
:102D00008001F208DFF48029E493A3F85407240C2F
:102D1000C8C333C4540F4420C8834004F456800110
:102D200046F6DFE4800B0102040810204080903357
:102D30003AE47E019360BCA3FF543F30E509541F81
:102D4000FEE493A360010ECF54C025E060A840B814
:102D5000E493A3FAE493A3F8E493A3C8C582C8CA92
:102D6000C583CAF0A3C8C582C8CAC583CADFE9DE65
:102D7000E780BE00000000FFFFFFFF0000FFFFFF35
:102D8000FFFFFFFFFFFF00FFFF0000FFFF0000004D
:102D9000FFFFFFFFFFFFFF00000000FFFFFFFFFF3F
:102DA000FFFFFFFFFF000000000000000000000028
:102DB0000000000000000000000000000000000013
:102DC0000000000000000000000000000000000003
:102DD00000000000000000000000000000000000F3
:102DE00000000000000000000000000000000000E3
:102DF0000000009002F9E0FF6410606EEF64207044
:102E0000699002F97430F07F011234509003CCE0E5
:102E1000FEA3E0FF9003AEE0FCA3E0C39FFFEC9EA7
:102E2000FECDEFCDFC120B217B667A6679487842A5
:102E3000120A7FE4FBFA79707841120885E4FBFA04
:102E400079C878421209769003CE120DEB9003CE2A
:102E50001225F5120B5ACDEFCDCCEECCEC9002FB47
:102E6000F0EFA3F09002F97410F02290020CE0143D
:102E7000602014602714604A2403705E30885B90E1
:102E8000020C7402F07F0B123DFB12081E9002CC64
:102E900080062088459002A47401F0227F0B12382E
:102EA0002AEF600312128220883090020C7403F023
:102EB00090029E7401F07F0C123DFB12081E12124C
:102EC00082227F0C12382AEF60107F0C123DFB909B
:102ED000020C7401F0E490029EF022902EC0E4F007
:102EE000902ECB74F4F0902F58E0540F2450902E75
:102EF000C8F0902ECC7448F0902EC97428F0A374BA
:102F00003FF0902E40748112106C12106C0412105D
:102F10006C7404F0A3F0A37402F0A3F0902EC674B6
:102F200014F0902EC17490F0A37401F0A37420F0FB
:102F3000A37409F043E310123D9F900026EFF022A6
:102F40009003D77408F0A3E4F0A3743FF0A374DFF8
:102F5000F0E4FDFCF9758A10538AEF00000090033D
:102F6000D7E0FEA3E01238F7FF69F90DBD00010CB0
:102F7000BC37EBBDDFE89003D9E0FEA3E0F5828E1D
:102F800083E4936970089002E4740FF08005E49084
:102F900002E4F0758A50538AEF00000022C0E0C0BE
:102FA000F0C083C082C0D0E8C0E0ECC0E0EDC0E07B
:102FB000EEC0E0EFC0E0D2AF900208E004F0C394AE
:102FC0000A4017E4F0120E6D2401FFE43EFEE43DDA
:102FD000FDE43CFC9002C6120DEBD0E0FFD0E0FE19
:102FE000D0E0FDD0E0FCD0E0F8D0D0D082D083D0CB
:102FF000F0D0E0329003F6E0604F9000241211DD33
:10300000EE941C500BEF9400EE941840031212B58E
:103010009002761211DDEE9404500BEF9400EE94C2
:103020000340031212B59002051211DDEE94045014
:103030000BEF9400EE940340031212B5E49003F6F4
:10304000F09003F5E09002E9F0229003D7EFF0C38F
:10305000940D5042E0FF242412114FE06038EF2518
:10306000E025E02434F582E43402120E60121008E8
:103070009003D7E025E02405F582E4342EF5831291
:103080000EA5400F9003D7E02424F582E434021209
:1030900010C3227F00227F00227F007E08E4FDFC17
:1030A0009003D7F0A3F0758A10538AEF000000EF69
:1030B0001238F7FB9003D8E02BF09003D7E03400F0
:1030C000F00DBD00010CBC37E6BDE0E39003D7E096
:1030D000FCA3E0FDEC9002FEF0EDA3F0758A5053E6
:1030E0008AEF000000229003D9E0FBA3E0FAA3E0FE
:1030F000F922900364E0FF04F08F82758300227F41
:1031000000FEF0A3EFF022FDEDFFEEF0A3EFF022C2
:103110009003D87401F0222DF582EE3CF583E49300
:10312000227401F090036522E92FF9E43AFA020BC8
:10313000DB900278E0FEA3E0FFC3900376E09F906F
:103140000375E09E5004E4F0A3F090037712268B01
:1031500090030BF0EDA3F090037512268B90030DF6
:10316000F0EDA3F090037112268B900311F0EDA304
:10317000F0227E007F807D007B017A0279E3120ECF
:1031800034E49002EAF09002E4740FF09002F574D7
:10319000ABF09002F77499F09003F3E09002E7F03F
:1031A0009003F2E09002E8F09003F5E09002E9F07D
:1031B0000231349003ECEFF0E0FF24CD121165E012
:1031C0006029EF25E025E024D0F582E43402120ED8
:1031D00060121008902E11120EA5400F9003ECE023
:1031E00024CDF582E434021210C3227F0022900322
:1031F000ECEFF0E0FF24A5121170E06029EF25E06C
:1032000025E024A8F582E43402120E601210089022
:103210002E13120EA5400F9003ECE024A5F582E4D6
:1032200034021210C3227F00229003D9EFF0E0FF96
:10323000240D12117BE06029EF25E025E02411F533
:1032400082E43402120E60121008902E07120EA5AE
:10325000400F9003D9E0240DF582E434021210C32C
:10326000227F00229003D9EFF0E0FF24B612119CD8
:10327000E06029EF25E025E024BAF582E43402126B
:103280000E60121008902E0B120EA5400F9003D95D
:10329000E024B6F582E434021210C3227F00221229
:1032A0003DEB53A87F122FB4123BD843A880123EA7
:1032B0008B123DD3120866123D67EF24E0600A24AA
:1032C00010700AC283C2828004D283D28212218704
:1032D0001233CD12299780DF9003ECEFF0E0FF244A
:1032E0007B12115AE06026EF25E025E0247FF5826D
:1032F000E43402120E60902E09120E99400F9003D2
:10330000ECE0247BF582E434021210C3227F002219
:103310009003D9EFF0E0FF240E121186E06023EF56
:1033200025E025E02415F582E43400120E60120E2B
:1033300096400F9003D9E0240EF582E43400121079
:10334000C3227F00229003D9EFF0E0FF2431121155
:1033500091E06023EF25E025E02468F582E4340263
:10336000120E60120E96400F9003D9E02431F582C0
:10337000E434021210C3227F0022E4FFFE900026F4
:10338000E0FDEEC39D501BEF120EEB12101EEE126D
:103390000EEEE0FAA3E0D39DEA9C4003CFEECF0E01
:1033A00080DB900203EFF022CBEFCBCAEECA900095
:1033B00006E0701B9000067401F0120E6DFF900085
:1033C00007120DEBCFEBCF900274EAF0A3EFF022DF
:1033D000CBEFCBCAEECA90000DE0701B90000D74CD
:1033E00001F0120E6DFF900011120DEBCFEBCF909C
:1033F0000294EAF0A3EFF0229003667401F0A37444
:1034000002F0A374E3F0E4F5DA75DA4043DA2075EC
:10341000D74075DA5843A90875B80875F80822909E
:10342000000DE0601D900011120E62121008900253
:1034300094E0FEA3E0120EAB4008E490000DF07F94
:1034400001227F002212109A501E121157E07018AC
:103450001211577401F0120E6D1210BC247FF58208
:10346000E43402F583120DEB2212109A501E121151
:1034700062E070181211627401F0120E6D1210BC2D
:1034800024D0F582E43402F583120DEB2212109A57
:10349000501E12116DE0701812116D7401F0120EB1
:1034A0006D1210BC24A8F582E43402F583120DEBF2
:1034B0002212109A501E121178E0701812117874AE
:1034C00001F0120E6D1210BC2411F582E43402F5E5
:1034D00083120DEB2212109A501E121183E0701805
:1034E0001211837401F0120E6D1210BC2415F582B6
:1034F000E43400F583120DEB2212109A501E1211C3
:103500008EE0701812118E7401F0120E6D1210BC44
:103510002468F582E43402F583120DEB2212109A2E
:10352000501E121199E070181211997401F0120EC8
:103530006D1210BC24BAF582E43402F583120DEB4F
:1035400022900006E0601BA3120E62121008900287
:1035500074E0FEA3E0120EAB4008E4900006F07F9A
:1035600001227F00229003F4E0701BE4F58D758B3F
:1035700002758EC1758DA0F586438A84E5DB20E255
:1035800005758703000022E4FD9002DFE0601190E2
:1035900002E3E0FE54F0FDEE540FF0E49002DFF0A1
:1035A000CFEDCF2290028CE0B4010E9002CCE0600F
:1035B000051225778003122EE3121C0F0239111217
:1035C0001257FFFEEE902E1D93600974A12F121268
:1035D00063EEF00F0EEEB410EB229002C6120DF760
:1035E000000000007E007F0D7D007B017A027924BF
:1035F000020E347E007F617D007B017A03797112B7
:103600000E3412307AE490036AF022904006E4937C
:10361000B41802002253A87F0080FDEFD3940D5010
:103620000874242F12114FE4F022EFD394035008B2
:10363000747B2F12115AE4F022EFD39403500874D4
:10364000CD2F121165E4F022EFD39403500874A536
:103650002F121170E4F022EFD394035008740D2F51
:1036600012117BE4F022EFD394035008740E2F1252
:103670001186E4F022EFD39403500874312F121115
:1036800091E4F022EFD39403500874B62F12119CEA
:10369000E4F022E4900006F0900274F0A3F022E43B
:1036A00090000DF0900294F0A3F0221236BB90022D
:1036B000097401F0022D0AEE30E707C3E49FFFE42E
:1036C0009EFE229003D7EFF02200000000000000D1
:1036D00000000000000000000000000000000000EA
:1036E00000000000000000000000000000000000DA
:1036F00000000000000000000000000000000000CA
:1037000000000000000000000000000000000000B9
:1037100000000000000000000000000000000000A9
:103720000000000000000000000000000000000099
:103730000000000000000000000000000000000089
:103740000000000000000000000000000000000079
:103750000000000000000000000000000000000069
:103760000000000000000000000000000000000059
:103770000000000000000000000000000000000049
:103780000000000000000000000000000000000039
:103790000000000000000000000000000000000029
:1037A0000000000000000000000000000000000019
:1037B0000000000000000000000000000000000009
:1037C00000000000000000000000000000000000F9
:1037D00000000000000000000000000000000000E9
:1037E00000000000000000000000000000000000D9
:1037F000000000000000000000000000000000A128
:1038000000000000000000000000000000000000B8
:1038100000000000000000000000000000000000A8
:00000001FF
