:1000000000970002000E0000FB96000000000000B8
:1000100000000000000000000000000000000000E0
:1000200078FFE4B8200118F6D8F99000007F007E30
:1000300007E4F0A3DFFCDEFA758107023570CBEF31
:10004000CBEBD3940D501E121187E070181211875C
:100050007401F0120EA31211152437F582E4340254
:10006000F583120E2122D2AF00322202280D75B282
:100070008E75B6F9E4F5B743B20143AA01023EC258
:100080000000000238B5904006E493B41802002244
:1000900053A87F0080FD0000000000020846020B0C
:1000A000C6E86480F8E933E83360110460F0ED33AA
:1000B000EC337009E8FCE9FDEAFEEBFF220460DEA8
:1000C000D3EB9FEA9EE99DE8C2E78CF0C2F795F07A
:1000D000400CE8CCF8E9CDF9EACEFAEBCFFB120BF5
:1000E0009185D0F05804700320D5B3E80470075010
:1000F00002B2D5020BD092D5EC0460F7E4CCC0E09C
:10010000C398F8603B94186008400DD0E0FB020BE8
:10011000A8E4FBFAC9FC8028E830E406E4C9FBE463
:10012000CAFCE830E305E4C9CACBFCE85407601018
:10013000F8C3E913F9EA13FAEB13FBEC13FCD8F15B
:1001400030F52FC3E49CFCEF9BFFEE9AFEED99FD8A
:10015000D0E0FBEF4E4D4C701222DB03020BCDECD6
:100160002CFCEF33FFEE33FEED33FDED30E7EB0219
:100170000BA8EF2BFFEE3AFEED39FDD0E0FB50135C
:100180000BBB0003020BD0ED13FDEE13FEEF13FFCC
:10019000EC13FC020BA8EC4D6011E8497017ED332D
:1001A000EC3304600DE4FCFFFEFD22E933E8330488
:1001B00070F8020BC6120B9158046009E4CC24813C
:1001C0005006285009020BD0284003020BCDC0E096
:1001D000EB4A7044B98006D0E0FB020BBCEF4E70D6
:1001E0001CBD8008EBFFEAFEE9FD80EBE98DF0A481
:1001F000FEE5F0020A5FE9CDF9EAFEEBFFEF89F0D8
:10020000A4FCE5F0CE89F0A42EFFE435F0CD89F012
:10021000A42DFEE435F08067EF4E7005BD80D780D9
:10022000C3EF8BF0A4ACF0EE8BF0A42CFCE435F023
:10023000F8EF8AF0A42CE5F038FCE433CB8DF0A481
:100240002CFCE5F03BF8EE8AF0A42CFCE5F038F845
:10025000E433CF89F0A42CFCE5F038CF3400CE890C
:10026000F0A42FFFE5F03EFEE433C98DF0A42EFE8E
:10027000E5F039CD8AF0A42FFFE5F03EFEE43DFD28
:1002800033D0E0FB50070BBB000F020BD0EC2CFC73
:10029000EF33FFEE33FEED33FD020BA8020BD0EC83
:1002A0005D046005E859047003020BC6120B9158F7
:1002B0000460F6EC4860F2EC7004FDFEFF22C860BA
:1002C000DB2481C85009C39860025006020BCD9808
:1002D00050CAF582E9294B4A7005AB82020BBC7506
:1002E000F0007C1A7880C3EF9BEE9AED99400DC325
:1002F000EF9BFFEE9AFEED99FDE842F0DC23ACF0B7
:10030000D0E0FFD0E0FED0E0FDAB8220E7101BEB99
:1003100060BAEC2CFCEF33FFEE33FEED33FD020B45
:10032000A8E803F830E705C0F075F000EF2FFFEE06
:1003300033FEED33FD40B830E7C280AA75F020806F
:100340000E75F010800575F0087D007E007F00338B
:1003500092D530D503120DECEC334010EF33FFEEA5
:1003600033FEED33FDEC33FCD5F0ED22E5F0247ED9
:10037000A2D513CC92E7CDCEFF22EDD2E7CD33EC60
:100380003392D524814006E4FFFEFDFC22FCE4CF3D
:10039000CECDCC24E0501174FF80EDC3CC13CCCD76
:1003A00013CDCE13CECF13CF0470F030D5DE020DB7
:1003B000ECE9D2E7C933E833F892D5EDD2E7CD3393
:1003C000EC33FC5002B2D522EC30E7100FBF000C2A
:1003D0000EBE00080DBD00040BEB6014A2D5EB139C
:1003E000FCED92E7FD2274FFFCFDFEFF22E480F8A5
:1003F000A2D574FF13FC7D80E480EFBB01068982E7
:100400008A83E0225002E722BBFE02E32289828A2D
:1004100083E49322BB010CE58229F582E5833AF55A
:1004200083E0225006E92582F8E622BBFE06E92594
:1004300082F8E222E58229F582E5833AF583E493A6
:1004400022BB010689828A83F0225002F722BBFE7A
:1004500001F322F8BB010DE58229F582E5833AF527
:1004600083E8F0225006E92582C8F622BBFE05E9A2
:100470002582C8F222EF8DF0A4A8F0CF8CF0A4283A
:10048000CE8DF0A42EFE22BC000BBE0029EF8DF015
:1004900084FFADF022E4CCF875F008EF2FFFEE33C7
:1004A000FEEC33FCEE9DEC984005FCEE9DFE0FD576
:1004B000F0E9E4CEFD22EDF8F5F0EE8420D21CFE4A
:1004C000ADF075F008EF2FFFED33FD4007985006B3
:1004D000D5F0F222C398FD0FD5F0EA22C2D5EC3058
:1004E000E709B2D5E4C39DFDE49CFCEE30E715B20C
:1004F000D5E4C39FFFE49EFE120C67C3E49DFDE4B8
:100500009CFC8003120C6730D507C3E49FFFE49E78
:10051000FE22C5F0F8A3E028F0C5F0F8E5821582C8
:1005200070021583E038F022A3F8E0C5F025F0F062
:10053000E582158270021583E0C838F0E82275F074
:1005400008758200EF2FFFEE33FECD33CDCC33CCD8
:10055000C58233C5829BED9AEC99E58298400CF5F3
:1005600082EE9BFEED9AFDEC99FC0FD5F0D6E4CE21
:10057000FBE4CDFAE4CCF9A88222B800C1B9005955
:10058000BA002DEC8BF084CFCECDFCE5F0CBF97822
:1005900018EF2FFFEE33FEED33FDEC33FCEB33FBB6
:1005A00010D703994004EB99FB0FD8E5E4F9FA2240
:1005B0007818EF2FFFEE33FEED33FDEC33FCC9333B
:1005C000C910D7059BE99A4007EC9BFCE99AF90F03
:1005D000D8E0E4C9FAE4CCFB2275F010EF2FFFEE6F
:1005E00033FEED33FDCC33CCC833C810D7079BECBA
:1005F0009AE899400AED9BFDEC9AFCE899F80FD532
:10060000F0DAE4CDFBE4CCFAE4C8F922C3E49FFFBE
:10061000E49EFEE49DFDE49CFC22EB9FF5F0EA9E47
:1006200042F0E99D42F0EC6480C864809845F02275
:10063000EB9FF5F0EA9E42F0E99D42F0E89C45F020
:1006400022ECF0A3EDF0A3EEF0A3EFF022A8828558
:1006500083F0D083D082120E44120E44120E441244
:100660000E44E473E493A3C583C5F0C583C8C58273
:10067000C8F0A3C583C5F0C583C8C582C822A42518
:1006800082F582E5F03583F58322EF4E6012EF604C
:10069000010EEDBB010B89828A83F0A3DFFCDEFA39
:1006A0002289F05007F709DFFCA9F022BBFEFCF31A
:1006B00009DFFCA9F022F583E0F8A3E0F9A3E0FA52
:1006C000A3E0FB9002C2E0FCA3E0FDA3E0FEA3E0F8
:1006D0002275F002120E5E75F087E0FCA3E0FDEFDC
:1006E000A4245EF582E5F03400F5832275F0021251
:1006F0000E5EE0FCA3E0FD75F087EFA42470F582A8
:10070000E5F03400F583EE75F002020E5E902F786E
:10071000C39BFBEE9AFAED99F9EC98F8E493FE741A
:100720000193FFE4FCFDC3020E10EF2466FFEE34DC
:10073000FEFE7C007D0A120C557D32120C67EF2400
:100740009AFFEE3401FEEB75F002A4243AF582E53F
:10075000F03400F5832275F087EEA424C1F582E51C
:10076000F03400F583E5822FF582E43583F583E4E8
:10077000F075F087EEA424CAF582E5F03400F58325
:10078000E5822FF582E43583F58322E0FEA3E0FFC6
:100790009003E2E0FD75F002A42494F582E5F034C4
:1007A00000F583EE8FF0120CF275F002EDA42494A4
:1007B000F582E5F03400F583229003CFE0FF75F079
:1007C00087A42482F582E5F03400F5832275F002D7
:1007D000EBA4242EF582E5F03400F583E0FCA3E0E1
:1007E000FDEB75F002A42428F582E5F03400F583D2
:1007F0002275F002EF120E5EE0FCA3E0FDEE75F054
:1008000087A42470F582E5F03400F583229003E29A
:10081000E0FD75F087A424A6F582E5F03400F583A9
:10082000229003E2E0FF75F087A4244CF582E5F006
:100830003400F58322E4900027F09002B0F090029B
:10084000E6E09002B1F054F0FFF022C39BFBEE9A79
:10085000FAED99F9EC98F8227420902EC9F07404FE
:10086000902E4EF0902EC322FDECF0EDA3F075F02B
:1008700002EBA42434F582E5F03400F583E0FCA318
:10088000E0FD22EF75F002020E5EC3E0FDEF9D7405
:1008900080F86E9822E04401F0E4900027F0900286
:1008A000B022902EC97420F07484902E4FF0902EB8
:1008B000C322E0FEA3E0C39DFFEE9C229003CFE0A5
:1008C00025E024D1F582E434032224F3F582E434D4
:1008D00001F58322E0FCA3E0FD75F002229003E322
:1008E000E0FF9003E2E0FE75F087A424C1F582E505
:1008F000F0340022CBEFCBEBD39403229003E2E061
:10090000FF24F6F582E43401F58322EB75F002A4AE
:10091000242EF582E5F03400F58322F583E493FC80
:10092000740193FD75F002EFA42274F92EF582E4B0
:100930003401F58322FFEB25E025E022F583E4F086
:100940007F01229003EAE0FF24C1F582E43400F540
:100950008322E0FEA3E0FFD322ECF0EDA3F09003AE
:10096000E3E004F0229003E5E0FEA3E0FF22900321
:10097000E2E0FF75F08722902EC97420F074049095
:100980002E4FF0902EC322E04406F0900027740111
:10099000F022EE8FF0120CF275F08722C28A9002DC
:1009A000E6E09002B1F02274272BF582E43402F5E0
:1009B0008322747E2BF582E43402F5832274C92BE2
:1009C000F582E43402F5832274A12BF582E434022B
:1009D000F5832274102BF582E43402F58322740E21
:1009E0002BF582E43400F5832274342BF582E43451
:1009F00002F5832274B22BF582E43402F58322746B
:100A0000052EF582E43402F58322902E4EF0902ECE
:100A1000C32275F002A424E1F582E5F0340122EF4F
:100A200025E024D7F582E4340322902EC97428F0FF
:100A300022E4F0A3F075F00222F074CA2FF582E4EC
:100A40003400F58322C3EF94F6EE6480947F229005
:100A50000204E0640122E49001FDF0900296F0228D
:100A60009003EAE0FF75F002229003E2E0FF75F0E8
:100A700002229003E2E0FD75F08722E0FCA3E0FD96
:100A800075F08722F074FA2EF582E43401F583E4E0
:100A9000F0229002B1E09002E6F022FFE0FCA3E039
:100AA000FD22E0FEA3E0C3941EEE6480948022E069
:100AB000FCA3E0C3941EEC6480948022902EC3F0CB
:100AC000A37409F022E0FF9003D1E0FEEFC8EEC866
:100AD0000822902EC97420F022F583ECF0A3EDF0EB
:100AE00022902EC5E4F0902ECDF0A3F022F582E402
:100AF0003402F58322940AEE648094802275F00219
:100B0000EC020E5EE4F0A3F075F087227F0B123E3C
:100B1000F3E49002C8F022E0FEA3E0FF7C00020CA8
:100B2000BCE0FCA3E0FDEC22A42472F582E5F034E5
:100B30000022E0FEA3E0FFC322F09001FEF090024D
:100B400097F022E49003D0F09003D0E0FFC3940923
:100B500040030215DCEF902EC87014E0545FF0A340
:100B6000746AF0902EC3744AF0A37401F08009E017
:100B700044F0F0742012129C9003D0E0902F679301
:100B8000902ECAF0E49003CFF0900026E0FF90038F
:100B9000CFE0FEC39F40030215D3749D2E1212CDE9
:100BA000E0FF9003D1F0E4F5E2EFC39408504290E7
:100BB0002EC67415F0902EC57401F0C083C0821249
:100BC00012A58002C333D8FCD082D083F0902ECD02
:100BD0007401F0C083C082E0FFC8EEC8088002C381
:100BE00033D8FCD082D083F0902EC074C1F00215AF
:100BF000519003D1E024F8F0902EC67416F0902E98
:100C0000CA743FF0902EC57401F0C083C0821212E6
:100C1000A58002C333D8FCD082D083F0902ECE744E
:100C200001F0C083C082E0FFC8EEC8088002C33371
:100C3000D8FCD082D083F0902ECB74F4F0EEB403C5
:100C4000081212B2748012129CEE64066003021441
:100C5000C69003D0E0FFB401071210387440805AE8
:100C6000EFB4020D1212B27482121040749002148A
:100C7000C1EFB4030F902EC97431F074061211EA5B
:100C800074208036EFB404101212B2902E4E748489
:100C9000F0902EC374508049EFB4050C12103874D4
:100CA00060F0A37409F0803EEFB4061512120A90AA
:100CB0002E4E7409F0902EC37470F0A3740AF08065
:100CC00025EFB4071112120A74821211EA7430F07F
:100CD000A37406F08010EFB4080C742A12103A7452
:100CE00030F0A37408F0EE6407600302154B900324
:100CF000D0E0FFB4010D1212B2748212108A744057
:100D0000021536EFB402028014EFB4030C12120A7B
:100D1000740912115F7450803DEFB4040712108201
:100D200074308019EFB4050C1210827470F0A37443
:100D300009F08037EFB4060C1211577440F0A37419
:100D400007F08027EFB4071512120A902E4F748215
:100D5000F0902EC37460F0A37408F0800EEFB40816
:100D60000A12115774E0F0A37406F0902EC074C2FA
:100D7000F0E4FFFE900000742EF0A3E4F09003CFA7
:100D8000E0249D1212CDE09003D1F0E5E220E20BC9
:100D90000FBF00010EEF64C84E70D953E2FB121270
:100DA000C19003D1E0FD75F002A4FFAEF090000108
:100DB000E02FF0900000E03EF0ED902F9C93FF902C
:100DC0000000E475F002120D0885F08212105B75C8
:100DD000F087EF121009C083C0829003D0E0D08268
:100DE000D083120EE7ECF0A3EDF09003CFE004F017
:100DF0000213699003D0E004F00213289001FF74FD
:100E000001F0229003E2EFF01211F2F583E0FEA36D
:100E1000E07803CEC313CE13D8F99003E9F0E4A32E
:100E2000F09003E4F09003E3F09003E3E0FFC39459
:100E30000940030217D1EF9003E770097404F0A38F
:100E40007406F080077404F02405A3F09003E2E038
:100E5000FF120FDEC083C0829003E3E0FED082D099
:100E600083120EB1120EE61210929003E5F0A3EF7A
:100E7000F01210DCE0601A75F087EF120F8DC0835E
:100E8000C0829003E3E0D082D083120EE7E4F0A3A7
:100E9000F0121145123F8F9003E712106A5043126F
:100EA0001145121252120F8DC083C0829003E3E0ED
:100EB000FCD082D083120EE7121172120F8CEC124A
:100EC0000EE7121132940FEE6480948040030217F3
:100ED00043C3EF94F1EE6480947F400302179302C2
:100EE000176F121145123F8F9003E912106A5004D8
:100EF000A3E004F0121145C394FCEE6480947F508B
:100F0000069003E4E004F012122F6003021793121C
:100F10003F8F9003E812106A501E12114E120EC03D
:100F2000C083C0829003E3E0FED082D083120ECC57
:100F3000ECF0A3EDF0021793121145121252120FAA
:100F40008DC083C0829003E3E0FCD082D083120E78
:100F5000E7121172120F8CEC12106412113212127D
:100F6000D54027121252120F8DC083C0829003E326
:100F7000E0FCD082D083120EE7E4F0A3F0ED120F74
:100F8000DE1212DDE475F0018026121225502412C3
:100F9000114E120F8DC083C0829003E3E0FED08219
:100FA000D083120EE7E4F0A3F0120ED774FFF5F031
:100FB000120CF29003E2E0FF120FDEC083C08290B9
:100FC00003E3E0FED082D083120EB1120EE61210BF
:100FD00092FE9003E2E0120F9EC083C0829003E372
:100FE000E0D082D083120EE7EEF0EF12113C021631
:100FF0000912122F70389003E2E0FF24051211E26B
:10100000E0702B74052F1211E27401F0E49003E3F9
:10101000F012114E120EC0C083C0829003E3E0FEB6
:10102000D082D083120ECC121139E0B409E39003C0
:10103000E4E0C3940440379003E2E0FF123D569091
:1010400003E2E0FF123AA0EF602CE49003E3F01219
:10105000114E120EC0C083C0829003E3E0FED08226
:10106000D083120ECC121139E0B409E3800890034A
:10107000E2E0FF123F119003EAE0C394044037120C
:1010800010DCE07031123D329003E2E0FF123BC50C
:10109000EF602BE49003E3F012114E120EC0C083F8
:1010A000C0829003E3E0FED082D083120ECC1211F6
:1010B00039E0B409E3229003E2E0FF123F0222127A
:1010C00024E6E49003CFF0900026E0FF9003CFE009
:1010D000C39F4003021B2BE0FF1210A0F583E4F036
:1010E000A3F01211FFF583E4F0A3F09003DDF0A369
:1010F000F0A3F0A3F0A37409F0EF7003021B221217
:101100001FB79003CFE0FF1215E3E49003D0F090F7
:1011100003D0E0FFC394094003021A5712122F6054
:101120000690029AE0601A900027E070149002B0D6
:10113000E0700E9003CFE0120F9E121063E4F0A354
:10114000F09003D0E0FF7003021A4E9003CFE0FE50
:10115000120F9E121063E0FCA3E0C39406EC6480BF
:101160009480501C75F087EE120FA1C083C082904E
:1011700003D0E0D082D083120EE7E4F0A3F08043E6
:10118000120F99C083C0829003D0E0FED082D0833A
:10119000120EE7E0FCA3E0C3940AEC648094805054
:1011A0002275F087EFA42482F582E5F03400120E58
:1011B000E4C083C0827D021212F7D082D083EEF0A9
:1011C000A3EFF09003CFE0FF75F087121308121021
:1011D0005B1211FFF583EC8DF0120CF2120F99C027
:1011E00083C0829003D0E0D082D083120EE7121227
:1011F0005BEF121308F583E0FEA3E02DFFEE3CFE4B
:101200009003CFE0FD1210A0F583121172ED120FC2
:10121000A1C083C0829003D0E0D082D083120EE7B9
:101220001213129003DEE09FEE6480F89003DDE07D
:1012300064809850129003D0E0FD9003DDEEF0A39F
:10124000EFF09003E1EDF09003CFE0120F9EC0832A
:10125000C0829003D0E0D082D083120EE7E0FEA3DC
:10126000E0FF9003E0E02FF09003DFE03EF090031A
:10127000D0E004F00218EF9003DDE0FAA3E0FBC336
:101280009003E0E09BF09003DFE09AF07D071212FC
:10129000F79003DFEEF0A3EFF0C3EB9FFFEA9EFEB3
:1012A000D3EF9402EE64809480403DA3E064096033
:1012B0003712109CF583C083C082E0FEA3E0FF904C
:1012C00003DDE0FCA3E0FDC3EF9DFFEE9CD082D0E8
:1012D00083F0A3EFF09003DFE0FEA3E0FF12109C89
:1012E000F583EE8FF0120CF29003CFE0FF1210A006
:1012F00012105BEF120FC2ECF0A3EDF09003CFE001
:10130000FF12120012105BEF1210ECECF0A3EDF0E4
:101310009003F3E0602C9003CFE0B4010F120FC2F2
:10132000E0FFA3E0900279CFF0A3EFF09003CFE0CD
:10133000B4020F120FC2E0FFA3E0900208CFF0A3A7
:10134000EFF09003CFE004F00218A7E49001FFF063
:1013500022E49003D3F0FF1234B37F011234B39030
:1013600003D1E4F0A37404F0900365E014607C14EE
:101370007003021BE0147003021C35147003021C7E
:10138000CD147003021CE224056003021DAF90031C
:10139000C8120E2D00000000E49003B4F0A3F0A3E7
:1013A000120E2D000000009003AAE0FFA3E09003BE
:1013B000BACFF0A3EFF09003AAE0FFA3E09003BC44
:1013C000CFF0A3EFF012275CA3F0A3F09003A8E006
:1013D000FFA3E09003C6CFF0A3EFF0123F777F3278
:1013E0007E00123CBD9003657401F0122764123D2B
:1013F0000CEF7003021DAF121DB57402F0021DAF99
:1014000012267C940AEE64809480401312275C902C
:1014100003B1E004F070139003B0E004F0800B120D
:101420002803500612275C1227861226D1700690D8
:1014300003B4E004F0123D0CEF7003021DAF12275D
:1014400035120D5A9003BAEEF0A3EFF090036574D5
:1014500003F0021DAF9003AAE0FEA3E024B4FFEE68
:1014600034FBFE9003CFF0A3EFF0123F8FC3EF9455
:1014700003EE648094805025E49003B4F0A3F0A3BD
:10148000120E2D00000000122764123F777F0A7EA3
:1014900000123CBD9003657404F0021DAF9003CFB1
:1014A000E0FEA3E0FF1226989405EE64809480404D
:1014B0001412275C900367E024FFF0900366E03489
:1014C000FFF0A38022C3EF94FBEE6480947F40037F
:1014D000021DAF12275C900367E004F070069003D2
:1014E00066E004F09003671227A3021DAF12276481
:1014F000123D0CEF7003021DAF121DB57405F00212
:101500001DAF12267C940AEE64809480401312274B
:101510005C9003B1E004F070139003B0E004F0803D
:101520000B122803500612275C1227861226D17050
:10153000069003B4E004F0123D0CEF7003021DAFFF
:10154000122735120D5A9003BCEEF0A3EFF01227CC
:1015500014E4FBFAF978401209767BA07A70797668
:1015600078C2120885120B5A9003C2EEF0A3EFF076
:101570009003BC122717ECC0E0EDC0E0EEC0E0EF36
:10158000C0E09003C2122717D0E0FBD0E0FAD0E011
:10159000F9D0E0F8120976ECC0E0EDC0E0EEC0E072
:1015A000EFC0E01227141227B1D0E0FFD0E0FED048
:1015B000E0FDD0E0FC120A7F120B5A9003C6EEF059
:1015C000A3EFF09003657406F09003D37401F090DC
:1015D00003D3E0FF22123F777F057E00123CBD90CF
:1015E0000365229003CF747EF0E4A3F0900026E020
:1015F000FE9003D0E0FFC39E4003021FA8123BFDF4
:10160000EF60031212369003D0E0FA1210AAE060E5
:1016100003021E839003D0E0FF1211F212105B75DB
:10162000F002EF120F2AE0FEA3E0C39DEE9C404CB7
:101630009003D0E09003CFF01210AA7401F0900153
:10164000FDE004F0900296F09003D0E0FF24F91240
:10165000110D7401F0123F2F9003D0E0FF123F3EB6
:101660009003D0E0FF123DC29003D0E0FF123E0A8B
:101670009003D0E01210E17401F08012CFEACF1293
:101680003B16EF60099003D0E01210E1E4F0900304
:10169000D0E0FF123C32EF7003021F9FE49001FE86
:1016A000021F9A9003D0E0FF75F002A424EDF582AA
:1016B000E5F0340112105B75F002EF120F2AE0FE24
:1016C000A3E0C39DEE9C5003021F649003D0E09002
:1016D00003CFF0123B51EF7003021F9FE4FF900312
:1016E000D0E0FE75F087120EC0120FD1121063EC1D
:1016F000F0A3EDF00FEFB409E59003D0E01210AACB
:10170000E4F0900027E0FF70099002B0E07003025F
:101710001FB6EF601F9002B0E06019121015BF20D5
:1017200003D38001C34005E49002B1F09002B1E020
:1017300044058048900027E0601F9002B0E07019D7
:10174000121016BF2003D38001C34005E49002B1FC
:10175000F09002B1E044018023900027E070779080
:1017600002B0E06071121015BF2003D38001C340A6
:1017700005E49002B1F09002B1E04404F09002E67A
:10178000F0C28A229003D0E0FF1210AAE4F0123FC8
:101790005C9003D0E0FF123D9E9003D0E0FF123F2B
:1017A0004D9003D0E0FF123DE69003D0E024F91203
:1017B000110D7401F09001FEE004F0900297F0909A
:1017C00003D0E004F0021DCC9003CFE0FF900202B2
:1017D000E06F6002EFF0229003E2EFF09003E67416
:1017E00004F0E49003E3F09003E3E0FFC3940940C6
:1017F00003022187EF603D12122F7038121001C0D2
:1018000083C0829003E3E0FED082D083120EB11237
:101810000EE6ECF0A3EDF09003E2E0120FF2C083CD
:10182000C0829003E3E0D082D083120EE7E4F0A3FD
:10183000F002217E9003E2E0FF75F087120EC0C037
:1018400083C0829003E3E0FED082D083120EE712C1
:10185000125BEFA4244CF582E5F03400120EE41282
:101860001092FE9003E4F0A3EFF0123F8F9003E696
:1018700012106A40030221131210BD120F5EE064C1
:1018800001703075F087EE120FA1121063121282F0
:10189000400302215B121001C083C0829003E3E089
:1018A000FED082D083120EB1120EE6ECF0A3EDF062
:1018B00002215B9003E4E0FEA3E0FF120FEDC08382
:1018C000C0829003E3E0FCD082D083120EE71211B5
:1018D00072ED120FF51212DD1211321212D54023E1
:1018E000120FEDC083C0829003E3E0FCD082D0836E
:1018F000120EE71212E4ED120EC01212DDE475F0C2
:1019000001802A12122550739003E2E0FF120FF2B9
:10191000C083C0829003E3E0FED082D083120EE742
:101920001212E4120EBF120EE674FFF5F0120CF262
:1019300002215B121001C083C0829003E3E0FED05D
:1019400082D083120EB1120EE6ECF0A3EDF09003FC
:10195000E2120F9CC083C0829003E3E0FED082D0ED
:1019600083120EE712128F401275F087EF1210CA21
:10197000F583E5822E120F637401F01210BD120F71
:101980005EE064017018120F51E004120F50E0D3B2
:101990009405400A9003E3E0FF120F36E4F0900351
:1019A000E3E004F0021FC722E4FE900026E0FFEE11
:1019B000C39F400302233612110AE0640160030250
:1019C000233274F32E1210ACE0FC600302225CEEB2
:1019D0006401704E12101EBF2003D38001C3400566
:1019E000E49002B1F0900297E0FD6401701B900258
:1019F00096E09002B1B40109E04409121078048025
:101A0000151210751213198016ED9002B1B4020B65
:101A1000E044051210781212648004121075F0125E
:101A20001272EE6402600302232B12101EBF200309
:101A3000D38001C34005E49002B1F0900297E0FD2D
:101A40006401701C900296E09002B1B4010612117C
:101A500067E48021E044041210781213190223284D
:101A6000ED9002B1B40205E044058003E04404F0C7
:101A7000E4900027F09002B0F0022328EC640160AB
:101A80000302232BEE6401706012101EBF2003D3EB
:101A90008001C34005E49002B1F0900296E0FFB4EB
:101AA000020B9002B1E0440A12116A8013EF640144
:101AB00070269001FEE09002B1B4010C121167E4AF
:101AC0009002B0121264801EE0440212116AE49087
:101AD00002B0F0121237800E9002B1E044021211EF
:101AE0006AE49002B0F0121272EE6402705D12109D
:101AF0001EBF2003D38001C34005E49002B1F090E3
:101B00000296E0B402139002B1E0440AF09002B0F1
:101B10007401F0900027F0802F9001FDE0640170C7
:101B20001C900297E09002B1B40105E044098013D3
:101B3000E0440812107804F0121236800B9002B1C3
:101B4000E0440812107804F012127212110AE4F044
:101B5000C28A0E02218A7F0522900213E0600302EE
:101B600023D004F0E4FF900026E0FEEFC39E504730
:101B7000EF25E024CCF582E4342F1210FB24E7F5A6
:101B800082E5F034011212B9EF25E024ACF582E4CD
:101B9000342F1210FB1211F61212B9EF25E024ECCB
:101BA000F582E4342F1210FB24EDF582E5F03401C8
:101BB0001212B90F0223469001E3A3E09002E1F074
:101BC0009001E5A3E09002E2F090029312130190DD
:101BD0000311F0EDA3F090000B121301900313F02A
:101BE000EDA3F090027B121301900305F0EDA3F03A
:101BF0009002E1E0FF7E009001E3E07003A3E06F5C
:101C000060089001E3EEF0A3EFF09002E2E0FF7EC7
:101C1000009001E5E07003A3E06F60089001E5EE3D
:101C2000F0A3EFF0900293E0FEA3E09002C6121240
:101C30007B6F7002EC6E6008900293ECF0A3EDF005
:101C400090000BE0FEA3E090020D12127B6F700279
:101C5000EC6E600890000BECF0A3EDF090027BE0DE
:101C6000FEA3E0FF90029BE0FCA3E0FD6F7002EC9E
:101C70006E600890027BECF0A3EDF09002E0E0B41F
:101C8000AA0312379B9002F6E0FFB410089003F409
:101C90007410F0800AEFB420069003F47420F090E2
:101CA00002F9E0B41007E4F090028E04F09002FA1A
:101CB000E07008A3E0B4100312084A900304E0FFA8
:101CC000B4100BE490028FF0900304F0800EEFB498
:101CD000200AE4900304F090028F04F0900303E0E4
:101CE000FFB4100FE490020AF0900303F090029802
:101CF00004F022EFB4200EE4900303F090020A04F3
:101D0000F09002B5F022E49003E3F0A3F09003E733
:101D10007403F02405A3F0122C29E49003E2F09060
:101D200003E2E0FFC3940940030225F475F002EFDB
:101D3000120FE11210B4120EBF121092FE9003E5C2
:101D4000F0A3EFF0123F8F9003E712106A5020903B
:101D500003E4E004F0A3120F6B1211321212D5400B
:101D60000302259512122540030225CC0225B890C6
:101D700003E3E004F012122F70729003E5E0FEA37B
:101D8000E0FF123F8F9003E8D312106B4015121240
:101D900049120EC01210B4EF120FE1ECF0A3EDF0F7
:101DA0000225CC9003E5120F6B1211329464EE649D
:101DB00080948040189003E2E0FD75F002120F8DD0
:101DC000121211ED120FE1E475F001801CC3EF94C3
:101DD0009CEE6480947F5014121249120F8D1212DF
:101DE00011EF120FE174FFF5F0120CF2121249120A
:101DF0000FE11210B4120EBF121092FE9003E2E037
:101E000075F002120FA1EEF0A3EFF09003E2E004F0
:101E1000F00224FF9003E3E0C3940440028031C346
:101E200090010CE0940490010BE0648094804026C3
:101E3000900193E09404900192E0648094804016B5
:101E4000900085E09403900084E0648094804006D4
:101E50009002047401F09003E4E0C39406403790CC
:101E60000204E06031E4FF123D7AE4FF123ADBEF56
:101E70006029E4900204F09003E9F0900026E0FF6E
:101E80009003E9E0FEC39F50121211DFE4F09003CB
:101E9000E9E004F080E5E4FF123F20229003B0E087
:101EA000FEA3E0FF9003AAE0FCA3E0C39FFFEC9E2B
:101EB000FE9003CFF0A3EFF09003ADE02FF090037E
:101EC000ACE03EF0E0FEA3E0FFD3222FFFEC3EFEAD
:101ED000E0FCA3E02FFFEC3EFE22E490036FF0A3B2
:101EE000F090036BE0FFA3E0CF900371F0A3EFF05D
:101EF000229003B6E0F8A3E0F9A3E0FAA3E0FB9098
:101F000003AAE0FEA3E0FFE4FCFDEB2FFFEA3EFEA8
:101F1000ED39FDEC38FC9003B6120E219003B5E0CC
:101F200004F02290036BE0FEA3E0FFE4FCFDF9F86F
:101F3000C3020DFA9003BAE0FCA3E0FDE4020B211A
:101F4000900371E0FEA3E0FFC390036CE09FFF905D
:101F5000036BE09E229003B4E0FEA3E0FBCAEECA4E
:101F6000E4F9F8A3E0FCA3E0FDA3E0FEA3E0FF2278
:101F7000E49003A3F0A3F0900372E022E49003AC9A
:101F8000F0A3F0229003AAE0FFA3E09003B0CFF00B
:101F9000A3EFF0229003D1E0FEA3E0FF9003A4E0C2
:101FA0002FF09003A3229003B1E024FFF09003B040
:101FB000E034FFF022F0902EC4740AF0902EC37427
:101FC00080F022E09003CDF0900366E09003CCF027
:101FD00022C8ECC8C9EDC9CAEECACBEFCB229FFF1D
:101FE000EC9EFE9003D1F0A3EFF022F0902EC67489
:101FF00016F02290036BE0FEA3E0FFE4FCFD2290CC
:102000002E4C7488F0902E4BF02224FFF090037138
:10201000E034FFF022900371E004F022E0FCA3E042
:10202000FDEC22C3EF94F6EE6480947F22C0E0C002
:1020300083C082C0D0E8C0E0E9C0E0EAC0E0EBC005
:10204000E0EDC0E0EEC0E0EFC0E0D2AFE5DB30E4B1
:102050001D9003F1123A13E4F0E5DB30E102803821
:102060009002DEE5DFF090035FE4F0022970E5DB2B
:1020700030E5169002DB123A13E06005E4F0022925
:10208000709003F1E4F0022970900361E4F0E5DB65
:1020900030E12EE5DB30E00FA31239E51239EE1204
:1020A0000BF4F5DF022970900360E064086003021E
:1020B0002970308A03022970D28A9002E6F0022940
:1020C0007090035FE0700EA3E5DFF090035F123ABB
:1020D00013F0022970900360E09035B593FFB4FFD0
:1020E0000F9002DEE5DFF0900360E004F002296A61
:1020F000EF640F702F9003621239E5900360E0FFE8
:10210000123A1A540F120C219003621239E590030F
:1021100060E0FF04F0123A1AFFE5DF54F04F120CB2
:102120002102296A9003621239E51239EEE5DF12C5
:102130000C33900360E0FDB43419900311E0900279
:10214000C61239FB900312E0FBEBFF9002C6EEF0E3
:10215000A3EFF0EDB43614900313E090020D1239A2
:10216000FB900314E090020D123A03900360E0B478
:102170002818900305E07F00FE90029BF0A3EFF08B
:10218000900306E090029B123A039002DDE004F017
:1021900075DBFFD0E0FFD0E0FED0E0FDD0E0FBD06B
:1021A000E0FAD0E0F9D0E0F8D0D0D082D083D0E00F
:1021B00032122720FE9003CFF0A3EFF0D3900294C9
:1021C000E09F900293E09E40239003CFE0FEA3E0C7
:1021D000FF123F8FCCEECCCDEFCD900293E0C31336
:1021E000FEA3E013FFD3ED9FEC9E500690036AE040
:1021F000601312312F12313512312F122720900324
:10220000CFF0A3EFF09003CF1226A49400EE6480E9
:102210009480400280047E007F0090036FEEF0A364
:10222000EFF090028FE0701390036FF0A3F0A3E043
:10223000FFA3E090036BCFF0A3EFF090028EE0706D
:10224000069002A0E060101226BAE490028EF09090
:1022500002A0F090020FF0900293E0FEA3E0FF9046
:10226000036FE0FAA3E0FBD39FEA9E404F90037B0D
:102270007401F0A3120E2D00000000E4900380F022
:1022800090036A04F09003A7E07018900372E024B2
:1022900032FE900371E034009003A5F0A3CEF0A3CA
:1022A0007401F0900299E0705D90020AE06006907F
:1022B00002817401F09002997401804590000BE056
:1022C000FEA3E0FFC3EB9FEA9E503BE490037BF04C
:1022D000900371E0FFA3E09003A5CFF0A3EFF0E43B
:1022E000A3F090036AE06002E4F0900299E0B40188
:1022F0001590020AE060069002817401F0E49002F9
:1023000099F090027DF0022E6790020CE024FE60AE
:1023100021146027147003022BBD147003022BCA12
:1023200024046003022C2890020C7402F0E4900252
:1023300095F090020C7403F002304C1213239001BC
:10234000FFE06077900295E004F0E49003CEF09017
:102350000026E0FF9003CEE0C39F505FE4FF9003B0
:10236000CEE0FE121006120FD1121063ECF0A3EDB6
:10237000F09003CEE0FE12100612106312125BEE14
:10238000120EC0121063ECF0A3EDF00FEFB409CE03
:102390009003CEE0FF120F27E4F0A3F0EFB40107A3
:1023A000E49002E9F0A3F0EFB40207E49002EBF04E
:1023B000A3F09003CEE004F0022B2F900295E0C32F
:1023C00094035003022C28900021747EF0E49002C4
:1023D00000F0900295F090020C7404F022121B3170
:1023E000EF606590020C7405F02212372B123EA7A5
:1023F0001236B3900290E0700312132312372B9021
:1024000001FFE0604012189F12372BE49003CEF0DA
:10241000900026E0FE9003CEE0FFC39E5019123AD2
:102420006412395B9003CEE0FF12335612372B90C3
:1024300003CEE004F080D9123C67121DC31221883C
:1024400090020CEFF0123405229003ED7402F0E4D8
:102450009003EAF09003EAE0FFC394094003022DE1
:102460005075F002120EBF1210B4EF1210091210C4
:1024700092FE9003EBF0A3EFF0123F8F9003ED126A
:10248000106A4003022CF9121123E0B4012775F001
:1024900002EF120FA11212824003022D1E9003EAD6
:1024A000E075F00212100975F002120EBAECF0A3FA
:1024B000EDF0022D1E9003EBE0FEA3E0FF9003EA97
:1024C000E0FD75F002120FF5EE8FF0120CF275F0D0
:1024D00002ED120FF51211329402EE6480948040E6
:1024E000189003EAE0FD75F002120FF5121211EDDB
:1024F000120EC0E475F001801BC3EF94FEEE648001
:10250000947F503A121240120FF5121211120EBFA0
:1025100074FFF5F0120CF28025121240121009120D
:1025200010B4120EBFECF0A3EDF0121240120FA186
:1025300012128F400974C12F12112A7401F09003F6
:10254000EAE0121128E0B4011E9003EAE0FF24CA79
:1025500012121DE004121219E0D394054009121161
:1025600023E4121219E4F09003EAE004F0022C34A0
:1025700022902ECB74F4F0902F58E0540F44F0903A
:102580002EC81227CB902EC97428F0A3743F1227AF
:1025900095902ECC7448F09003677480F090036699
:1025A0007409F0A31227A39003667409F0A3748042
:1025B000F0902EC5E4F0902ECDF0A3F01227DFE4CA
:1025C000900368F0A3F09003CEF01231359003CE63
:1025D000E004F0E0C3940840F11226C17B507AC3B6
:1025E000122703500C900368744EF0A37420F080FF
:1025F000437BC87AAF122703500C900368743AF0FB
:10260000A37498F0802E1227D37B407A9C12270E59
:10261000500C9003687427F0A37410F080161227F2
:10262000D37BB87A8812270E500A9003687413F08F
:10263000A37488F0900368122723FEF0A3EFF0EE56
:102640001226C9E49003A7F090036DE0FFA3E09089
:102650000373CFF0A3EFF090036B122717ECC0E0E9
:10266000EDC0E0EEC0E0EFC0E090036D122717125E
:1026700027B1D0E0FFD0E0FED0E0FDD0E0FC120AB0
:102680007F900375020E219003D37414F0A374326B
:10269000F0900371E0FEA3E0FF90036BE0FCA3E089
:1026A000C31227BE123F8F9003D3E0FDC3EF9D748A
:1026B00080F86E98502F1227741226A19464EE644D
:1026C000809480400C12275004F070031227F5808C
:1026D00011C3EF949CEE6480947F50061227501231
:1026E00027EA023F6BC39003D1E0648094805014CA
:1026F0007F1E7E00123C95123E2EEF7003022F6665
:102700001226C122123F6B90036AE0605990029436
:10271000E0244EFF900293E03402FED39003D2E017
:102720009F9003D1E09E405E900371E0FEA3E0FF26
:102730009003A5E0FCA3E01227BE12277C1226A17D
:102740009432EE64809480400B12275004F07003A2
:102750001227F522C3EF94CEEE6480947F502712A7
:1027600027501227EA22122774E03EF0D3A3E09408
:102770000A9003A3E064809480400BE41227540481
:10278000F070031227F5223F3F3F3F3F3F3F3F3F5F
:1027900000320032000602580004001E001400320D
:1027A000000F0064000A000C000C000C0000000088
:1027B0000000000000000001000001010B0C0D0EE4
:1027C0000F05060708090A0003040102006E006EE7
:1027D000006E006E006E006E006E006E006E006E89
:1027E000006E006E006E006E006E006E007300736F
:1027F0000073007300730073007300730073007341
:10280000007300730073007300730073006400644E
:102810000064006400640064006400640064006498
:10282000006400640064006400640064002D002DF6
:10283000002D002D002D002D002D002D002D002D30
:10284000002D002D002D002D002D002D00FA00FA86
:1028500000FA00FA00FA00FA00FA00FA00FA00FAA8
:1028600000FA00FA00FA00FA00FA00FA7E017FE0AE
:102870007D007B017A007928120E6A1239A1E4905A
:102880000213F09002C6F0A37469F0900293E4F092
:10289000A37469F090020DE4F0A37455F090000B5E
:1028A000E4F0A37455F090027BE4F0A37432F0904E
:1028B000029BE4F0A37432F0122339E4FE90002668
:1028C000E0FFEEC39F5073E4FF75F087EE120F8DAB
:1028D0001210631212E4EEA424B8F582E5F034007D
:1028E000120F5EE4F075F087EE120FF5121063E43C
:1028F000F0A3F0120F36E4F00FEF640970CBCFEEC7
:10290000CF123F11123F201211DFE4F0123F2F12BD
:102910003F4D123F3E123F5C74F32E1210ACE4F0B8
:1029200012110AE4F09001FC747EF0E4A3F0A3F02D
:10293000900296F0A3F00E02309DE4900204F09015
:102940000202747EF0900021F0E4900201F0221265
:102950003135123135902ECB74F41227CB902ECA1C
:10296000743FF0902EC974281227951227DF902EFD
:10297000CE7410F0902EC57418F0902EC074C2F072
:10298000902EC0E020E7F9902EC0E4F0902ECBF01E
:10299000902E18E0FEA3E0FF9003A1E025E025E0E3
:1029A0002481F582E43403F583EEF0A3EFF0900385
:1029B000A1E004F0E05407F0E4FFFE900381E0FCA6
:1029C000A3E02FFFEE3CFE900385E0FCA3E0900324
:1029D000891226AB90038D1226B09003911226B077
:1029E0009003951226B0900399E0FCA3E090039D1C
:1029F0001226AB900368E0FCA3E0FDC3EF9DFFEE61
:102A00009C90036BF0A3EFF022758A50538AEF90ED
:102A100003F07411F09003EF7422F09003F274331A
:102A2000F075996F759A90E4FFFEC2960020970C9E
:102A3000D296003097069003F07487F00FBF000124
:102A40000EEF640A4E70E3E4FEFFC2960020940C81
:102A5000D296003094069003F07487F00FBF000107
:102A60000EEF640A4E70E37590FF75992F759AD03A
:102A7000000000E4FEFF3094063096032097069095
:102A800003EF7487F00FBF00010EEF640A4E70E68B
:102A9000758B02E4F5AD75AED875AF1DF5AC7589D3
:102AA000FF75913E759927F59675931CF59BF595E5
:102AB000F592F59A75800CC289D28A9003F304F0DE
:102AC00022E49003D0F0FF9003CFF0EF14601E14C7
:102AD000603514604C14605B240470749003D174EE
:102AE00001F0A3742FF0A37458F002332A1239E2D4
:102AF000900001120BF4FED3941F4003123A0C1203
:102B00000BDB6E704B80431239E2900002120BF423
:102B1000FED394064003123A0C120BDB6E70318028
:102B2000291239E2900003120BF4FE120BDB6E70D7
:102B30001F80171239E2900004120BF4FE648B60C0
:102B400003123A0C120BDB6E70069003CFE004F018
:102B50000FEF640560030232AB9003CFE0B40504CD
:102B6000A37401F09003D0E0FD60079002F3E054FD
:102B70007FF0CFEDCF22CBEFCB1210EBE0FEA3E046
:102B8000FF120FC1E0FCA3E0C39FEC9E4038120F80
:102B9000C1E0FEA3E0FF75F002EBA42434F582E56A
:102BA000F03400F583EEF0A3EFF01210EBE0FEA39B
:102BB000E0FF120FC1E0FCA3E0C39FFFEC9E120FE9
:102BC00025EEF0A3EFF0EB6401702A120F2612112C
:102BD00032949AEE94014008120F0AEEF0A3EFF03F
:102BE000120F26E0FCA3E09002E9121048EC9002DC
:102BF000EDF0EDA3F0EB6402702A120F26121132F1
:102C0000949AEE94014008120F0AEEF0A3EFF0122E
:102C10000F26E0FCA3E09002EB121048EC9002EFCC
:102C2000F0EDA3F02290020AE0606A900281E06079
:102C300064900299E0602A12117E540FFFF0BF08E1
:102C400003D38001C340129002B1E0B40203D380E9
:102C500001C34005E49002B1F09002B1E04420804D
:102C60002812117E540FFFF0BF0403D38001C3402C
:102C7000129002B1E0B40103D38001C34005E49097
:102C800002B1F09002B1E04410F09002E6F0E4905E
:102C90000281F0C28A9002B5E0B4011890027DE092
:102CA000B4010C12117CE4F07420F09002E6F0E420
:102CB0009002B5F0900298E0601890027DE0B401B7
:102CC0000C12117CE4F07410F09002E6F0E4900233
:102CD00098F022902ECB74F4F0E4F5E2902EC974B3
:102CE00020F09003CDE0902EC3F09003CCE0902E26
:102CF000C4F0902E4C74021227CB902EC57410F0A5
:102D0000EF902ECEB401057410F08002E4F0902E06
:102D1000C074C2F0E4FDFCE5E220E20B0DBD000151
:102D20000CBC07F3BDD0F053E2FB902EC5E4F0904D
:102D30002ECEF0EF902E18B40109E0FFA3E090032F
:102D4000A88007E0FFA3E09003AACFF0A3EFF090E4
:102D50002ECBE4F022023B8CE493A3F8E493A3404F
:102D600003F68001F208DFF48029E493A3F8540706
:102D7000240CC8C333C4540F4420C8834004F45601
:102D8000800146F6DFE4800B010204081020408039
:102D9000903635E47E019360BCA3FF543F30E509D3
:102DA000541FFEE493A360010ECF54C025E060A839
:102DB00040B8E493A3FAE493A3F8E493A3C8C582CC
:102DC000C8CAC583CAF0A3C8C582C8CAC583CADF3A
:102DD000E9DEE780BE00000000FFFFFFFF0000FF0C
:102DE000FFFFFFFFFFFFFFFF00FFFF0000FFFF00EF
:102DF0000000FFFFFFFFFFFFFF00000000FFFFFFDD
:102E0000FFFFFFFFFFFFFF000000000000000000C9
:102E100000000000000000000000000000000000B2
:102E200000000000000000000000000000000000A2
:102E30000000000000000000000000000000000092
:102E40000000000000000000000000000000000082
:102E500000000000004103F1004103F4104102951D
:102E60000041020B004102900041020A0041028F22
:102E7000014102B5004102980041027D0041028EED
:102E8000004102B100410213004102990041028158
:102E900000410027004102B0004102D80041020F6A
:102EA0000041029A004102A0004102C80041035FB4
:102EB00000410360004202D900004102DB004102F0
:102EC000DD004102DC00410361004102DE104103EC
:102ED0006500009002F5E0FF6410606EEF64207002
:102EE000699002F57430F07F011234B39003C6E0AC
:102EF000FEA3E0FF9003A8E0FCA3E0C39FFFEC9ECD
:102F0000FECDEFCDFC120B217B667A6679487842C4
:102F1000120A7FE4FBFA79B87841120885E4FBFADB
:102F200079C878421209769003C8120E219003C81E
:102F3000122744120B5ACDEFCDCCEECCEC9002F719
:102F4000F0EFA3F09002F57410F02290020FE0145D
:102F5000602014602714604A2403705E30885B9000
:102F6000020F7402F07F0B123EF312081E9002C88B
:102F700080062088459002A07401F0227F0B123950
:102F80000CEF60031212EC20883090020F7403F0F3
:102F900090029A7401F07F0C123EF312081E121276
:102FA000EC227F0C12390CEF60107F0C123EF39074
:102FB000020F7401F0E490029AF0229003CF74089B
:102FC000F0A3E4F0A3743FF0A374DFF0E4FDFCF998
:102FD000758A10538AEF0000009003CFE0FEA3E053
:102FE0002DF582EE3CF583E493FF69F90DBD0001F8
:102FF0000CBC37E5BDDFE29003D1E0FEA3E0F58233
:103000008E83E4936970089002E0740EF08005E40A
:103010009002E0F0758A50538AEF0000002290037E
:10302000F4E0FFB410139002F67410F0900290E0F8
:1030300064017048F053AAF722EF6420703E9002BA
:103040008FE0640170259002F67420F09002907475
:1030500001F0902ECBE4F043AA08123E527586018F
:10306000758A50538AEFE4F58D800B902ECBE4F0F7
:10307000123F9B758601902ECB74F4F022902EC0E7
:10308000E4F0902ECB74F4F0902F58E0540F2450BD
:10309000902EC8F0902ECC7448F012120AA3743F00
:1030A000F0902E4C7488F0A37482F0A37402F0A305
:1030B000F0902EC67414F0902EC17490F0A3740199
:1030C000F0A37420F0A37409F043E310123E8C9037
:1030D0000026EFF022C0E0C0F0C083C082C0D0E87C
:1030E000C0E0ECC0E0EDC0E0EEC0E0EFC0E0D2AF89
:1030F00090020BE004F0C3940A4017E4F0120EA310
:103100002401FFE43EFEE43DFDE43CFC9002C212DB
:103110000E21D0E0FFD0E0FED0E0FDD0E0FCD0E01A
:10312000F8D0D0D082D083D0F0D0E0329003CFEF6F
:10313000F0C3940D5042E0FF242712118AE060385A
:10314000EF25E025E02437F582E43402120E9612D2
:10315000102B9003CFE025E02470F582E4342FF5A6
:1031600083120EFC400F9003CFE02427F582E43455
:103170000212111C227F00227F00229003F3E060E4
:103180003F900279121312EE9404500EEF9400EE69
:10319000940340069003F27487F090020812131211
:1031A000EE9404500EEF9400EE940340069003F268
:1031B0007487F0E49003F3F09003F2E09002E5F0FE
:1031C000227E007F807D007B017A0279DF120E6A09
:1031D000E49002E6F09002E0740EF09002F174AB1D
:1031E000F09002F37497F09003F0E09002E3F09017
:1031F00003EFE09002E4F09003F2E09002E5F002C9
:1032000032A19003D1E0FBA3E0FAA3E0F9229003FE
:1032100060E0FF04F08F82758300227F00FEF0A340
:10322000EFF022FDEDFFEEF0A3EFF0229003D0745B
:1032300001F0227401F090036122E92FF9E43AFAD7
:10324000020BDB90027BE0FEA3E0FFC3900370E083
:103250009F90036FE09E5004E4F0A3F0900371127E
:1032600027FC900307F0EDA3F090036F1227FC906A
:103270000309F0EDA3F090036B1227FC90030DF00F
:10328000EDA3F022CBEFCBEB64017017120FADE092
:1032900090032FF0120FC1A3E0900330F0ECA3F0E5
:1032A000EDA3F0EB64027017120FADE0900333F062
:1032B000120FC1A3E0900334F0ECA3F0EDA3F022D1
:1032C0009003EBEFF0E0FF24C91211A0E06029EFBA
:1032D00025E025E024CCF582E43402120E9612108B
:1032E0002B902F7C120EFC400F9003EBE024C9F5CD
:1032F00082E4340212111C227F00229003EAEFF0D4
:10330000E0FF24A11211ABE06029EF25E025E024C5
:10331000A4F582E43402120E9612102B902F7E1226
:103320000EFC400F9003EAE024A1F582E43402127F
:10333000111C227F00229003D1EFF0E0FF24101235
:1033400011B6E06029EF25E025E02414F582E4348D
:1033500002120E9612102B902F72120EFC400F903C
:1033600003D1E02410F582E4340212111C227F0004
:10337000229003D1EFF0E0FF24B21211D7E06029D0
:10338000EF25E025E024B6F582E43402120E961211
:10339000102B902F76120EFC400F9003D1E024B238
:1033A000F582E4340212111C227F002212086653B7
:1033B000A87F1231E9123CE543A880123F83123EF8
:1033C000DB12084E123E6FEF24E0600A2410700AF0
:1033D000C283C2828004D283D2821223391237FE82
:1033E000122AE980DF9003EBEFF0E0FF247E121158
:1033F00095E06026EF25E025E02482F582E43402A2
:10340000120E96902F74120EF0400F9003EBE024F2
:103410007EF582E4340212111C227F00229003D137
:10342000EFF0E0FF240E1211C1E06023EF25E0254C
:10343000E02415F582E43400120E96120EED400FD2
:103440009003D1E0240EF582E4340012111C227F97
:1034500000229003D1EFF0E0FF24341211CCE060A1
:1034600023EF25E025E0246BF582E43402120E966A
:10347000120EED400F9003D1E02434F582E43402C3
:1034800012111C227F0022E4FFFE900026E0FDEED8
:10349000C39D501BEF120F271210B4EE120F2AE03B
:1034A000FAA3E0D39DEA9C4003CFEECF0E80DB90E1
:1034B0000203EFF022CBEFCBCAEECA900006E07019
:1034C0001B9000067401F0120EA3FF900007120E6D
:1034D00021CFEBCF900277EAF0A3EFF022CBEFCB36
:1034E000CAEECA90000DE0701B90000D7401F0123E
:1034F0000EA3FF900011120E21CFEBCF900291EAA4
:10350000F0A3EFF0229003627401F0A37402F0A321
:1035100074DFF0E4F5DA75DA4043DA2075D74075E8
:10352000DA5843A90875B80875F8082290000DE02C
:10353000601D900011120E9812102B900291E0FE67
:10354000A3E0120F024008E490000DF07F01227FFB
:1035500000221210D4501E121192E0701812119213
:103560007401F0120EA31211152482F582E43402C4
:10357000F583120E21221210D4501E12119DE070FC
:103580001812119D7401F0120EA312111524CCF51E
:1035900082E43402F583120E21221210D4501E123E
:1035A00011A8E070181211A87401F0120EA31211E4
:1035B0001524A4F582E43402F583120E21221210A0
:1035C000D4501E1211B3E070181211B37401F0122E
:1035D0000EA31211152414F582E43402F583120EA1
:1035E00021221210D4501E1211BEE070181211BE0A
:1035F0007401F0120EA31211152415F582E43400A3
:10360000F583120E21221210D4501E1211C9E0703F
:10361000181211C97401F0120EA3121115246BF5C2
:1036200082E43402F583120E21221210D4501E12AD
:1036300011D4E070181211D47401F0120EA31211FB
:103640001524B6F582E43402F583120E212290008F
:1036500006E0601BA3120E9812102B900277E0FE7A
:10366000A3E0120F024008E4900006F07F01227FE1
:1036700000229003F1E07016758EC1758DA0E4F5FF
:1036800086438A84E5DB20E205758703000022E497
:10369000FD9002DBE060119002DFE0FE54F0FDEEF1
:1036A000540FF0E49002DBF0CFEDCF221212C1FFF5
:1036B000FEEE902F8C936009749D2F1212CDEEF0C8
:1036C0000F0EEEB410EB2290028FE0B4010E9002C8
:1036D000C8E060051226BA80031231351229910222
:1036E0003A239002C2120E2D000000007E007F0DD2
:1036F0007D007B017A027927020E6A7E007F617D60
:10370000007B017A03796B120E6A122D51E490034B
:1037100065F022EFD3940D500874272F12118AE41C
:10372000F022EFD394035008747E2F121195E4F029
:1037300022EFD39403500874C92F1211A0E4F02291
:10374000EFD39403500874A12F1211ABE4F022EFD1
:10375000D39403500874102F1211B6E4F022EFD363
:1037600094035008740E2F1211C1E4F022EFD39489
:1037700003500874342F1211CCE4F022EFD39403D9
:10378000500874B22F1211D7E4F022E4900006F032
:10379000900277F0A3F022E490000DF0900291F0F7
:1037A000A3F02212385D90020C7401F002304CEE4E
:1037B00030E707C3E49FFFE49EFE22E4F5867587A9
:1037C00003000000220000000000000000000000D4
:1037D00000000000000000000000000000000000E9
:1037E00000000000000000000000000000000000D9
:1037F000000000000000000000000000000000B217
:1038000000000000000000000000000000000000B8
:1038100000000000000000000000000000000000A8
:00000001FF
