:1000000000990000000B0000346C000000000000AC
:1000100000000000000000000000000000000000E0
:1000200078FFE4B8200118F6D8F99000007F007E30
:1000300007E4F0A3DFFCDEFA758107023425CBEF7D
:10004000CBEBD3940D501E12114CE0701812114CD2
:100050007401F0120E6D1210BC2434F582E43402E7
:10006000F583120DEB22D2AF00320002248F75B25D
:100070008E75B6F9E4F5B743B20143AA01023DA972
:10008000000000023771904006E493B41802002289
:1000900053A87F0080FD0000000000020846020B0C
:1000A000C6E86480F8E933E83360110460F0ED33AA
:1000B000EC337009E8FCE9FDEAFEEBFF220460DEA8
:1000C000D3EB9FEA9EE99DE8C2E78CF0C2F795F07A
:1000D000400CE8CCF8E9CDF9EACEFAEBCFFB120BF5
:1000E0009185D0F05804700320D5B3E80470075010
:1000F00002B2D5020BD092D5EC0460F7E4CCC0E09C
:10010000C398F8603B94186008400DD0E0FB020BE8
:10011000A8E4FBFAC9FC8028E830E406E4C9FBE463
:10012000CAFCE830E305E4C9CACBFCE85407601018
:10013000F8C3E913F9EA13FAEB13FBEC13FCD8F15B
:1001400030F52FC3E49CFCEF9BFFEE9AFEED99FD8A
:10015000D0E0FBEF4E4D4C701222DB03020BCDECD6
:100160002CFCEF33FFEE33FEED33FDED30E7EB0219
:100170000BA8EF2BFFEE3AFEED39FDD0E0FB50135C
:100180000BBB0003020BD0ED13FDEE13FEEF13FFCC
:10019000EC13FC020BA8EC4D6011E8497017ED332D
:1001A000EC3304600DE4FCFFFEFD22E933E8330488
:1001B00070F8020BC6120B9158046009E4CC24813C
:1001C0005006285009020BD0284003020BCDC0E096
:1001D000EB4A7044B98006D0E0FB020BBCEF4E70D6
:1001E0001CBD8008EBFFEAFEE9FD80EBE98DF0A481
:1001F000FEE5F0020A5FE9CDF9EAFEEBFFEF89F0D8
:10020000A4FCE5F0CE89F0A42EFFE435F0CD89F012
:10021000A42DFEE435F08067EF4E7005BD80D780D9
:10022000C3EF8BF0A4ACF0EE8BF0A42CFCE435F023
:10023000F8EF8AF0A42CE5F038FCE433CB8DF0A481
:100240002CFCE5F03BF8EE8AF0A42CFCE5F038F845
:10025000E433CF89F0A42CFCE5F038CF3400CE890C
:10026000F0A42FFFE5F03EFEE433C98DF0A42EFE8E
:10027000E5F039CD8AF0A42FFFE5F03EFEE43DFD28
:1002800033D0E0FB50070BBB000F020BD0EC2CFC73
:10029000EF33FFEE33FEED33FD020BA8020BD0EC83
:1002A0005D046005E859047003020BC6120B9158F7
:1002B0000460F6EC4860F2EC7004FDFEFF22C860BA
:1002C000DB2481C85009C39860025006020BCD9808
:1002D00050CAF582E9294B4A7005AB82020BBC7506
:1002E000F0007C1A7880C3EF9BEE9AED99400DC325
:1002F000EF9BFFEE9AFEED99FDE842F0DC23ACF0B7
:10030000D0E0FFD0E0FED0E0FDAB8220E7101BEB99
:1003100060BAEC2CFCEF33FFEE33FEED33FD020B45
:10032000A8E803F830E705C0F075F000EF2FFFEE06
:1003300033FEED33FD40B830E7C280AA75F020806F
:100340000E75F010800575F0087D007E007F00338B
:1003500092D530D503120DB6EC334010EF33FFEEDB
:1003600033FEED33FDEC33FCD5F0ED22E5F0247ED9
:10037000A2D513CC92E7CDCEFF22EDD2E7CD33EC60
:100380003392D524814006E4FFFEFDFC22FCE4CF3D
:10039000CECDCC24E0501174FF80EDC3CC13CCCD76
:1003A00013CDCE13CECF13CF0470F030D5DE020DB7
:1003B000B6E9D2E7C933E833F892D5EDD2E7CD33C9
:1003C000EC33FC5002B2D522EC30E7100FBF000C2A
:1003D0000EBE00080DBD00040BEB6014A2D5EB139C
:1003E000FCED92E7FD2274FFFCFDFEFF22E480F8A5
:1003F000A2D574FF13FC7D80E480EFBB01068982E7
:100400008A83E0225002E722BBFE02E32289828A2D
:1004100083E49322BB010CE58229F582E5833AF55A
:1004200083E0225006E92582F8E622BBFE06E92594
:1004300082F8E222E58229F582E5833AF583E493A6
:1004400022BB010689828A83F0225002F722BBFE7A
:1004500001F322F8BB010DE58229F582E5833AF527
:1004600083E8F0225006E92582C8F622BBFE05E9A2
:100470002582C8F222EF8DF0A4A8F0CF8CF0A4283A
:10048000CE8DF0A42EFE22BC000BBE0029EF8DF015
:1004900084FFADF022E4CCF875F008EF2FFFEE33C7
:1004A000FEEC33FCEE9DEC984005FCEE9DFE0FD576
:1004B000F0E9E4CEFD22EDF8F5F0EE8420D21CFE4A
:1004C000ADF075F008EF2FFFED33FD4007985006B3
:1004D000D5F0F222C398FD0FD5F0EA22C5F0F8A3BB
:1004E000E028F0C5F0F8E582158270021583E03847
:1004F000F022A3F8E0C5F025F0F0E5821582700245
:100500001583E0C838F0E82275F008758200EF2FF7
:10051000FFEE33FECD33CDCC33CCC58233C5829BC9
:10052000ED9AEC99E58298400CF582EE9BFEED9AEF
:10053000FDEC99FC0FD5F0D6E4CEFBE4CDFAE4CC8B
:10054000F9A88222B800C1B90059BA002DEC8BF08D
:1005500084CFCECDFCE5F0CBF97818EF2FFFEE334A
:10056000FEED33FDEC33FCEB33FB10D70399400475
:10057000EB99FB0FD8E5E4F9FA227818EF2FFFEE9C
:1005800033FEED33FDEC33FCC933C910D7059BE9CD
:100590009A4007EC9BFCE99AF90FD8E0E4C9FAE429
:1005A000CCFB2275F010EF2FFFEE33FEED33FDCCC8
:1005B00033CCC833C810D7079BEC9AE899400AEDB2
:1005C0009BFDEC9AFCE899F80FD5F0DAE4CDFBE45A
:1005D000CCFAE4C8F922C3E49FFFE49EFEE49DFD4B
:1005E000E49CFC22EB9FF5F0EA9E42F0E99D42F08C
:1005F000EC6480C864809845F022EB9FF5F0EA9E99
:1006000042F0E99D42F0E89C45F022ECF0A3EDF0C9
:10061000A3EEF0A3EFF022A8828583F0D083D082EE
:10062000120E0E120E0E120E0E120E0EE473E49344
:10063000A3C583C5F0C583C8C582C8F0A3C583C55B
:10064000F0C583C8C582C822A42582F582E5F035AD
:1006500083F58322EF4E6012EF60010EEDBB010BBC
:1006600089828A83F0A3DFFCDEFA2289F05007F743
:1006700009DFFCA9F022BBFEFCF309DFFCA9F02294
:10068000F583E0F8A3E0F9A3E0FAA3E0FB9002C54C
:10069000E0FCA3E0FDA3E0FEA3E02275F002120E51
:1006A0002875F087E0FCA3E0FDEFA4245EF582E569
:1006B000F03400F5832290279BC39BFBEE9AFAED62
:1006C00099F9EC98F8E493FE740193FFE4FCFDC300
:1006D000020DDA75F002120E2875F087E0FCA3E037
:1006E000FDEFA42470F582E5F03400F58322EF24B9
:1006F00066FFEE34FEFE7C007D0A120C557D321240
:100700000C67EF249AFFEE3401FEEB75F002A4248F
:100710003AF582E5F03400F5832275F087EEA424E3
:10072000C1F582E5F03400F583E5822FF582E435EA
:1007300083F583E4F075F087EEA424CAF582E5F032
:100740003400F583E5822FF582E43583F58322E0DA
:10075000FEA3E0FF9003E0E0FD75F002A42494F511
:1007600082E5F03400F583EE8FF0120CBC75F002D8
:10077000EDA42494F582E5F03400F5832275F0872A
:10078000A42482F582E5F03400F583EF75F00202CF
:100790000E28902EC97420F07484902E4FF0740BA4
:1007A000902EC4F0902EC32275F002EE120E28ECAB
:1007B000F0A3EDF09003E0E0FF75F087A42482F54C
:1007C00082E5F03400F583229003E7E0FD75F00246
:1007D000A424A6F582E5F03400F583229003E0E03E
:1007E000FF75F087A4244CF582E5F0340022E490F4
:1007F0000027F09002B3F09002E9E09002B4F054C8
:10080000F0FFF02275F002EBA4242EF582E5F0341F
:1008100000F583E0FEA3E0FFEB75F002A42428F5C9
:1008200082E5F03400F58322C39BFBEE9AFAED9942
:10083000F9EC98F822EE75F002020E28F583E0FC40
:10084000A3E0FD75F00222E04401F0E4900027F0FF
:100850009002B3227420902EC9F0902E4E2275F093
:1008600002EBA42434F582E5F03400F583E0FCA328
:10087000E0FDEC22E0FEA3E0C39DFFEE9C2290038E
:10088000D3E024F3F582E43401F58322F0A3F0A34E
:10089000F0A3F0A32275F002EC120E28E0FEA3E014
:1008A000FFD3229003E1E0FF9003E0E0FE75F087C4
:1008B000A424C1F582E5F0340022CBEFCBEBD39436
:1008C0000322F583E493FC740193FD75F002EFA419
:1008D0002274F92EF582E43401F58322FFEB25E042
:1008E00025E022F583E4F07F0122E0FDC3EF9D7453
:1008F00080F86E98229003E7E0FF24C1F582E4348B
:1009000000F583229003E3E0FEA3E0FF9003E0E024
:10091000FD75F087229003E0E0FF75F08722E4F098
:10092000A3F075F08722E0FCA3E0FD75F08722E0DC
:100930004406F09000277401F022E0FF25E024D463
:10094000F582E43403F583229003E0E0FF24F6F51A
:1009500082E43401F58322C28A9002E9E09002B475
:10096000F0227420902EC9F0902E4F2274242BF583
:1009700082E43402F58322747B2BF582E43402F5A1
:10098000832274CC2BF582E43402F5832274A42BE9
:10099000F582E43402F58322740D2BF582E43402EF
:1009A000F58322740E2BF582E43400F58322743132
:1009B0002BF582E43402F5832274B52BF582E434FE
:1009C00002F58322ECF0EDA3F09003E1E004F022C5
:1009D000EF25E024DAF582E4340322F583ECF0A37A
:1009E000EDF022EE8FF0020CBCE4F0A3F075F00203
:1009F00022F074CA2FF582E43400F58322E0FEA3CE
:100A0000E0FFC322E49001FDF0900299F0229003F0
:100A1000E0E0FF75F002227428902EC9F0902E4E6F
:100A200022F074FA2EF582E43401F583E4F022908A
:100A300002B4E09002E9F022E0FEA3E0C3941EEECF
:100A40006480948022E0FCA3E0C3941EEC64809454
:100A50008022900204E0640122902EC3F0A3740966
:100A6000F022E0FF9003D4E0FEEFC8EEC80822FFBA
:100A7000E0FCA3E0FD6F22902EC5E4F0902ECDF0B7
:100A8000A3F022F582E43402F583229404E064802A
:100A900094802275F002EC120E28E475F001229089
:100AA0002EC6F0902EC57401F0227F0B123DDAE4C1
:100AB0009002CBF022C3EF94FEEE6480947F22C3B9
:100AC000EF94ECEE6480947F229003D3E0FF75F006
:100AD00002A422F09001FEF090029AF0229003EF1F
:100AE0007487F022E49003D3F09003D3E0FFC39423
:100AF000094003021561EF902EC87014E0545FF0B6
:100B0000A3746AF0902EC3744AF0A37401F08009B4
:100B1000E044F0F074201212399003D3E090278A59
:100B200093902ECAF0E49003D2F0900026E0FF905C
:100B300003D2E0FEC39F400302155874A02E121288
:100B400063E0FF9003D4F0E4F5E2EFC39408503B78
:100B5000741512127FC083C0821212428002C33306
:100B6000D8FCD082D083F0902ECD7401F0C083C029
:100B700082E0FFC8EEC8088002C333D8FCD082D020
:100B800083F0902EC074C1F00214D59003D4E024F9
:100B9000F8F0741612127FC083C0821212428002D3
:100BA000C333D8FCD082D083F0902ECE7401F0C035
:100BB00083C082E0FFC8EEC8088002C333D8FCD0EF
:100BC00082D083F0902ECB74F4F0EEB4030B902E11
:100BD000C97420F07480121239EE640660030214A6
:100BE000559003D3E0FFB4010E1210347404120FB9
:100BF0007D7480F0021455EFB4020E12103474822A
:100C0000120F7D7490F0021455EFB4030F7431127B
:100C100010367406F0902EC4740B800FEFB40414D9
:100C20001210347484F0902EC4740AF0902EC374A1
:100C3000A0F08041EFB405101210347404F0740A6F
:100C4000120F8074C0F0802DEFB4060D1211F774EE
:100C500009120F7D7470F0801CEFB407071211F7B2
:100C60007482800BEFB4080D742A1211F974041207
:100C70000F7D7430F0EE640770759003D3E0FFB41D
:100C800001071211427482803CEFB402028019EF16
:100C9000B40311902EC97428F07409120F7A74509D
:100CA000F00214CFEFB40408120F727430F0803FDA
:100CB000EFB40508120F7274C0F08033EFB4060D64
:100CC0001211427404120F7D7440F08022EFB407B9
:100CD0000F74281211447482120F7D7460F0800F1B
:100CE000EFB4080B1211427404120F7D74E0F090FF
:100CF0002EC074C2F0E4FFFE900000742EF0A3E456
:100D0000F09003D2E024A0121263E09003D4F0E547
:100D1000E220E20B0FBF00010EEF64C84E70D95302
:100D2000E2FB1212579003D4E0FD75F002A4FFAE6F
:100D3000F0900001E02FF0900000E03EF0ED9027F1
:100D4000BB93FF900000E475F002120CD285F08294
:100D5000F583121106EF120FC4F583C083C0829091
:100D600003D3E0D082D083120F6CECF0A3EDF090AF
:100D700003D2E004F002130A9003D3E004F002125D
:100D8000C99001FF7401F022E49003D6F0FF123302
:100D9000687F011233689003D4E4F0A37404F090E8
:100DA0000368E014607C14700302161714700302C9
:100DB000166C14700302170414700302171924052B
:100DC00060030217E69003CB120DF700000000E469
:100DD0009003B7F0A3F0A3120DF7000000009003FA
:100DE000ADE0FFA3E09003BDCFF0A3EFF09003AD23
:100DF000E0FFA3E09003BFCFF0A3EFF01223EBA33B
:100E0000F0A3F09003ABE0FFA3E09003C9CFF0A301
:100E1000EFF0123E5E7F327E00123BA490036874B6
:100E200001F01223F3123BF3EF70030217E61217DF
:100E3000EC7402F00217E612230B940AEE6480941D
:100E40008040131223EB9003B4E004F0701390037E
:100E5000B3E004F0800B12248550061223EB122419
:100E60001512236070069003B7E004F0123BF3EF15
:100E700070030217E61223C4120D249003BDEEF096
:100E8000A3EFF09003687403F00217E69003ADE05F
:100E9000FEA3E024B4FFEE34FBFE9003D2F0A3EFF8
:100EA000F0123E76C3EF9403EE648094805025E404
:100EB0009003B7F0A3F0A3120DF700000000122377
:100EC000F3123E5E7F0A7E00123BA4900368740416
:100ED000F00217E69003D2E0FEA3E0FF122327946E
:100EE00005EE6480948040141223EB90036AE024A2
:100EF000FFF0900369E034FFF0A38022C3EF94FB7E
:100F0000EE6480947F40030217E61223EB90036A9D
:100F1000E004F07006900369E004F090036A122484
:100F2000240217E61223F3123BF3EF70030217E6D5
:100F30001217EC7405F00217E612230B940AEE6404
:100F400080948040131223EB9003B4E004F07013FC
:100F50009003B3E004F0800B12248550061223EBBB
:100F600012241512236070069003B7E004F0123BC0
:100F7000F3EF70030217E61223C4120D249003BF8F
:100F8000EEF0A3EFF01223A3E4FBFAF97840120984
:100F9000767BA07A70797678C2120885120B5A9007
:100FA00003C5EEF0A3EFF09003BF1223A6ECC0E060
:100FB000EDC0E0EEC0E0EFC0E09003C51223A6D084
:100FC000E0FBD0E0FAD0E0F9D0E0F8120976ECC00E
:100FD000E0EDC0E0EEC0E0EFC0E01223A312243247
:100FE000D0E0FFD0E0FED0E0FDD0E0FC120A7F129E
:100FF0000B5A9003C9EEF0A3EFF09003687406F06B
:101000009003D67401F09003D6E0FF22123E5E7F7B
:10101000057E00123BA4900368229003E0EFF0E409
:101020009003E6F09003E2F09003E1F09003E1E03A
:10103000FFC394094003021998EF9003E57005740B
:1010400004F080037408F01210F5120EC2C083C0C1
:10105000829003E1E0FED082D083120E7BEE120F6D
:101060006C1210549003E3F0A3EFF0121128E0602B
:101070001A75F087EF120F51C083C0829003E1E030
:10108000D082D083120F6CE4F0A3F09003E3E0FE73
:10109000A3E0FF123E769003E51210CA503D1210F5
:1010A000E4120F51C083C0829003E1E0FCD082D0F3
:1010B00083120F6C1211C375F087120F50EC1210CF
:1010C0001612107C9414EE64809480400302190F71
:1010D00012129F400302195C0219369003E6E004E5
:1010E000F09003E31211DDEE648094805011C3EFA1
:1010F00094FBEE6480947F50069003E2E004F012CB
:10110000123270781210E4120F51C083C082900323
:10111000E1E0FCD082D083120F6C1211C375F0870E
:10112000120F501210759414EE64809480402212B5
:1011300010EC120F51C083C0829003E1E0FCD0821A
:10114000D083120F6C1210FEED120EC212127380B9
:101150002812129F50261210F5120F51C083C08220
:101160009003E1E0FED082D083120F6C1210FE12C9
:101170000EC112101574FFF5F0120CBC1210F5120E
:101180000EC2C083C0829003E1E0FED082D0831201
:101190000E7B121015121054FE9003E0E0120F990E
:1011A000C083C0829003E1E0D082D083120F6CEE46
:1011B000F0EF1211A702180C9003E2E0C39406406E
:1011C0003A9003E0E0FF123C3D9003E0E0FF12396B
:1011D00087EF602FE49003E1F01210F5120E8AC041
:1011E00083C0829003E1E0FED082D083120EB3125E
:1011F00010151211A4E0B409E080089003E0E0FFAC
:10120000123DF89003E6E0C39406403A121128E03C
:101210007034123C199003E0E0FF123AACEF602EFC
:10122000E49003E1F01210F5120E8AC083C08290A0
:1012300003E1E0FED082D083120EB312101512111A
:10124000A4E0B409E0229003E0E0FF123DE922901F
:1012500003D2747EF0E4A3F0900026E0FE9003D366
:10126000E0FFC39E4003021BFF123AE4EF6003124B
:1012700011E412105EE06003021AE01212A924E1E8
:10128000F582E5F0340112101CEF120EEEE0FEA321
:10129000E0C39DEE9C40409003D3E09003D2F01257
:1012A00010627401F09001FDE004F0900299F0905A
:1012B00003D3E0FF24F91210B47401F0123E16902B
:1012C00003D3E0FF123E259003D3E0FF123CA99028
:1012D00003D3E0FF123CF19003D3E0FF1239FDEF9E
:1012E00060099003D3E012112DE4F09003D3E0FFE6
:1012F000123B19EF7003021BF6E49001FE021BF192
:101300001212A924EDF582E5F0340112101CEF123F
:101310000EEEE0FEA3E0C39DEE9C5003021BBB90CB
:1013200003D3E09003D2F0123A38EF7003021BF6B9
:10133000E4FF9003D3E0FE75F087120E8A120F6B64
:10134000121106EE120EC2120F6BECF0A3EDF00FAD
:10135000EFB409DE12105EE4F0900027E0FF7009A0
:101360009002B3E07003021C0DEF601F9002B3E027
:101370006019120FCEBF2003D38001C34005E49053
:1013800002B4F09002B4E044058048900027E06089
:101390001F9002B3E07019120FCFBF2003D380015A
:1013A000C34005E49002B4F09002B4E0440180230D
:1013B000900027E070779002B3E06071120FCEBF0B
:1013C0002003D38001C34005E49002B4F09002B43E
:1013D000E04404F09002E9F0C28A229003D3E0FFD7
:1013E000121062E4F0123E439003D3E0FF123C85FA
:1013F0009003D3E0FF123E349003D3E0FF123CCDC4
:101400009003D3E024F91210B47401F09001FEE0CF
:1014100004F090029AF09003D3E004F0021A38909E
:1014200003D2E0FF900202E06F6002EFF02290032F
:10143000E0EFF09003E47404F0E49003E1F0900333
:10144000E1E0FFC394094003021DE4EF603E121285
:10145000327039120FBCF583C083C0829003E1E083
:10146000FED082D083120E7B120F88C083C0829080
:1014700003E1E0FED082D083120F6C1210FEEF1257
:101480000FB0121015E4F0A3F0021DDB9003E0E0B2
:10149000FF75F087120E8AC083C0829003E1E0FEE0
:1014A000D082D083120F6C121106EF120FC4F58395
:1014B000121015121054FE9003E2F0A3EFF0123E4A
:1014C000769003E41210CA4003021D7912108312B1
:1014D0000F22E06401702F75F087EE120F60121278
:1014E000184003021DB8120FBCF583C083C0829060
:1014F00003E1E0FED082D083120E7B121015ECF0D7
:10150000A3EDF0021DB89003E2E0FEA3E0FF90031C
:10151000E0E0FD75F087120FB0C083C0829003E158
:10152000E0FCD082D083120F6C1211C375F087EDEE
:10153000120FB01210759402EE64809480402790D0
:1015400003E0E0FD75F087120FB0C083C082900306
:10155000E1E0FCD082D083120F6C1210FEED120E6F
:101560008A121273802D121295506D9003E0E0FFE5
:1015700075F087120FB0C083C0829003E1E0FED007
:1015800082D083120F6C1210FE120E891210157485
:10159000FFF5F0120CBC021DB8120FBCF583C0831E
:1015A000C0829003E1E0FED082D083120E7B120F46
:1015B00088C083C0829003E1E0FED082D083120F06
:1015C0006C121225401275F087EF121090F583E52A
:1015D000822E120F277401F0121083120F22E06482
:1015E000017018120F15E004120F14E0D394054097
:1015F0000A9003E1E0FF120EFAE4F09003E1E00448
:10160000F0021C1E22900210E06003021E8104F012
:10161000E4FF900026E0FEEFC39E504CEF25E0244F
:101620006BF582E434281210A224E7F582E5F03449
:10163000011211BBEF25E0244BF582E4342812108F
:10164000A224E1F582E5F034011211BBEF25E0247C
:101650008BF582E434281210A224EDF582E5F034F3
:10166000011211BB0F021DF29001E3A3E09002E40E
:10167000F09001E5A3E09002E5F090029612104D83
:10168000900314F0EDA3F090000B12104D90031690
:10169000F0EDA3F090027812104D900308F0EDA346
:1016A000F09002E4E0FF7E009001E3E07003A3E02D
:1016B0006F60089001E3EEF0A3EFF09002E5E0FF29
:1016C0007E009001E5E07003A3E06F60089001E503
:1016D000EEF0A3EFF0900296E0FEA3E09002C912B4
:1016E000124F7002EC6E6008900296ECF0A3EDF0E1
:1016F00090000BE0FEA3E090020A12124F7002EC81
:101700006E600890000BECF0A3EDF0900278E0FE24
:10171000A3E0FF90029E1212507002EC6E600890DF
:101720000278ECF0A3EDF09002E3E0B4AA031237E4
:10173000149002F9E0FFB410089003F17410F080E7
:101740000AEFB420069003F17420F09002FCE0B49C
:101750001007E4F090028B04F09002FDE07011A3FA
:10176000E0B4100CE49002FDF0A37410F012386D98
:10177000900307E0FFB4100EE490028CF090030792
:10178000F07599378015EFB42011E4900307F075D8
:101790009917123DC290028C7401F0900306E0FF8D
:1017A000B4100FE4900207F0900306F090029B043F
:1017B000F022EFB4200EE4900306F090020704F04C
:1017C0009002B8F022E49003E1F0A3F0A3F09003BC
:1017D000E67404F0122CACE49003E0F09003E0E037
:1017E000FFC3940940030220BB75F002120EC11220
:1017F000101E120E89121054FE9003E4F0A3EFF0B5
:10180000123E769003E61210CA502A9003E3E004D9
:10181000F0A3120F2F12107C940AEE648094804083
:101820000302205DC3EF94F6EE6480947F400302D0
:1018300020930220809003E41211DD94FFEE648077
:10184000947F400BD3EF940AEE648094804006901E
:1018500003E1E004F0D3EF9400EE6480948040064E
:101860009003E2E004F012123270489003E4120F89
:101870002F12107C9464EE6480948040189003E0F2
:10188000E0FD75F002120F511211C9ED120EC2E403
:1018900075F001801BC3EF949CEE6480947F50131D
:1018A0001211EE120F511211C9120EC174FFF5F090
:1018B000120CBC1211EE120EC212101E120E891260
:1018C0001054FE9003E0E075F002120F9CEEF0A3BE
:1018D000EFF09003E0E004F0021FBC9003E2E0C3ED
:1018E000940640028029C390010CE090010B121273
:1018F0006B4022900193E090019212126B4016907F
:101900000085E09404900084E06480948040069018
:1019100002047401F09003E3E0C39406401A9002BD
:1019200004E06014E4FF123C61E4FF1239C2EF608E
:101930000CE4900204F08005E4FF123E079003E1FE
:10194000E0C39406402EE4FF123C3DE4FF123987C9
:10195000EF6026E49003E0F01211EE120E8A75F0AB
:1019600002120EBCECF0A3EDF09003E0E004F0E016
:10197000B409E522E4FF123DF822E4FE900026E0DF
:10198000FFEEC39F40030223081210B1E064016020
:101990000302230474F32E121064E0FC600302229D
:1019A0002EEE6401704E120FD7BF2003D38001C307
:1019B0004005E49002B4F090029AE0FD6401701BCF
:1019C000900299E09002B4B40109E0440912102A8F
:1019D0000480151210271212B38016ED9002B4B4D1
:1019E000020BE0440512102A121201800412102783
:1019F000F012120FEE640260030222FD120FD7BF35
:101A00002003D38001C34005E49002B4F090029A11
:101A1000E0FD6401701C900299E09002B4B40106EC
:101A200012110FE48021E0440412102A1212B302B2
:101A300022FAED9002B4B40205E044058003E044CC
:101A400004F0E4900027F09002B3F00222FAEC6474
:101A50000160030222FDEE64017060120FD7BF2007
:101A600003D38001C34005E49002B4F0900299E0F2
:101A7000FFB4020B9002B4E0440A1211128013EF7B
:101A8000640170269001FEE09002B4B4010C1211C2
:101A90000FE49002B3121201801EE04402121112F0
:101AA000E49002B3F01211E5800E9002B4E044021B
:101AB000121112E49002B3F012120FEE6402705D84
:101AC000120FD7BF2003D38001C34005E49002B4B6
:101AD000F0900299E0B402139002B4E0440AF0904E
:101AE00002B37401F0900027F0802F9001FDE064B4
:101AF00001701C90029AE09002B4B40105E0440920
:101B00008013E0440812102A04F01211E4800B90B4
:101B100002B4E0440812102A04F012120F1210B19D
:101B2000E4F0C28A0E02215C7F05229003B3E0FE3E
:101B3000A3E0FF9003ADE0FCA3E0C39FFFEC9EFE9B
:101B40009003D2F0A3EFF09003B0E02FF09003AF3A
:101B5000E03EF0E0FEA3E0FFD3222FFFEC3EFEE0EC
:101B6000FCA3E02FFFEC3EFE22E4900372F0A3F012
:101B700090036EE0FFA3E0CF900374F0A3EFF02298
:101B80009003B9E0F8A3E0F9A3E0FAA3E0FB900327
:101B9000ADE0FEA3E0FFE4FCFDEB2FFFEA3EFEED2F
:101BA00039FDEC38FC9003B9120DEB9003B8E0045A
:101BB000F02290036EE0FEA3E0FFE4FCFDF9F8C321
:101BC000020DC49003BDE0FCA3E0FDE4020B2190F4
:101BD0000374E0FEA3E0FFC390036FE09FFF900358
:101BE0006EE09E229003B7E0FEA3E0FBCAEECAE4DB
:101BF000F9F8A3E0FCA3E0FDA3E0FEA3E0FF22E4EC
:101C00009003A6F0A3F0900375E022E49003AFF0F8
:101C1000A3F0229003ADE0FFA3E09003B3CFF0A3C5
:101C2000EFF0229003D4E0FEA3E0FF9003A7E02FA3
:101C3000F09003A6229003B4E024FFF09003B3E0F9
:101C400034FFF022E09003D0F0900369E09003CFDE
:101C5000F022C8ECC8C9EDC9CAEECACBEFCB229FAF
:101C6000FFEC9EFE9003D4F0A3EFF022F0902EC67E
:101C70007416F022F0902E4D7404F0902E4BF0224A
:101C800090036EE0FEA3E0FFE4FCFD2224FFF09051
:101C90000374E034FFF022900374E004F022E0FCCF
:101CA000A3E0FDEC22C3EF94F6EE6480947F22C0A3
:101CB000E0C083C082C0D0E8C0E0E9C0E0EAC0E094
:101CC000EBC0E0EDC0E0EEC0E0EFC0E0D2AFE5DB9E
:101CD00030E41D9003EE1238F5E4F0E5DB30E1026C
:101CE00080389002E1E5DFF0900362E4F00225F233
:101CF000E5DB30E5169002DE1238F5E06005E4F031
:101D00000225F29003EEE4F00225F2900364E4F081
:101D1000E5DB30E12EE5DB30E00FA31238BD1238F1
:101D2000C6120BF4F5DF0225F2900363E06408604D
:101D3000030225F2308A030225F2D28A9002E9F0EA
:101D40000225F2900362E0700EA3E5DFF0900362DB
:101D50001238F5F00225F2900363E090346A93FFA5
:101D6000B4FF0F9002E1E5DFF0900363E004F002BE
:101D700025ECEF640F702F9003651238BD9003635C
:101D8000E0FF1238FC540F120C219003651238BD8D
:101D9000900363E0FF04F01238FCFFE5DF54F04FDE
:101DA000120C210225EC9003651238BD1238C6E5ED
:101DB000DF120C33900363E0FDB43419900314E098
:101DC0009002C91238D3900315E0FBEBFF9002C9D3
:101DD000EEF0A3EFF0EDB43614900316E090020A93
:101DE0001238D3900317E090020A1238DB90036395
:101DF000E0B42818900308E07F00FE90029EF0A354
:101E0000EFF0900309E090029E1238DB9002E0E0D0
:101E100004F075DBFFD0E0FFD0E0FED0E0FDD0E0C5
:101E2000FBD0E0FAD0E0F9D0E0F8D0D0D082D08377
:101E3000D0E032121FA5E49003D2F0900026E0FF1C
:101E40009003D2E0C39F400302278412111AE4F0EA
:101E5000A3F01211B0F583E4F0A3F0EF70030227B2
:101E60007B121C0E9003D2E0FF1217FAE49003D30A
:101E7000F09003D3E0FFC39409400302271D121220
:101E800032600690029DE06017900027E07011908C
:101E900002B3E0700B9003D2E0120F5DE4F0A3F008
:101EA0009003D3E0FF70030227149003D2E0FE12E8
:101EB0000F5DE0FCA3E0C39408EC64809480501AAA
:101EC00075F087EE120F9CC083C0829003D3E0D0E0
:101ED00082D083120F6CE4F0A3F09003D2E0FF7580
:101EE000F087120EC2C083C0829003D3E0FED0827E
:101EF000D083120F6CE0FCA3E0FD1211B0F583EC6F
:101F00008DF0120CBC9003D2120F9775F002EE12F6
:101F10000EB6C083C0829003D3E0D082D083120F6C
:101F20006CE0FEA3E02DFFEE3CFE9003D2E0121128
:101F30001C1211C39003D3E004F00226519003D287
:101F400012111AE0FCA3E0FDEF120FF9ECF0A3ED83
:101F5000F09003D2E0FF1211B112101CEFA4242E56
:101F6000F582E5F034001211BB9003F0E0602C9094
:101F700003D2E0B4010F120FF9E0FFA3E090027664
:101F8000CFF0A3EFF09003D2E0B4020F120FF9E00C
:101F9000FFA3E0900205CFF0A3EFF09003D2E0049E
:101FA000F002261BE49001FFF0223F3F3F3F3F3FFE
:101FB0003F3F3F00320032177002580004001E00FD
:101FC000140032000F0064000A000A000000000044
:101FD00000000000000001000001010B0C0D0E0FBD
:101FE00005060708090A0003040102003200320056
:101FF0003200320032003200320032003200320051
:102000003200320032003200320032003700370036
:102010003700370037003700370037003700370008
:102020003700370037003700370037002800280016
:102030002800280028002800280028002800280060
:102040002800280028002800280028002D002D0046
:102050002D002D002D002D002D002D002D002D0018
:102060002D002D002D002D002D002D008C008C004A
:102070008C008C008C008C008C008C008C008C0000
:102080008C008C008C008C008C008C0091009100E6
:1020900091009100910091009100910091009100B8
:1020A00091009100910091009100910082008200C6
:1020B0008200820082008200820082008200820010
:1020C0008200820082008200820082002D002D00AA
:1020D0002D002D002D002D002D002D002D002D0098
:1020E0002D002D002D002D002D002D00FA00FA00EE
:1020F000FA00FA00FA00FA00FA00FA00FA00FA0010
:10210000FA00FA00FA00FA00FA00FA1223AFFE9081
:1021100003D2F0A3EFF0D3900297E09F900296E0F5
:102120009E40239003D2E0FEA3E0FF123E76CCEE69
:10213000CCCDEFCD900296E0C313FEA3E013FFD306
:10214000ED9FEC9E500690036DE06013122FBD12C0
:102150002FC3122FBD1223AF9003D2F0A3EFF09044
:1021600003D21223339400EE6480948040028004F2
:102170007E007F00900372EEF0A3EFF090028CE0FF
:102180007013900372F0A3F0A3E0FFA3E090036E3E
:10219000CFF0A3EFF090028BE070069002A3E06016
:1021A00010122349E490028BF09002A3F090020CED
:1021B000F0900296E0FEA3E0FF900372E0FAA3E045
:1021C000FBD39FEA9E404F90037E7401F0A3120D53
:1021D000F700000000E4900383F090036D04F0909A
:1021E00003AAE07018900375E02432FE900374E0B7
:1021F00034009003A8F0A3CEF0A37401F090029CE9
:10220000E0705D900207E0600690027E7401F0903D
:10221000029C7401804590000BE0FEA3E0FFC3EB3D
:102220009FEA9E503BE490037EF0900374E0FFA38E
:10223000E09003A8CFF0A3EFF0E4A3F090036DE0EB
:102240006002E4F090029CE0B40115900207E060A7
:102250000690027E7401F0E490029CF090027AF005
:10226000022DCB900209E024FE6021146027147037
:1022700003022B21147003022B2E24046003022B73
:102280008C9002097402F0E4900298F090020974B4
:1022900003F0022ECB1212C49001FFE07003022A59
:1022A000FF900298E004F0E49003D1F0900026E063
:1022B000FF9003D1E0C39F5066E4FF9003D1E0FE9E
:1022C000120FC1120F69121106EE120EC2120F6B1D
:1022D000ECF0A3EDF09003D1E0FE120FC1120F69F4
:1022E000121106EE120E8A120F6BECF0A3EDF00F36
:1022F000EFB409C79003D1E0FF120EEBE4F0A3F0B6
:10230000EFB40107E49002ECF0A3F0EFB40207E4AD
:102310009002EEF0A3F09003D1E004F0022A8C903A
:102320000298E0C394035003022B8C900021747E2A
:10233000F0E4900200F0900298F09002097404F02A
:1023400022121568EF60659002097405F0221235BB
:10235000E0123D7312356890028DE070031212C4D2
:102360001235E09001FFE060401226131235E0E4E0
:102370009003D1F0900026E0FE9003D1E0FFC39ED1
:102380005019123E8C1237C89003D1E0FF1232C5AB
:102390001235E09003D1E004F080D9123B4E121ABE
:1023A0002F12215A900209EFF012321722902ECBF1
:1023B00074F4F0902F58E0540F44F0902EC812247B
:1023C0004C902EC97428F0A3743FF0902EC474046E
:1023D000F0902EC37480F0902ECC7448F090036A75
:1023E0007480F09003697409F0A3122424900369A7
:1023F0007409F0A37480F0902EC5E4F0902ECDF017
:10240000A3122454E490036BF0A3F09003D2F012D3
:102410002FC39003D2E004F0E0C3940840F11223EC
:10242000507B507AC3122392500C90036B744EF081
:10243000A37420F080437BC87AAF122392500C9093
:10244000036B743AF0A37498F0802E1224607B40E2
:102450007A9C12239D500C90036B7427F0A3741088
:10246000F080161224607BB87A8812239D500A905F
:10247000036B7413F0A37488F090036B1223B2FE05
:10248000F0A3EFF0EE122358E49003AAF09003704B
:10249000E0FFA3E0900376CFF0A3EFF090036E127D
:1024A00023A6ECC0E0EDC0E0EEC0E0EFC0E090039A
:1024B000701223A6122432D0E0FFD0E0FED0E0FD5F
:1024C000D0E0FC120A7F900378020DEB9003EA74CF
:1024D00002F0E49003E7F09003E7E0FFC3940940C3
:1024E00003022DCA75F002120E8912101EEF120F90
:1024F000C4F583121054FE9003E8F0A3EFF0123EEF
:10250000769003EA1210CA4003022D691210D5E03A
:10251000B4012975F002EF120F9C12121840030249
:102520002D989003E7E075F002120FC4F58375F063
:1025300002120E84ECF0A3EDF0022D989003E8E077
:10254000FEA3E0FF120FA81211C375F002ED120FE7
:10255000B012107C9402EE648094804010120FA898
:102560001211C9ED120E8AE475F00180171212954E
:1025700050469003E7E0FF120FAD1211C9120E8909
:1025800074FFF5F0120CBC802F9003E7E0FF75F0AC
:1025900002120FC412101C120E89ECF0A3EDF09081
:1025A00003E7E0FF75F002120F9C12122540097438
:1025B000C12F1210DC7401F09003E7E01210DAE092
:1025C000B4011E9003E7E0FF24CA1211D5E0041203
:1025D00011D1E0D3940540091210D5E41211D1E4D1
:1025E000F09003E7E004F0022CB7229003D67414B5
:1025F000F0A37432F0900374E0FEA3E0FF90036E4A
:10260000E0FCA3E0C312243F123E769003D6E0FD27
:10261000C3EF9D7480F86E98502F1224031223305C
:102620009464EE64809480400C1223DF04F0700305
:102630001224778011C3EF949CEE6480947F50063F
:102640001223DF12246C023E52C39003D4E0648054
:10265000948050147F647E00123B7C123D15EF7015
:1026600003022ECA12235022123E5290036DE060E4
:1026700059900297E0244EFF900296E03402FED378
:102680009003D5E09F9003D4E09E405E900374E0F9
:10269000FEA3E0FF9003A8E0FCA3E012243F122475
:1026A0000B1223309432EE64809480400B1223DFAF
:1026B00004F0700312247722C3EF94CEEE6480946A
:1026C0007F50271223DF12246C22122403E03EF0F5
:1026D000D3A3E0940A9003A6E064809480400BE4C6
:1026E0001223E304F07003122477227E017FDD7D44
:1026F000007B017A007928120E34123946E49002E8
:1027000010F09002C9F0A3746EF0900296E4F0A36A
:10271000746EF024ECFFE434FFFE90020AF0A3EFA5
:10272000F090000BEEF0A3EFF07C007D3C120C5516
:102730007D64120C67900278EEF0A3EFF090029E99
:10274000EEF0A3EFF0121DE5E4FE900026E0FFEEB0
:10275000C39F5074E4FF75F087EE120F51120F6B98
:102760001210FEEEA424B8F582E5F03400120F2218
:10277000E4F075F087EEA424A6F582E5F0340012AB
:102780000F69E4F0A3F0120EFAE4F00FEF640970A1
:10279000C5CFEECF123DF8123E07123E16123E3460
:1027A000123E25123E4374F32E121064E4F0121010
:1027B000B1E4F09001FC747EF0E4A3F0A3F0900289
:1027C00099F0A3F00E022F2AE4900204F090020286
:1027D000747EF0900021F0E4900201F022122FC3E9
:1027E000122FC3902ECB74F412244C902ECA743F37
:1027F000F0902EC97428F0902EC47408F0902EC367
:102800007440122454902ECE7420F0902EC574285B
:10281000F0902EC074C2F0902EC0E020E7F9902E08
:10282000C0E4F0902ECBF0902E1AE0FEA3E0FF90D3
:1028300003A4E0FD25E025E02484F582E43403F5DB
:1028400083EEF0A3EFF0902E16E0FEA3E0FFED255F
:10285000E025E02486F582E43403F583EEF0A3EF6F
:10286000F09003A4E004F0E05407F0E4FFFE9003CE
:1028700084E0FCA3E02FFFEE3CFE900388E0FCA385
:10288000E090038C12233A90039012233F9003941C
:1028900012233F90039812233F90039CE0FCA3E097
:1028A0009003A012233A90036BE0FCA3E0FDC3EF7A
:1028B0009DFFEE9C90036EF0A3EFF022758A5053BB
:1028C0008AEF9003ED7411F09003EC7422F0900302
:1028D000EF7433F075994F759AA0E4FFFEC296002D
:1028E000000020970ED2960000003097069003ED6E
:1028F0007487F00FBF00010EEF640A4E70DFE4FE34
:10290000FFC29600000020950ED296000000309580
:10291000069003ED7487F00FBF00010EEF640A4EBE
:1029200070DF7590FF75991F759AE0000000000038
:1029300000000000E4FEFF30950630960320970665
:102940009003EC7487F00FBF00010EEF640A4E7025
:10295000E6758B02E4F5AD75AEF875AF1DF5AC7597
:1029600089FF75913E759917F59675931CF59BF542
:1029700095F592F59A75800CC289D28A9003F0047D
:10298000F022E49003D3F0FF9003D2F0EF14601E26
:1029900014603514604C14605B240470749003D48C
:1029A0007401F0A3742FF0A37458F00231EB1238C5
:1029B000BA900001120BF4FED3941F40031238E4C6
:1029C000120BDB6E704B80431238BA900002120B70
:1029D000F4FED3940640031238E4120BDB6E703120
:1029E00080291238BA900003120BF4FE120BDB6E32
:1029F000701F80171238BA900004120BF4FE648B1B
:102A000060031238E4120BDB6E70069003D2E00410
:102A1000F00FEF6405600302316C9003D2E0B4055F
:102A200004A37401F09003D3E0FD60079002F6E088
:102A3000547FF0CFEDCF22900207E0606A90027ED3
:102A4000E0606490029CE0602A121139540FFFF09C
:102A5000BF0803D38001C340129002B4E0B4020364
:102A6000D38001C34005E49002B4F09002B4E04486
:102A7000208028121139540FFFF0BF0403D38001C6
:102A8000C340129002B4E0B40103D38001C34005F7
:102A9000E49002B4F09002B4E04410F09002E9F047
:102AA000E490027EF0C28A9002B8E0B4011890026D
:102AB0007AE0B4010C121137E4F07420F09002E9CE
:102AC000F0E49002B8F090029BE0601890027AE087
:102AD000B4010C121137E4F07410F09002E9F0E444
:102AE00090029BF022CBEFCB120FE4E0FCA3E0C3FB
:102AF0009FEC9E4030120FF8E0FEA3E0FF75F0025D
:102B0000EBA42434F582E5F03400F583EEF0A3EF76
:102B1000F0120FE4E0FCA3E0C39FFFEC9E120EE96D
:102B2000EEF0A3EFF0EB6401702C120EEA12107CB1
:102B3000949AEE94014008120ECEEEF0A3EFF0123C
:102B40000EEA12104D9002ECF0EDA3F012103E9040
:102B500002F0F0EDA3F0EB6402702C120EEA1210FA
:102B60007C949AEE94014008120ECEEEF0A3EFF0A2
:102B7000120EEA12104D9002EEF0EDA3F012103E8C
:102B80009002F2F0EDA3F022902ECB74F4F0E4F575
:102B9000E2902EC97420F09003D0E0902EC3F09004
:102BA00003CFE0902EC4F0902E4D740212244C906E
:102BB0002EC57420F0EF902ECEB401057420F08065
:102BC00002E4F0902EC074C2F0E4FDFCE5E220E2E5
:102BD0000B0DBD00010CBC07F3BDD0F053E2FB9020
:102BE0002EC5E4F0902ECEF0EF902E1AB40109E03D
:102BF000FFA3E09003AB8007E0FFA3E09003ADCF1D
:102C0000F0A3EFF0902ECBE4F022023A73E493A30A
:102C1000F8E493A34003F68001F208DFF48029E48E
:102C200093A3F85407240CC8C333C4540F4420C8DA
:102C3000834004F456800146F6DFE4800B01020471
:102C400008102040809034EAE47E019360BCA3FF2A
:102C5000543F30E509541FFEE493A360010ECF54A6
:102C6000C025E060A840B8E493A3FAE493A3F8E495
:102C700093A3C8C582C8CAC583CAF0A3C8C582C801
:102C8000CAC583CADFE9DEE780BE00000000FFFF9F
:102C9000FFFF0000FFFFFFFFFFFFFFFFFF00FFFF41
:102CA0000000FFFF000000FFFFFFFFFFFFFF00002D
:102CB0000000FFFFFFFFFFFFFFFFFFFF000000001E
:102CC0000000000000000000000000000000000004
:102CD00000000000000000000000000000000000F4
:102CE00000000000000000000000000000000000E4
:102CF00000000000000000000000000000000000D4
:102D0000000000000000000000004103EE0041034D
:102D1000F11041036800410298004102080041029D
:102D20008D004102070041028C014102B8004102BE
:102D30009B0041027A0041028B004102B400410233
:102D4000100041029C0041027E0041002700410228
:102D5000B3004102DB0041020C0041029D00410230
:102D6000A3004102CB004103620041036300420221
:102D7000DC00004102DE004102E0004102DF0041D0
:102D80000364004102E110009002F8E0FF6410606B
:102D90006EEF642070699002F87430F07F01123396
:102DA000689003C9E0FEA3E0FF9003ABE0FCA3E062
:102DB000C39FFFEC9EFECDEFCDFC120B217B667A0C
:102DC0006679487842120A7FE4FBFA7970784112FA
:102DD0000885E4FBFA79C878421209769003CB1291
:102DE0000DEB9003CB1223D3120B5ACDEFCDCCEECB
:102DF000CCEC9002FAF0EFA3F09002F87410F022FD
:102E000090020CE014602014602714604A240370C0
:102E10005E30885B90020C7402F07F0B123DDA1278
:102E2000081E9002CB80062088459002A37401F012
:102E3000227F0B12381EEF600312128A2088309016
:102E4000020C7403F090029D7401F07F0C123DDAC5
:102E500012081E12128A227F0C12381EEF60107F99
:102E60000C123DDA90020C7401F0E490029DF02205
:102E7000902EC0E4F0902ECB74F4F0902F58E054D4
:102E80000F2450902EC8F0902ECC7448F0902EC98C
:102E90007428F0A3743FF0902E40748112106C12CD
:102EA000106C0412106C7404F0A3F0A37402F0A36D
:102EB000F0902EC67414F0902EC17490F0A374019B
:102EC000F0A37420F0A37409F043E310123D8E9038
:102ED0000026EFF0229003F1E0FFB410139002F906
:102EE0007410F090028DE064017048F053AAF7224C
:102EF000EF6420703E90028CE0640170259002F92E
:102F00007420F090028D7401F0902ECBE4F043AA6F
:102F100008123D39758601758A50538AEFE4F58DA4
:102F2000800B902ECBE4F0123E82758601902ECB62
:102F300074F4F0229003D27408F0A3E4F0A3743F79
:102F4000F0A374DFF0E4FDFCF9758A10538AEF00FA
:102F500000009003D2E0FEA3E01238EBFF69F90D08
:102F6000BD00010CBC37EBBDDFE89003D4E0FEA34D
:102F7000E0F5828E83E4936970089002E3740BF0AD
:102F80008005E49002E3F0758A50538AEF00000058
:102F900022C0E0C0F0C083C082C0D0E8C0E0ECC076
:102FA000E0EDC0E0EEC0E0EFC0E0D2AF900208E09C
:102FB00004F0C3940A4017E4F0120E6D2401FFE4FC
:102FC0003EFEE43DFDE43CFC9002C5120DEBD0E07A
:102FD000FFD0E0FED0E0FDD0E0FCD0E0F8D0D0D0D3
:102FE00082D083D0F0D0E0329003F0E0604F9000C8
:102FF000241211DDEE941C500BEF9400EE94184057
:10300000031212BD9002761211DDEE9404500BEF04
:103010009400EE940340031212BD9002051211DDDC
:10302000EE9404500BEF9400EE940340031212BD93
:10303000E49003F0F09003EFE09002E8F0229003B8
:10304000D2EFF0C3940D5042E0FF242412114FE060
:103050006038EF25E025E02434F582E43402120ED6
:10306000601210089003D2E025E02493F582E43446
:1030700027F583120EA5400F9003D2E02424F58299
:10308000E434021210C3227F00227F00227F007EE0
:1030900008E4FDFC9003D2F0A3F0758A10538AEF88
:1030A000000000EF1238EBFB9003D3E02BF090030D
:1030B000D2E03400F00DBD00010CBC37E6BDE0E30A
:1030C0009003D2E0FCA3E0FDEC9002FDF0EDA3F054
:1030D000758A50538AEF000000229003D4E0FBA3CE
:1030E000E0FAA3E0F922900363E0FF04F08F827519
:1030F0008300227F00FEF0A3EFF022FDEDFFEEF053
:10310000A3EFF0229003D37401F0222DF582EE3C60
:10311000F583E493227401F090036422E92FF9E42B
:103120003AFA020BDB900278E0FEA3E0FFC39003C3
:1031300073E09F900372E09E5004E4F0A3F09003CC
:103140007412247E90030AF0EDA3F090037212240F
:103150007E90030CF0EDA3F090036E12247E90039A
:1031600010F0EDA3F0227E007F807D007B017A02CB
:1031700079E2120E34E49002E9F09002E3740BF06D
:103180009002F474ABF09002F67499F09003EDE0C5
:103190009002E6F09003ECE09002E7F09003EFE09D
:1031A0009002E8F00231629003E7EFF0E0FF24CCF8
:1031B000121165E06029EF25E025E024CFF582E4D7
:1031C0003402120E6012100890279F120EA5400FB5
:1031D0009003E7E024CCF582E434021210C3227F8E
:1031E00000229003E7EFF0E0FF24A4121170E060EA
:1031F00029EF25E025E024A7F582E43402120E60D1
:103200001210089027A1120EA5400F9003E7E024AA
:10321000A4F582E434021210C3227F00229003D46A
:10322000EFF0E0FF240D12117BE06029EF25E0258F
:10323000E02411F582E43402120E60121008902787
:1032400095120EA5400F9003D4E0240DF582E434CE
:10325000021210C3227F00229003D4EFF0E0FF247B
:10326000B512119CE06029EF25E025E024B9F58234
:10327000E43402120E60121008902799120EA54035
:103280000F9003D4E024B5F582E434021210C32277
:103290007F002212086653A87F12309C123BCC4359
:1032A000A880123E6A123DC212084E123D56EF240B
:1032B000E0600A2410700AC283C2828004D283D2E2
:1032C00082121DE51236B5122A4380DF9003E7EF24
:1032D000F0E0FF247B12115AE06026EF25E025E0A4
:1032E000247FF582E43402120E60902797120E9923
:1032F000400F9003E7E0247BF582E434021210C310
:10330000227F00229003D4EFF0E0FF240E121186FA
:10331000E06023EF25E025E02415F582E434001277
:103320000E60120E96400F9003D4E0240EF582E456
:1033300034001210C3227F00229003D4EFF0E0FF8C
:103340002431121191E06023EF25E025E02468F597
:1033500082E43402120E60120E96400F9003D4E005
:103360002431F582E434021210C3227F0022E4FFEC
:10337000FE900026E0FDEEC39D501BEF120EEB12F7
:10338000101EEE120EEEE0FAA3E0D39DEA9C40037D
:10339000CFEECF0E80DB900203EFF022CBEFCBCA53
:1033A000EECA900006E0701B9000067401F0120E49
:1033B0006DFF900007120DEBCFEBCF900274EAF097
:1033C000A3EFF022CBEFCBCAEECA90000DE0701B4A
:1033D00090000D7401F0120E6DFF900011120DEBB4
:1033E000CFEBCF900294EAF0A3EFF0229003657444
:1033F00001F0A37402F0A374E2F0E4F5DA75DA40A8
:1034000043DA2075D74075DA5843A90875B80875AE
:10341000F8082290000DE0601D900011120E62125B
:103420001008900294E0FEA3E0120EAB4008E49076
:10343000000DF07F01227F002212109A501E1211FF
:1034400057E070181211577401F0120E6D1210BC73
:10345000247FF582E43402F583120DEB2212109AD8
:10346000501E121162E070181211627401F0120EF7
:103470006D1210BC24CFF582E43402F583120DEBFB
:103480002212109A501E12116DE0701812116D74F4
:1034900001F0120E6D1210BC24A7F582E43402F57F
:1034A00083120DEB2212109A501E121178E0701840
:1034B0001211787401F0120E6D1210BC2411F582F5
:1034C000E43402F583120DEB2212109A501E1211F1
:1034D00083E070181211837401F0120E6D1210BC8B
:1034E0002415F582E43400F583120DEB2212109AB4
:1034F000501E12118EE0701812118E7401F0120E0F
:103500006D1210BC2468F582E43402F583120DEBD1
:103510002212109A501E121199E07018121199740B
:1035200001F0120E6D1210BC24B9F582E43402F5DC
:1035300083120DEB22900006E0601BA3120E6212B4
:103540001008900274E0FEA3E0120EAB4008E49075
:103550000006F07F01227F00229003EEE0701675D6
:103560008EC1758DA0E4F586438A84E5DB20E205F3
:10357000758703000022E4FD9002DEE060119002F6
:10358000E2E0FE54F0FDEE540FF0E49002DEF0CFE6
:10359000EDCF2290028CE0B4010E9002CBE06005EA
:1035A0001223498003122FC31228EB02390512128D
:1035B00057FFFEEE9027AB93600974A02F121263A1
:1035C000EEF00F0EEEB410EB229002C5120DF700D4
:1035D0000000007E007F0D7D007B017A02792402CD
:1035E0000E347E007F617D007B017A03796E120EBE
:1035F00034122B8DE4900368F022EFD3940D500821
:1036000074242F12114FE4F022EFD3940350087466
:103610007B2F12115AE4F022EFD39403500874CC9C
:103620002F121165E4F022EFD39403500874A42FF5
:10363000121170E4F022EFD394035008740D2F128E
:10364000117BE4F022EFD394035008740E2F121173
:1036500086E4F022EFD39403500874312F121191B5
:10366000E4F022EFD39403500874B52F12119CE4B8
:10367000F022E4900006F0900274F0A3F022E490AF
:10368000000DF0900294F0A3F0221236509002093F
:103690007401F0022ECBEE30E707C3E49FFFE49EF7
:1036A000FE22E4F586758703000000229003D2EF26
:1036B000F0220000000000000000000000000000F8
:1036C00000000000000000000000000000000000FA
:1036D00000000000000000000000000000000000EA
:1036E00000000000000000000000000000000000DA
:1036F00000000000000000000000000000000000CA
:1037000000000000000000000000000000000000B9
:1037100000000000000000000000000000000000A9
:103720000000000000000000000000000000000099
:103730000000000000000000000000000000000089
:103740000000000000000000000000000000000079
:103750000000000000000000000000000000000069
:103760000000000000000000000000000000000059
:103770000000000000000000000000000000000049
:103780000000000000000000000000000000000039
:103790000000000000000000000000000000000029
:1037A0000000000000000000000000000000000019
:1037B0000000000000000000000000000000000009
:1037C00000000000000000000000000000000000F9
:1037D00000000000000000000000000000000000E9
:1037E00000000000000000000000000000000000D9
:1037F000000000000000000000000000000000E3E6
:1038000000000000000000000000000000000000B8
:1038100000000000000000000000000000000000A8
:00000001FF
