:1000000000A2000000020000C45600000000000032
:1000100000000000000000000000000000000000E0
:10002000801878FFE4B8200118F6D8F99000007F16
:10003000007E07E4F0A3DFFCDEFA75812002305C6D
:10004000CBEFCBEBD3940F5020748B2B121442E0E8
:100050007017748B2BF582E4340212110024A6F57C
:1000600082E43402F583121F4D2200022B4D7F05DE
:1000700012386F1210201231EA90022A7401F00235
:100080002E050002318925E025E02414F582E434B0
:1000900003F583E0F8A3E0F9A3E0FAA3E0FB900303
:1000A00020E0FCA3E0FDA3E0FEA3E0C39BFBEE9AEF
:1000B000FAED99F9EC98F82275F002121F8A75F0A2
:1000C00099E0FCA3E0FDEFA42445F582E5F03400BF
:1000D000F58322EF2466FFEE34FEFE7C007D0A12DB
:1000E0001E737D32121E85EF249AFFEE3401FEEB63
:1000F00075F002A42427F582E5F03400F58322751B
:10010000F002121F8AE0FCA3E0FD75F099EFA42431
:1001100057F582E5F03400F583EE75F002021F8A90
:10012000F5837401F0900320E0FCA3E0FDA3E0FE62
:10013000A3E0FFEB25E025E02275F099EEA424A8CA
:10014000F582E5F03400F583E5822FF582E435830E
:10015000F583E4F075F099EEA424B1F582E5F0346E
:1001600000F583E5822FF582E43583F58322E0FEF6
:10017000A3E0FF9003DAE0FD75F002A4247BF58292
:10018000E5F03400F583EE8FF0121F1075F002EDEC
:10019000A4247BF582E5F03400F58322EF2424FFCC
:1001A000EE34FAFE7C007D0A121E737D1E121E853F
:1001B000EF24DCFFEE3405FEEB75F002A42421F5FC
:1001C00082E5F03400F58322F583E493FC74019317
:1001D000FD75F002EFA4229003C7E0FF75F099A42B
:1001E0002469F582E5F03400F5832275F002EBA472
:1001F000241BF582E5F03400F583E0FCA3E0FD75F7
:10020000F002EBA42415F582E5F03400F58322E03A
:1002100025E0244FF582E4341AF583E493FE74015B
:1002200093FFE4FCFDC3021F3C2404F582E5F03497
:1002300002F583ECF0A3EDF09003C7E0229003C633
:10024000E0FE75F099A42433F582E5F03400F583DF
:10025000EF75F002021F8A9003DAE0FD75F099A4B1
:10026000248DF582E5F03400F583229003DA75F0F1
:1002700099E0FFA42457F582E5F03400F58322E0ED
:100280004401F0E4900014F0900310229003DA751A
:10029000F099E0FFA42433F582E5F03400F58322E1
:1002A000F0A3F0A3F0A3F0A3F0A3F0A32275F00253
:1002B000EBA4241BF582E5F03400F58322C3E0FDB6
:1002C000EF9D7480F86E98229003C7E025E024C962
:1002D000F582E43403F58322E0FEA3E0C39DFFEE44
:1002E0009C22E0FCA3E0FD75F09922E0FEA3E0FF74
:1002F000D322F583E0FCA3E0FD75F002222410F583
:1003000082E43402F58322F090033EE054F0F022C0
:10031000F583E4F07F0122CBEFCBEBD3940322757E
:10032000F002A424FEF582E5F03401229003DAE025
:10033000FF2413F582E43402F5832274162EF5822D
:10034000E43402F583229003E2E0FF24A8F582E47E
:100350003400F58322ECF0EDA3F09003DBE004F031
:10036000229003DDE0FEA3E0FF229003DAE0FF75B8
:10037000F09922E04406F09000147401F022EE8F10
:10038000F0121F1075F09922EB25E0240FF582E49E
:10039000341CF58322EF25E024CFF582E43403F505
:1003A0008322900013E0FF9003C7E0C39F22240A3A
:1003B000F582E5F034022274222EF582E43402F54F
:1003C000832275F099A424A8F582E5F0340022E098
:1003D000FCA3E0FDEC541F22E4F0A3F075F0022230
:1003E000F074B12FF582E43400F58322C3EF94F664
:1003F000EE6480947F22900221E0640122E4F0A365
:10040000F075F09922E49003BEF090022A7402F095
:1004100022E490021AF09002FAF022242DF582E5EF
:10042000F03400229003DAE0FD75F09922F07417A1
:100430002EF582E43402F583E4F022E0FCA3E0C36D
:10044000940AEC6480948022E0FF9003C9E0FEEF00
:10045000C8EEC80822A42459F582E5F03400F583DB
:10046000E022F582E43402F58322F582E43402F5D9
:100470008322F582E43402F58322F582E43403F525
:100480008322F582E43403F58322F582E43402F515
:100490008322F582E43400F58322F582E43402F508
:1004A0008322F582E43403F58322902EC5E4F09094
:1004B0002ECDF0A3F022F582E43402F58322940AD3
:1004C000EE648094802275F002EC021F8AE0FEA3A5
:1004D000E0FF7C0022E0FCA3E0FDC3EF9DFFEE9C6B
:1004E00022902EC6F0902EC57401F022EEA424575F
:1004F000F582E5F03400229003DBE0FF9003DAE0C0
:1005000022E0FEA3E0FFC322F090021BF09002FB6A
:10051000F022EEF0A3EFF09003BEE0229003DAEFBA
:10052000F01212FFF583E0FEA3E07803CEC313CEF2
:1005300013D8F99003E1F0E4A3F09003DCF090030A
:10054000DBF09003DBE0FFC3940940030216F3EFF6
:10055000700C9003DF7404F0A37406F0801B90030A
:10056000DF7404F09003DAE0B402069003DF740550
:10057000F09003DFE02407A3F012124BC083C08287
:100580009003DBE0FED082D0831210981210F91293
:1005900012B89003DDF0A3EFF012130CE0601A75AF
:1005A000F099EF121170C083C0829003DBE0D0821B
:1005B000D0831210FAE4F0A3F01213411238F6902F
:1005C00003DF12129D5043121341121404121170D2
:1005D000C083C0829003DBE0FCD082D0831210FA8B
:1005E00012135E12116FEC1210FA1212CB940FEE6E
:1005F00064809480400302166BC3EF94F1EE648034
:10060000947F40030216BA0216961213411238F66E
:100610009003E112129D5004A3E004F0121341C3B1
:1006200094FCEE6480947F50069003DCE004F012AA
:1006300013D660030216BA1238F69003E012129D28
:10064000501E12134A1210A7C083C0829003DBE031
:10065000FED082D0831210DFECF0A3EDF00216BAC8
:10066000121341121404121170C083C0829003DB74
:10067000E0FCD082D0831210FA12135E12116FECDC
:100680001212311212CB12149E40261214041211AF
:1006900070C083C0829003DBE0FCD082D083121054
:1006A000FA1213DDED1212531214A6E475F0018054
:1006B000261213CC502412134A121170C083C08228
:1006C0009003DBE0FED082D0831210FAE4F0A3F0B6
:1006D0001210EA74FFF5F0121F1012124BC083C003
:1006E000829003DBE0FED082D0831210981210F9C2
:1006F0001212B8FE9003DAE01211BCC083C08290DF
:1007000003DBE0D082D0831210FAEEF0EF12133840
:100710000215221213D670389003DAE0FF24221259
:10072000139AE0702B74222F12139A7401F0E49044
:1007300003DBF012134A1210A7C083C0829003DBC0
:10074000E0FED082D0831210DF121335E0B409E34B
:100750009003DCE0C3940440379003DAE0FF1237E3
:10076000289003DAE0FF123501EF602CE49003DB00
:10077000F012134A1210A7C083C0829003DBE0FE80
:10078000D082D0831210DF121335E0B409E3800861
:100790009003DAE0FF12389C9003E2E0C394044037
:1007A0003712130CE070311237029003DAE0FF12B7
:1007B00034C9EF602BE49003DBF012134A1210A748
:1007C000C083C0829003DBE0FED082D0831210DFB2
:1007D000121335E0B409E3229003DAE0FF12388DFA
:1007E000221224FDE49003C7F0900013E0FF900371
:1007F000C7E0C39F4003021A40E0FF1212ACE4F0CE
:10080000A3F0121375E4F0A3F09003D5F0A3F0A3C6
:10081000F0A3F0A37409F0EF7003021A37121FC29D
:100820009003C7E0FF1214FCE49003C8F09003C8E3
:10083000E0FFC3940940030219691213D6600690C1
:1008400002FDE0601A900014E07014900310E07054
:100850000E9003C7E01211BC121230E4F0A3F09026
:1008600003C8E0FF70030219609003C7E0FE121195
:10087000BC121230E0FCA3E0C39406EC64809480C8
:10088000501C75F099EE1211BFC083C0829003C84E
:10089000E0D082D0831210FAE4F0A3F0803D121170
:1008A000B7C083C0829003C8E0FED082D08312100C
:1008B000FA12141B502575F099EFA42469F582E50E
:1008C000F034001210F7C083C0821214AD7D021202
:1008D0001EDAD082D083EEF0A3EFF09003C7E0FFE2
:1008E00075F099121435FCA3E0FD121375EC8DF030
:1008F000121F101211B7C083C0829003C8E0D082CB
:10090000D0831210FA1212C2EF121435FEA3E02D9A
:10091000FFEE3CFE9003C7E0FD1212AC12135EED39
:100920001211BFC083C0829003C8E0D082D083126E
:1009300010FA1214E19003D6E09FEE6480F8900361
:10094000D5E064809850129003C8E0FD9003D5EE86
:10095000F0A3EFF09003D9EDF09003C7E01211BCC3
:10096000C083C0829003C8E0D082D0831210FAE026
:10097000FEA3E0FF9003D8E02FF09003D7E03EF015
:100980009003C8E004F002180D9003D5E0FAA3E04C
:10099000FBC39003D8E09BF09003D7E09AF01214C9
:1009A000AD7D07121EDA9003D7EEF0A3EFF0C3EB94
:1009B0009FFFEA9EFED3EF9402EE64809480403164
:1009C000A3E06409602B1212A8C083C082E0FEA3DA
:1009D000E0FF9003D51214B5D082D083F0A3EFF0DE
:1009E0009003D7E0FEA3E0FF1212A8EE8FF0121FD3
:1009F000109003C7E0FF1212ACE0FCA3E01211B0AC
:100A00001211E4ECF0A3EDF09003C7E0FF121376AF
:100A1000E0FCA3E01211B0121292ECF0A3EDF09002
:100A200003EAE060329003C7E0B4011275F00212ED
:100A300011E3E0FFA3E09002E2CFF0A3EFF0900318
:100A4000C7E0B4021275F0021211E3E0FFA3E090D8
:100A50000227CFF0A3EFF09003C7E004F00217C91C
:100A6000E490021CF0223F3F3F3F3F3F3F3F3F00AB
:100A700032003203E8012C025800640258000400DE
:100A80001E000A000A000F0064000A000C000C009F
:100A90000000000000000000000000000101010D46
:100AA0000E0F030405060708090A0B0C00010200DB
:100AB00032003200320032003200320032003200A6
:100AC0003200320032003200320032003200320096
:100AD000370037003700370037003700370037005E
:100AE000370037003700370037003700370037004E
:100AF00028002800280028002800280028002800B6
:100B000028002800280028002800280028002800A5
:100B10002D002D002D002D002D002D002D002D006D
:100B20002D002D002D002D002D002D002D002D005D
:100B300078007800780078007800780078007800F5
:100B400078007800780078007800780078007800E5
:100B50007D007D007D007D007D007D007D007D00AD
:100B60007D007D007D007D007D007D007D007D009D
:100B70006E006E006E006E006E006E006E006E0005
:100B80006E006E006E006E006E006E006E006E00F5
:100B90002D002D002D002D002D002D002D002D00ED
:100BA0002D002D002D002D002D002D002D002D00DD
:100BB000C800C800C800C800C800C800C800C800F5
:100BC000C800C800C800C800C800C800C800C800E5
:100BD000CD00CD00CD00CD00CD00CD00CD00CD00AD
:100BE000CD00CD00CD00CD00CD00CD00CD00CD009D
:100BF000BE00BE00BE00BE00BE00BE00BE00BE0005
:100C0000BE00BE00BE00BE00BE00BE00BE00BE00F4
:100C10002D002D002D002D002D002D002D002D006C
:100C20002D002D002D002D002D002D002D002D005C
:100C3000FA00FA00FA00FA00FA00FA00FA00FA00E4
:100C4000FA00FA00FA00FA00FA00FA00FA00FAE4F0
:100C50009003C8F09003C8E0FFC394094003021D4D
:100C6000F2EF902EC87014E0545FF0A3746AF09015
:100C70002EC3744AF0A37401F0800EE044F0F090AB
:100C80002EC37480F0A37407F09003C8E0901A4656
:100C900093902ECAF0E49003C7F0900013E0FF9009
:100CA00003C7E0FEC39F4003021DE974FE2E121429
:100CB00096E0FF9003C9F0E4F5E2EFC39408503BDF
:100CC00074151214C1C083C0821214288002C33369
:100CD000D8FCD082D083F0902ECD7401F0C083C0B8
:100CE00082E0FFC8EEC8088002C333D8FCD082D0AF
:100CF00083F0902EC074C1F0021D689003C9E024F7
:100D0000F8F074161214C1C083C082121428800235
:100D1000C333D8FCD082D083F0902ECE7401F0C0C3
:100D200083C082E0FFC8EEC8088002C333D8FCD07D
:100D300082D083F0902ECB74F4F0EEB40510902E98
:100D4000C97420F0902EC37480F0A37409F0EEB43F
:100D50000616902EC97428F0902E4E7404F0902E32
:100D6000C374C0F0A37405F0EEB40716902EC974D6
:100D700032F0902E4F7408F0902EC37410F0A374CC
:100D800006F0902EC074C2F0E4FFFE900001742EB5
:100D9000F0A3E4F09003C7E024FE121496E0900361
:100DA000C9F0E5E220E20B0FBF00010EEF64C84E70
:100DB00070D953E2FB12148A9003C9E0FD75F0026A
:100DC000A4FFAEF0900002E02FF0900001E03EF0B2
:100DD000ED901A7F93FF900001E475F002121F2638
:100DE00085F082F5831212C2EF121274C083C082A2
:100DF0009003C8E0D082D0831210FAECF0A3EDF09B
:100E00009003C7E004F0021C7A9003C8E004F002EB
:100E10001C3490021C7401F022BB010689828A8373
:100E2000E0225002E722BBFE02E32289828A83E4A9
:100E30009322BB010CE58229F582E5833AF583E034
:100E4000225006E92582F8E622BBFE06E92582F853
:100E5000E222E58229F582E5833AF583E49322BB19
:100E6000010689828A83F0225002F722BBFE01F339
:100E700022F8BB010DE58229F582E5833AF583E886
:100E8000F0225006E92582C8F622BBFE05E925823C
:100E9000C8F222EF8DF0A4A8F0CF8CF0A428CE8D5C
:100EA000F0A42EFE22BC000BBE0029EF8DF084FFC3
:100EB000ADF022E4CCF875F008EF2FFFEE33FEEC36
:100EC00033FCEE9DEC984005FCEE9DFE0FD5F0E95D
:100ED000E4CEFD22EDF8F5F0EE8420D21CFEADF05C
:100EE00075F008EF2FFFED33FD4007985006D5F061
:100EF000F222C398FD0FD5F0EA22C2D5EC30E70903
:100F0000B2D5E4C39DFDE49CFCEE30E715B2D5E418
:100F1000C39FFFE49EFE121E85C3E49DFDE49CFC7E
:100F20008003121E8530D507C3E49FFFE49EFE2296
:100F3000C5F0F8A3E028F0C5F0F8E582158270024C
:100F40001583E038F022A3F8E0C5F025F0F0E58243
:100F5000158270021583E0C838F0E822EB9FF5F0A7
:100F6000EA9E42F0E99D42F0E89C45F022ECF0A3B5
:100F7000EDF0A3EEF0A3EFF022A8828583F0D083FA
:100F8000D082121F70121F70121F70121F70E47334
:100F9000E493A3C583C5F0C583C8C582C8F0A3C5C3
:100FA00083C5F0C583C8C582C822A42582F582E521
:100FB000F03583F58322EF4E6012EF60010EEDBB3A
:100FC000010B89828A83F0A3DFFCDEFA2289F050CC
:100FD00007F709DFFCA9F022BBFEFCF309DFFCA93F
:100FE000F0229003DAEFF09003DE7406F0BF020205
:100FF00004F0E49003DBF09003DBE0FFC3940940CE
:1010000003022185EF603D1213D6703812126CC0B6
:1010100083C0829003DBE0FED082D083121098124E
:1010200010F9ECF0A3EDF09003DAE012123CC0836B
:10103000C0829003DBE0D082D0831210FAE4F0A3E8
:10104000F002217C9003DAE0FF75F0991210A7C03E
:1010500083C0829003DBE0FED082D0831210FA12AC
:1010600012C2EFA42433F582E5F034001210F71217
:1010700012B8FE9003DCF0A3EFF01238F69003DE16
:1010800012129D400302210D1214D71213A2121145
:1010900041E0B401189003DA1212201212C2EE12CB
:1010A00010A7121230ECF0A3EDF00221559003DCF2
:1010B000E0FEA3E0FF121237C083C0829003DBE0A2
:1010C000FCD082D0831210FA12135EED12123F127E
:1010D00014A61212CB12149E4023121237C083C0E2
:1010E000829003DBE0FCD082D0831210FA1213DD71
:1010F000ED1210A71214A6E475F001802A1213CC89
:1011000050739003DAE0FF12123CC083C082900358
:10111000DBE0FED082D0831210FA1213DD1210A68B
:101120001210F974FFF5F0121F1002215512126C03
:10113000C083C0829003DBE0FED082D0831210987F
:101140001210F9ECF0A3EDF09003DA1211BAC0839B
:10115000C0829003DBE0FED082D0831210FA12141A
:101160001B401275F099EF1213A5F583E5822E123C
:1011700011467401F01214D7FE1213A2121141E0AD
:1011800064017018121134E004121133E0D3940595
:10119000400A9003DBE0FF121119E4F09003DBE05A
:1011A00004F0021FD7229003C7747EF0E4A3F090EE
:1011B0000013E0FE9003C8E0FFC39E400302233506
:1011C0001235A9EF60031213F19003C8E0FA12126E
:1011D000DDE060030222439003C8E0FF1212FF1219
:1011E00012D2EF1210D3E0FEA3E0C39DEE9C404C60
:1011F0009003C8E09003C7F01212DD7401F0900272
:101200001AE004F09002FAF09003C8E0FF241612EE
:10121000131E7401F01238BA9003C8E0FF1238C9E7
:101220009003C8E0FF12379A9003C8E0FF1237E638
:101230009003C8E01213117401F08012CFEACF12AC
:101240003571EF60099003C8E0121311E4F09003C8
:10125000C8E0FF1235E1EF700302232CE490021B7B
:101260000223279003C8E0FF75F002A412138E1228
:1012700012D2EF1210D3E0FEA3E0C39DEE9C500308
:101280000222F19003C8E09003C7F0123387EF7099
:101290000302232CE4FF9003C8E0FE75F0991210BE
:1012A000A71212301212C21214CC12122EECF0A39A
:1012B000EDF00FEFB409DF9003C8E01212DDE4F0A7
:1012C000900014E0FF7009900310E07003022343C4
:1012D000EF6010900310E0600A1212631212E744EC
:1012E00005802A900014E06010900310E0700A124C
:1012F00012641212E744018014900014E0706490AC
:101300000310E0605E1212631212E74404F0C28A16
:10131000229003C8E0FF1212DDE4F01238E79003D8
:10132000C8E0FF1237749003C8E0FF1238D890036A
:10133000C8E0FF1237C09003C8E0241612131E74D1
:1013400001F090021BE004F09002FBF09003C8E073
:1013500004F002218F9003C7E0FF90021FE06F604E
:1013600002EFF022CBEFCB12128DE0FEA3E0FF12D2
:1013700011DFE0FCA3E0FDC39FEC9E500302242E8E
:10138000E42DFFEC3404FE12128D1214B5121197E5
:10139000EEF0A3EFF012128DE0FEA3E0FF1211DFDA
:1013A000E0FCA3E0C39FFFEC9E1210CEEEF0A3EF93
:1013B000F0121368E493FE740193FF1210CFE0FC67
:1013C000A3E0FDD39FEC9E4058121368E493FE7493
:1013D0000193FFC3ED9FFFEC9EC313FEEF13FF12BB
:1013E00013687401932FFFE4933E1210CE1214F28F
:1013F0006403600302246AEBB4010F1210D0E0FF13
:10140000A3E0900225CFF0A3EFF0EB6402707B1213
:1014100010CFE0FFA3E0900324CFF0A3EFF002246D
:101420006A1210CF1214AD7D63121E730D121E8549
:101430001210CF1214F2B4030BEBB40107E49002C4
:1014400025F0A3F0EB64027041900324803912115F
:10145000DFE0FEA3E0FF12128DE0FCA3E0C39FECEF
:101460009EC3940475F002EB50121210D3E4F0A363
:10147000F01211987404F0A3E4F0800E1210D3E47B
:10148000F0A3F0121198E4F0A3F0EB6401704412A1
:1014900010CF1212CB949AEE940140081210B3EEC2
:1014A000F0A3EFF01210CF1213AF900348F0EDA3AA
:1014B000F01211981212CB94DCEE94054008121130
:1014C0007CEEF0A3EFF01211981213AF90034CF0E2
:1014D000EDA3F0EB640270441210CF1212CB949A79
:1014E000EE940140081210B3EEF0A3EFF01210CF0B
:1014F0001213AF90034AF0EDA3F01211981212CB21
:1015000094DCEE9405400812117CEEF0A3EFF0128B
:1015100011981213AF90034EF0EDA3F022E4900364
:10152000DBF0A3F09003DF7403F02405A3F0122C8A
:10153000BBE49003DAF09003DAE0FFC394094003C0
:1015400002261E75F002EF1212531212D41210A6C8
:101550001212B8FE9003DDF0A3EFF01238F69003FC
:10156000DF12129D50209003DCE004F0A312114E14
:101570001212CB12149E40030225B71213CC400363
:101580000225F30225DA9003DBE004F01213D660A3
:10159000030225F39003DDE0FEA3E0FF1238F6908E
:1015A00003E0D312129E401D9003DAE0FF75F002B3
:1015B0001210A7E0FCA3E01211B0121254ECF0A339
:1015C000EDF00225F39003DD12114E1212CB94645C
:1015D000EE6480948040189003DAE0FD75F002120A
:1015E00011701213B8ED121253E475F0018021C38B
:1015F000EF949CEE6480947F50199003DAE0FF75BD
:10160000F0021211701213B8EF12125374FFF5F0BA
:10161000121F109003DA75F0021212511212D41236
:1016200010A61212B8FE9003DAE075F0021211BF94
:10163000EEF0A3EFF09003DAE004F0022516900339
:10164000DBE0C3940440028031C3900105E09404C0
:10165000900104E064809480402690019EE0940410
:1016600090019DE064809480401690006CE09403AB
:1016700090006BE06480948040069002217401F039
:101680009003DCE0C394064037900221E06031E42F
:10169000FF12374EE4FF123539EF6029E490022142
:1016A000F09003E1F0900013E0FF9003E1E0FEC34F
:1016B0009F5012121397E4F09003E1E004F080E5EC
:1016C000E4FF1238AB2290022AE0640270309002EC
:1016D000FC04F09003C1E0B401089003357401F0FC
:1016E0008005E4900335F090033CE0B401089000DD
:1016F000007401F08005E4900000F07F0222E4FE17
:10170000900013E0FFEEC39F400302284B12131B0F
:10171000E06401600302284774102E1212DFE0FC1F
:101720006003022793EE6401703D1212E89002FB01
:10173000E0FD6401701B9002FAE090033EB40109E1
:10174000E0440912126204801512125F1214E8803C
:1017500016ED90033EB4020BE0440512126212141F
:101760000D800412125FF0EE640260030228401242
:1017700012E89002FBE0FD6401701C9002FAE09018
:10178000033EB40106121353E48021E04404121214
:10179000621214E8022840ED90033EB40205E044D2
:1017A000058003E04404F0E4900014F0900310F08E
:1017B000022840EC64016003022840EE6401704F8F
:1017C0001212E89002FAE0FFB4020B90033EE044EC
:1017D0000A1213568013EF6401702690021BE090EA
:1017E000033EB4010C121353E490031012140D8045
:1017F0001EE04402121356E4900310F01213F2801C
:101800000E90033EE04402121356E4900310F0EEF3
:101810006402704C1212E89002FAE0B402139003D2
:101820003EE0440AF09003107401F0900014F08040
:101830002F90021AE06401701C9002FBE090033EBE
:10184000B40105E044098013E0440812126204F078
:101850001213F1800B90033EE0440812126204F070
:1018600012131BE4F0C28A0E0226E07F04229003CA
:10187000C2E060069003BEE004F09003BEE0B40155
:101880000BE49003C2F09003BEE004F09003BEE0CE
:10189000B40320D3900226E09464900225E09400E3
:1018A000500E900325E09464900324E094004003DC
:1018B0001213E59003C1E06401705B9003C7F0125E
:1018C000138240030229B2E0FF25E024AFF582E451
:1018D000341A1211A8121209FF25E0248FF582E4B0
:1018E000341A1211A8121303121211FF25E024CF8B
:1018F000F582E4341A1211A812138E121211FF2568
:10190000E024EFF582E4341A1211A81213FB12122C
:101910001104F002289F90033CE06401705B900387
:10192000C7F0121382504FE0FF25E024AFF582E4A8
:10193000341B1211A8121209FF25E0248FF582E44E
:10194000341B1211A8121303121211FF25E024CF29
:10195000F582E4341B1211A812138E121211FF2506
:10196000E024EFF582E4341B1211A81213FB1212CB
:101970001104F00229020229B2E49003C7F0121305
:1019800082504FE0FF25E0242FF582E4341B121132
:10199000A8121209FF25E0240FF582E4341B12116E
:1019A000A8121303121211FF25E0244FF582E4342C
:1019B0001B1211A812138E121211FF25E0246FF5CD
:1019C00082E4341B1211A81213FB12121104F0024C
:1019D000295E900200A3E0900342F090033FE0B440
:1019E000AA0312324A900359E07011A3E0B4100C1C
:1019F000E4900359F0A37410F01232A7227F05126D
:101A00003410EF600AE4900336F07F0512386F90CF
:101A1000022AE024FE601814601E147003022AD407
:101A200024036003022B4C1213EAE49002F9F090B5
:101A3000022A7403F0022E05121C2F90021CE07083
:101A400003022AAD9002F9E004F0E49003C6F0909E
:101A50000013E0FF9003C6E0C39F5071E4FF121231
:101A60001D1212C21214CC12122EECF0A3EDF012C1
:101A7000121D1212C2EE1210A7121230ECF0A3EDDA
:101A8000F00FEFB409D89003C6E0FF1210D0E4F0D5
:101A9000A3F0EF1211997404F0A3E4F0EFB4011075
:101AA000E4900348F0A3F090034C7404F0E4A3F036
:101AB000EFB40210E490034AF0A3F090034E7404D4
:101AC000F0E4A3F09003C6E004F0022A2F9002F99C
:101AD000E0C394035003022B4C900012747EF0E498
:101AE00090021DF09002F9F07F0E12387E90022ACB
:101AF0007404F0229003BEE0B4020B7403F07F0480
:101B000012386F1210209003BEE0B403107F04124D
:101B10003410EF60087F0412386F1213E51233405F
:101B2000121C2F12334090021CE060401217C112A9
:101B30003340E49003C6F0900013E0FE9003C6E04B
:101B4000FFC39E50191236191232F69003C6E0FFF9
:101B50001223441233409003C6E004F080D91236B9
:101B6000831221861226A690022AEFF022C0E0C03E
:101B700083C082C0D0E8C0E0E9C0E0EAC0E0EBC0CA
:101B8000E0EFC0E0D2AFE5DB30E415E5DB30E102A9
:101B9000802290033DE5DFF09003BFE4F0022CA02B
:101BA000E5DB30E505900339803EE5DB30E12CE5EF
:101BB000DB30E0119003C312365312365C121E1252
:101BC000F5DF022CA09003C0E064016003022CA0AA
:101BD000308A03022CA0D28A022CA09003BFE070AE
:101BE0000DA3E5DFF09003BF7401F0022CA0900379
:101BF000C0E09030A193FFB4FF0F90033DE5DFF00C
:101C00009003C0E004F0022C9AEF640F702F900351
:101C1000C31236539003C0E0FF12367A540F121EDF
:101C20003F9003C31236539003C0E0FF04F0123616
:101C30007AFFE5DF54F04F121E3F022C9A9003C347
:101C400012365312365CE5DF121E519003C0E0FFDE
:101C500064147044E5DFB42025900336E06004E4AA
:101C6000F0800B9003C27401F09003BEE4F0900387
:101C7000C17401F090033CE4F090023C04F0E5DF15
:101C8000B410159003C2E4F09003BEF090033CF052
:101C90009003C1F090023CF0EFB4161EE5DFB420D3
:101CA0000B90033C7401F09003C1E4F0E5DFB41045
:101CB0000990033CE4F09003C1F090033BE004F092
:101CC00075DBFFD0E0FFD0E0FBD0E0FAD0E0F9D048
:101CD000E0F8D0D0D082D083D0E0329003E5740217
:101CE000F0E49003E2F09003E2E0FFC394094003C4
:101CF000022E0475F0021210A6E0FCA3E01211B04F
:101D00001212751212B8FE9003E3F0A3EFF012382E
:101D1000F69003E512129D4003022D9C121326E05B
:101D2000B4013075F002EF1211BFE0FEA3E0C394DE
:101D30001EEE648094804003022DD29003E2E07591
:101D4000F00212127475F0021210A1ECF0A3EDF083
:101D5000022DD29003E3E0FEA3E0FF9003E2E0FD5A
:101D600075F00212123FEE8FF0121F1075F002EDA7
:101D700012123F1212CB9402EE64809480401890AD
:101D800003E2E0FD75F00212123F1213B8ED1210DB
:101D9000A7E475F0018020C3EF94FEEE6480947F89
:101DA00050509003E2E0FF75F00212123F1213B898
:101DB0001210A674FFF5F0121F1080369003E27522
:101DC000F0021212721212D41210A6ECF0A3EDF06F
:101DD0009003E2E0FF75F0021211BFE0FCA3E0C344
:101DE000941EEC64809480400974A82F12132D7403
:101DF00001F09003E2E012132BE0B4011E9003E225
:101E0000E0FF24B11213C4E0041213C0E0D3940520
:101E10004009121326E41213C0E4F09003E2E00438
:101E2000F0022CC6227E027F107D007B017A0079B1
:101E300015121F961233CDE490022FF0900335E077
:101E400090035170057410F080037420F09000002E
:101E5000E090035370057410F080037420F0122892
:101E60004EE4FE900013E0FFEEC39F5079E4FF754F
:101E7000F099EE1211701212301213DDEEA4249FAD
:101E8000F582E5F03400121141E4F075F099EEA40A
:101E9000248DF582E5F0340012122EE4F0A3F01246
:101EA0001119E4F00FEF640970C5CFEECF12389C22
:101EB0001238AB121397E4F01238BA1238D812382D
:101EC000C91238E774102E1212DFE4F012131BE46B
:101ED000F0900219747EF0E4A3F0A3F09002FAF0FF
:101EE000A3F00E022E43E4900221F090021F747EB4
:101EF000F0900012F0E490021EF022E49003C8F08B
:101F0000FF9003C7F0EF14601E14603514604C148A
:101F1000605B240470749003C97401F0A3742FF003
:101F2000A37458F0022F64123650900001121E1252
:101F3000FED3941F4003123669121DF96E704B8058
:101F400043123650900002121E12FED39406400334
:101F5000123669121DF96E703180291236509000C8
:101F600003121E12FE121DF96E701F8017123650DA
:101F7000900004121E12FE648B6003123669121D5B
:101F8000F96E70069003C7E004F00FEF640560037C
:101F9000022EE59003C7E0B40504A37401F090039A
:101FA000C8E0FD6007900352E0547FF0CFEDCF22F0
:101FB000758A50538AEF9003E87411F09003E77428
:101FC00022F09003E97433F075997F759A80E4FFED
:101FD000FEC29600000020970ED2960000003097B7
:101FE000069003E87487F00FBF00010EEF640A4EFD
:101FF00070DF7590FF75993F759AC0E4FEFF3096CB
:10200000032097069003E77487F00FBF00010EEFDF
:10201000640A4E70E9E4F5AD75AEE075AF1DF5AC40
:1020200075800C7589FF75913E75991FF5967593AE
:102030001CF59BF595F592F59AD28A9003EA04F087
:1020400022023490E493A3F8E493A34003F68001C2
:10205000F208DFF48029E493A3F85407240CC8C3E2
:1020600033C4540F4420C8834004F456800146F61C
:10207000DFE4800B0102040810204080903121E44D
:102080007E019360BCA3FF543F30E509541FFEE47A
:1020900093A360010ECF54C025E060A840B8E4933C
:1020A000A3FAE493A3F8E493A3C8C582C8CAC5837E
:1020B000CAF0A3C8C582C8CAC583CADFE9DEE78003
:1020C000BE0F000000FFFF00000000FFFFFFFFFF4A
:1020D000FFFFFFFF00000000000000000000000004
:1020E00000000000000000000000000000000000F0
:1020F00000000000000000000000000000000000E0
:1021000000000000000000000000000000000000CF
:1021100000000000000000000000000000000000BF
:1021200000000000000000000000000000000000AF
:10213000000000000000000000000000000000009F
:10214000004102F900410229004102FC0041001453
:102150000041031000410335004100000042022508
:102160000000420324000041023C0041022F0041D4
:10217000022B004102FD004103BF004103C00042A9
:10218000033700004103390041033B0041033A009B
:1021900041033D104103C2004103BE00410336012B
:1021A0004103C10041033C0000C0E0C0F0C083C057
:1021B00082C0D0E8C0E0ECC0E0EDC0E0EEC0E0EFEF
:1021C000C0E0D2AF900229E004F0C3940A4021E4B9
:1021D000F0900320E0FCA3E0FDA3E0FEA3E02401D7
:1021E000FFE43EFEE43DFDE43CFC900320121F4D65
:1021F000D0E0FFD0E0FED0E0FDD0E0FCD0E0F8D0B1
:10220000D0D082D083D0F0D0E032902EC0E4F090D5
:102210002ECB74F4F0902F58E0540F24F0902EC879
:10222000F0902ECC7448F0902EC97428F0A3743F1F
:10223000F0902E407481121280F0A3F0A3041212C9
:10224000807402F0A3F0902EC67414F0902EC17426
:1022500090F0A37401F0A37480F0A37407F043E33B
:1022600010123829900013EFF0229003C87410F078
:10227000A3E4F0A3743FF0A374FFF0E4FDFCF97550
:102280008A10538AEF0000009003C8E0FEA3E0121A
:102290003670FF69F90DBD00010CBC2FEBBDFFE8E6
:1022A0009003CAE0FEA3E0F5828E83E49369700890
:1022B00090033F7402F08005E490033FF0758A506C
:1022C000538AEF000000227F007E10E4FDFC9003A3
:1022D000C8F0A3F0758A10538AEF000000EF1236A1
:1022E00070FB9003C9E02BF09003C8E03400F00DC0
:1022F000BD00010CED7003EC643070E19003C8E0A8
:10230000FCA3E0FDEC900359F0EDA3F0758A505367
:102310008AEF000000229003EAE060439002E2129C
:1023200014E19458EE941B500EEF9488EE941340F1
:10233000069003E97487F09002271214E19470EE7E
:102340009417500EEF94A0EE940F40069003E9749A
:1023500087F0E49003EAF09003E9E0900346F0226E
:1023600090022BE024FE60111460252403703730A6
:10237000883490022B7402F02220882A90022B7459
:1023800003F09002FD7401F07F0E12387E0236B128
:102390007F0E123450EF600E7F0E12387EE49002F2
:1023A0002BF09002FDF0229003C9EFF0E0FF241122
:1023B000121482E0603490023CE06401700EEF126F
:1023C0001066901A551211FB4020800F9003C9E04F
:1023D000121066901A5B1211FB400F9003C9E024A3
:1023E00011F582E434031212F0227F00227E007F76
:1023F000807D007B017A03793E121F9690033E7424
:1024000005F0A37402F0E4A3F090035074ABF090D5
:10241000035274A2F09003E8E0900344F09003E7C5
:10242000E0900345F09003E9E0900346F0022EDBD4
:102430009003C7EFF0C3940F5033E0FF248B1214C6
:1024400042E06029EF25E025E024A6F582E434028D
:102450001210719003C71211EF400F9003C7E024D0
:102460008BF582E434021212F0227F00227F0022D8
:102470009003C7EFF0C3940F5033E0FF243D1214D4
:102480004AE06029EF25E025E0244FF582E434029C
:102490001210719003C71211EF400F9003C7E02490
:1024A0003DF582E434021212F0227F00227F0022E6
:1024B00075200153A87F122F901236DB43A880129B
:1024C000104E12385D758DE012380CEF24E0600A72
:1024D0002410700AC283C2828004D283D28212285E
:1024E0004E438D201229DD80DF9003E3EFF0E0FF03
:1024F00024E4121452E06026EF25E025E024E7F5FD
:1025000082E43402121071901A531211FB400F90A2
:1025100003E3E024E4F582E434021212F0227F00A7
:10252000229003E3EFF0E0FF242612145AE0602625
:10253000EF25E025E02429F582E4340312107190A0
:102540001A611211FB400F9003E3E02426F582E4A8
:1025500034031212F0227F00229003E2EFF0E0FF3A
:102560002401121462E06026EF25E025E02404F542
:1025700082E43403121071901A631211FB400F9021
:1025800003E2E02401F582E434031212F0227F001A
:10259000229003C9EFF0E0FF242C12146AE06026B9
:1025A000EF25E025E02430F582E43402121071902A
:1025B0001A511211FB400F9003C9E0242CF582E45C
:1025C00034021212F0227F00229003C9EFF0E0FFE4
:1025D0002403121472E06026EF25E025E02406F5BE
:1025E00082E43400121071901A5D1211FB400F90BA
:1025F00003C9E02403F582E434001212F0227F00C4
:10260000229003C9EFF0E0FF244C12147AE0602618
:10261000EF25E025E0249AF582E43402121071904F
:102620001A5D1211FB400F9003C9E0244CF582E4BF
:1026300034021212F0227F0022CBEFCBEB64017048
:10264000121211CBE090038EF01211DFA3E0900381
:102650008F8015EB640270171211CBE0900392F09B
:102660001211DFA3E0900393F0ECA3F0EDA3F022AE
:102670009003C9E0FBA3E0FAA3E0F9229003C0E0D5
:10268000FF04F08F82758300229003C87401F0224A
:102690002DF582EE3CF583E49322E92FF9E43AFA32
:1026A000021DF9E4FFFE900013E0FDEEC39D501BF8
:1026B000EF1210D01212D4EE1210D3E0FAA3E0D32E
:1026C0009DEA9C4003CFEECF0E80DB900220EFF01E
:1026D00022CBEFCBEBD3940F5020743D2B12144A36
:1026E000E07017743D2BF582E43402121100244F80
:1026F000F582E43402F583121F4D229003C3740166
:10270000F0A37403F0A3743EF0E4F5DA75DA404305
:10271000DA2075D74075DA5843A90875B80875F8F6
:1027200008221212F7502074E42B121452E0701792
:1027300074E42BF582E4340212110024E7F582E4FC
:102740003402F583121F4D221212F7502074262BEB
:1027500012145AE0701774262BF582E43403121118
:10276000002429F582E43403F583121F4D2212124E
:10277000F7502074012B121462E0701774012BF5CE
:1027800082E434031211002404F582E43403F58357
:10279000121F4D221212F75020742C2B12146AE0D3
:1027A0007017742C2BF582E434021211002430F5DA
:1027B00082E43402F583121F4D221212F750207466
:1027C000032B121472E0701774032BF582E43400AB
:1027D0001211002406F582E43400F583121F4D2205
:1027E0001212F75020744C2B12147AE07017744CAC
:1027F0002BF582E43402121100249AF582E43402AB
:10280000F583121F4D221212F7502074112B12144F
:1028100082E0701774112BF582E434031211002446
:1028200014F582E43403F583121F4D22E4FD900376
:1028300039E0601190033EE0FE54F0FDEE540FF0DD
:10284000E4900339F0CFEDCF2212148AFFFEEE9010
:102850001A6F93600974FE2F121496EEF00F0EEEAD
:10286000B410EB22900320121F59000000007E00DC
:102870007F0F7D007B017A02793D021F9675B28E33
:1028800075B6F9E4F5B743B20143AA01023844EF43
:10289000D3940F5008748B2F121442E4F022EFD31C
:1028A000940F5008743D2F12144AE4F022EFD39491
:1028B00003500874E42F121452E4F022EFD394036F
:1028C000500874262F12145AE4F022EFD3940350C8
:1028D0000874012F121462E4F022EFD3940350081D
:1028E000742C2F12146AE4F022EFD394035008746E
:1028F000032F121472E4F022EFD394035008744CA7
:102900002F12147AE4F022EFD39403500874112F9D
:10291000121482E4F022EE30E707C3E49FFFE49E46
:10292000FE22000000000000000000000000000087
:102930000000000000000000000000000000000097
:102940000000000000000000000000000000000087
:102950000000000000000000000000000000000077
:102960000000000000000000000000000000000067
:10301000000000000000000000000000000000AC04
:00000001FF
