:1000000000980002000D00003276000000000000A1
:1000100000000000000000000000000000000000E0
:1000200078FFE4B8200118F6D8F99000007F007E30
:1000300007E4F0A3DFFCDEFA758107023315CBEF8E
:10004000CBEBD3940D501E12115CE0701812115CB2
:100050007401F0120E8D1210CE241DF582E43402CC
:10006000F583120E0B22D2AF003200021CC175B212
:100070008E75B6F9E4F5B743B20143AA01023D1605
:1000800000000002360B904006E493B418020022F0
:1000900053A87F0080FD0000000000020846020B0C
:1000A000C6E86480F8E933E83360110460F0ED33AA
:1000B000EC337009E8FCE9FDEAFEEBFF220460DEA8
:1000C000D3EB9FEA9EE99DE8C2E78CF0C2F795F07A
:1000D000400CE8CCF8E9CDF9EACEFAEBCFFB120BF5
:1000E0009185D0F05804700320D5B3E80470075010
:1000F00002B2D5020BD092D5EC0460F7E4CCC0E09C
:10010000C398F8603B94186008400DD0E0FB020BE8
:10011000A8E4FBFAC9FC8028E830E406E4C9FBE463
:10012000CAFCE830E305E4C9CACBFCE85407601018
:10013000F8C3E913F9EA13FAEB13FBEC13FCD8F15B
:1001400030F52FC3E49CFCEF9BFFEE9AFEED99FD8A
:10015000D0E0FBEF4E4D4C701222DB03020BCDECD6
:100160002CFCEF33FFEE33FEED33FDED30E7EB0219
:100170000BA8EF2BFFEE3AFEED39FDD0E0FB50135C
:100180000BBB0003020BD0ED13FDEE13FEEF13FFCC
:10019000EC13FC020BA8EC4D6011E8497017ED332D
:1001A000EC3304600DE4FCFFFEFD22E933E8330488
:1001B00070F8020BC6120B9158046009E4CC24813C
:1001C0005006285009020BD0284003020BCDC0E096
:1001D000EB4A7044B98006D0E0FB020BBCEF4E70D6
:1001E0001CBD8008EBFFEAFEE9FD80EBE98DF0A481
:1001F000FEE5F0020A5FE9CDF9EAFEEBFFEF89F0D8
:10020000A4FCE5F0CE89F0A42EFFE435F0CD89F012
:10021000A42DFEE435F08067EF4E7005BD80D780D9
:10022000C3EF8BF0A4ACF0EE8BF0A42CFCE435F023
:10023000F8EF8AF0A42CE5F038FCE433CB8DF0A481
:100240002CFCE5F03BF8EE8AF0A42CFCE5F038F845
:10025000E433CF89F0A42CFCE5F038CF3400CE890C
:10026000F0A42FFFE5F03EFEE433C98DF0A42EFE8E
:10027000E5F039CD8AF0A42FFFE5F03EFEE43DFD28
:1002800033D0E0FB50070BBB000F020BD0EC2CFC73
:10029000EF33FFEE33FEED33FD020BA8020BD0EC83
:1002A0005D046005E859047003020BC6120B9158F7
:1002B0000460F6EC4860F2EC7004FDFEFF22C860BA
:1002C000DB2481C85009C39860025006020BCD9808
:1002D00050CAF582E9294B4A7005AB82020BBC7506
:1002E000F0007C1A7880C3EF9BEE9AED99400DC325
:1002F000EF9BFFEE9AFEED99FDE842F0DC23ACF0B7
:10030000D0E0FFD0E0FED0E0FDAB8220E7101BEB99
:1003100060BAEC2CFCEF33FFEE33FEED33FD020B45
:10032000A8E803F830E705C0F075F000EF2FFFEE06
:1003300033FEED33FD40B830E7C280AA75F020806F
:100340000E75F010800575F0087D007E007F00338B
:1003500092D530D503120DD6EC334010EF33FFEEBB
:1003600033FEED33FDEC33FCD5F0ED22E5F0247ED9
:10037000A2D513CC92E7CDCEFF22EDD2E7CD33EC60
:100380003392D524814006E4FFFEFDFC22FCE4CF3D
:10039000CECDCC24E0501174FF80EDC3CC13CCCD76
:1003A00013CDCE13CECF13CF0470F030D5DE020DB7
:1003B000D6E9D2E7C933E833F892D5EDD2E7CD33A9
:1003C000EC33FC5002B2D522EC30E7100FBF000C2A
:1003D0000EBE00080DBD00040BEB6014A2D5EB139C
:1003E000FCED92E7FD2274FFFCFDFEFF22E480F8A5
:1003F000A2D574FF13FC7D80E480EFBB01068982E7
:100400008A83E0225002E722BBFE02E32289828A2D
:1004100083E49322BB010CE58229F582E5833AF55A
:1004200083E0225006E92582F8E622BBFE06E92594
:1004300082F8E222E58229F582E5833AF583E493A6
:1004400022BB010689828A83F0225002F722BBFE7A
:1004500001F322F8BB010DE58229F582E5833AF527
:1004600083E8F0225006E92582C8F622BBFE05E9A2
:100470002582C8F222EF8DF0A4A8F0CF8CF0A4283A
:10048000CE8DF0A42EFE22BC000BBE0029EF8DF015
:1004900084FFADF022E4CCF875F008EF2FFFEE33C7
:1004A000FEEC33FCEE9DEC984005FCEE9DFE0FD576
:1004B000F0E9E4CEFD22EDF8F5F0EE8420D21CFE4A
:1004C000ADF075F008EF2FFFED33FD4007985006B3
:1004D000D5F0F222C398FD0FD5F0EA22C2D5EC3058
:1004E000E709B2D5E4C39DFDE49CFCEE30E715B20C
:1004F000D5E4C39FFFE49EFE120C67C3E49DFDE4B8
:100500009CFC8003120C6730D507C3E49FFFE49E78
:10051000FE22C5F0F8A3E028F0C5F0F8E5821582C8
:1005200070021583E038F02275F008758200EF2F15
:10053000FFEE33FECD33CDCC33CCC58233C5829BA9
:10054000ED9AEC99E58298400CF582EE9BFEED9ACF
:10055000FDEC99FC0FD5F0D6E4CEFBE4CDFAE4CC6B
:10056000F9A88222B800C1B90059BA002DEC8BF06D
:1005700084CFCECDFCE5F0CBF97818EF2FFFEE332A
:10058000FEED33FDEC33FCEB33FB10D70399400455
:10059000EB99FB0FD8E5E4F9FA227818EF2FFFEE7C
:1005A00033FEED33FDEC33FCC933C910D7059BE9AD
:1005B0009A4007EC9BFCE99AF90FD8E0E4C9FAE409
:1005C000CCFB2275F010EF2FFFEE33FEED33FDCCA8
:1005D00033CCC833C810D7079BEC9AE899400AED92
:1005E0009BFDEC9AFCE899F80FD5F0DAE4CDFBE43A
:1005F000CCFAE4C8F922C3E49FFFE49EFEE49DFD2B
:10060000E49CFC22EB9FF5F0EA9E42F0E99D42F06B
:10061000EC6480C864809845F022EB9FF5F0EA9E78
:1006200042F0E99D42F0E89C45F022ECF0A3EDF0A9
:10063000A3EEF0A3EFF022A8828583F0D083D082CE
:10064000120E2E120E2E120E2E120E2EE473E493A4
:10065000A3C583C5F0C583C8C582C8F0A3C583C53B
:10066000F0C583C8C582C822A42582F582E5F0358D
:1006700083F58322EF4E6012EF60010EEDBB010B9C
:1006800089828A83F0A3DFFCDEFA2289F05007F723
:1006900009DFFCA9F022BBFEFCF309DFFCA9F02274
:1006A000F583E0F8A3E0F9A3E0FAA3E0FB9002AE43
:1006B000E0FCA3E0FDA3E0FEA3E02275F002120E31
:1006C0004875F078E0FCA3E0FDEFA4246CF582E52A
:1006D000F03400F5832275F002120E48E0FCA3E02E
:1006E000FD75F078EFA4247CF582E5F03400F58305
:1006F000EE75F002020E48902FB7C39BFBEE9AFAFC
:10070000ED99F9EC98F8E493FE740193FFE4FCFD95
:10071000C3020DFA75F002EBA4243EF582E5F03435
:1007200000F583E0FCA3E0FDEB75F002A42438F5AE
:1007300082E5F03400F5832275F078EEA424C4F548
:1007400082E5F03400F583E5822FF582E43583F508
:1007500083E4F075F078EEA424CCF582E5F0340063
:10076000F583E5822FF582E43583F58322E0FEA34D
:10077000E0FF9003CDE0FD75F002A4249CF582E536
:10078000F03400F583EE8FF0120CF275F002EDA458
:10079000249CF582E5F03400F583229003B9E0FE55
:1007A00075F078A4245CF582E5F03400F583EF75EC
:1007B000F002020E489003CDE0FD75F078A424AC61
:1007C000F582E5F03400F583229003BAE075F07805
:1007D000A4248CF582E5F0340022E4900036F090F9
:1007E000029CF09002D1E090029DF054F0FFF022C4
:1007F000EF75F002A4247CF582E5F03400F5832245
:10080000C39BFBEE9AFAED99F9EC98F822F583E098
:10081000FCA3E0FDEF75F002A4244AF582E5F03474
:1008200000F583229003CD75F078E0FFA4245CF5F9
:1008300082E5F03400F58322C3E0FDEF9D7480F87B
:100840006E9822E04401F0E4900036F090029C2281
:100850009003BAE025E024BCF582E43403F583225A
:100860009003CDE0FF75F07822ECF0EDA3F090035B
:10087000CEE004F0E0229003BBE0FF24D6F582E452
:100880003401F58322E0FEA3E0C39DFFEE9C22E04D
:10089000FEA3E0FFD3940AEE6480948022CBEFCBDA
:1008A000EBD3940322F0A3F0A3F0A3F0A3229003D0
:1008B000CDE0FF24D9F582E43401F5832275F002FE
:1008C000EDA4243EF582E5F03400F583E0FEA3E0DC
:1008D000FF75F002ED22F583E493FC740193FD753E
:1008E000F002EFA422E0FCA3E0FD75F07822FFEB1C
:1008F00025E025E022F583E4F07F0122902EC3F06D
:100900007406A3F0E4F5E2902EC074C2F0E4227500
:10091000F002EDA42444F582E5F03400F583E0FA1A
:10092000A3E0FBEA2274DC2EF582E43401F5832295
:100930009003D0E0FEA3E0FF22E04406F0900036F2
:100940007401F022C3EF94F6EE6480947F22EE8F60
:10095000F0120CF275F07822EF25E024C2F582E463
:100960003403F58322C28A9002D1E090029DF022E6
:10097000902EC5F0902ECEF0902EC922740D2BF53E
:1009800082E43402F5832274642BF582E43402F5A8
:10099000832274212BF582E43400F5832274B42B76
:1009A000F582E43402F58322748D2BF582E434025F
:1009B000F5832274F62BF582E43401F58322740E5C
:1009C0002BF582E43400F58322741A2BF582E4348B
:1009D00002F58322749E2BF582E43402F58322749F
:1009E000EB2EF582E43401F5832275F078A424C45B
:1009F000F582E5F034002275F002A424C4F582E506
:100A0000F034012224E2F582E43401F58322F583F7
:100A1000ECF0A3EDF0229001EAE0640122E4F0A3FF
:100A2000F075F07822E0FCA3E0FD75F002EF22E41F
:100A30009001E0F0900282F022E0FCA3E0FD75F06E
:100A400002229003CDE0FD75F078227F0B123D5617
:100A5000E4900037F075990722F074DD2EF582E4FA
:100A60003401F583E4F02290029DE09002D1F0225F
:100A7000FFE0FCA3E0FD22A4247EF582E5F0340033
:100A8000F583E02275F002EC020E48F0ECA3F0EDE5
:100A9000A3F022E0FEA3E0FF7C00020CBCEEA42445
:100AA0007CF582E5F0340022E0FCA3E0FDEC22ECD2
:100AB000F0A3EDF09003CDE0229003CEE0FF900391
:100AC000CDE022E0FEA3E0FFC322F09001E1F09030
:100AD0000283F0229003CDEFF01211D7F583E0FEF0
:100AE000A3E07803CEC313CE13D8F99003D4F0E477
:100AF000A3F09003CFF09003CEF09003D27405F0F2
:100B00002407A3F0121040120FD4C083C0829003B8
:100B1000CEE0FED082D083120E9B120ED012106552
:100B20009003D0F0A3EFF012108EE0601A75F07809
:100B3000EF120F6FC083C0829003CEE0D082D083CB
:100B4000120ED1E4F0A3F0121110123E019003D264
:100B50001210185046121110121222120F6FC08379
:100B6000C0829003CEE0FCD082D083120ED112114D
:100B70002E120F6EEC120ED1E0FEA3E0FFD3940F05
:100B8000EE6480948040030213F9C3EF94F1EE64A5
:100B900080947F4003021448021424121110123E64
:100BA000019003D41210185004A3E004F0121110A5
:100BB000C394FBEE6480947F50069003CFE004F072
:100BC0001211F66003021448123E019003D3121072
:100BD00018501E121040120EAAC083C0829003CE7D
:100BE000E0FED082D083120EB6ECF0A3EDF002143A
:100BF00048121110121222120F6FC083C08290038C
:100C0000CEE0FCD082D083120ED112112E120F6EC4
:100C1000EC120F8F12106F4026121222120F6FC0AB
:100C200083C0829003CEE0FCD082D083120ED1121A
:100C300011FDED120FD4121264E475F0018026123A
:100C400011245024121040120F6FC083C0829003F1
:100C5000CEE0FED082D083120ED1E4F0A3F0120ECB
:100C6000C174FFF5F0120CF2121040120FD4C083C1
:100C7000C0829003CEE0FED082D083120E9B120E73
:100C8000D0121065FE9003CD120FACF583C083C067
:100C9000829003CEE0D082D083120ED1EEF0EF121C
:100CA000104CC3940850030212DA1211F6703790F8
:100CB00003CDE0FF24EB1211C2E0702A74EB2F1277
:100CC00011C27401F0E49003CEF0121040120EAA8B
:100CD000C083C0829003CEE0FED082D083120EB6D5
:100CE000121049B408E49003CDE0FF1211E4E0646F
:100CF00001705A123D749003CFE0C39403404390B7
:100D000003CDE0FF123BC09003CDE0FF1238EDEFC2
:100D1000700302157CE49003CEF0121040120EAA6C
:100D2000C083C0829003CEE0FED082D083120EB684
:100D3000121049B408E49003CDE01211E4E4F0028B
:100D4000157C9003CDE0FF123D8302157C9003CD0E
:100D5000E0FF123D839003CFE0C39403403690033D
:100D6000CDE0FF123B9C9003CDE0FF1238B2EF6064
:100D70002BE49003CEF0121040120EAAC083C08262
:100D80009003CEE0FED082D083120EB6121049B48A
:100D900008E480089003CDE0FF123D749003D5E095
:100DA000C39403403612108EE07030123B789003EB
:100DB000CDE0FF123A12EF602AE49003CEF0121059
:100DC00040120EAAC083C0829003CEE0FED082D033
:100DD00083120EB6121049B408E4229003CDE0FF4E
:100DE000123D6522E49003BEF0FF1232557F0112DE
:100DF00032559003BCE4F0A37404F0900350E01467
:100E0000607C1470030216731470030216C8147009
:100E1000030217601470030217752405600302189B
:100E2000429003B3120E1700000000E490039FF0FD
:100E3000A3F0A3120E1700000000900395E0FFA39B
:100E4000E09003A5CFF0A3EFF0900395E0FFA3E0BF
:100E50009003A7CFF0A3EFF0122603A3F0A3F09026
:100E60000393E0FFA3E09003B1CFF0A3EFF0123DB6
:100E7000E97F327E00123ADC9003507401F01226B2
:100E80000B123B52EF70030218421218487402F022
:100E9000021842122523940AEE64809480401312B3
:100EA000260390039CE004F0701390039BE004F091
:100EB000800B1226A9500612260312262D12257821
:100EC000700690039FE004F0123B52EF700302188B
:100ED000421225DC120D449003A5EEF0A3EFF09032
:100EE00003507403F0021842900395E0FEA3E0243F
:100EF000B4FFEE34FBFE9003BAF0A3EFF0123E0114
:100F0000C3EF9403EE648094805025E490039FF037
:100F1000A3F0A3120E170000000012260B123DE9E9
:100F20007F0A7E00123ADC9003507404F0021842EB
:100F30009003BAE0FEA3E0FF12253F9405EE648023
:100F400094804014122603900352E024FFF0900393
:100F500051E034FFF0A38022C3EF94FBEE64809451
:100F60007F4003021842122603900352E004F070FF
:100F700006900351E004F090035212264A021842F0
:100F800012260B123B52EF700302184212184874DB
:100F900005F0021842122523940AEE6480948040E2
:100FA0001312260390039CE004F0701390039BE05F
:100FB00004F0800B1226A9500612260312262D12C9
:100FC0002578700690039FE004F0123B52EF700307
:100FD0000218421225DC120D449003A7EEF0A3EF95
:100FE000F01225BBE4FBFAF978401209767BA07A6F
:100FF00070797678C2120885120B5A9003ADEEF024
:10100000A3EFF09003A71225BEECC0E0EDC0E0EE28
:10101000C0E0EFC0E09003AD1225BED0E0FBD0E011
:10102000FAD0E0F9D0E0F8120976ECC0E0EDC0E0CB
:10103000EEC0E0EFC0E01225BB122658D0E0FFD092
:10104000E0FED0E0FDD0E0FC120A7F120B5A9003C4
:10105000B1EEF0A3EFF09003507406F09003BE746D
:1010600001F09003BEE0FF22123DE97F057E0012F1
:101070003ADC900350221221DFE49003BAF0900092
:1010800035E0FF9003BAE0C39F4003021AC7E0FFB8
:10109000121034E4F0A3F0121138E4F0A3F090033E
:1010A000C8F0A3F0A3F0A3F0A37408F0EF7003025C
:1010B0001ABE121E7B9003BAE0FF1212B4E4900332
:1010C000BBF09003BBE0FFC3940840030219EF128A
:1010D00011F66006900286E06016900036E070100F
:1010E00090029CE0700A120FA9120F8CE4F0A3F09A
:1010F0009003BAE0FF120FADF583C083C082900366
:10110000BBE0FED082D083120ED1E0FCA3E0FDC391
:101110009404EC64809480501075F078EF120FB056
:10112000120ECEE4F0A3F08031C3ED9406EC64809F
:1011300094805026120FA9F583C083C0829003BB10
:10114000E0D082D083120ED1C083C0827D02121201
:1011500073D082D083EEF0A3EFF09003BAE0FF7576
:10116000F078121257FCA3E0FD121138EC8DF0124A
:101170000CF29003BAE0FF120FADF583C083C0827A
:101180009003BBE0D082D083120ED11210C5EF12B3
:101190001257FEA3E02DFFEE3CFE9003BAE0FD12D5
:1011A000103412112EED120FB0F583C083C082905F
:1011B00003BBE0D082D083120ED11212A39003C9D8
:1011C000E09FEE6480F89003C8E06480985012902D
:1011D00003BBE0FD9003C8EEF0A3EFF09003CCED6D
:1011E000F0120FA9F583C083C0829003BBE0D082C8
:1011F000D083120ED1E0FEA3E0FF9003CBE02FF0EE
:101200009003CAE03EF09003BBE004F00218A29005
:1012100003C8E0FAA3E0FBC39003CBE09BF090038C
:10122000CAE09AF07D071212739003CAEEF0A3EFA2
:10123000F0C3EB9FFFEA9EFED3EF9402EE6480942E
:10124000804039A3E064086033121030C083C0824C
:10125000E0FEA3E0FF9003C8E0FCA3E0FDC3EF9D28
:10126000FFEE9CD082D083F0A3EFF09003CAE0FEA3
:10127000A3E0FF121030EE8FF0120CF29003BAE0F0
:10128000FF121034E0FCA3E0FDEF120F09ECF0A315
:10129000EDF09003BAE0FF121139E0FCA3E0121068
:1012A000BE243EF582E5F034001211EE9003DEE03C
:1012B000602C9003BAE0B4010F120F09E0FFA3E025
:1012C00090025FCFF0A3EFF09003BAE0B4020F12E8
:1012D0000F09E0FFA3E09001EECFF0A3EFF0900341
:1012E000BAE004F002185EE49001E5F0229003BA3F
:1012F000747EF0E4A3F0900035E0FE9003BBE0FFC5
:10130000C39E4003021CB2123A4AEF600312120F4E
:101310009003BBE0FA12105BE06003021B8E9003A7
:10132000BBE0FF1211D7120FEDE0FEA3E0C39DEE6C
:101330009C40549003BBE09003BAF012105B740120
:10134000F09001E0E004F0900282F09003BBE0FF37
:1013500024DC1211087401F0123DA19003BBE0FFE0
:10136000123DB09003BBE0FF123C2C9003BBE0FFAA
:10137000123DCE9003BBE0FF123C749003BBE01221
:1013800010937401F08012CFEACF123963EF600935
:101390009003BBE0121093E4F09003BBE0FF123A1D
:1013A0007FEF7003021CA9E49001E1021CA49003EA
:1013B000BBE0FF75F002A424D0F582E5F034011201
:1013C0000FEDE0FEA3E0C39DEE9C5003021C7B905A
:1013D00003BBE09003BAF012399EEF7003021CA920
:1013E000E4FF9003BBE0FE75F078120EAA120F8E98
:1013F0001210C512127D120F8CECF0A3EDF00FEF5E
:10140000B408DF121056E4F074D92F121095E4F0EE
:1014100074E22F1211E67401F0900036E0FF7009BB
:1014200090029CE07003021CC0EF601F90029CE0E1
:101430006019120FBABF2003D38001C34005E490A6
:10144000029DF090029DE044058048900036E060E7
:101450001F90029CE07019120FBBBF2003D38001C4
:10146000C34005E490029DF090029DE0440180237A
:10147000900036E0706A90029CE06064120FBABF80
:101480002003D38001C34005E490029DF090029DAB
:10149000E04404F09002D1F0C28A22121056E4F027
:1014A000123C089003BBE0FF123DBF9003BBE0FF7E
:1014B000123C509003BBE024DC1211087401F09040
:1014C00001E1E004F0900283F09003BBE004F0023D
:1014D0001AD69003BAE0FF9001E8E06F6002EFF0E7
:1014E00022C0E0C083C082C0D0E8C0E0E9C0E0EA2A
:1014F000C0E0EBC0E0EDC0E0EEC0E0EFC0E0D2AF96
:10150000E5DB30E41D9003DC12378CE4F0E5DB30E2
:10151000E10280389002C9E5DFF090034AE4F0026E
:101520001E5AE5DB30E5169002C612378CE06005E6
:10153000E4F0021E5A9003DCE4F0021E5A90034CC1
:10154000E4F0E5DB30E12EE5DB30E00FA3123754A9
:1015500012375D120BF4F5DF021E5A90034BE06464
:10156000086003021E5A308A03021E5AD28A900271
:10157000D1F0021E5A90034AE0700EA3E5DFF0900E
:10158000034A12378CF0021E5A90034BE090335AF4
:1015900093FFB4FF0F9002C9E5DFF090034BE00426
:1015A000F0021E54EF640F702F90034D12375490C9
:1015B000034BE0FF123793540F120C2190034D128E
:1015C000375490034BE0FF04F0123793FFE5DF54EC
:1015D000F04F120C21021E5490034D123754123753
:1015E0005DE5DF120C3390034BE0FDB4341990023B
:1015F000FCE09002B212376A9002FDE0FBEBFF9034
:1016000002B2EEF0A3EFF0EDB436149002FEE090DB
:1016100001F312376A9002FFE09001F312377290E3
:10162000034BE0B428189002F0E07F00FE900287A0
:10163000F0A3EFF09002F1E090028712377290036E
:101640004BE06418702E90034D123754900017121F
:101650000BF4FFB410149003DF7410F0900276E0E6
:10166000B40111E4F053AAF7800AEFB42006900306
:10167000DF7420F09002C8E004F075DBFFD0E0FFDB
:10168000D0E0FED0E0FDD0E0FBD0E0FAD0E0F9D031
:10169000E0F8D0D0D082D083D0E0329003CDEFF00C
:1016A0009003D17408F0E49003CEF01211F670327A
:1016B000121004C083C0829003CEE0FED082D0839B
:1016C000120E9B120ED012128F120F9AC083C0827C
:1016D0009003CEE0D082D083120ED1E4F0A3F002CA
:1016E000201E9003CDE0FF75F078120EAAC083C0D3
:1016F000829003CEE0FED082D083120ED11210C5AC
:10170000EFA4245CF582E5F03400120ECE121065D1
:10171000FE9003CFF0A3EFF0123E019003D1121020
:10172000184003021FA81212991211CA120F40E0AA
:10173000B401189003CD120F7E1210C5EE120EAA3E
:10174000120F8EECF0A3EDF0021FF79003CFE0FE36
:10175000A3E0FF120F95C083C0829003CEE0FCD0BF
:1017600082D083120ED112112EED120F9D1212642F
:1017700012106F4023120F95C083C0829003CEE0F9
:10178000FCD082D083120ED11211FDED120EAA12DE
:101790001264E475F001802A121124507A9003CD6E
:1017A000E0FF120F9AC083C0829003CEE0FED08289
:1017B000D083120ED11211FD120EA9120ED074FF99
:1017C000F5F0120CF2021FF7121004C083C08290D1
:1017D00003CEE0FED082D083120E9B120ED01212E6
:1017E0008FFF120FADF583C083C0829003CEE0FE61
:1017F000D082D083120ED1E0FCA3E0C39406EC6447
:10180000809480401275F078EF1211CDF583E58257
:101810002E120F457401F0121299FE1211CA120F06
:1018200040E064017018120F33E004120F32E0D36D
:101830009405400A9003CEE0FF120F18E4F09003E5
:10184000CEE004F0E0C394085003021E8B22E4FEB5
:10185000900035E0FFEEC39F40030221DC1211052A
:10186000E0640160030221D874D62E12105DE0FC02
:101870006003022102EE6401704E120FC3BF200309
:10188000D38001C34005E490029DF0900283E0FD07
:101890006401701B900282E090029DB40109E04453
:1018A000091210260480151210231212AA8016EDB8
:1018B00090029DB4020BE0440512102612123980EA
:1018C00004121023F0121247EE640260030221D1C9
:1018D000120FC3BF2003D38001C34005E490029DD3
:1018E000F0900283E0FD6401701C900282E090029F
:1018F0009DB40106121119E48021E044041210265F
:101900001212AA0221CEED90029DB40205E0440518
:101910008003E04404F0E4900036F090029CF00272
:1019200021CEEC640160030221D1EE6401706012EB
:101930000FC3BF2003D38001C34005E490029DF094
:10194000900282E0FFB4020B90029DE0440A121163
:101950001C8013EF640170269001E1E090029DB4B9
:10196000010C121119E490029C121239801EE044FD
:101970000212111CE490029CF0121210800E9002D0
:101980009DE0440212111CE490029CF0121247EEFA
:101990006402705D120FC3BF2003D38001C34005F2
:1019A000E490029DF0900282E0B4021390029DE068
:1019B000440AF090029C7401F0900036F0802F9061
:1019C00001E0E06401701C900283E090029DB4018C
:1019D00005E044098013E0440812102604F01212B6
:1019E0000F800B90029DE0440812102604F01212A2
:1019F00047121105E4F0C28A0E0220307F0522E46E
:101A00009003CEF0A3F09003D27403F02405A3F06A
:101A1000122EF2E49003CDF09003CDE0FFC39408C2
:101A200040030222FC120FD0121219120EA912103A
:101A300065FE9003D0F0A3EFF0123E019003D212A6
:101A40001018501D9003CFE004F0A3120F4D121098
:101A50006F400302229312112440030222D002227B
:101A6000B79003CEE004F01211F660030222D0908A
:101A700003D0E0FEA3E0FF123E019003D3D3121087
:101A800019401B9003CDE0FF75F002120EAAE0FC96
:101A9000A3E0FD120FD0ECF0A3EDF00222D09003F2
:101AA000D0120F4DE0FEA3E0FFD39464EE64809467
:101AB0008040199003CDE0FD75F002120F6FE4F045
:101AC000A3F0ED120FD1E475F0018021C3EF949CD7
:101AD000EE6480947F50199003CDE0FF75F0021200
:101AE0000F6FE4F0A3F0120FD074FFF5F0120CF2B8
:101AF0009003CDE0FF120FD1121219120EA912108D
:101B000065FE9003CDE075F002120FB0F583EEF0A4
:101B1000A3EFF09003CDE004F00221F89003CEE0B3
:101B2000C3940340028031C3900107E09404900104
:101B300006E064809480402690017FE09404900148
:101B40007EE064809480401690008FE094039000C3
:101B50008EE06480948040069001EA7401F0900366
:101B6000CFE0C3940540379001EAE06031E4FF1212
:101B70003BE4E4FF123928EF6029E49001EAF09099
:101B800003D4F0900035E0FF9003D4E0FEC39F50F3
:101B9000121211BFE4F09003D4E004F080E5E4FFFA
:101BA000123D92229001F9E0600302241B04F0E44C
:101BB000FF900035E0FEEFC39E5047EF25E0240B79
:101BC000F582E434301210B624CAF582E5F034010F
:101BD0001211EEEF25E024EBF582E4342F1210B65B
:101BE0001211DB1211EEEF25E0242BF582E43430E4
:101BF0001210B624D0F582E5F034011211EE0F0276
:101C000023919001C6A3E09002CCF09001C8A3E01C
:101C10009002CDF090027F1212889002FCF0EDA3AA
:101C2000F090000B1212889002FEF0EDA3F09002EB
:101C3000611212889002F0F0EDA3F09002CCE0FF68
:101C40007E009001C6E07003A3E06F60089001C6BB
:101C5000EEF0A3EFF09002CDE0FF7E009001C8E02F
:101C60007003A3E06F60089001C8EEF0A3EFF0905E
:101C7000027FE0FEA3E09002B21212506F7002ECFD
:101C80006E600890027FECF0A3EDF090000BE0FE98
:101C9000A3E09001F31212506F7002EC6E60089096
:101CA000000BECF0A3EDF0900261E0FEA3E0FF90EA
:101CB0000287E0FCA3E0FD6F7002EC6E600890020A
:101CC00061ECF0A3EDF09002CBE0B4AA031235AEC4
:101CD0009002E4E0B41007E4F090027404F0900283
:101CE000E5E07011A3E0B4100CE49002E5F0A374F9
:101CF00010F01237049002EFE0FFB4100BE49002F2
:101D000075F09002EFF08011EFB4200DE49002EF37
:101D1000F090027504F01229449002EEE0FFB41036
:101D20000FE49001F0F09002EEF090028404F022B3
:101D3000EFB4200EE49002EEF09001F004F0900277
:101D4000A1F02290039BE0FEA3E0FF900395E0FC4E
:101D5000A3E0C39FFFEC9EFE9003BAF0A3EFF090C8
:101D60000398E02FF0900397E03EF0E0FEA3E0FF41
:101D7000D3222FFFEC3EFEE0FCA3E02FFFEC3EFE63
:101D800022E490035AF0A3F0900356E0FFA3E0CFC3
:101D900090035CF0A3EFF0229003A1E0F8A3E0F938
:101DA000A3E0FAA3E0FB900395E0FEA3E0FFE4FCD0
:101DB000FDEB2FFFEA3EFEED39FDEC38FC9003A170
:101DC000120E0B9003A0E004F022900356E0FEA355
:101DD000E0FFE4FCFDF9F8C3020DE49003A5E0FC8C
:101DE000A3E0FDE4020B2190035CE0FEA3E0FFC34F
:101DF000900357E09FFF900356E09E2290039FE0E0
:101E0000FEA3E0FBCAEECAE4F9F8A3E0FCA3E0FD00
:101E1000A3E0FEA3E0FF22E490038EF0A3F0900382
:101E20005DE022E4900397F0A3F022900395E0FF99
:101E3000A3E090039BCFF0A3EFF0229003BCE0FE61
:101E4000A3E0FF90038FE02FF090038E2290039C7D
:101E5000E024FFF090039BE034FFF022F0902EC4CA
:101E60007408F0902EC37440F022E09003B8F09014
:101E70000351E09003B7F022C8ECC8C9EDC9CAEE1F
:101E8000CACBEFCB22759907902ECB74F4F0229F2A
:101E9000FFEC9EFE9003BCF0A3EFF022900356E00F
:101EA000FEA3E0FFE4FCFD22F0902EC67416F022A3
:101EB00024FFF090035CE034FFF02290035CE00428
:101EC000F022E0FCA3E0FDEC22C3EF94F6EE648088
:101ED000947F221225C7FE9003BAF0A3EFF0D390AF
:101EE0000280E09F90027FE09E40239003BAE0FED4
:101EF000A3E0FF123E01CCEECCCDEFCD90027FE00F
:101F0000C313FEA3E013FFD3ED9FEC9E5006900396
:101F100055E06013122C6C122C72122C6C1225C717
:101F20009003BAF0A3EFF09003BA12254B9400EEA1
:101F300064809480400280047E007F0090035AEE0B
:101F4000F0A3EFF0900275E0701390035AF0A3F045
:101F5000A3E0FFA3E0900356CFF0A3EFF09002744C
:101F6000E0700690028CE06010122561E49002742B
:101F7000F090028CF09001F5F090027FE0FEA3E07B
:101F8000FF90035AE0FAA3E0FBD39FEA9E404F90F4
:101F900003667401F0A3120E1700000000E4900322
:101FA0006BF090035504F0900392E0701890035D7D
:101FB000E02432FE90035CE03400900390F0A3CE66
:101FC000F0A37401F0900285E0705D9001F0E06094
:101FD000069002677401F0900285740180459000BC
:101FE0000BE0FEA3E0FFC3EB9FEA9E503BE49003AF
:101FF00066F090035CE0FFA3E0900390CFF0A3EFC6
:10200000F0E4A3F0900355E06002E4F0900285E074
:10201000B401159001F0E060069002677401F0E4ED
:10202000900285F0900263F0022B6C9001F2E024A4
:10203000FE60211460271470030228D51470030277
:1020400028E2240460030229439001F27402F0E4C0
:10205000900281F09001F27403F0022A5E122D4D7D
:102060009001E5E0606D900281E004F0E49003B936
:10207000F0900035E0FF9003B9E0C39F5055E4FFB6
:10208000120F7B1210C512127D120F8CECF0A3ED13
:10209000F0120F7B1210C5EE120EAA120F8EECF08A
:1020A000A3EDF00FEFB408D89003B9E0FF120FF5DD
:1020B000E4F0A3F0EFB40107E49002D4F0A3F0EF52
:1020C000B40207E49002D6F0A3F09003B9E004F064
:1020D000022851900281E0C39403500302294390E7
:1020E0000024747EF0E49001E6F0900281F090010B
:1020F000F27404F0221215C4EF60689001F27405C6
:10210000F0221234D1123CFB900037E070031234FD
:1021100058900276E07003122D4D1234D19001E5F3
:10212000E0603D1218561234D1E49003B9F09000EB
:1021300035E0FE9003B9E0FFC39E501912379C12A0
:1021400037E69003B9E0FF1231CE1234D19003B9D3
:10215000E004F080D9121ACD12202E9001F2EFF097
:1021600012312022122668902F58E0540F44F0902C
:102170002EC8122688902EC97428F0A3743F122608
:102180003C902ECC7448F09003527480F090035130
:102190007409F0A312264A9003517409F0A37480C5
:1021A000F0902EC5E4F0902ECDF0A3F0902E4C745C
:1021B00004F0902E4BF0E4900353F0A3F09003BA98
:1021C000F0122C729003BAE004F0E0C3940840F1DE
:1021D0001225687B507AC31225AA500C90035374C1
:1021E0004EF0A37420F080437BC87AAF1225AA502A
:1021F0000C900353743AF0A37498F0802E12267C4E
:102200007B407A9C1225B5500C9003537427F0A3A1
:102210007410F0801612267C7BB87A881225B5508F
:102220000A9003537413F0A37488F090035312259B
:10223000CAFEF0A3EFF0EE122570E4900392F09046
:102240000358E0FFA3E090035ECFF0A3EFF090030C
:10225000561225BEECC0E0EDC0E0EEC0E0EFC0E0FD
:102260009003581225BE122658D0E0FFD0E0FED0D1
:10227000E0FDD0E0FC120A7F900360020E0B7E01AD
:102280007FB67D007B017A007938120E5412383007
:10229000E49001F9F09002B2F0A37482F090027F12
:1022A000E4F0A37482F07C007D5AFF7E00120C558E
:1022B0007D64120C679001F3EEF0A3EFF090000B39
:1022C000EEF0A3EFF07C007D3C120C557D64120C07
:1022D00067900261EEF0A3EFF0900287EEF0A3EFBB
:1022E000F0122384E4FE900035E0FFEEC39F40032C
:1022F000022B57E4FF75F078EE120F6F120F8E125B
:1023000011FDEEA424BCF582E5F03400120F40E488
:10231000F075F078EEA424ACF582E5F03400120FED
:102320008CE4F0A3F0120F18E4F00FEF640870C50E
:10233000CFEECF123D83123D921211BFE4F0123D59
:10234000A1123DBF123DB0123DCE74D62E12105DCB
:10235000E4F0121105E4F09001DF747EF0E4A3F0E4
:10236000A3F0900282F0A3F074E22E1211E6E4F0E2
:10237000123D740E022AC6E49001EAF09001E8745E
:102380007EF0900024F0E49001E7F0229003BE7408
:1023900014F0A37432F090035CE0FEA3E0FF90031E
:1023A00056E0FCA3E0C312266F123E019003BEE08C
:1023B000FDC3EF9D7480F86E98502F12261B1225D6
:1023C000489464EE64809480400C1225F704F07009
:1023D0000312269B8011C3EF949CEE6480947F507F
:1023E000061225F7122690023DDDC39003BCE0647F
:1023F00080948050147F647E00123AB4123C98EFAF
:102400007003022C6B12256822123DDD900355E00B
:102410006059900280E0249EFF90027FE03402FE2B
:10242000D39003BDE09F9003BCE09E405E90035CB0
:10243000E0FEA3E0FF900390E0FCA3E012266F1201
:1024400026231225489432EE64809480400B122596
:10245000F704F0700312269B22C3EF94CEEE648043
:10246000947F50271225F71226902212261BE03E59
:10247000F0D3A3E0940A90038EE064809480400B34
:10248000E41225FB04F0700312269B22122C721218
:102490002C72122665122689902ECA743FF0902E57
:1024A000C9742812263C902E4C7402F0902E4BF0EA
:1024B000902ECE7410F0902EC57418F0902EC0742B
:1024C000C2F0902EC0E020E7F9902EC0E4F0902EEC
:1024D000CBF0902E18E0FEA3E0FF90038CE0FD25EA
:1024E000E025E0246CF582E43403F583EEF0A3EFFD
:1024F000F0902E16E0FEA3E0FFED25E025E0246E2F
:10250000F582E43403F583EEF0A3EFF090038CE062
:1025100004F0E05407F0E4FFFE90036CE0FCA3E05D
:102520002FFFEE3CFE900370E0FCA3E090037412DA
:10253000255290037812255790037C12255790035B
:1025400080122557900384E0FCA3E09003881225B5
:1025500052900353E0FCA3E0FDC3EF9DFFEE9C907F
:102560000356F0A3EFF030880375991722902ECB15
:1025700074F4F0E4FF74201211507438F0902EC3FC
:102580007480F074191210E2FDFCE5E220E20B0DFC
:10259000BD00010CBC07F3BDD0F0902ECEE4F0904E
:1025A0002E1A12120512100CECF0A3EDF07440126A
:1025B00011507428F0902E4E7408F074701210DCD4
:1025C000FCFDE5E220E20B0DBD00010CBC07F3BDF4
:1025D000D0F0902ECEE4F0902E1C121205A424D43C
:1025E000F582E5F03400F583ECF0A3EDF0902EC514
:1025F00074801211537428F0902E4F7408F07410E8
:102600001210DCFCFDE5E220E20B0DBD00010CBC6C
:1026100007F3BDD0F0902ECEE4F0902EC5F0902EB2
:102620001E121205A4244CF582E5F03401F583EC6A
:10263000F0A3EDF00FEF64086003022D559001E563
:102640007401F022758A50538AEF9003DB7411F005
:102650009003DA7422F09003DD7433F075996F758E
:102660009A90E4FFFEC29600000020970ED29600DA
:1026700000003097069003DB7487F00FBF00010E57
:10268000EF640A4E70DFE4FEFFC296000000209463
:102690000ED2960000003094069003DB7487F00F92
:1026A000BF00010EEF640A4E70DF7590FF75992F21
:1026B000759AD0000000000000000000E4FEFF302A
:1026C00094063096032097069003DA7487F00FBFC4
:1026D00000010EEF640A4E70E6758B03E4F58D750C
:1026E0008EFF758DE0F5AD75AEF075AF1DF5AC756F
:1026F00089FF75913C75990FF59675931CF59BF5BF
:1027000095F592F59A75800CC289D28A9003DE0401
:10271000F0229003D87405F0E49003D5F09003D52F
:10272000E0FFC394084003022FAE75F002120EA919
:10273000121219EF12100C121065FE9003D6F0A3BE
:10274000EFF0123E019003D812101850649003D697
:10275000E0FEA3E0FF9003D5E0FD75F002120F9DAF
:10276000EE8FF0120CF275F002ED120F9D12106F49
:10277000401C9003D5E0FD75F002120F9DE4F0A31C
:10278000F075F002ED120EAAE475F001801E121130
:102790002450329003D5E0FF75F002120F9DE4F053
:1027A000A3F075F002120EA974FFF5F0120CF2807E
:1027B000149003D575F00212100A75F002120EA4DF
:1027C000ECF0A3EDF09003D5E004F0022EFD220022
:1027D000320032000802580004003201F4003200D6
:1027E0000F0064000A0258000C000C0000000000FA
:1027F00000000000000000000101010B0C0D0E0F95
:1028000005060708090A04030001020050005000F1
:102810005000500050005000500050005000500038
:10282000500050005000500050005000550055001E
:1028300055005500550055005500550055005500F0
:1028400055005500550055005500550046004600FE
:102850004600460046004600460046004600460048
:102860004600460046004600460046002D002D006A
:102870002D002D002D002D002D002D002D002D00F0
:102880002D002D002D002D002D002DE49003BBF018
:10289000FF9003BAF0EF14601E14603514604C14FE
:1028A000605B240470749003BC7401F0A3742FF077
:1028B000A37458F00230F4123751900001120BF457
:1028C000FED3941F400312377B120BDB6E704B80DC
:1028D00043123751900002120BF4FED394064003CA
:1028E00012377B120BDB6E7031802912375190004A
:1028F00003120BF4FE120BDB6E701F8017123751A0
:10290000900004120BF4FE648B600312377B120BF1
:10291000DB6E70069003BAE004F00FEF640560030D
:102920000230759003BAE0B40504A37401F090037B
:10293000BBE0FD60079002DEE0547FF0CFEDCF22D8
:102940009001F0E0606A900267E06064900285E0C8
:10295000602A121147540FFFF0BF0803D38001C350
:10296000401290029DE0B40203D38001C34005E40D
:1029700090029DF090029DE044208028121147545F
:102980000FFFF0BF0403D38001C3401290029DE00B
:10299000B40103D38001C34005E490029DF090028E
:1029A0009DE04410F09002D1F0E4900267F0C28AFA
:1029B0009002A1E0B40118900263E0B4010C12117E
:1029C00045E4F07420F09002D1F0E49002A1F09080
:1029D0000284E06018900263E0B4010C121145E437
:1029E000F07410F09002D1F0E4900284F022CDEF68
:1029F000CD12109D120F0CE0FAA3E0C39FEA9E4097
:102A00003375F002ED120F0C1210ACA42444F582C1
:102A1000E5F03400F583EEF0A3EFF012109D120FF5
:102A20000CE0FAA3E0C39FFFEA9EFEED120FF5EE65
:102A3000F0A3EFF0ED6401701B75F002ED120FF8DA
:102A40001210FE9002D4F0EBA3F01210EF9002D817
:102A5000F0EBA3F0ED6402701B75F002ED120FF8BD
:102A60001210FE9002D6F0EBA3F01210EF9002DAF3
:102A7000F0EBA3F022122665E4F5E2902EC9742053
:102A8000F09003B8E0902EC3F09003B7E0902EC40E
:102A9000F0902E4C7402122688902EC57410F0EF20
:102AA000902ECEB401057410F08002E4F0902EC098
:102AB00074C2F0E4FDFCE5E220E20B0DBD00010C68
:102AC000BC07F3BDD0F053E2FB902EC5E4F0902E8E
:102AD000CEF0EF902E18B40109E0FFA3E09003932D
:102AE0008007E0FFA3E0900395CFF0A3EFF0902ED6
:102AF000CBE4F0308803759917220239D9E493A307
:102B0000F8E493A34003F68001F208DFF48029E49F
:102B100093A3F85407240CC8C333C4540F4420C8EB
:102B2000834004F456800146F6DFE4800B01020482
:102B300008102040809033DAE47E019360BCA3FF4C
:102B4000543F30E509541FFEE493A360010ECF54B7
:102B5000C025E060A840B8E493A3FAE493A3F8E4A6
:102B600093A3C8C582C8CAC583CAF0A3C8C582C812
:102B7000CAC583CADFE9DEE780BE00000000FFFFB0
:102B8000FFFF0000FFFFFFFFFFFFFFFFFF00FFFF52
:102B90000000FFFF000000FFFFFFFFFFFFFF00003E
:102BA0000000FFFFFFFFFFFFFFFFFFFF000000002F
:102BB0000000000000000000000000000000000015
:102BC0000000000000000000000000000000000005
:102BD00000000000000000000000000000000000F5
:102BE00000000000000000000000000000000000E5
:102BF000000000000000000000004103DC00410371
:102C0000DF10410281004101F100410276004101E3
:102C1000F000410275014102A1004102840041021D
:102C200063004102740041029D004101F90041022C
:102C30008500410267004100360041029C004102CC
:102C4000C3004101F5004102860041028C004100B1
:102C5000370041034A0041034B004202C4000041D7
:102C600002C6004102C8004102C70041034C0041B6
:102C700002C91041035000009002E0E0FF641060C0
:102C80006FEF6420706A9002E07430F07F011232BE
:102C9000559003B1E0FEA3E0FF900393E0FCA3E0B6
:102CA000C39FFFEC9EFECDEFCDFC120B217B667A1D
:102CB0006679487842120A7F7BE17A7A7914784003
:102CC000120885E4FBFA79C878421209769003B3BA
:102CD000120E0B9003B31225EB120B5ACDEFCDCC95
:102CE000EECCEC9002E2F0EFA3F09002E07410F072
:102CF000229001F5E014602514602C14604D24032B
:102D000070623088619001F57402F07F0B123D56BD
:102D100012081E9000377401F0759917222088461A
:102D200090028C7401F0227F0B1236B5EF60031213
:102D3000122B20883112122B9001F57403F09002AF
:102D4000867401F00F123D5602081E7F0C1236B534
:102D5000EF60137F0C123D569001F57401F0E49082
:102D60000286F02280FE22902EC0E4F0902ECB74DA
:102D7000F4F0902F58E0540F2450902EC8F0902E6D
:102D8000CC7448F0902EC97428F0A3743FF0902EB4
:102D9000407481121085121085041210857404F09D
:102DA000A37482F0A37402F0A3F0902EC67414F002
:102DB000902EC17490F0A37401F0A37420F0A3745A
:102DC00009F043E310123B04900035EFF02290032A
:102DD000BA7408F0A3E4F0A3743FF0A374DFF0E446
:102DE000FDFCF9758A10538AEF0000009003BAE0E9
:102DF000FEA3E0123782FF69F90DBD00010CBC375C
:102E0000EBBDDFE89003BCE0FEA3E0F5828E83E437
:102E1000936970089002CB740DF08005E49002CBAA
:102E2000F0758A50538AEF00000022C0E0C0F0C065
:102E300083C082C0D0E8C0E0ECC0E0EDC0E0EEC0EE
:102E4000E0EFC0E0D2AF9001F1E004F0C3940A409B
:102E500017E4F0120E8D2401FFE43EFEE43DFDE494
:102E60003CFC9002AE120E0BD0E0FFD0E0FED0E0B2
:102E7000FDD0E0FCD0E0F8D0D0D082D083D0F0D02C
:102E8000E0329003DFE064207047900275E0640157
:102E900070259002E17420F09002767401F0902E7B
:102EA000CBE4F043AA08123CBC758601758A5053E6
:102EB0008AEFE4F58D800B902ECBE4F0123D477540
:102EC0008601758B03758EFF758DE0902ECB74F4A3
:102ED000F0758DE0229003BAEFF0C3940D5042E0FC
:102EE000FF240D12115FE06038EF25E025E0241D7E
:102EF000F582E43402120E80120FE09003BAE0254E
:102F0000E024AFF582E4342FF583120EE6400F90F3
:102F100003BAE0240DF582E434021210D5227F00BA
:102F2000227F00227F007E08E4FDFC9003BAF0A31C
:102F3000F0758A10538AEF000000EF123782FB9081
:102F400003BBE02BF09003BAE03400F00DBD0001AC
:102F50000CBC37E6BDE0E39003BAE0FCA3E0FDEC77
:102F60009002E5F0EDA3F0758A50538AEF0000005F
:102F7000229003BCE0FBA3E0FAA3E0F92290034B0C
:102F8000E0FF04F08F82758300227F00FEF0A3EF44
:102F9000F022FDEDFFEEF0A3EFF0229003BB7401F1
:102FA000F0222DF582EE3CF583E493227401F0903B
:102FB000034C22E92FF9E43AFA020BDBCBEFCBEB1F
:102FC0007013120EF4E0900322F0120F08A3E090A9
:102FD000032312126BEB64017013120EF4E09003E2
:102FE0001AF0120F08A3E090031B12126BEB64029D
:102FF0007013120EF4E090031EF0120F08A3E0907D
:10300000031F12126B229003DEE0604390025F12F6
:1030100012A3949EEE9416500EEF94CEEE940E40B2
:10302000069003DD7487F09001EE1212A39412EE65
:10303000941F500EEF9442EE941740069003DD74F7
:1030400087F0E49003DEF09003DDE09002D0F02200
:103050007E007F807D007B017A0279CA120E54E4E3
:103060009002D1F09002CB740DF09002DC74ABF0C2
:103070009002DE7498F09003DBE09002CEF09003B3
:10308000DAE09002CFF09003DDE09002D0F0023061
:103090006B900261E0FEA3E0FFC390035BE09F90B2
:1030A000035AE09E5004E4F0A3F090035C1226A2C1
:1030B0009002F2F0EDA3F090035A1226A29002F4CF
:1030C000F0EDA3F09003561226A29002F8F0EDA3C3
:1030D000F0229003D6EFF0E0FF2421121175E0609A
:1030E00029EF25E025E02425F582E43400120E8046
:1030F000120FE0902FBB120EE6400F9003D6E02493
:1031000021F582E434001210D5227F00229003D6EC
:10311000EFF0E0FF24B4121180E06029EF25E025F4
:10312000E024B7F582E43402120E80120FE0902FF3
:10313000B9120EE6400F9003D6E024B4F582E434D1
:10314000021210D5227F00229003D5EFF0E0FF2479
:103150008D12118BE06029EF25E025E02490F582A7
:10316000E43402120E80120FE0902FBD120EE640E2
:103170000F9003D5E0248DF582E434021210D5229D
:103180007F00229003BCEFF0E0FF24F6121196E0DE
:103190006029EF25E025E024FAF582E43401120EDF
:1031A00080120FE0902FB1120EE6400F9003BCE0AA
:1031B00024F6F582E434011210D5227F0022900318
:1031C000BCEFF0E0FF249E1211B7E06029EF25E08C
:1031D00025E024A2F582E43402120E80120FE09062
:1031E0002FB5120EE6400F9003BCE0249EF582E45A
:1031F00034021210D5227F002212086653A87F12D3
:103200002E24123B2B43A880123DF5123D2F1208AD
:103210004E123CDEEF24E0600A2410700AC283C222
:10322000828004D283D28212238412366212280B47
:1032300080DF9003D6EFF0E0FF246412116AE060B3
:1032400026EF25E025E02468F582E43402120E80A2
:10325000902FB3120EDA400F9003D6E02464F5826B
:10326000E434021210D5227F00229003BCEFF0E07C
:10327000FF240E1211A1E06023EF25E025E02415C4
:10328000F582E43400120E80120ED7400F9003BC7A
:10329000E0240EF582E434001210D5227F00229043
:1032A00003BCEFF0E0FF241A1211ACE06023EF251D
:1032B000E025E02451F582E43402120E80120ED78C
:1032C000400F9003BCE0241AF582E434021210D5BA
:1032D000227F0022CBEFCBCAEECA900006E0701B23
:1032E0009000067401F0120E8DFF900007120E0B75
:1032F000CFEBCF90025DEAF0A3EFF022CBEFCBCA89
:10330000EECA90000DE0701B90000D7401F0120EDB
:103310008DFF900011120E0BCFEBCF90027DEAF0E3
:10332000A3EFF022902EC5E4F0902ECDF0A3F0FF95
:10333000FEEE902FCB93600D74892FF582E434025A
:10334000F583EEF00F0EEEB410E72290034D7401FA
:10335000F0A37402F0A374CAF0E4F5DA75DA40431E
:10336000DA2075D74075DA5843A90875B80875F89A
:10337000082290000DE0601D900011120E82120FC5
:10338000E090027DE0FEA3E0120EEC4008E4900025
:103390000DF07F01227F002212107D501E12116756
:1033A000E070181211677401F0120E8D1210CE2405
:1033B00068F582E43402F583120E0B2212107D5060
:1033C0001E121172E070181211727401F0120E8D3B
:1033D0001210CE2425F582E43400F583120E0B2260
:1033E00012107D501E12117DE0701812117D7401B3
:1033F000F0120E8D1210CE24B7F582E43402F5835C
:10340000120E0B2212107D501E121188E07018123D
:1034100011887401F0120E8D1210CE2490F582E402
:103420003402F583120E0B2212107D501E121193DE
:10343000E070181211937401F0120E8D1210CE2448
:10344000FAF582E43401F583120E0B2212107D503E
:103450001E12119EE0701812119E7401F0120E8D52
:103460001210CE2415F582E43400F583120E0B22DF
:1034700012107D501E1211A9E070181211A97401CA
:10348000F0120E8D1210CE2451F582E43402F58331
:10349000120E0B2212107D501E1211B4E070181281
:1034A00011B47401F0120E8D1210CE24A2F582E434
:1034B0003402F583120E0B22900006E0601BA3126B
:1034C0000E82120FE090025DE0FEA3E0120EEC40CF
:1034D00008E4900006F07F01227F00229003DCE0E8
:1034E000701BE4F58D758B02758EC1758DA0F58608
:1034F000438A84E5DB20E205758703000022E4FDB2
:103500009002C6E060119002CAE0FE54F0FDEE5455
:103510000FF0E49002C6F0CFEDCF22900275E0B438
:10352000010E900037E060051225618003122C72B5
:103530001226B30238719002AE120E17000000007E
:103540007E007F0D7D007B017A02790D020E547E94
:10355000007F617D007B017A037956120E54122997
:1035600044E4900350F022758B02E4F586F58D75E6
:10357000870300000022EFD3940D5008740D2F1222
:10358000115FE4F022EFD39403500874642F1211FA
:103590006AE4F022EFD39403500874212F121175BE
:1035A000E4F022EFD39403500874B42F121180E496
:1035B000F022EFD394035008748D2F12118BE4F096
:1035C00022EFD39403500874F62F121196E4F022E0
:1035D000EFD394035008740E2F1211A1E4F022EFE0
:1035E000D394035008741A2F1211ACE4F022EFD3D5
:1035F00094035008749E2F1211B7E4F022E4900057
:1036000006F090025DF0A3F022E490000DF090022D
:103610007DF0A3F0221235479001F27401F0022AE6
:103620005EEE30E707C3E49FFFE49EFE2200000049
:10363000000000000000000000000000000000008A
:10364000000000000000000000000000000000007A
:10365000000000000000000000000000000000006A
:10366000000000000000000000000000000000005A
:10367000000000000000000000000000000000004A
:10368000000000000000000000000000000000003A
:10369000000000000000000000000000000000002A
:1036A000000000000000000000000000000000001A
:1036B000000000000000000000000000000000000A
:1036C00000000000000000000000000000000000FA
:1036D00000000000000000000000000000000000EA
:1036E00000000000000000000000000000000000DA
:1036F00000000000000000000000000000000000CA
:1037000000000000000000000000000000000000B9
:1037100000000000000000000000000000000000A9
:103720000000000000000000000000000000000099
:103730000000000000000000000000000000000089
:103740000000000000000000000000000000000079
:103750000000000000000000000000000000000069
:103760000000000000000000000000000000000059
:103770000000000000000000000000000000000049
:103780000000000000000000000000000000000039
:103790000000000000000000000000000000000029
:1037A0000000000000000000000000000000000019
:1037B0000000000000000000000000000000000009
:1037C00000000000000000000000000000000000F9
:1037D00000000000000000000000000000000000E9
:1037E00000000000000000000000000000000000D9
:1037F0000000000000000000000000000000004287
:1038000000000000000000000000000000000000B8
:1038100000000000000000000000000000000000A8
:00000001FF
