:1000000054464953000100007C8501009CBEADE1CF
:1000100002060123151120184E4137300206013423
:10002000151120184E413730020601111511201804
:100030004E413730030000000000000000000000C7
:10004000544643530020000090750100000000005A
:1000500000C000200121000007210000092100004C
:100060000B2100000D2100000F2100001F210000C6
:100070001F2100001F2100001F210000112100008E
:10008000132100001F21000015210000974F0000E0
:1000900087500000192100001F2100008503002067
:1000A00019210000693400009F3400001F21000066
:1000B0001F210000BB4C0000192100001921000085
:1000C000B9490000192100001F2100001F21000074
:1000D0000000000000000000000000000000000020
:1000E0000000000000000000000000000000000010
:1000F0000000000000000000000000000000000000
:1001000000000000000000000000000000000000EF
:1001100000000000000000000000000000000000DF
:1001200000000000000000000000000000000000CF
:1001300000000000000000000000000000000000BF
:1001400000000000000000000000000000000000AF
:1001500000F010F8FEE7FEE7FEE7FEE7FEE7FEE749
:10016000FEE7FEE7FEE7FEE701480047FEE7FEE7A1
:100170001F21000000F002F800F040F80CA030C889
:10018000083824182D18A246671EAB4654465D4613
:10019000AC4201D100F032F87E460F3E0FCCB6469D
:1001A0000126334200D0FB1AA246AB463343184720
:1001B000E86A0100186B0100103A02D378C878C1D0
:1001C000FAD8520701D330C830C101D504680C6099
:1001D000704700000023002400250026103A01D3B8
:1001E00078C1FBD8520700D330C100D50B607047EF
:1001F0001FB5C046C0461FBD10B510BD034885469B
:10020000FFF7F6FF04F018F813F051FF00C00020CC
:1002100003B4FFF7F1FF03BC13F050FF70B50546C0
:100220000C46164602E00FCC0FC5103E102EFAD237
:10023000082E02D303CC03C5083E042E07D301CCFD
:1002400001C5361F03E021782970641C6D1C761EE1
:10025000F9D270BD7047002800D00120FE4909681E
:1002600008627047FC480068006A002800D001203E
:100270007047F94A800012688018FF30FF30023062
:1002800001607047F449800009684018FF30FF3072
:1002900002300068FF210131084070477047EF4984
:1002A00008707047ED4800787047F0B4EA4F3A683C
:1002B000526A3B681C691D460723DB01EE18336850
:1002C0000225002910D0002805D00121012805D0E1
:1002D00011281DD105E02A432C4319E00A430B43A2
:1002E00016E00A432B4313E0002804D0012805D070
:1002F00011280DD109E0AA43AC4309E05B085B007B
:10030000980705D15208520002E0AB439807F9D094
:1003100038684262386804613360F0BC704710B4DA
:10032000CD49024609680020496A002A11D0CA4C0A
:1003300007232468DB01E318012A0FD0112A06D114
:100340008907890F022902D01968890703D410BCD4
:1003500070478907FBD5012010BC70478907890FBA
:100360000229F9D01968C907F5D110BC7047F0B55A
:10037000B94C00212268116201682268116041684D
:1003800022685160816822689160C1682268D160EA
:10039000016922681161416922685161816922689D
:1003A0009161C1692268D161416A22685162816AA2
:1003B0002268D162C16A22681163016B22685163AD
:1003C000416B22689163816B2268D163C16B2268A3
:1003D0001165016C22685165416C22689165816CE0
:1003E0002268D165C16C22681166016D2268516670
:1003F000416D22689166816D2268D166C16D226867
:100400009167016E2268D167426E216880314A602F
:10041000826ECA60C26E4A61026F8A61426FCA61AF
:10042000826F0A62C26F8A62014680310B6822685D
:10043000C032D3614B6813628B68D362CA68256887
:10044000FF3501352A600A696A604A69AA608A69CB
:10045000EA60CA692A610A6A6A618A6AEA6122688C
:100460000323FF32FF32023213605360496B116184
:100470000146C0310B68D3614B6813628B685362CD
:10048000CB6807222668D201B21813600B6953604B
:100490004B6993608B69D360CB6913610B6A5361BD
:1004A0004B6A53628B6A9363CB6AD3630B6B0F22E5
:1004B00026689201B218944613604B6B53608A6BA6
:1004C00001262368B6029B191A62CA6B112623689B
:1004D000B6019B191A62C21DF932136809272668F2
:1004E000FF01F61933605368052726683F02F619A5
:1004F00033609668152327689B01FB185E60D668F9
:100500005E6116699E615669072327681B02FB1806
:100510001E6096695E60D6699E60166ADE60566AE5
:100520001E61966A5E61D66A1E62166B5E62566BCB
:100530009E62966BDE62D26B1A630A468032166840
:100540005E6356689E639668DE63D6681D232768DF
:100550009B01FB181E6016695E6056699E60966975
:10056000DE60D6691E61166A5E61566A9E61966A91
:10057000DE61D66A1E62166B1E63566B5E63966BF7
:100580009E63D26BDA630A46C03216680F2327686F
:10059000DB01FB189E605668DE6096681E61D668B7
:1005A0001E6212691A632E4A126A130A06D1AB69D7
:1005B00012071B091B01120F1343AB61C369274AC2
:1005C0001370002353700068C00701D002205070E0
:1005D000086BC00703D0507801231843507020687F
:1005E00000682368400840001860604600684308BF
:1005F0005B006046036088694005400D5080F0BD97
:10060000164948707047144800680068C007C00F5A
:10061000704711480068406A01210904084070478A
:10062000F8B504460C480068456AA00702D50220C8
:10063000054301E002208543E00773D00120054314
:1006400001F0A9F8064601F0A9F801460248006841
:10065000406A01231B0405E0BC7E01009C080020C9
:10066000C0FE0300184201D0084601E030460E46A5
:10067000FA4A07211268C90151180028086802D0F7
:100680000122104301E04008400008600868002E85
:1006900002D00222104301E0022290430860F04A97
:1006A00050788446C0075BD0EE4F50883A68526C51
:1006B00001231B041A433B685A643A68926CE74F63
:1006C00096050F233F68B60DE74A9B01FB18E54FDF
:1006D0003F68BF6CBF05BF0DB74202D1521EF6D1B5
:1006E00021E0002A1FD040006246D20703D01A68DA
:1006F000012632431A606246920706D5D74A13682C
:100700001B6801261268334313600122D202904213
:1007100000D9501ECA684005D20AD202400D0243D9
:10072000CA601DE013E0CD4A1E68760876001E60A0
:1007300013681B6812685B085B001360C94A136882
:100740005B6C012636041268B3435364DDE7C3488B
:100750006D0801686D00096800684908490001607A
:10076000BE4A106845621068006927218843210746
:1007700001D50421084361070029B949097808DA3D
:10078000082903D91368491CD96104E001210843F1
:1007900001E01368D961A10701D502210843E107EF
:1007A00001D02021084311680861F8BDAB4A002040
:1007B0001168496A8907890F022945D0F0B4A74911
:1007C0000A68D26A0B68D201D40D1D2292019A18D0
:1007D000126AA34BD2075E880B680721D20FC901AA
:1007E00059180B68DD070B68ED0F02273B40002D01
:1007F00011D09A4D2868C06BC005C00D002A04D0E6
:100800002D68ED6B6D046D0F00E000254F68BF068D
:10081000BF0EA840C019002B10D0904D2B68DB6B89
:10082000DB01DB0D002A03D02A68D26B5200520F85
:1008300049688904890E9340181840181E21704396
:100840004C432018F0BC70477047F0B4834F002031
:100850003968496A89073BD539680D6904210D401B
:1008600039680E6902210E4039680969CC07396878
:10087000E40FC96ACA053968D20D096BCB0539681E
:10088000DB0D896BC905C90D002D03D03868806B5D
:100890000002000E002E14D01D263D68B601AD19D1
:1008A0002D6A3E68ED07F669ED0FB606B60E002D0F
:1008B00003D03D68AD6B6D046D0F0F46AF407743BD
:1008C0003818002C00D040181E2158434A431018F5
:1008D000F0BC704770B561480168C9680068CC0613
:1008E0004069E40EC504ED0CFFF760FF0646FFF714
:1008F000ACFF65431E214D4330187D214019C900CE
:1009000048435A4913F0E1F870BDF8B5534E074615
:100910003068C068C406E40E00D10124FFF746FF2A
:100920000546FFF792FF2D18002F1BD0394650487F
:1009300013F0CBF8A8420BD921461E22401B51438D
:1009400013F0C3F801214903884202D9481E00E090
:10095000002031684969C004490B4903C00C0143B8
:1009600030684161306840691E21C004C00C60439A
:10097000484341193E4813F0A8F8F8BD70B5374810
:100980000168C9680068CD064069ED0EC404E40C36
:10099000FFF70CFF0646FFF758FF01466C431E2089
:1009A0004443A0194118324813F08FF870BD2B4909
:1009B0000A685269D3040A68DB0C5269C004520BFE
:1009C0005203C00C0243086842611846704723482E
:1009D00000684069C004C00C704710B5002807D0FB
:1009E0001F484188234813F070F8401C400810BD90
:1009F0001A480068006BC105C90DF3E7F8B51D4E34
:100A00000546304613F061F8401C44082146304644
:100A100013F05BF8401C430810481D220668920141
:100A20006108B218002D27D00D4E0F27748006687C
:100A3000A51FBF01F6193668F60700D0640001262D
:100A4000F602B44200D9741E090421430068072449
:100A5000E4010019C160D5631846F8BDBC7E0100F1
:100A60009C080020B87E0100E703000030750000FC
:100A700000389C1C60EA00008E1FB51F090421434A
:100A800004682163006801218902401806629563A9
:100A9000E2E7FD49012804D01128086806D0806BE0
:100AA00001E00868C06BC005C00D7047C06BC00195
:100AB000C00D704730B4F44C0F222568D2010307F3
:100AC000AA18002B1DD0D268CB058A1AEE4D1D2125
:100AD0002D688901921EDB0D6918012813D0112899
:100AE000206820D0806B400A400218432368986336
:100AF000086BD205400A4002D20D1043086330BC97
:100B000070479268E0E72068C06B400A40021843D3
:100B10002368D863486BD205400A4002D20D1043C7
:100B2000486330BC7047C06BD84D1B042840184345
:100B30002368D863486BD2052840D2091043486324
:100B400030BC704710B4D04A116880314B69FF2423
:100B50000134234001280AD0112848690DD01168BA
:100B6000C0B2896BC905C90D002B0ED10CE04869D4
:100B700011680002000EC96BF4E711680002C96B2E
:100B8000000EC901C90DEFE70020081A0004000C8F
:100B900000D1012010BC7047BB4910220028086812
:100BA000406A03D00968104348627047096890435F
:100BB0004862704710B4B4490868406A10229043F4
:100BC0000A685062002002460C6883001B191A65EF
:100BD000401C0828F8D310BC70478207830810B463
:100BE000A948D20E00689B001818036DFF2494409A
:100BF000491CC9B2A34391400B43036510BC704725
:100C0000A14B82081B689200D218126D8007C00E9B
:100C1000C240D0B2491C884201D102207047002056
:100C20007047994800688030006A704796481021E4
:100C30000068FF30FF30023001617047924A12684D
:100C40008032002805D0012805D0112800D1D161BB
:100C5000704751607047916170478B49024609683F
:100C600000208031002A05D0012A05D0112A00D1A8
:100C7000C8697047486870478869704710B4824AED
:100C800001461D2413680020A4011B191B6ADB0701
:100C9000DB0F0BD0012905D01068112908D0806B1B
:100CA000400407E01068C06B4004400F10BC704760
:100CB000C06B400010BC400F704730B4724B1D2217
:100CC0001C689201A218146A01252C4314624A0779
:100CD0000724520F24031103012809D01128186892
:100CE0000ED0806BA04308431968886330BC7047FE
:100CF0001868C06BA04308431968C86330BC7047CC
:100D0000C06B072109078843110708431968C863A6
:100D100030BC70475C4902460B681D2100208901E8
:100D200059180B6ADB07DB0F08D0012A03D0112A00
:100D300005D0486900E0C8694007400F7047C8699E
:100D40004003400F704710B44F4B4A071D241968E9
:100D5000A401520F0919012808D011280DD04869A3
:100D6000C008C0001043486110BC7047C869C00883
:100D7000C0001043C86110BC7047C86907231B043A
:100D8000984312041043C86110BC7047042943D82B
:100D900070B53D4C1D23266800229B01F3181E6A86
:100DA0000546F607F60F0FD0012806D02068112D52
:100DB00007D0806B4004420F06E02068C06B4004FF
:100DC00001E0C06B4000420F1E6A2C460020F6076F
:100DD000F60F0CD0012C03D0112D05D0586900E07E
:100DE000D8694007400F02E0D8694003400F891AD4
:100DF0004418042C03DD091B091D042403E0002C06
:100E000001DA0919002451182846FFF756FF214638
:100E10002846FFF798FF70BD70471B491D230968DE
:100E20009B0101221204C9180028086A01D010434E
:100E300000E090430862704713491D230968024689
:100E40009B010020C918002A06D0012A06D0112AC9
:100E500001D18869000C7047086900E0886980B298
:100E60007047094902460B681D2100208901591865
:100E70000B6ADB07DB0F0ED0012A09D0086A112AA2
:100E80000AD0C00506E00000BC7E0100FFFF00FEA6
:100E9000086A8005C00F70474005C00F70470246C2
:100EA00093480168FF31FF310231C869C007C00FA4
:100EB000002ACA6902D001231A4301E052085200F5
:100EC000CA617047F8B5074606980C46022A02D355
:100ED000921E560800E00026022B02D39B1E5D08DE
:100EE00000E00025142112F0F0FD02468048012F99
:100EF00004D00068112F05D07E4901E000687E49CA
:100F0000401801E07D494018016803231B069943FE
:100F1000A3079B0919430F231B04994333071B0B9A
:100F200019430F231B0299432B071B0D1943090A71
:100F30000902D2B211430160F8BDF0B46C4E07242F
:100F400037682402049D3C19012803D0112803D0DE
:100F5000606A05E0606B03E01D24A4013819406855
:100F60008401A70F0403260F0405240FC0B2002933
:100F700000D00F60002A02D07100891C1160002B84
:100F800002D06100891C1960002D02D01421484351
:100F90002860F0BC7047F3B591B0002401270D46DE
:100FA0007F036E4601E0082C08D2601C81004118C6
:100FB0000120800312F089FD401B06E0E01F810044
:100FC0004118384612F081FD401B002800DA4042EB
:100FD000A100641C7050102CE5D30023009A01205E
:100FE00081007158914201DA0A460346401C1028DC
:100FF000F6D311983E49012805D01128086807D07A
:10100000E521C90002E00868E721C900411802E0B3
:10101000E921C90041180A680B60082A05D2521C50
:10102000900011180120800303E0D21F90001118D6
:10103000384612F04AFD13B0F0BD10B52C4A072116
:10104000136809025918012803D0112803D0886AAF
:1010500005E0886B03E01D21890158188068082885
:1010600005D2401C810041180120800304E0C01F0C
:10107000810041180120400312F027FD10BD000738
:10108000000F01280DD11A48072300681B02012216
:101090001204C0180029416901D0114300E09143B6
:1010A00041617047014609070020090F012908D155
:1010B0000F4907220968120289184969C90300D536
:1010C000012070470A490A680721C90151184A6A74
:1010D00048621046704710B4054A0724136824027A
:1010E0001B1998601068C030016210BC7047000086
:1010F000BC7E010024070000340700004407000004
:1011000010B5FFF7AFF810BD10B5FFF7ABF8012829
:101110000AD10020FFF79FF803210020FFF7A9F86C
:1011200003210120FFF7A5F810BD10B5FFF792F8D5
:10113000FFF798F801280AD10020FFF78CF8032167
:101140000020FFF796F803210120FFF792F8012114
:10115000052001F040FB0121052001F03CFBF8498E
:101160000020487010BD10B5602001F085FB6020A4
:1011700001F075FB10BDF24A0146507A002800D0FC
:101180000120002900D0012151727047EC4A916979
:10119000906108467047EA4800210172C1717047AA
:1011A000E74800210172C1717047F3B50007BBB079
:1011B000000F3B904000801E002501903B992801C4
:1011C00008430090FFF7ABF800283ED02846702275
:1011D00050433C9A0021841838224A43A3187022B5
:1011E00000204A4302AE9219460087009E5B401CD5
:1011F000D6511C28F8D3491C0229EDD30098FFF7DB
:101200003DFD012686400098FFF716FE0024009061
:10121000002E1AD901980721401909024843C949EB
:1012200009684718702060433918C74870220818A9
:101230000099E140C907C90F514302AA89187022D9
:10124000FEF7ECFF641CB442ECD36D1C022DB5D349
:101250003DB0F0BDF8B50446FFF724F80546002080
:10126000FFF7FBFC8446012200209203002D17D9D2
:10127000702603467343B34E002136689F1901233D
:101280008B406646334205D08E00BE192388B618BF
:10129000A41C3360491C1C29F1D3401CA842E7D38D
:1012A00070204543A748702100682818801812F064
:1012B0000AFCF8BD10B5A2494861FFF7B1F910BDAD
:1012C00010B5A24801688968A14A1143026891607B
:1012D000016809689F4A00681143016000F0B8FD89
:1012E00010BD70B5994A064610680C46816898484A
:1012F00001431068816010680068964908431168CE
:10130000086000F0A5FD8E4D002C34D00020FEF7C3
:10131000A2FF2068002804D0FFF729F80020FEF77C
:101320009AFF30466E61FFF77BF90020FEF7F7FF6A
:10133000002810D06068002801D0FFF78BFFE1681B
:10134000002908D07F4803230068FF225B03013295
:10135000C018FEF763FF0120FEF7E1FF002804D16B
:101360001120FEF7DCFF002805D0A168002902D07B
:101370000120FFF71AFF00202872E871A861687A3F
:1013800000206872602001F077FA602001F067FAAF
:1013900070BD10B50020FEF75EFF00F03EFD6B480B
:1013A000016809686C4A890889000368114319605B
:1013B000016889680223994300681143816010BD68
:1013C00010B5602001F04FFA10BD10B5602001F09B
:1013D0004AFAFEF747FF01280AD10020FEF73BFF3B
:1013E00003210020FEF745FF03210120FEF741FF06
:1013F0005A480168496C0122120400689143416413
:101400000020FEF728FF00F008FD50480168096839
:10141000514A890889000368114319600168896885
:101420000223994300681143816010BD444840691C
:10143000704743480078002800D00120704770B5FD
:10144000FEF710FF00280FD13D4D00242C72EC71E7
:1014500003212046FEF70DFF03210120FEF709FFBF
:101460002C700120FEF7F7FE70BD10B5FEF7FAFEF6
:1014700000280DD1324C2072E0710321FEF7F9FEF5
:1014800003210120FEF7F5FE01202070FEF7E3FEA8
:1014900010BD10B50020FEF7DEFE10BD10B52849C6
:1014A0000020C8710120FEF7D6FE10BD2449C86196
:1014B00070472348C069704770B5214C0025E0692A
:1014C000401CE0612078002802D00020FEF7C3FE17
:1014D00002212846FEF7CDFEA169002901D0284649
:1014E00088471F48016820221143016070BD70B514
:1014F000134C0125E069401CE0612078002802D0EF
:101500000020FEF7A8FE02212846FEF7B2FEA169E0
:10151000002901D02846884711480168202211433C
:10152000016070BD0F4870470F4870470448006A5B
:1015300070470348406A70470148806A704700005E
:10154000A0080020D47E0100704E0000C47E01007F
:10155000020034120300341200003412B87E01007D
:10156000D0080020B80A0020D50A0020F0B40025D9
:10157000F94F87B09C466C1EF84B7C5500265E5593
:101580006D1C1D2DF8DB0025002804D9565D7E5505
:101590006D1C8542FAD300221546002813D9BE5689
:1015A000002E0DDB012E01DA264604E0092E01DAB9
:1015B000133600E0093E1C2E02D20123B3401D4326
:1015C000521C8242EBD3002216466C460123934004
:1015D0002B4202D0A654761C02E00023DB43A35426
:1015E000521C1C2AF2DB0022002816D9DB4E551EA5
:1015F000BB56002B0EDB012B01DA2B4604E0092B36
:1016000001DA133300E0093B1C2B02D2E35CB35434
:1016100000E0B554521C8242EAD30023D04A00288D
:1016200013621A4609D9CD4DAE56964202D0CC4827
:10163000056202E0521C8242F6D30020C94D461ECC
:10164000C94F2E540022C94B3A541A54401C1C282E
:10165000F6DB0020002905D96246125C2A54401CA2
:101660008842F9D30020024600290AD9AB56002B44
:1016700004DB1C2B02D201279F403843521C8A42B4
:10168000F4D300221346012637469740074202D082
:10169000A3545B1C02E00027FF43A754521C1C2AE2
:1016A000F1DB002200290AD9AB56002B04DB1C2BEE
:1016B00002D2E75CAD4B9F54521C8A42F4D3002205
:1016C000A74B00299A6209D9A84B9F56974202D08E
:1016D000A34A936202E0521C8A42F6D3CA0706D09C
:1016E0001B223346934003420BD0521EF9D50022F1
:1016F0001346571E01269640064206D0A3545B1C93
:1017000004E0334693401843F1E7A754521C1C2AC7
:10171000F0DB002000290AD9934B2A56002A03DB6C
:101720001C2A01D2A25C1A54401C8842F5D3002026
:101730008B4B0029586204D98B4A1456844203D03B
:101740005A6207B0F0BC7047401C8842F5D307B01E
:10175000F0BC70478721C90048438549401870474D
:101760005E21484383494018704710B47C4C012BDC
:10177000A070E17003D9401C40084000114641436D
:1017800020714900A1814000E08110BC7047744A7B
:1017900050719171704772488079704770484079F4
:1017A0007047754A1070517070477349085C7047F4
:1017B000F8B56B4D0446687A002802D1E87912F03A
:1017C00002FD287A00281ED000266869334632467A
:1017D0003146870707D5664E470704D5AB8937469C
:1017E0005B085B00DB19C70704D0C00601D561495F
:1017F00000E0604AE8696660A360E2602161206001
:10180000002060610120F8BD554900200872704732
:10181000F8B50446FEF746FD00900020FFF71DFADC
:10182000054600990020002919D90126B703702325
:1018300002465A43514B00211B68D31832468A4056
:101840002A4205D08A009A18D21912882280A41C34
:10185000491C1C29F2D30099401C8842E7D3F8BDEB
:10186000F8B5FEF71FFD00900020FFF7F6F900998C
:10187000002200291FD90125AE03FF273F01702454
:10188000134663433D4C002124681C192B468B40B2
:10189000034209D08B00E3189B191B881B051B0D05
:1018A000BB4201D90020F8BD491C1C29EED3009988
:1018B000521C8A42E3D30120F8BDF3B50007000FA4
:1018C00081B00025019001982E0106433046FEF7B5
:1018D00026FD00283BD03046FFF7D0F90124844094
:1018E0003046FFF7A9FA84462846702148430299FA
:1018F00000224018009007212846090248431F494A
:101900000968401886460026002C08D96046F04039
:10191000C007C00F904202D0761CA642F6D3A64262
:1019200012D23821009851434318702700217E437A
:10193000704680198E008719114EBE194F00368EE1
:10194000491CDE531C29F5D3521C022ADBD36D1C23
:10195000022DB8D303B0F0BDB80A0020F10A002070
:10196000A0080020D50A00200E0B00202A0B002022
:10197000480B0020800F0020AA080020D47E010020
:10198000404E0000F1B5000782B0000F0290400009
:10199000801E002400900298270107433846FEF776
:1019A000BEFC002830D03846FFF768F90125854095
:1019B0003846FFF752F90022002D25D90099072358
:1019C00009191B025943D24B1B68C9188C46702356
:1019D000002153436646F61801238B4003420DD085
:1019E0008B00F718CB4BFB181B8E1F05FF233F0DF9
:1019F0001B019F4202D9002003B0F0BD491C1C29E5
:101A0000EAD3521CAA42E2D3641C022CC3D30120A5
:101A100003B0F0BD70235943BD4B80001B68C9184B
:101A20000818012189034018026070477022514351
:101A3000B74A8000126889180818012189034018E4
:101A4000008880B27047FFB5B1480D46006801219B
:101A500083B0890340181F4616460C9C0190FEF780
:101A600001FC0090002802D00020FEF7F4FB0020CB
:101A7000FFF7F3F88446E8198646A84219D92846A4
:101A800070225043019A00218718039B0AE001222B
:101A90009A406046024204D022889800A41C3A5022
:101AA000491C5B1CB14201D21C2BF0D36D1CAE450E
:101AB000E5D80098002805D097490020C87101207A
:101AC000FEF7C9FB07B0F0BDFFB5074690480E46CC
:101AD0000068012183B0890340181C460C9D0190C9
:101AE000FEF7C0FB0090002802D00020FEF7B3FBF9
:101AF00030198446B04218D90598884B3A183046B8
:101B00007021484301993C46411807E018571C28AA
:101B100003D28000085A2880AD1C641CA24201D95F
:101B20001C2CF3D3761CB445E9D80098002805D0C6
:101B300079490020C8710120FEF78DFB07B0F0BD88
:101B4000F8B5734A012312689B03D71800280C4686
:101B500027D001070006090F060F012920D1022E08
:101B60001ED2FEF77FFB050002D00020FEF773FBBC
:101B7000072000024643F71900233926B60118460C
:101B80007021002248433818910041188919521CCD
:101B90000C631C2AF8D35B1C102BF0D3002D16D13C
:101BA000F8BDFEF75FFB050002D00020FEF753FBF7
:101BB0000020702100224143C9199300521CCC50CF
:101BC0001C2AFAD3401C2128F3D3002DE8D0524917
:101BD0000020C8710120FEF73EFBF8BD10B5FEF7EE
:101BE000B1FF4D49088210BD70B504460F204A4927
:101BF000000225460540098AE0B2884200D908461D
:101C00006422504311F061FF290A642251430818ED
:101C100080B2E10401D500B270BD404200B270BD97
:101C2000002803DA404281B2002002E081B20120A4
:101C300000030F2212020A400243C8B23649098A41
:101C40004843000A1043704710B50020FEF7A4FF78
:101C500010BD10B5FFF7E1F810BD70B50020FEF71C
:101C60009BFF2B480122006892032D49801811F038
:101C70002AFF0020FEF79BFE00210846FFF71DF813
:101C800000210120FFF719F800211120FFF715F8B6
:101C900000210846FFF757F800210120FFF753F80D
:101CA00000211120FFF74FF80120FEF796FE0446B1
:101CB0000120FEF7EEFE06461120FEF7EAFE05467D
:101CC000A64200D92646A54200D925463146012024
:101CD000FEF7F0FE29461120FEF7ECFE0020FEF78D
:101CE0008FFC70BD10B50C4902204861FEF798FCCE
:101CF000FEF760FF064801220068E7219203090110
:101D0000801811F0E0FE0020FEF751FE10BD00002B
:101D1000D47E0100404E0000A0080020D50A00201B
:101D2000701C0000F0B46049012482B0002802D089
:101D30000020087000E00C705C4E306800685C4A5F
:101D40001043326810600A785A4D5B4B002A0ED05F
:101D500019685A48C86019685948886018688068C6
:101D60001821084319688860012000900EE0196866
:101D70005448C860BB2019684004886011E0019590
:101D80000198411E01910028FAD10098411E00914E
:101D90000028F4D1186880680121090308431968F4
:101DA00088600120009006E001950198411E019194
:101DB0000028FAD10098411E00910028F4D118683B
:101DC000C068302108431968C86018688030016B0A
:101DD00021430163009405E0019501994F1E01978D
:101DE0000029FAD100994F1E00970029F4D11968F3
:101DF000CC6707211B680902196100218160002A54
:101E000000D0446130680068042188432E490843AB
:101E10003168086002B0F0BC704727480168C968A3
:101E2000302291430268D1601F490978002905D00A
:101E300001688968254A0068114081601B4908686B
:101E4000006804229043204A0968104308607047E4
:101E5000164801680968164A006811430160124873
:101E600001781548002905D001688968184A11438E
:101E7000026891600168C968302211430268D1602C
:101E800000688030016B0122114301637047000636
:101E90001049000C0843084909680864704706495E
:101EA0000D48096808647047CC080020C47E010012
:101EB00004003412E2040000C07E01000576010037
:101EC0002000760105F4010000003412E7EFFFFF67
:101ED0001810000013005FA000005FA010B453486A
:101EE00051490268916103688A1CDA6103684A1CDF
:101EF0005A6303681B6804689B089B000B432360BC
:101F000003685B695B085B000B4301684B61016818
:101F100009691143026811610268454991600068CE
:101F20004449C16044490020086010BC704770B546
:101F300001F0C2F8404D2C68002C05D0002028602C
:101F400001F0BFF8204670BD30BF00F028FD00282A
:101F5000F1D000F037FD6860EDE7F8B501F0ACF8BE
:101F6000314F324E344D2C68002C05D000202860B3
:101F700001F0A7F82046F8BD72B6306847633168B3
:101F80002E48886120BF31688F613168486362B62E
:101F9000BFF36F8FBFF34F8F00F001FD0028E2D039
:101FA00000F010FD6860DEE72048016809681E4AFD
:101FB0008908890011430268116002682049916014
:101FC000016809691D4A00681143016130BF70470B
:101FD00072B615491548026851630268C91CD1617F
:101FE0000068891E816162B67047104801680968FF
:101FF000144A00681143016070470C480168096881
:10200000094A89088900006811430160704772B667
:1020100005490648026891610268891CD16100681F
:10202000491E416362B6704700003412C47E01004D
:102030003C00341228003412D00800200100341271
:1020400008003412030034127047002800D0012029
:10205000A5490968486070470022002907D908C8C7
:102060005B1C01D000207047521C8A42F7D301202C
:10207000704770B400242346002A0FD920C89E0060
:102080008E59B54201D0641CA4B25B1C9BB2934232
:10209000F4D3002C02D070BC0020704770BC01202B
:1020A0007047F8B5054601F011F800208E4E07463E
:1020B0003268212111602F60316809680422336879
:1020C00011431960316809681142FBD1412132681E
:1020D0008901116040232C46002104CC521C07D0FA
:1020E00031680F60401CC0B20828E1D30220F8BD5F
:1020F000491C9942F1D3306807600120F8BDF8B55A
:10210000054600F0E3FF0020774E074632680921BC
:1021100011602F6031680968042233681143196027
:10212000316809681142FBD101239B022C46002132
:1021300004CC521C07D031680F60401CC0B2032889
:10214000E4D30220F8BD491C9942F1D330680760FE
:102150000120F8BDF3B581B00420009000F0B6FF77
:10216000614E022031680860029901980F220B46E7
:10217000B8CBB8C0103810301031521EF7D23068CA
:10218000006804210843316808603068006840072F
:1021900005D500BF00BF306800684007F9D431683A
:1021A00000200860029901980F22034678CB0F683F
:1021B0009F4208D14B68A34205D18B68AB4202D144
:1021C000CB68B3420BD00098401E0090401C03D057
:1021D0000198FFF766FFC1E7022003B0F0BD1030A1
:1021E0001031521EE1D2012003B0F0BD70B50D4692
:1021F000044600F06BFFFF22013221462846FEF71D
:102200000DF8012070BDF0B505460006C5B01446B6
:102210000E46000E27D0280A000204A90090029161
:10222000019000F053FFFF2701373A4601990298C9
:10223000FDF7F4FFE8B23F1AA74200D9274604A9E8
:1022400008183A46314611F0D6FB0098FFF729FFEF
:10225000022842D004A90098FFF77CFF02283FD053
:10226000ED19F619E41BFF2C19D9FF2701373A465F
:10227000314604A811F0BFFB2846FFF712FF0228E1
:102280002BD004A92846FFF765FF022828D0FF3588
:10229000FF36FF3C01350136013CFF2CE7D8002C0E
:1022A00018D004AF00F012FFFF2201322946384651
:1022B000FDF7B4FF2246314604A811F09CFB2846E6
:1022C000FFF7EFFE022808D004A92846FFF742FFD7
:1022D000022805D0012045B0F0BD0A2045B0F0BD70
:1022E0000B2045B0F0BD0000A87E010010B52B49C1
:1022F0000A6810600968086100F019F810BD10B58F
:1023000026490A6810600968486100F010F810BD9D
:1023100022490968486770472049096888677047FB
:102320001E480121026811660068016570471C4A59
:102330001168096BC30702D003239B0399438307EA
:1023400005D503231B03994301231B0319434307AB
:1023500003D503239B0299431943030703D50323A2
:102360001B0299431943C30602D5C023994319435D
:10237000830602D5302399431943430602D50C2323
:1023800099431943000603D58908890003200143B6
:10239000044801431068016370470000B07E0100EB
:1023A000B87E010000005FA0E24801688A68E24947
:1023B00003680A439A600268D2680A430168CA60E7
:1023C00001684969DD4A006811434161704710B4F2
:1023D000D84801684969DA4B49084900026819433D
:1023E00051610168C9684022914304681943E16062
:1023F00001688968006891431943816010BC704787
:1024000010B5CC4C20688168CB48226801439160AC
:102410002168C96801432068C16020684069C749D4
:10242000084321684861C7483F210268D1600068BD
:102430000021816303210A2000F0CDF90A2000F079
:10244000EBF920684069BE4A40084000216810430B
:1024500048612068C0684021884323681043D860E1
:1024600020688068884321681043886010BDB54AA1
:102470001368186013685960484311688860704792
:10248000B04A13681860136859604843C10700D008
:10249000401C116888607047AA490A689063086800
:1024A000C068022209681043C860704730B4A54C68
:1024B0002568286220684162206882622068C362C1
:1024C0002168012008632068406BC10707D000BF66
:1024D00000BF00BF00BF2068406BC107F7D1800775
:1024E00030BCC017704797480168C968022200686D
:1024F0009143C160704793480168C9680122006830
:102500001143C160704710B48E4B1C68206218687C
:102510004162186882621968012008641868406C7A
:10252000C10707D000BF00BF00BF00BF1868406CE4
:10253000C107F7D14007800F01D00020C04310BC75
:10254000704780480168C968006849084900C1604F
:1025500070477C480168C968042200681143C16063
:102560007047027C017B9206920A1143754A1368F8
:102570009965136801685962136841689962136824
:102580008168D9621368012119651168496DCB070B
:1025900007D000BF00BF00BF00BF1168496DCB0767
:1025A000F7D11368DB6D83821368DB6D1B0CC3826C
:1025B00013681B6E038313681B6E1B0C4383136825
:1025C0005B6E83831268526E5200520CC28388077E
:1025D000C01770475B480168C968042200689143CE
:1025E000C160704757480168C968082200681143F4
:1025F000C160704730B4534C2568AA6722681062E6
:102600002068436220688162216801200867206891
:10261000406FC10707D000BF00BF00BF00BF2068E8
:10262000406FC107F7D14007800F01D00020C043A1
:1026300030BC704743480168C9680822006891436C
:10264000C160704710B40378C278194643783D4C96
:102650001B02194383781B041943120611431022ED
:102660002368D14180339961011D0A7810464A7868
:10267000120210438A78C9781204104309060843ED
:10268000D8612068C068202108432168C86010BC58
:1026900070472C4A13681862106841621168012063
:1026A000803108614869C20706D000BF00BF00BF83
:1026B00000BF4869C207F8D14007800F01D0002051
:1026C000C04370471F480168C968202200689143D1
:1026D000C16070471B480168C96810220068114337
:1026E000C160704730B4174D5B1F2C688034A36005
:1026F0002B68186228684262286881620120206085
:102700006068C10706D000BF00BF00BF00BF60689F
:10271000C107F8D14007800F01D00020C04330BC72
:10272000704708480168C968102200689143C16079
:1027300070470000C47E01004000341201003412D2
:1027400000003412C87E010010B51F4902200A683B
:1027500010650868012202660B68102058670B6834
:102760001A4858660B6800209866086880308260B6
:1027700090234360436813434360FF200A6803309B
:10278000106609680866032000F046F8002103205F
:1027900000F021F8002010BD10B5032000F046F82D
:1027A0000948FF21026801311166026800211166A3
:1027B000026810219167006802214165002010BD68
:1027C0000349002008707047B47E01000610000025
:1027D000D808002070478207D30EFF229A409B1D25
:1027E000994003071B0F9B089B00002808DA2F481D
:1027F000006818184369114093430B4343617047C5
:102800002B4800681B1803200002181803681140A9
:1028100093430B4303607047C206D20E01219140DF
:10282000234A40091268800011507047C206D20E38
:10283000012191401E4A40091268800080188030B2
:1028400001607047C206D20E01219140184A40092A
:10285000126880008018FF30813001607047144991
:10286000096808607047124909688031086070473C
:102870000F480068006870470D490968FF318131D1
:1028800008607047094800688068704707490A680F
:1028900092680968886010467047044A1268926816
:1028A00010308300D058D15070470000A47E010042
:1028B000A07E010010B502210C20FFF78CFF10BD97
:1028C000B54801688A68B54903680A439A60026896
:1028D000D26800680A43C260704710B4AE4801680D
:1028E0008B6801221203AE49934304680B43A36033
:1028F0000368DB68006893430B43C36010BC7047F8
:10290000A84881B00168096F8905FBD40168896E08
:10291000C90707D0016880314A6800924A68009B65
:102920009A42FBD00168096F890502D402689E496A
:10293000116600689D49816601B0704799498D22F2
:102940000B6892019A660A68126F0B68DA660028B3
:1029500000D1012000043722000A120682180868FC
:10296000426691220868120680300260C8E78D48EE
:1029700081B00168096F8905FBD40168896EC907B8
:1029800007D0016880314A6800924A68009B9A42E9
:10299000FBD08D2100688901816601B070477E48B7
:1029A00000688068C00401D4002070477D4800683A
:1029B000806EC007C00F70477A480068406E000202
:1029C000000C70477748006880304068704710B549
:1029D0000C20FFF737FF0C20FFF71EFF7149022084
:1029E0000968486710BD10B56E49032009688867FB
:1029F0000C20FFF71BFF0C20FFF724FF10BD6C4AD3
:102A0000116810600846704710B566480168096F84
:102A10000068C16666480068002800D080476548A5
:102A20000168012212031143016010BD6048406833
:102A3000704770B5584801688A68584903680A4366
:102A40009A600268D26800680A43C260554C03204D
:102A5000216888670C20FFF7E9FE0C20FFF7F2FEE3
:102A600000F09CF9544D042128688030816053495E
:102A7000C16072B68D202168800188662068006F71
:102A80002168C86621684E48486620689121090679
:102A900080300160FFF734FF01202968400208669A
:102AA00062B670BD38B572B63E490868006F8005E1
:102AB000FBD40868806EC2073A4800688030002A5C
:102AC00005D0426800924268009B9A42FBD08D225A
:102AD000096892018A66384901220B6852041A6615
:102AE00062B60968FF31FF31023149682A4D002979
:102AF0003BD0324A2E4C511AA1602A6892692B6849
:102B00001207DB69120F1B071B0FD218121D914011
:102B10002C4A2D4B8A189A4227D240682B4A101A09
:102B20001204E060904220D2000410F0CEFFFF219A
:102B3000CA3148437D21C9002061884200D208463D
:102B4000234B9968002900D19860596819609A68E8
:102B50005A60986091421AD9814205D9824201D9BE
:102B6000626002E0606000E0616000F028F92868BF
:102B70008068012109030A4A88432B681043986042
:102B80002868C068884329681043C86038BD8142FE
:102B9000EAD88242E6D8E3E7C47E0100001034128E
:102BA00000003412D07E010071C0000041230000FB
:102BB000DC080020D0080020CC7E0100FFFF0000D0
:102BC00000FFFF37CF8AFFFF2F6E160001000100C4
:102BD000E00F0020144801688968144A0068114316
:102BE0008160134801684969012252021143026859
:102BF0005161016809690422114302681161016889
:102C00000969102200681143016170470849096889
:102C100088607047BFF34F8F054906480968C86050
:102C2000BFF34F8FFEE70000C47E010004003412A2
:102C3000A47E01000400FA05264801688968264A36
:102C400000681143816025480168496901221143E8
:102C5000026851610168096B032212039143204A03
:102C60001143026811630168096A03680A091D4972
:102C700012010A431A621C4A8B1E1268C03253604A
:102C800000680165704715480068006970210840B8
:102C9000704712481549026811630268144951636C
:102CA0000168496C01225204914302685164016831
:102CB000496C104A1143026851640168496C012251
:102CC00012040068914341647047044800684068FA
:102CD00070470000C47E010004003412B87E010079
:102CE00000205FA003005FA0C07E0100C08C5FA039
:102CF00095995FA0FF030000022801D300207047D0
:102D0000A24B820098589950704770B5A04C20682B
:102D1000006F9E4DC00706D021680120C866286854
:102D2000002800D080472068006F800706D5216802
:102D30000220C8666868002800D0804770BD10B5C2
:102D4000944801688A68944903680A439A60026853
:102D5000D2680A430168CA608D4902220B681A656D
:102D60000C68012323660C680323E36609684A653F
:102D7000016889688023894A994304681143A160E6
:102D80000168C968006899431143C1600920FFF7D1
:102D900043FD02210920FFF71EFD10BD7D4801689B
:102DA0008A687D4903680A439A600268D2680068AD
:102DB0000A43C2607649022009680865704710B46A
:102DC0007349022009684865724801688B68802150
:102DD000724A8B4304681343A3600368DB6800688E
:102DE0008B431343C36010BC70476A480068806817
:102DF0000006C00F704766480168096F890504D551
:102E000003210068090201667047FF210068013153
:102E10000166704770B55E4D2868C06F800703D5A6
:102E200029680320486702E029680120486700F00C
:102E3000DFF858490A68926909681207120FC969D0
:102E4000D0400907090FC840052110F03EFE2C684C
:102E50008521890080340009216010F078FF504AF4
:102E6000504B10F077FF10F025FF60602868006F6E
:102E7000800504D5032029680002086670BDFF2084
:102E800029680130086670BD41480168096FC905AD
:102E900004D503210068090201667047012100681A
:102EA00049020166704770B5394D2A68D26FD20762
:102EB00003D02B6803225A6702E02B6802225A676C
:102EC0007D23FF22DB002D3258434A43401AA021C4
:102ED00048430226002480180A2110F0F6FD2D49EF
:102EE0000A68926909681207C969120F0907090F70
:102EF0005118C840052110F0E8FD2B49884204D93B
:102F0000641C4008E4B28842FAD8320222431021FD
:102F10000A43296880318A60C8602868006FC0054C
:102F200004D5032029680002086670BD01202968C5
:102F30004002086670BD16480168096F890304D510
:102F40000321006809040166704701210068090433
:102F5000016670470E480168096FC90304D5032153
:102F60000068090401667047012100684904016690
:102F7000704707480068006FC005C00F70470448DD
:102F80000068006F8005C00F70470000F008002047
:102F9000CC7E0100C47E0100800034120000341297
:102FA0007B14AE47E17A843FFFFF000023490020F5
:102FB0000A6890600968086021494860704710B548
:102FC0001E4C216848602168002088600221401E54
:102FD000FFF701FC21680720086010BD1749002099
:102FE00009680860704716480188491C01807047CD
:102FF000134880687047F8B5114E002704463780A3
:103000007D21C900B06810F060FD0C4D401E29689C
:103010004860286887600221C81EFFF7DCFB29682A
:10302000072008603088A042FCD328680760F8BDFC
:103030000449484302498860704700009C7E0100B3
:10304000F808002040420F00704770B5294C054633
:103050008D2021688001886621680320C866216868
:10306000254848662168254808662068244980303C
:10307000016021682348886602210020FFF7ABFB2E
:103080000020FFF7C9FB002D05D02068806E1E4987
:1030900008432168886670BD10B516480121026892
:1030A00091678D210068890181660020FFF7BEFBD2
:1030B0000020FFF7C7FB10BD0E49012009684867D3
:1030C00070470C49012009688867704709490B4817
:1030D000096808667047074881B0026807491166A9
:1030E0000168096F0268D1660068006F009001B046
:1030F00070470000AC7E01000738393771C000000E
:10310000009C1C91462300004123000070B5FF4C39
:10311000002501262570B60265703146FC4810F086
:10312000D2FC3146FB4810F0CEFC6560A57038211A
:10313000F94810F0C8FC3821F84810F0C4FCE570DC
:103140005821F74810F0BFFC5821F64810F0BBFC9E
:10315000A56070BDED488078002800D00120704740
:10316000EA48C078002800D001207047E74840783E
:10317000002800D001207047E948704770B5EA4D3B
:10318000EA4E044601462A783078E54B1018420092
:10319000184610F030FC28783278E24B8018420054
:1031A0002146184610F027FCD8490120C87070BD90
:1031B000D64880687047D6487047F1B5D34E31780D
:1031C000002901D0DA4800E0DA480029047801D06B
:1031D000D94800E0D948274605786F43FFF7E4F85F
:1031E00029462046FFF743F9C949CA4A0846009BC9
:1031F000FFF75CF9FFF7EBF87A00C648009910F08A
:10320000FAFB01207070F8BDF8B5C04D04460146C8
:103210002878BF4BC64E002801D0327801E0C54A5D
:103220001278C54F002801D0387801E0C3480078F3
:1032300042435200184610F0DEFB2A78B54821467A
:10324000002A01D0337801E0BA4B1B78002A01D064
:103250003A7801E0B94A127853435A0010F0CBFB98
:1032600001206870F8BDA9484068704770B5B44C3B
:103270000546207829464200A74810F0BCFB20787C
:1032800029464200A54810F0B6FBA04901208870ED
:1032900070BDF0B5FFB09D4DFFB091B0687809905A
:1032A000A8780890E8780790FDF72AFF0E90FEF7BF
:1032B000C0F80D90FDF728FF0020FDF778FB0C907B
:1032C000FEF7D3F800240127069403F0D1FE01286D
:1032D0000FD06D462846FEF76BFA00287DD02846B1
:1032E00004F043FB0298002820D00898002803D05F
:1032F0001CE00120069070E1002C1ED0029EFFF71A
:1033000053F88F4D01212878FFF7B1F882493346F1
:10331000824A0846FFF7CAF8FFF759F8287831467D
:1033200042007E4810F067FB7848877001980028BB
:103330007BD00998002811D0AFE0814D029E2878FB
:1033400031464200744810F056FB2878314642005E
:10335000724810F050FB6D488770E7E76B48019D9D
:10336000007800283CD169484668002E20D070487B
:10337000017871480B9101780A91FFF715F80A99C5
:103380000B98FFF77DF8294632460846FFF7BBF851
:10339000FFF71DF86B480078022802D1304604F090
:1033A000C2F868480078092802D1284604F0BBF822
:1033B00065480078012813D9624E3078042802D17C
:1033C000284604F0B0F829460FA811F087FB0546FF
:1033D0003078052804D1284600E0FBE004F0A3F88B
:1033E000002C06D0494A0A95107800282DD0504963
:1033F0002CE0464E464B30782946002801D04C4AF6
:1034000000E04C4A0028127801D04B4800E04B48BD
:10341000007842435200184610F0EDFA29463578FC
:103420003C4B002D02D0424801E036E04148002DDF
:10343000027801D0404800E0404800784243520002
:10344000184610F0D8FA777020E03A4900280E7834
:1034500001D0394800E039483146057869430B917D
:10346000FEF7A2FF29463046FFF701F82849294A0E
:1034700008460A9BFFF71AF8FEF7A9FF0B992548A3
:103480004A000A9910F0B7FA204847702D48007892
:10349000032802D11E4804F046F80498002875D08D
:1034A0000798002872D11948049D0078002828D177
:1034B00016488668002E24D01B4801781B480078E7
:1034C0000818401C40080B9002200A90FEF76CFF81
:1034D0000A990B98FEF7D4FF294632460846FFF7B3
:1034E00012F8FEF774FF19480078022802D130461E
:1034F00004F01EF915480078092802D1284604F086
:1035000017F9002C43D02E46074821E0040900207B
:10351000EC0F0020EC130020EC17002024180020F2
:103520005C180020B41800201B0900201C09002092
:1035300019090020160900201A0900201709002087
:103540001D09002089090020180900208E0900208B
:103550000178DF4800780D18FEF726FF681C400848
:103560000221FEF784FFDC493346DA4A0846FEF7BB
:103570009DFFFEF72CFF6A003146D64810F03BFA5B
:10358000D648C770D6480078032818D01AE0D54826
:10359000D14B0278CE4829460078101842001846D0
:1035A00010F029FACF4ACA4B12781B78C948D218B2
:1035B0002946520010F01FFAC848C770E2E7C64813
:1035C00004F0B6F8FEF720F9641C042C05D2FDF7D0
:1035D0004CFF7AE600F06BFE77E6FDF795FD0C9860
:1035E000FDF7E5F90E98002807D00D98002802D0C5
:1035F000FDF73BFF01E0FDF722FF0698002806D00B
:10360000B64909984870089888700798C870069855
:103610007FB07FB011B0F0BD10B50024FDF706FFFC
:10362000AE49820709D54A78002A00D10124420711
:1036300003D58A78002A00D10124C20705D0C0062C
:1036400003D5C878002800D101240020002C02D026
:103650000870FFF71EFE10BD08B50F2100F0C0FE78
:10366000012804D1FFF7D8FF009000F0CFFF9B485E
:103670004178002907D0C178002904D0807800283B
:1036800001D0012008BD002008BDE5E7704793493F
:10369000002048708870C870704710B50124A402DB
:1036A0002146914810F00FFA2146904810F00BFA8D
:1036B00010BDFFB5894981B009780A98002901D069
:1036C0008B4900E08B49C71A0C781E4625467D437E
:1036D0006643FEF769FE39462046FEF7C8FE0199AB
:1036E0007000471881493B4646187F4932464018CA
:1036F0000146FEF7DBFEFEF76AFE6A0039463046F9
:1037000010F079F9754801214170084605B0F0BD07
:10371000002800D001207149487070476F49486007
:10372000704710B53821744810F0CDF9382173482E
:1037300010F0C9F910BD70487047002800D0012072
:1037400066498870704710B55821634810F0BBF97E
:103750005821604810F0B7F910BD002800D00120B2
:103760005E49C87070475D498860704710B5002297
:103770005A4900284A708A70CA7000D00120087027
:10378000FFF787FD10BDF0B58BB0FDF74FFE044687
:10379000FDF7BAFC0020FDF70AF90890FDF765FE79
:1037A00000200790069003F063FC012845D068468E
:1037B000FDF7FEFF00284BD0684604F0D6F8A007BE
:1037C00014D54948019E84460246494805784C482C
:1037D000017800204D43002D08D94100735A575AF3
:1037E000401CDB1967467B528542F6D8E0071AD0A9
:1037F000E00618D53B4938480A783549049E0978CF
:1038000084465118491C4D08022200216B00002BF0
:1038100009D955434A00B35A875A491CDB196746F0
:10382000BB528D42F6D8FDF7EFFF0798401C07907A
:10383000102804D2FDF719FEB5E701200690FDF728
:1038400063FC0898FDF7B3F80698002803D039E028
:1038500000F02DFDA7E7A00718D523480990089090
:103860002348002507782648007847431020002F7A
:103870000CD900B2079008986E00805F079910F08D
:1038800032F909996D1C8853BD42F4D3E00719D071
:10389000E00617D5104808900790124800240178D8
:1038A0000B4800780E181020002E0BD907B207988D
:1038B0006500405F394610F016F90899641C4853BA
:1038C000B442F4D306980BB0F0BD0120704700005D
:1038D0001C090020B41800205C18002004090020F6
:1038E0008E0900201B090020EC0F0020EC130020A3
:1038F0001909002016090020EC17002024180020C8
:103900001A090020F3B5002284B0029201920092BD
:103910000223865EC35E15461446F11A00D5991B34
:103920008EB205991C2349000F18203F1E21795E95
:10393000FB5ECF1A00D55F1AB9B2082E06D308294C
:1039400004D301218E460599891E03E000218E468D
:103950000599491E0BB271469E452DDC4E0003961B
:10396000875F029EBC46B74202DD0297CFB2009746
:1039700071451DDD039F3F183E46203E1E27F75F21
:103980006646BE1BF61D0E2E03D8521CD2B29942BB
:103990000ED195420BD21546994203D10E2E01D875
:1039A0004CB201E04C1E64B2621B52B20192002282
:1039B000491C89B29942D1DD0598001F854208DD76
:1039C00001990098884204DBA04202DC002006B086
:1039D000F0BD012006B0F0BD70B5FF4AFD49147876
:1039E00006466200121809781046FFF78BFF05465D
:1039F00021463046FFF786FF0022F849002D03D00C
:103A0000002801D00A7008E00878401CC0B2087095
:103A10000A2802D90A70002070BD012070BDF3B5DC
:103A20008DB00E990B9106A909910D9802A90891E4
:103A300003A9079104A90591E649002309780A9191
:103A4000E549C35E0A786E465100455E00210C913F
:103A500032833181B2818E46318201219C462C46CF
:103A6000012A29DD4E000096875F674500DDBC46D0
:103A70009F4202DA059E3B463180009E3718203F68
:103A80001E26BE5F009F0196C75F0097F61B01D5FB
:103A9000019EBE1B37B20C9EB74209DD0C97019FF9
:103AA000009EB74201DD4F1E00E00F46089E3780A2
:103AB000491C09B29142D5DB511C0A9E09B2B218C9
:103AC00001928A4224DD4A00865EAE4200DD354620
:103AD000A64202DA3446079E31801718203F1E2680
:103AE000BE5F0096825EB61A01D5009E961B36B266
:103AF000764508DDB646009E964201DD4A1E00E08E
:103B00000A46099E3280491C019A09B28A42DADCCF
:103B1000B3482A1B00680124FF300130C17F8A426C
:103B200009DD6246D21A8A4205DD817F714502DADB
:103B30000C9A914223DB099900228A5E0B9952006C
:103B40008A5E1C21415E8A4219DC07980022825E4F
:103B50000B985200825E4842824210DB089A002392
:103B6000D35E0B9A5B00D25E8A4208DC0599002284
:103B70008A5E0B995200895E814200DB0024012C91
:103B800018D16D4610210C20695E285E01910090CD
:103B900008231822EB5EAA5E0E990D9800F061FAD8
:103BA000A51E012800D12C460D98FFF715FF00280F
:103BB00000D12C4620460FB0F0BDF0B5884E04462B
:103BC000316889B0FF312131087900280CD0088B89
:103BD000002809D0FDF76DFC3168FF3121310979EA
:103BE0000FF073FF002902D0012009B0F0BD079447
:103BF00001F064FD0490FFF7DBFA044630681821F9
:103C0000FF302130415E06911A21415E04980591F2
:103C100000286CD073480078102802D1049803F073
:103C200087FD6C48002503786B48002C027812D081
:103C300000209F18002F0ED93168FF3121310E89E5
:103C40000021615EA41C002900DA4942B1424FDC28
:103C5000401C8742F4D8002001920546039302924B
:103C60000090A90068464058002686464200079802
:103C700002AF1218935F7F58921C0120B4461C4675
:103C8000012F0DD90021515E921C8C4201DA0C46A5
:103C900084468B4201DD0B460646401C8742F1D824
:103CA000E01A01B2069881421EDB70466044420071
:103CB0000498825A7046801943000498C05A101A1A
:103CC000081A00B2002801DA424200E00246002948
:103CD00000DA49428A4207DA002800DA40420599B0
:103CE000884201DA002503E06D1C022DB9D30125BD
:103CF000002D01D101F0EDFC284609B0F0BDF7B56B
:103D00000446394888B00578384800780590062080
:103D10000690002006460390009001900290FFF765
:103D20004AFA049006F06DFD002810D00AF053FF07
:103D300008280CD10020024601466943049B490033
:103D40005A52099B401C80B25A520428F4D9059853
:103D50000022002838D906988100401886460020A5
:103D6000002D2CD9114669438C4661460918090477
:103D7000C90B615E002901DA4B4200E00B46734536
:103D800019DD002902DD761C36B207E0039B5B1CBF
:103D90001BB20393002901DA4B4200E00B46009F5F
:103DA000BB4208DD002901DA4B4200E00B461BB2A2
:103DB000009301920290401C80B2A842D5D3521CBD
:103DC000059892B28242CAD3019A02986A431018A7
:103DD00001900DE01B0900201C09002010090020A3
:103DE000040A00208E09002016090020170900206F
:103DF0004000215E002086466D1EA8B20090029809
:103E0000AC4600281ED013189BB200290BDD5B00C6
:103E1000E75E1B19203B1E255D5F7B1B0ED5401EF8
:103E200080B286460EE0002908DA5B00E75E1B19C7
:103E3000203B1E255D5F7B1B002BF0DC401E000439
:103E4000000CE0D1029860451CDA13189BB20029DF
:103E50000ADD5D00635F2F1902257D5F5B1B0DD5B9
:103E6000401C80B200900DE0002907DA5D00635F1E
:103E70002F1902257D5F5B1B002BF1DC401C80B2FB
:103E80006045E2DB0398304369D0002E02D10398ED
:103E9000002862DC714651180C040099E50B51189A
:103EA0000B040198049C099E00040499645BC00BF8
:103EB000775B0A5A0999DD0B095AA446E419765B27
:103EC0005018049B041B5B5BCF1B9D19401B2018E3
:103ED0006446141B891BD21A7918A21809B200B2C1
:103EE00012B2002901DA4B4200E00B46002801DA49
:103EF000444200E004461B1B09D5002800DA40427A
:103F0000002901DA4B4200E00B46C01A08E0002904
:103F100001DA4B4200E00B46002800DA4042181A52
:103F2000002901DA4B4200E00B46002A01DA544234
:103F300000E014461B1B07D5002A00DA5242002974
:103F400000DA4942511A06E0002900DA4942002A03
:103F500000DA5242891A884203DD0020C0430BB0C8
:103F6000F0BD01200BB0F0BDF1B584B00020AC4C29
:103F7000009001902068FF302130017900296DD038
:103F8000008A00286AD0FDF794FA21460968FF31BB
:103F9000213109790FF099FD00295FD101F019FB5A
:103FA000029000285AD09F480078102802D1029829
:103FB00003F0B9FA9C48002506789C482C460778FF
:103FC0000498002F1ADD0022825E801C0121012E40
:103FD00011DD0023C35E801C9A1A12B2002A00DA97
:103FE000524212B2AA4202DD154600940191491CC8
:103FF0001A46B142EDDB641CBC42E4DB884802682F
:10400000FF322132108AA84228DC009801997043BF
:104010004018049940000B5A41182039C98B591A8D
:10402000029B09B21C5AC0182038C08B201A081AEB
:1040300000B2002801DA434200E00346002900DA1A
:1040400049428B420ADA002800DA4042518A88420B
:1040500004DA01F03EFB002005B0F0BD012005B000
:10406000F0BDFFB50F460446724971480D780078DF
:104070008DB040190A90401E0790681E05900F9859
:104080000021069504914000205E0C90109840009D
:10409000205E0B9000200390029109900090019007
:1040A0000890FFF769F80646109800280BDB0B997B
:1040B00089104200A25E8A4201DA049003E0401EA9
:1040C00000B20028F5DA1098A8420BDA0B99891093
:1040D0004200A25E8A4201DA059003E0401C00B271
:1040E000A842F5DB0F98A8420BDB0C99891042001F
:1040F000A25E8A4201DA069003E0401E00B2A842A6
:10410000F5DA0A990F9881420CDD0C998A1041006A
:10411000615E914201DA079004E0401C0A9900B206
:104120008142F4DC07990698884226DA4100CD19CD
:1041300002237A5EEB5ED51A00D59D1A039A0223FC
:10414000AA1812B203928D19725EEB5ED51A00D5D1
:104150009D1A029A0223AA1812B20292625E0919EB
:10416000CB5ED11A00D5991A099A401C891809B258
:104170000991079900B28842D8DB059904988842D2
:1041800026DA4100CD1902237A5EEB5ED51A00D5FE
:104190009D1A019A0223AA1812B201928D19725E19
:1041A000EB5ED51A00D59D1A009A0223AA1812B206
:1041B0000092625E0919CB5ED11A00D5991A089A4D
:1041C000401C891809B20891059900B28842D8DBD1
:1041D00003990298411A09984010814219DC01990B
:1041E0000098411A08984010814212DC06F035FB15
:1041F000002811D116984000325E09480168FF205E
:104200001D30085E824204DC17994900715E8142CC
:1042100002DD012011B0F0BD002011B0F0BD0000A2
:10422000040A00208909002016090020170900202F
:104230001B0900201C09002010B504F095FC04F0B7
:104240000DFD002010BD0000F5480078704710B546
:10425000F3480078022803D0052804D0002010BDC0
:1042600006F01FFA10BD03F0E9FC10BDEC49087020
:10427000704710B50446062818D203007B441B790A
:10428000DB189F441102060E110A084600F0D8F907
:104290000AE0084606F0F9F906E0084603F0C2FC19
:1042A00002E0084605F0B6FFDD48047010BDDD49A8
:1042B00000200968496EC90503D510B5FDF737FE22
:1042C00010BD7047D74900200968496EC90503D55C
:1042D00010B5FDF742FE10BD7047D24900200968B5
:1042E000496E890503D510B50FF0BAFF10BD7047B0
:1042F000CC4900200968496E490503D510B50FF077
:10430000EAFF10BD7047C6494878002801D0401E1A
:104310004870704770B5C4480168C031C868C04C67
:10432000820707D0C14A104388606078002801D115
:1043300001206070BE4800688068BA4D8007296817
:1043400007D4BC4800684069C00702D060780028E4
:1043500006D0496E0020C90508D5FDF7FEFD05E031
:10436000496E0020490501D50FF0B5FFB24908425A
:1043700004D02968496E0902090E617070BD10B53C
:1043800072B6FEF789FEFEF745FC10BD10B5FF20A2
:104390004002FDF786FE72B6FEF77EFEFEF73AFC9F
:1043A00010BD9F48006970479D48C06870479C4990
:1043B000486170479A4840697047994988617047D9
:1043C00097488069704710B5964802681346118A6D
:1043D000508AFF33FF3261334132FDF7C7F810BD19
:1043E000F0B58F4E99B00D46306104F01DFBF060C2
:1043F000040031D02078B0706178F1708C46A378D9
:10440000411CFE22337111407171E278B271217941
:10441000F17161793172894900270F704F702178ED
:1044200071726146FDF7A1F9317AF079FDF7AFF9C4
:1044300008A9204604F014FB608A7769002801D09F
:1044400047433F0B7648012180690790608B090341
:1044500000280BD005900AE072480068406EC00545
:1044600001D5FDF77AFD002019B0F0BD05910020BF
:104470000691A90700D51120690701D50A21084333
:10448000290701D504210843E90701D02021084369
:10449000666A69460640089800900C98019010984A
:1044A000029000200490099803903046FCF719FF11
:1044B000B00758D503F0EBFF05001DD003F0FDFF5A
:1044C00047433F0B29460020FCF798FA218A002930
:1044D00002D00020FCF7EEFA04F00EF80799082548
:1044E0004143080B0121C9024018010A012210466C
:1044F000A840084206D103E0A589002DE2D1E5E7F6
:104500006D1EF4D5A07B2D1F002801D0401E02E0B7
:104510000020FCF7B3FB0790E07B002801D0401E91
:1045200002E00020FCF7F6FB07994919042903DD96
:104530006D1A2D1D042103E0002901DA6D1A0021F6
:104540004519042D03DD2D1FEF40042504E0002D47
:1045500002DA6842874000250020FCF7AEFB2946BE
:104560000020FCF7F0FBF00726D0A18A002902D03A
:104570000120FCF743FA258B002D07D029460120A6
:10458000FCF798FA29461120FCF794FAA57D002D36
:1045900007D0691E0120FCF790FB691E1120FCF773
:1045A0008CFBE57D002D07D0691E0120FCF7CBFBBD
:1045B000691E1120FCF7C7FBE07A002802D0000139
:1045C000FCF7A3F90A9803F04AFC0B98002807D0DF
:1045D000044613483B46C2788178204603F04CFCE1
:1045E0003846069A059903F0CEFC0D98FFF796F829
:1045F0000E9800F069FFF00605D51198FFF7B3F8A3
:10460000129800F0F1FF012019B0F0BD10B5FCF7D1
:10461000DCFE03F02EFC02490020C860012010BD22
:1046200014090020040A0020C07E010000005FA0E1
:10463000C47E0100B87E0100080003001E090020AE
:10464000F94948707047F8484078704730B4F748E7
:10465000F74A0168914214D1FF2241681132914218
:104660000FD884680022A50803461146002D09D9F9
:10467000A4088D005D59491CAA188C42F9D8002A5B
:1046800000D0002030BC704710B5E848FDF709FDA8
:1046900010BDE549012048707047E34900200870CB
:1046A0007047F3B5E1B000203C904A90499072B653
:1046B000FCF7BCFE0546FEF798FB002809D0FEF784
:1046C00058FC4A90FEF737FCFEF759FC4990FEF77C
:1046D00041FCFCF7F5FDFCF713FD5390FCF7A9FE38
:1046E0005290FCF711FDFEF75AF95190FEF73FF991
:1046F00093204001FEF7C0F862B6002130AC8A007A
:104700000020491CA0500629F9D3CA490120096894
:104710008003AA070F180126002A05DAE7210901FC
:10472000384630960FF0CFF9C24AC3481268E907FD
:104730001518002910D00721490228460FF0C3F9A7
:104740000120FBF7ECFD002800D032961120FBF78A
:10475000E6FD002800D03396309800282CD00020A9
:10476000FCF77BFA0090B548694600780871B448B8
:104770000078012801D9B34800E0B34800784871B7
:104780000020FCF76EFB002801D00020C0430390FE
:10479000694662988871A448808808810020FCF7E7
:1047A000D1F969464881A3480597016806910168D7
:1047B00001204003081807903198FF2700282AD0CD
:1047C0000020FCF74AFA08909C4808AA007810716B
:1047D000567100200B90977193486A468088108527
:1047E0000020FCF7AFF96A465085507970210246E7
:1047F0004A4390490B68D318012292039A180D92EC
:104800006A46127909684243500040180121490361
:104810000E9040180F90329800282ED00120FCF7FF
:104820001CFA1090FBF7F5FE002801D0874800E045
:10483000874810AA007810710120FCF71FFA314652
:10484000814010AA51710120FCF7F6FAC043139081
:1048500010AA75489771C08810810120FCF772F981
:1048600010AA508173481595E7220168D200891873
:10487000169100687749401817903398002831D076
:104880001120FCF7EAF91890FBF7C3FE002801D0CD
:104890006F4800E06D4818AA007810711120FCF7ED
:1048A000EDF93146814018AA51711120FCF7C4FA84
:1048B000C0431B9018AA97715B4810AAC088108546
:1048C0001120FCF73FF910AA50855A48624A016846
:1048D00089181D91614A016889181E910068604914
:1048E00040181F900120FDF7B4F90120FCF7D7FA1A
:1048F0004F900020FCF74AFC4E900020FCF73BFC58
:104900004D900020FCF753F85090FCF7AEFD0020CE
:1049100042904190389039903C9800287ED102F026
:10492000A7FB01287AD04298802877D85AA8FCF7AC
:104930003FFF002873D05AA803F017F84198401C95
:1049400041906DD0002041904298401C4290002040
:104950008300012154AA401CD1500628F8D338986E
:10496000002806D001287DD002287CD0032855D10C
:1049700023E30020369039980422101A8446369892
:1049800030A980004790085800286DD03698399A91
:1049900041016846081800213F910168449101795E
:1049A0003D91417937910821415E409141693E91A5
:1049B0008169C06843906046002A1ED000287CDBD5
:1049C00037980025002877D96046083001228240B8
:1049D00060463B92C01D0122824046920120439ACC
:1049E000A840104000D001203A902846702670431D
:1049F00000223E9E1446861986E03798002500283E
:104A00005AD90120439AA840104000D001203A9082
:104A100000202A4670260446724302E002E3FCE2CC
:104A2000F5E23E9E961940E03009002000F30100B7
:104A300054435246D47E0100704E000019090020F4
:104A4000180900201A090020170900201B0900205E
:104A50001C0900203827000070550000B80A00002B
:104A6000B82A000068E07CE15FE00122449B8240BC
:104A70001A4217D082003B920027CF5F409BB25A68
:104A8000FB1A3A9F641C891C92B2002F00D05B4233
:104A9000002B02DD01231B031A430123DB021A430F
:104AA0003B9BF250401C1C2802D23D9A9442DCD31E
:104AB00037986D1C8542A4D32EE032E00120449B40
:104AC000904018421DD0900045900027CF5F409B3A
:104AD000305AFB1A3A9F641C891C80B2002F00D008
:104AE0005B42C70402D5002B02DB03E0002B01DD93
:104AF0003B9B98436346002B01DD469B1843459B37
:104B0000F050521C1C2A02D23D988442D6D33798CA
:104B10006D1C854200D261E76046002801D101206A
:104B20003F90479954AA3F9850503698401C369071
:104B3000062800D223E742E2002036903998082266
:104B4000101A4C90369830A980004B9008580028D5
:104B500073D03698399A410168460818002143916C
:104B60000579417906683791837908213D93415E43
:104B7000449141693E91C3688169459340893D9B59
:104B8000184046904C983A90002A1FD000286EDBBF
:104B9000002084463798002868D93A9A012090402E
:104BA0004090501E0122824048926246012090406F
:104BB000459A104000D001203B9060467023584336
:104BC00000223E9B1446C0183F9078E000208446A7
:104BD000379800287CD9624601209040459A1040C1
:104BE00000D001203B9060467023584300223E9B3A
:104BF0001446C0183F9031E00120904030422AD046
:104C000090003F9B4090185A0027CF5F449B641C44
:104C1000FB1A3B9F891C80B2002F00D05B42C70467
:104C20000CD5002B12DA0F231B02184001D0FF38DD
:104C3000013801231B03184308E08BE0002B05DD3E
:104C40000F231B02184001D0FF380138802318437E
:104C5000409F3F9BD851521C1C2A01D2AC42CBD35F
:104C60006046401C844637988445B4D330E034E035
:104C70000120904030421FD090003F9B4790185A2F
:104C80000027CF5F449B641CFB1A3B9F891C80B2AA
:104C9000002F00D05B42C70402D5002B02DB03E0EB
:104CA000002B01DD409B98433A9B002B01DD489B84
:104CB0001843479F3F9BD851521C1C2A01D2AC423B
:104CC000D6D36046401C84463798844500D26CE7B2
:104CD0003A98002801DD439839E00020844637984F
:104CE000002832D9FF213D980131081A40083F9031
:104CF0003D9808433B9061467023594300203E9BFA
:104D00000246CC1819E001218140314212D08100C5
:104D10003A91615A3F9F8BB2D9B279183B9F521C8E
:104D20003940469FB94200D939461B0A1B020B4342
:104D30003A996350401C1C2801D2AA42E3D3604632
:104D4000401C379984468842D5D3012043904B9923
:104D500054AA50503698401C3690062800D2F1E6EE
:104D60002DE100203690800030A94C900858002892
:104D70007DD0399848903698082241016846081835
:104D8000002144910168469101793F9141793B911D
:104D90008179825E4092426947928669C2693E92F9
:104DA0004589C0684590FF200130441A48980D405D
:104DB000C00715D0002037903B9800286FD937994D
:104DC000012088404599084000D001203D90379847
:104DD00070214843002247993A9240184390D0E00E
:104DE0000020FCF75CF807463F993B984843400099
:104DF000C01C8208920031463E980EF0FCFD3846F9
:104E0000FCF74DF8002037903B98002847D9379998
:104E1000012088404599084000D001203D903798F6
:104E2000702250430021479A3A9180183E9044E006
:104E30000120469A884010423CD03A980022401CFB
:104E40003A90B25E4098B61C131A3D98002800D0E4
:104E50005B4288003E9A4390105A82B21005D7B246
:104E6000000FBC46D70403D5002B03DB05E09DE013
:104E7000002B02DD63461B1B01E063461B19AB429E
:104E800006DD0F2802DA401C00230AE02B4608E06A
:104E9000002B06DA002803DD401E2B4601E07BE0F4
:104EA000002301273F033A40000202431A43439B79
:104EB0003E98C250491C1C2903D23F9A3A9890420E
:104EC000B6D337983B99401C379088429FD363E014
:104ED000012046999040084250D03A980021401C49
:104EE0003A903E98415E4098091A3E98801C3E9048
:104EF0003D98002800D049420023F35E4098B61C3C
:104F0000181A3D9B002B00D04042002901DA4B4289
:104F100000E00B46002800DA404298422ED990006B
:104F2000439B4B90185A83B21805DFB2000FBC4662
:104F3000DF0402D5002902DB04E0002902DD61461E
:104F4000091901E06146091BA94206DD0F2802DAB2
:104F5000401C002109E0294607E0002905DA002865
:104F600002DD401E294600E0002101273F033B40AF
:104F7000000203430B434B9943984350521C1C2A95
:104F800003D23F993A988842A2D337983B99401C64
:104F90003790884200D212E74898032801D24498FB
:104FA00001E0012044904C9954AA50503698401C7E
:104FB0003690062800D2D6E601E001203C9001237D
:104FC000002054A982008A58002A04D0401C0628D8
:104FD000F8D3012B02D03998401C17E038981F28CD
:104FE00013D2401C01460122389010468840619936
:104FF00008420AD13898401C3890032805D8014649
:105000001046884061990842F4D0002039903C98BD
:10501000002807D1FCF729FA81E4FFF753F93C98FF
:105020000028F9D0FCF770F80020FCF712FE4F982A
:10503000FBF735FF4E98FCF7A9F84D98FCF79BF865
:105040005098FBF7B4FC5398002807D052980028DA
:1050500002D0FCF70AFA01E0FCF7F1F9FDF7C5FE12
:10506000002809D04A98002801D0FDF7C4FE4998CD
:10507000002801D0FDF708FF5198002801D0FDF766
:105080003FFC3C98002802D0002063B0F0BD012016
:1050900063B0F0BDF1B5FFB0FFB00020BEB0064672
:1050A0000290D3E0304603F0BFFC00287ED0048994
:1050B000FFA88430006F0440FA48044276D00F21E4
:1050C0003046FFF78DF9002870D0FCF7AFF90546A0
:1050D000029800286BD128460E210840FCF7EAF818
:1050E00003210020FBF752FE029800285FD1E00761
:1050F0001BD0FC210F20FFF7D4FA0290FCF704F834
:105100000298002853D1FFF74FF907460420019079
:1051100003A80090FCF77CFB2C20C157009A019853
:1051200003F0BEFC0298002841D16007800F2BD00D
:10513000FEF729FB0290FBF7E7FF0298002836D123
:10514000A0070FD5FEF737F80746FFF72DF90346FE
:1051500005203A0003D02D21595603F0A1FC0298F6
:10516000002870D160070FD5FEF725F80746FFF736
:105170001BF9034606203A0003D02E21595603F0AE
:105180008FFC029800285ED1284611210840FCF7C8
:1051900091F80298002856D1E00620D5FF210F2073
:1051A000FFF77FFA0290FBF7AFFF01E04DE04AE026
:1051B0000298002847D1FFF7F7F807460820FFA913
:1051C0001031019000910120FCF777FB3020C1578E
:1051D000009A019803F064FC0298002833D160061D
:1051E000800F30D0FEF7CFFA0290FBF78DFF0298C8
:1051F000002828D1A00613D5E80603D5FDF7BCFF8B
:10520000074600E00027FFF7CFF8034609203A00E1
:1052100003D03121595603F043FC0298002812D1E3
:10522000600610D5E80602D5FDF7A6FF00E00020D5
:105230000446FFF7B9F80A25220004D03223195694
:10524000284603F02DFCFFF7E1F9761C03F0E8FB9C
:10525000B04203D90298002800D123E792490020E8
:1052600008700298002804D07FB07FB000203FB0C3
:10527000F0BD7FB07FB001203FB0F0BDF0B58A48EF
:10528000CDB04578FEF7E0FF01287DD18748362173
:1052900002683420515E105E03F01AF8A80774D536
:1052A0006C46FFF7D3F90026002811D001461EC92D
:1052B0006F461EC7014610311EC904AF1EC7836A60
:1052C000426A016AC06A0A93099208910B9017E03A
:1052D000FF22302120460EF0CFFB75480090FF20C2
:1052E0001130019030200290502004900020C043E3
:1052F00003960596069607960B900A9009900890DB
:105300006C4F3846FCF7CDFE0598401C05906A4866
:10531000FFF7C0FE012803D1FEF7D7FA012817D006
:1053200007980022401C0790502004901F21022063
:1053300004F0D1FE6C4603F053FB002812D08169C3
:105340000891C169099141690A91C0680B900FE009
:10535000280701D5A22000E0A12004900698401C57
:105360000690E7E70020C0430B900A900990089050
:105370004F480090FF201130019030200290002112
:1053800003960846A26801E038E020E09208830016
:10539000E358401C59188242F9D84E42FF22511C52
:1053A0000CA8E6600EF068FB2068A26861680CAB90
:1053B00047C3204610300FC810AE0FC620340FCCA4
:1053C00014AC0FC438460CA9FCF7C4FE0FE0E80784
:1053D0000DD03A48FFF75EFE012801D1FEF775FABD
:1053E000002804D101221F21022004F074FEFEF7E0
:1053F0004EF901212A46084604F06DFE01F034FE04
:105400004DB0F0BD2849888070472749C880704753
:10541000F8B50126FFF71AF9002804D00069A12881
:1054200003D0A22801D00020F8BD002403F0F8FA30
:10543000002835D91B4F204603F0F6FA00282AD061
:1054400005892846384226D00F212046FEF7C8FF9E
:10545000002820D0E8070CD0FCF702FA002808D179
:10546000FF202246013002431E21022004F033FEB9
:105470000026E8060DD50120FCF784FA002808D1A3
:1054800001202246000302431E21022004F023FED5
:105490000026FFF7BBF8641C03F0C2FAA042CAD88A
:1054A0003046F8BD3303000030090020040A002014
:1054B0005443524600F30100770700002202000027
:1054C00000207047002070478C49002888607FD0FA
:1054D0000A7892077CD4F0B5894AFFB01478894ADB
:1054E000FFB087B012788549874E0492CE60009055
:1054F000FDF7B9FE0290854807788548057885480C
:10550000017805A80391012901D9019000E00196D5
:105510000299002955D0394669434A0005A80099E7
:105520000EF069FA3B4605AA00950299019810F021
:10553000A1FC039801280FD9304601990FF0CEFA4B
:10554000B04209D06E496F4B0A7819784A43014638
:10555000520030460EF04FFA684800230499C068A4
:105560001E46002919D90025455F801C0121012C08
:105570000FD90022825E801C551B2FB2002F00DA4B
:105580007F423DB29D4200DD2B46491C1546A1429B
:10559000EFD30499761C8E42E5D35F480068FF3054
:1055A00021308089984202DD54480021C16053496E
:1055B00002220878104308707FB07FB007B0F0BDBA
:1055C00006E06F437A00009901980EF014FAB0E7F4
:1055D00070474A488168002902D00178890701D4C0
:1055E00000207047C068704744490028086164D0B3
:1055F0000978C90661D4F0B583B00190474948489D
:1056000002910578474800270478FBF70FFFC00692
:1056100002D5FDF7CDFD07462E19720001990298BB
:105620000EF0E9F9002F08D00220029A761C0090B3
:1056300073083946104610F01DFC029900200A5EDE
:10564000891C0123012C0FD900268E5F891CB21AF8
:1056500012B2002A00DA524212B2824200DD104633
:105660005B1C3246A342EFD300228A5E891C0123D1
:10567000012D0FD900240C5F891CA21A12B2002A36
:1056800000DA524212B2824200DD10465B1C224612
:10569000AB42EFD320490968FF312131C9898142EA
:1056A00001DC029801E000200290144910224861B8
:1056B00008781043087003B0F0BD70470F480169C7
:1056C000002902D00178C90601D400207047406942
:1056D0007047114809490068FF30213042798878C5
:1056E000401CC0B28870824207D210B5002088707A
:1056F00001210846FEF7BDFD10BD704730090020AE
:1057000016090020170900200C1900201909002093
:105710001A09002018090020040A00200C1D00208E
:105720001B0900201C090020704700207047580703
:1057300008B5400F012805D16946087002460A20C5
:1057400001F075FC002008BD580708B5400F01287E
:1057500006D100206946087001220A2001F067FC8A
:10576000002008BD580710B5400F012801D1FEF7F1
:1057700006FE002010BD580708B5400F012806D1CD
:105780000320694608700122002001F050FC00202F
:1057900008BD580708B5400F012806D10B206946FF
:1057A00008700122002001F042FC002008BD5807CB
:1057B00008B5400F012805D169460870024600204F
:1057C00001F035FC002008BD1FB5580708D1684618
:1057D000007AF02807D0012202A9062001F027FC58
:1057E000002004B010BDFEF74FFFF9E71FB55807C2
:1057F00004D1012202A9104601F019FC002004B0D6
:1058000010BDFFB5074681B05807400F0026FE4D7A
:105810000A9C012802D0022806D002E00520A870C8
:105820002E81002005B0F0BDA878052818D1288960
:10583000A0420CD2FDF749FAAC216A461170010A68
:10584000517090702889115C3970401C288180B299
:10585000A04205D12E810298012101700320A87079
:10586000012005B0F0BDF8B55A07520F0026E74CED
:10587000E54D069F012A02D0022A45D042E0FDF7FD
:1058800024FA0521A9702268AC2111702268010A4E
:10589000517021688870DE4822680168897CD17067
:1058A00000682268017C1171017E49070ED5C18A0A
:1058B0002268090A51712268817D9171818A22686A
:1058C000090AD1712268017D11720DE0818A226876
:1058D000090A51712268017D9171C18A2268090A01
:1058E000D1712268817D1172226820215172226853
:1058F000022191722168CE7221680E732168007EA8
:1059000048732E810020F8BDAA78052A0FD12A8974
:10591000BA4204D223689B5C0370521C2A8190B265
:10592000B84204D12E81012008700320A870012004
:10593000F8BD70B45D076D0F0024B44BB24E039AEE
:10594000012D02D0022D3FD03BE00220B070FF209D
:10595000348140020168880A85028D4200D0401CD3
:105960008000081AC01C8008AA4980000F25411831
:105970006D03A8421DD80E78CD7830464E782D069E
:10598000360230438E78360430432843CD78000207
:10599000000A2D062843A04DA8420AD10020002A63
:1059A0000FD90C181D6824792C54401C9042F8D350
:1059B00007E00020002A04D919680C54401C9042CA
:1059C000FAD370BC00207047B578022D0FD135890D
:1059D000954204D21B685B5D03706D1C3581A8B2D3
:1059E000904204D13481012008700320B07070BC53
:1059F0000120704770B45D076D0F0024834B824E09
:105A0000039A012D02D0022D59D055E00220B0702A
:105A1000FF20348140020168880A85028D4200D04F
:105A2000401C8000081AC01C81087A4889000F2594
:105A300008186D03A94237D80678C57831464678EC
:105A40002D06360231438678360431432943C57822
:105A50000902090A2D0629436F4DA94224D11A686B
:105A6000017C11701A68417C51701A68817C9170B8
:105A70001A68C17CD1701968027A0A711A68417A71
:105A800051711A68817A91711A68C17AD1711A6854
:105A9000017D11721A68417D51721A68817D91727F
:105AA0001968C07DC87207E00020002A04D919686F
:105AB0000C54401C9042FAD370BC00207047B5785B
:105AC000022D0FD13589954204D21B685B5D0370AE
:105AD0006D1C3581A8B2904204D134810120087038
